:0300000001fffffe
:0300010001fffffd
:0300020001fffffc
:0300030001fffffb
:0300040001fffffa
:0300050001fffff9
:0300060001fffff8
:0300070001fffff7
:0300080001fffff6
:0300090001fffff5
:03000a0001fffff4
:03000b0001fffff3
:03000c0001fffff2
:03000d0001fffff1
:03000e0001fffff0
:03000f0001ffffef
:0300100001ffffee
:0300110001ffffed
:0300120001ffffec
:0300130001ffffeb
:0300140001ffffea
:0300150001ffffe9
:0300160001ffffe8
:0300170001ffffe7
:0300180001ffffe6
:0300190001ffffe5
:03001a0001ffffe4
:03001b0001ffffe3
:03001c0001ffffe2
:03001d0001fffee2
:03001e0001fffee1
:03001f0001fffee0
:0300200001fffedf
:0300210001fffede
:0300220001fffedd
:0300230001fffedc
:0300240001fffedb
:0300250001fffeda
:0300260001fffed9
:0300270001fffed8
:0300280001fffed7
:0300290001fffed6
:03002a0001fffed5
:03002b0001fffed4
:03002c0001fffed3
:03002d0001fffed2
:03002e0001fffed1
:03002f0001fffed0
:0300300001fffecf
:0300310001fffece
:0300320001fffdce
:0300330001fffdcd
:0300340001fffdcc
:0300350001fffdcb
:0300360001fffdca
:0300370001fffdc9
:0300380001fffdc8
:0300390001fffdc7
:03003a0001fffdc6
:03003b0001fffdc5
:03003c0001fffdc4
:03003d0001fffdc3
:03003e0001fffdc2
:03003f0001fffdc1
:0300400001fffdc0
:0300410001fffcc0
:0300420001fffcbf
:0300430001fffcbe
:0300440001fffcbd
:0300450001fffcbc
:0300460001fffcbb
:0300470001fffcba
:0300480001fffcb9
:0300490001fffcb8
:03004a0001fffcb7
:03004b0001fffcb6
:03004c0001fffcb5
:03004d0001fffbb5
:03004e0001fffbb4
:03004f0001fffbb3
:0300500001fffbb2
:0300510001fffbb1
:0300520001fffbb0
:0300530001fffbaf
:0300540001fffbae
:0300550001fffbad
:0300560001fffbac
:0300570001fffaac
:0300580001fffaab
:0300590001fffaaa
:03005a0001fffaa9
:03005b0001fffaa8
:03005c0001fffaa7
:03005d0001fffaa6
:03005e0001fffaa5
:03005f0001fffaa4
:0300600001fff9a4
:0300610001fff9a3
:0300620001fff9a2
:0300630001fff9a1
:0300640001fff9a0
:0300650001fff99f
:0300660001fff99e
:0300670001fff99d
:0300680001fff89d
:0300690001fff89c
:03006a0001fff89b
:03006b0001fff89a
:03006c0001fff899
:03006d0001fff898
:03006e0001fff897
:03006f0001fff896
:0300700001fff796
:0300710001fff795
:0300720001fff794
:0300730001fff793
:0300740001fff792
:0300750001fff791
:0300760001fff790
:0300770001fff690
:0300780001fff68f
:0300790001fff68e
:03007a0001fff68d
:03007b0001fff68c
:03007c0001fff68b
:03007d0001fff68a
:03007e0001fff58a
:03007f0001fff589
:0300800001fff588
:0300810001fff587
:0300820001fff586
:0300830001fff585
:0300840001fff584
:0300850001fff484
:0300860001fff483
:0300870001fff482
:0300880001fff481
:0300890001fff480
:03008a0001fff47f
:03008b0001fff37f
:03008c0001fff37e
:03008d0001fff37d
:03008e0001fff37c
:03008f0001fff37b
:0300900001fff37a
:0300910001fff27a
:0300920001fff279
:0300930001fff278
:0300940001fff277
:0300950001fff276
:0300960001fff176
:0300970001fff175
:0300980001fff174
:0300990001fff173
:03009a0001fff172
:03009b0001fff171
:03009c0001fff071
:03009d0001fff070
:03009e0001fff06f
:03009f0001fff06e
:0300a00001fff06d
:0300a10001ffef6d
:0300a20001ffef6c
:0300a30001ffef6b
:0300a40001ffef6a
:0300a50001ffef69
:0300a60001ffee69
:0300a70001ffee68
:0300a80001ffee67
:0300a90001ffee66
:0300aa0001ffee65
:0300ab0001ffed65
:0300ac0001ffed64
:0300ad0001ffed63
:0300ae0001ffed62
:0300af0001ffed61
:0300b00001ffec61
:0300b10001ffec60
:0300b20001ffec5f
:0300b30001ffec5e
:0300b40001ffeb5e
:0300b50001ffeb5d
:0300b60001ffeb5c
:0300b70001ffeb5b
:0300b80001ffeb5a
:0300b90001ffea5a
:0300ba0001ffea59
:0300bb0001ffea58
:0300bc0001ffea57
:0300bd0001ffe957
:0300be0001ffe956
:0300bf0001ffe955
:0300c00001ffe954
:0300c10001ffe953
:0300c20001ffe853
:0300c30001ffe852
:0300c40001ffe851
:0300c50001ffe850
:0300c60001ffe750
:0300c70001ffe74f
:0300c80001ffe74e
:0300c90001ffe74d
:0300ca0001ffe64d
:0300cb0001ffe64c
:0300cc0001ffe64b
:0300cd0001ffe64a
:0300ce0001ffe54a
:0300cf0001ffe549
:0300d00001ffe548
:0300d10001ffe547
:0300d20001ffe447
:0300d30001ffe446
:0300d40001ffe445
:0300d50001ffe444
:0300d60001ffe344
:0300d70001ffe343
:0300d80001ffe342
:0300d90001ffe341
:0300da0001ffe241
:0300db0001ffe240
:0300dc0001ffe23f
:0300dd0001ffe23e
:0300de0001ffe13e
:0300df0001ffe13d
:0300e00001ffe13c
:0300e10001ffe13b
:0300e20001ffe03b
:0300e30001ffe03a
:0300e40001ffe039
:0300e50001ffdf39
:0300e60001ffdf38
:0300e70001ffdf37
:0300e80001ffdf36
:0300e90001ffde36
:0300ea0001ffde35
:0300eb0001ffde34
:0300ec0001ffdd34
:0300ed0001ffdd33
:0300ee0001ffdd32
:0300ef0001ffdd31
:0300f00001ffdc31
:0300f10001ffdc30
:0300f20001ffdc2f
:0300f30001ffdb2f
:0300f40001ffdb2e
:0300f50001ffdb2d
:0300f60001ffdb2c
:0300f70001ffda2c
:0300f80001ffda2b
:0300f90001ffda2a
:0300fa0001ffd92a
:0300fb0001ffd929
:0300fc0001ffd928
:0300fd0001ffd828
:0300fe0001ffd827
:0300ff0001ffd826
:0301000001ffd824
:0301010001ffd724
:0301020001ffd723
:0301030001ffd722
:0301040001ffd622
:0301050001ffd621
:0301060001ffd620
:0301070001ffd520
:0301080001ffd51f
:0301090001ffd51e
:03010a0001ffd41e
:03010b0001ffd41d
:03010c0001ffd41c
:03010d0001ffd31c
:03010e0001ffd31b
:03010f0001ffd31a
:0301100001ffd21a
:0301110001ffd219
:0301120001ffd218
:0301130001ffd118
:0301140001ffd117
:0301150001ffd116
:0301160001ffd016
:0301170001ffd015
:0301180001ffd014
:0301190001ffcf14
:03011a0001ffcf13
:03011b0001ffcf12
:03011c0001ffce12
:03011d0001ffce11
:03011e0001ffce10
:03011f0001ffcd10
:0301200001ffcd0f
:0301210001ffcd0e
:0301220001ffcc0e
:0301230001ffcc0d
:0301240001ffcc0c
:0301250001ffcb0c
:0301260001ffcb0b
:0301270001ffcb0a
:0301280001ffca0a
:0301290001ffca09
:03012a0001ffca08
:03012b0001ffc908
:03012c0001ffc907
:03012d0001ffc807
:03012e0001ffc806
:03012f0001ffc805
:0301300001ffc705
:0301310001ffc704
:0301320001ffc703
:0301330001ffc603
:0301340001ffc602
:0301350001ffc502
:0301360001ffc501
:0301370001ffc500
:0301380001ffc400
:0301390001ffc4ff
:03013a0001ffc4fe
:03013b0001ffc3fe
:03013c0001ffc3fd
:03013d0001ffc2fd
:03013e0001ffc2fc
:03013f0001ffc2fb
:0301400001ffc1fb
:0301410001ffc1fa
:0301420001ffc1f9
:0301430001ffc0f9
:0301440001ffc0f8
:0301450001ffbff8
:0301460001ffbff7
:0301470001ffbff6
:0301480001ffbef6
:0301490001ffbef5
:03014a0001ffbdf5
:03014b0001ffbdf4
:03014c0001ffbdf3
:03014d0001ffbcf3
:03014e0001ffbcf2
:03014f0001ffbbf2
:0301500001ffbbf1
:0301510001ffbbf0
:0301520001ffbaf0
:0301530001ffbaef
:0301540001ffb9ef
:0301550001ffb9ee
:0301560001ffb9ed
:0301570001ffb8ed
:0301580001ffb8ec
:0301590001ffb7ec
:03015a0001ffb7eb
:03015b0001ffb6eb
:03015c0001ffb6ea
:03015d0001ffb6e9
:03015e0001ffb5e9
:03015f0001ffb5e8
:0301600001ffb4e8
:0301610001ffb4e7
:0301620001ffb4e6
:0301630001ffb3e6
:0301640001ffb3e5
:0301650001ffb2e5
:0301660001ffb2e4
:0301670001ffb1e4
:0301680001ffb1e3
:0301690001ffb1e2
:03016a0001ffb0e2
:03016b0001ffb0e1
:03016c0001ffafe1
:03016d0001ffafe0
:03016e0001ffaee0
:03016f0001ffaedf
:0301700001ffaddf
:0301710001ffadde
:0301720001ffaddd
:0301730001ffacdd
:0301740001ffacdc
:0301750001ffabdc
:0301760001ffabdb
:0301770001ffaadb
:0301780001ffaada
:0301790001ffa9da
:03017a0001ffa9d9
:03017b0001ffa8d9
:03017c0001ffa8d8
:03017d0001ffa8d7
:03017e0001ffa7d7
:03017f0001ffa7d6
:0301800001ffa6d6
:0301810001ffa6d5
:0301820001ffa5d5
:0301830001ffa5d4
:0301840001ffa4d4
:0301850001ffa4d3
:0301860001ffa3d3
:0301870001ffa3d2
:0301880001ffa2d2
:0301890001ffa2d1
:03018a0001ffa1d1
:03018b0001ffa1d0
:03018c0001ffa1cf
:03018d0001ffa0cf
:03018e0001ffa0ce
:03018f0001ff9fce
:0301900001ff9fcd
:0301910001ff9ecd
:0301920001ff9ecc
:0301930001ff9dcc
:0301940001ff9dcb
:0301950001ff9ccb
:0301960001ff9cca
:0301970001ff9bca
:0301980001ff9bc9
:0301990001ff9ac9
:03019a0001ff9ac8
:03019b0001ff99c8
:03019c0001ff99c7
:03019d0001ff98c7
:03019e0001ff98c6
:03019f0001ff97c6
:0301a00001ff97c5
:0301a10001ff96c5
:0301a20001ff96c4
:0301a30001ff95c4
:0301a40001ff95c3
:0301a50001ff94c3
:0301a60001ff94c2
:0301a70001ff93c2
:0301a80001ff93c1
:0301a90001ff92c1
:0301aa0001ff92c0
:0301ab0001ff91c0
:0301ac0001ff91bf
:0301ad0001ff90bf
:0301ae0001ff90be
:0301af0001ff8fbe
:0301b00001ff8fbd
:0301b10001ff8ebd
:0301b20001ff8ebc
:0301b30001ff8dbc
:0301b40001ff8dbb
:0301b50001ff8cbb
:0301b60001ff8bbb
:0301b70001ff8bba
:0301b80001ff8aba
:0301b90001ff8ab9
:0301ba0001ff89b9
:0301bb0001ff89b8
:0301bc0001ff88b8
:0301bd0001ff88b7
:0301be0001ff87b7
:0301bf0001ff87b6
:0301c00001ff86b6
:0301c10001ff86b5
:0301c20001ff85b5
:0301c30001ff84b5
:0301c40001ff84b4
:0301c50001ff83b4
:0301c60001ff83b3
:0301c70001ff82b3
:0301c80001ff82b2
:0301c90001ff81b2
:0301ca0001ff81b1
:0301cb0001ff80b1
:0301cc0001ff80b0
:0301cd0001ff7fb0
:0301ce0001ff7eb0
:0301cf0001ff7eaf
:0301d00001ff7daf
:0301d10001ff7dae
:0301d20001ff7cae
:0301d30001ff7cad
:0301d40001ff7bad
:0301d50001ff7bac
:0301d60001ff7aac
:0301d70001ff79ac
:0301d80001ff79ab
:0301d90001ff78ab
:0301da0001ff78aa
:0301db0001ff77aa
:0301dc0001ff77a9
:0301dd0001ff76a9
:0301de0001ff75a9
:0301df0001ff75a8
:0301e00001ff74a8
:0301e10001ff74a7
:0301e20001ff73a7
:0301e30001ff72a7
:0301e40001ff72a6
:0301e50001ff71a6
:0301e60001ff71a5
:0301e70001ff70a5
:0301e80001ff70a4
:0301e90001ff6fa4
:0301ea0001ff6ea4
:0301eb0001ff6ea3
:0301ec0001ff6da3
:0301ed0001ff6da2
:0301ee0001ff6ca2
:0301ef0001ff6ba2
:0301f00001ff6ba1
:0301f10001ff6aa1
:0301f20001ff6aa0
:0301f30001ff69a0
:0301f40001ff68a0
:0301f50001ff689f
:0301f60001ff679f
:0301f70001ff679e
:0301f80001ff669e
:0301f90001ff659e
:0301fa0001ff659d
:0301fb0001ff649d
:0301fc0001ff649c
:0301fd0001ff639c
:0301fe0001ff629c
:0301ff0001ff629b
:0302000001ff619a
:0302010001ff6199
:0302020001ff6099
:0302030001ff5f99
:0302040001ff5f98
:0302050001ff5e98
:0302060001ff5d98
:0302070001ff5d97
:0302080001ff5c97
:0302090001ff5c96
:03020a0001ff5b96
:03020b0001ff5a96
:03020c0001ff5a95
:03020d0001ff5995
:03020e0001ff5895
:03020f0001ff5894
:0302100001ff5794
:0302110001ff5694
:0302120001ff5693
:0302130001ff5593
:0302140001ff5592
:0302150001ff5492
:0302160001ff5392
:0302170001ff5391
:0302180001ff5291
:0302190001ff5191
:03021a0001ff5190
:03021b0001ff5090
:03021c0001ff4f90
:03021d0001ff4f8f
:03021e0001ff4e8f
:03021f0001ff4d8f
:0302200001ff4d8e
:0302210001ff4c8e
:0302220001ff4b8e
:0302230001ff4b8d
:0302240001ff4a8d
:0302250001ff498d
:0302260001ff498c
:0302270001ff488c
:0302280001ff478c
:0302290001ff478b
:03022a0001ff468b
:03022b0001ff458b
:03022c0001ff458a
:03022d0001ff448a
:03022e0001ff438a
:03022f0001ff4389
:0302300001ff4289
:0302310001ff4189
:0302320001ff4188
:0302330001ff4088
:0302340001ff3f88
:0302350001ff3f87
:0302360001ff3e87
:0302370001ff3d87
:0302380001ff3d86
:0302390001ff3c86
:03023a0001ff3b86
:03023b0001ff3b85
:03023c0001ff3a85
:03023d0001ff3985
:03023e0001ff3984
:03023f0001ff3884
:0302400001ff3784
:0302410001ff3684
:0302420001ff3683
:0302430001ff3583
:0302440001ff3483
:0302450001ff3482
:0302460001ff3382
:0302470001ff3282
:0302480001ff3281
:0302490001ff3181
:03024a0001ff3081
:03024b0001ff2f81
:03024c0001ff2f80
:03024d0001ff2e80
:03024e0001ff2d80
:03024f0001ff2d7f
:0302500001ff2c7f
:0302510001ff2b7f
:0302520001ff2b7e
:0302530001ff2a7e
:0302540001ff297e
:0302550001ff287e
:0302560001ff287d
:0302570001ff277d
:0302580001ff267d
:0302590001ff257d
:03025a0001ff257c
:03025b0001ff247c
:03025c0001ff237c
:03025d0001ff237b
:03025e0001ff227b
:03025f0001ff217b
:0302600001ff207b
:0302610001ff207a
:0302620001ff1f7a
:0302630001ff1e7a
:0302640001ff1d7a
:0302650001ff1d79
:0302660001ff1c79
:0302670001ff1b79
:0302680001ff1a79
:0302690001ff1a78
:03026a0001ff1978
:03026b0001ff1878
:03026c0001ff1877
:03026d0001ff1777
:03026e0001ff1677
:03026f0001ff1577
:0302700001ff1576
:0302710001ff1476
:0302720001ff1376
:0302730001ff1276
:0302740001ff1176
:0302750001ff1175
:0302760001ff1075
:0302770001ff0f75
:0302780001ff0e75
:0302790001ff0e74
:03027a0001ff0d74
:03027b0001ff0c74
:03027c0001ff0b74
:03027d0001ff0b73
:03027e0001ff0a73
:03027f0001ff0973
:0302800001ff0873
:0302810001ff0872
:0302820001ff0772
:0302830001ff0672
:0302840001ff0572
:0302850001ff0472
:0302860001ff0471
:0302870001ff0371
:0302880001ff0271
:0302890001ff0171
:03028a0001ff0170
:03028b0001ff0070
:03028c0001feff71
:03028d0001fefe71
:03028e0001fefd71
:03028f0001fefd70
:0302900001fefc70
:0302910001fefb70
:0302920001fefa70
:0302930001fef970
:0302940001fef96f
:0302950001fef86f
:0302960001fef76f
:0302970001fef66f
:0302980001fef56f
:0302990001fef56e
:03029a0001fef46e
:03029b0001fef36e
:03029c0001fef26e
:03029d0001fef16e
:03029e0001fef16d
:03029f0001fef06d
:0302a00001feef6d
:0302a10001feee6d
:0302a20001feed6d
:0302a30001feed6c
:0302a40001feec6c
:0302a50001feeb6c
:0302a60001feea6c
:0302a70001fee96c
:0302a80001fee96b
:0302a90001fee86b
:0302aa0001fee76b
:0302ab0001fee66b
:0302ac0001fee56b
:0302ad0001fee46b
:0302ae0001fee46a
:0302af0001fee36a
:0302b00001fee26a
:0302b10001fee16a
:0302b20001fee06a
:0302b30001fedf6a
:0302b40001fedf69
:0302b50001fede69
:0302b60001fedd69
:0302b70001fedc69
:0302b80001fedb69
:0302b90001feda69
:0302ba0001feda68
:0302bb0001fed968
:0302bc0001fed868
:0302bd0001fed768
:0302be0001fed668
:0302bf0001fed568
:0302c00001fed567
:0302c10001fed467
:0302c20001fed367
:0302c30001fed267
:0302c40001fed167
:0302c50001fed067
:0302c60001fecf67
:0302c70001fecf66
:0302c80001fece66
:0302c90001fecd66
:0302ca0001fecc66
:0302cb0001fecb66
:0302cc0001feca66
:0302cd0001fec966
:0302ce0001fec965
:0302cf0001fec865
:0302d00001fec765
:0302d10001fec665
:0302d20001fec565
:0302d30001fec465
:0302d40001fec365
:0302d50001fec265
:0302d60001fec264
:0302d70001fec164
:0302d80001fec064
:0302d90001febf64
:0302da0001febe64
:0302db0001febd64
:0302dc0001febc64
:0302dd0001febb64
:0302de0001febb63
:0302df0001feba63
:0302e00001feb963
:0302e10001feb863
:0302e20001feb763
:0302e30001feb663
:0302e40001feb563
:0302e50001feb463
:0302e60001feb363
:0302e70001feb362
:0302e80001feb262
:0302e90001feb162
:0302ea0001feb062
:0302eb0001feaf62
:0302ec0001feae62
:0302ed0001fead62
:0302ee0001feac62
:0302ef0001feab62
:0302f00001feaa62
:0302f10001feaa61
:0302f20001fea961
:0302f30001fea861
:0302f40001fea761
:0302f50001fea661
:0302f60001fea561
:0302f70001fea461
:0302f80001fea361
:0302f90001fea261
:0302fa0001fea161
:0302fb0001fea061
:0302fc0001fea060
:0302fd0001fe9f60
:0302fe0001fe9e60
:0302ff0001fe9d60
:0303000001fe9c5f
:0303010001fe9b5f
:0303020001fe9a5f
:0303030001fe995f
:0303040001fe985f
:0303050001fe975f
:0303060001fe965f
:0303070001fe955f
:0303080001fe945f
:0303090001fe935f
:03030a0001fe935e
:03030b0001fe925e
:03030c0001fe915e
:03030d0001fe905e
:03030e0001fe8f5e
:03030f0001fe8e5e
:0303100001fe8d5e
:0303110001fe8c5e
:0303120001fe8b5e
:0303130001fe8a5e
:0303140001fe895e
:0303150001fe885e
:0303160001fe875e
:0303170001fe865e
:0303180001fe855e
:0303190001fe845e
:03031a0001fe835e
:03031b0001fe825e
:03031c0001fe825d
:03031d0001fe815d
:03031e0001fe805d
:03031f0001fe7f5d
:0303200001fe7e5d
:0303210001fe7d5d
:0303220001fe7c5d
:0303230001fe7b5d
:0303240001fe7a5d
:0303250001fe795d
:0303260001fe785d
:0303270001fe775d
:0303280001fe765d
:0303290001fe755d
:03032a0001fe745d
:03032b0001fe735d
:03032c0001fe725d
:03032d0001fe715d
:03032e0001fe705d
:03032f0001fe6f5d
:0303300001fe6e5d
:0303310001fe6d5d
:0303320001fe6c5d
:0303330001fe6b5d
:0303340001fe6a5d
:0303350001fe695d
:0303360001fe685d
:0303370001fe675d
:0303380001fe665d
:0303390001fe655d
:03033a0001fe645d
:03033b0001fe635d
:03033c0001fe625d
:03033d0001fe615d
:03033e0001fe605d
:03033f0001fe5f5d
:0303400001fe5e5d
:0303410001fe5d5d
:0303420001fe5c5d
:0303430001fe5b5d
:0303440001fe5a5d
:0303450001fe595d
:0303460001fe585d
:0303470001fe575d
:0303480001fe565d
:0303490001fe555d
:03034a0001fe545d
:03034b0001fe535d
:03034c0001fe525d
:03034d0001fe515d
:03034e0001fe505d
:03034f0001fe4f5d
:0303500001fe4e5d
:0303510001fe4d5d
:0303520001fe4c5d
:0303530001fe4b5d
:0303540001fe4a5d
:0303550001fe495d
:0303560001fe485d
:0303570001fe475d
:0303580001fe465d
:0303590001fe455d
:03035a0001fe445d
:03035b0001fe435d
:03035c0001fe425d
:03035d0001fe415d
:03035e0001fe405d
:03035f0001fe3f5d
:0303600001fe3e5d
:0303610001fe3d5d
:0303620001fe3b5e
:0303630001fe3a5e
:0303640001fe395e
:0303650001fe385e
:0303660001fe375e
:0303670001fe365e
:0303680001fe355e
:0303690001fe345e
:03036a0001fe335e
:03036b0001fe325e
:03036c0001fe315e
:03036d0001fe305e
:03036e0001fe2f5e
:03036f0001fe2e5e
:0303700001fe2d5e
:0303710001fe2c5e
:0303720001fe2b5e
:0303730001fe2a5e
:0303740001fe295e
:0303750001fe275f
:0303760001fe265f
:0303770001fe255f
:0303780001fe245f
:0303790001fe235f
:03037a0001fe225f
:03037b0001fe215f
:03037c0001fe205f
:03037d0001fe1f5f
:03037e0001fe1e5f
:03037f0001fe1d5f
:0303800001fe1c5f
:0303810001fe1b5f
:0303820001fe1a5f
:0303830001fe1860
:0303840001fe1760
:0303850001fe1660
:0303860001fe1560
:0303870001fe1460
:0303880001fe1360
:0303890001fe1260
:03038a0001fe1160
:03038b0001fe1060
:03038c0001fe0f60
:03038d0001fe0e60
:03038e0001fe0c61
:03038f0001fe0b61
:0303900001fe0a61
:0303910001fe0961
:0303920001fe0861
:0303930001fe0761
:0303940001fe0661
:0303950001fe0561
:0303960001fe0461
:0303970001fe0361
:0303980001fe0162
:0303990001fe0062
:03039a0001fdff63
:03039b0001fdfe63
:03039c0001fdfd63
:03039d0001fdfc63
:03039e0001fdfb63
:03039f0001fdfa63
:0303a00001fdf963
:0303a10001fdf764
:0303a20001fdf664
:0303a30001fdf564
:0303a40001fdf464
:0303a50001fdf364
:0303a60001fdf264
:0303a70001fdf164
:0303a80001fdf064
:0303a90001fdee65
:0303aa0001fded65
:0303ab0001fdec65
:0303ac0001fdeb65
:0303ad0001fdea65
:0303ae0001fde965
:0303af0001fde865
:0303b00001fde765
:0303b10001fde566
:0303b20001fde466
:0303b30001fde366
:0303b40001fde266
:0303b50001fde166
:0303b60001fde066
:0303b70001fddf66
:0303b80001fddd67
:0303b90001fddc67
:0303ba0001fddb67
:0303bb0001fdda67
:0303bc0001fdd967
:0303bd0001fdd867
:0303be0001fdd767
:0303bf0001fdd568
:0303c00001fdd468
:0303c10001fdd368
:0303c20001fdd268
:0303c30001fdd168
:0303c40001fdd068
:0303c50001fdce69
:0303c60001fdcd69
:0303c70001fdcc69
:0303c80001fdcb69
:0303c90001fdca69
:0303ca0001fdc969
:0303cb0001fdc76a
:0303cc0001fdc66a
:0303cd0001fdc56a
:0303ce0001fdc46a
:0303cf0001fdc36a
:0303d00001fdc26a
:0303d10001fdc06b
:0303d20001fdbf6b
:0303d30001fdbe6b
:0303d40001fdbd6b
:0303d50001fdbc6b
:0303d60001fdbb6b
:0303d70001fdb96c
:0303d80001fdb86c
:0303d90001fdb76c
:0303da0001fdb66c
:0303db0001fdb56c
:0303dc0001fdb36d
:0303dd0001fdb26d
:0303de0001fdb16d
:0303df0001fdb06d
:0303e00001fdaf6d
:0303e10001fdad6e
:0303e20001fdac6e
:0303e30001fdab6e
:0303e40001fdaa6e
:0303e50001fda96e
:0303e60001fda76f
:0303e70001fda66f
:0303e80001fda56f
:0303e90001fda46f
:0303ea0001fda36f
:0303eb0001fda170
:0303ec0001fda070
:0303ed0001fd9f70
:0303ee0001fd9e70
:0303ef0001fd9d70
:0303f00001fd9b71
:0303f10001fd9a71
:0303f20001fd9971
:0303f30001fd9871
:0303f40001fd9771
:0303f50001fd9572
:0303f60001fd9472
:0303f70001fd9372
:0303f80001fd9272
:0303f90001fd9073
:0303fa0001fd8f73
:0303fb0001fd8e73
:0303fc0001fd8d73
:0303fd0001fd8c73
:0303fe0001fd8a74
:0303ff0001fd8974
:0304000001fd8873
:0304010001fd8773
:0304020001fd8574
:0304030001fd8474
:0304040001fd8374
:0304050001fd8274
:0304060001fd8075
:0304070001fd7f75
:0304080001fd7e75
:0304090001fd7d75
:03040a0001fd7b76
:03040b0001fd7a76
:03040c0001fd7976
:03040d0001fd7876
:03040e0001fd7677
:03040f0001fd7577
:0304100001fd7477
:0304110001fd7377
:0304120001fd7178
:0304130001fd7078
:0304140001fd6f78
:0304150001fd6e78
:0304160001fd6c79
:0304170001fd6b79
:0304180001fd6a79
:0304190001fd6979
:03041a0001fd677a
:03041b0001fd667a
:03041c0001fd657a
:03041d0001fd647a
:03041e0001fd627b
:03041f0001fd617b
:0304200001fd607b
:0304210001fd5f7b
:0304220001fd5d7c
:0304230001fd5c7c
:0304240001fd5b7c
:0304250001fd597d
:0304260001fd587d
:0304270001fd577d
:0304280001fd567d
:0304290001fd547e
:03042a0001fd537e
:03042b0001fd527e
:03042c0001fd517e
:03042d0001fd4f7f
:03042e0001fd4e7f
:03042f0001fd4d7f
:0304300001fd4b80
:0304310001fd4a80
:0304320001fd4980
:0304330001fd4781
:0304340001fd4681
:0304350001fd4581
:0304360001fd4481
:0304370001fd4282
:0304380001fd4182
:0304390001fd4082
:03043a0001fd3e83
:03043b0001fd3d83
:03043c0001fd3c83
:03043d0001fd3a84
:03043e0001fd3984
:03043f0001fd3884
:0304400001fd3784
:0304410001fd3585
:0304420001fd3485
:0304430001fd3385
:0304440001fd3186
:0304450001fd3086
:0304460001fd2f86
:0304470001fd2d87
:0304480001fd2c87
:0304490001fd2b87
:03044a0001fd2988
:03044b0001fd2888
:03044c0001fd2788
:03044d0001fd2589
:03044e0001fd2489
:03044f0001fd2389
:0304500001fd218a
:0304510001fd208a
:0304520001fd1f8a
:0304530001fd1d8b
:0304540001fd1c8b
:0304550001fd1b8b
:0304560001fd198c
:0304570001fd188c
:0304580001fd178c
:0304590001fd158d
:03045a0001fd148d
:03045b0001fd138d
:03045c0001fd118e
:03045d0001fd108e
:03045e0001fd0f8e
:03045f0001fd0d8f
:0304600001fd0c8f
:0304610001fd0b8f
:0304620001fd0990
:0304630001fd0890
:0304640001fd0790
:0304650001fd0591
:0304660001fd0491
:0304670001fd0391
:0304680001fd0192
:0304690001fd0092
:03046a0001fcff93
:03046b0001fcfd94
:03046c0001fcfc94
:03046d0001fcfa95
:03046e0001fcf995
:03046f0001fcf895
:0304700001fcf696
:0304710001fcf596
:0304720001fcf496
:0304730001fcf297
:0304740001fcf197
:0304750001fcf097
:0304760001fcee98
:0304770001fced98
:0304780001fceb99
:0304790001fcea99
:03047a0001fce999
:03047b0001fce79a
:03047c0001fce69a
:03047d0001fce59a
:03047e0001fce39b
:03047f0001fce29b
:0304800001fce09c
:0304810001fcdf9c
:0304820001fcde9c
:0304830001fcdc9d
:0304840001fcdb9d
:0304850001fcd99e
:0304860001fcd89e
:0304870001fcd79e
:0304880001fcd59f
:0304890001fcd49f
:03048a0001fcd2a0
:03048b0001fcd1a0
:03048c0001fcd0a0
:03048d0001fccea1
:03048e0001fccda1
:03048f0001fccba2
:0304900001fccaa2
:0304910001fcc9a2
:0304920001fcc7a3
:0304930001fcc6a3
:0304940001fcc4a4
:0304950001fcc3a4
:0304960001fcc2a4
:0304970001fcc0a5
:0304980001fcbfa5
:0304990001fcbda6
:03049a0001fcbca6
:03049b0001fcbba6
:03049c0001fcb9a7
:03049d0001fcb8a7
:03049e0001fcb6a8
:03049f0001fcb5a8
:0304a00001fcb3a9
:0304a10001fcb2a9
:0304a20001fcb1a9
:0304a30001fcafaa
:0304a40001fcaeaa
:0304a50001fcacab
:0304a60001fcabab
:0304a70001fca9ac
:0304a80001fca8ac
:0304a90001fca7ac
:0304aa0001fca5ad
:0304ab0001fca4ad
:0304ac0001fca2ae
:0304ad0001fca1ae
:0304ae0001fc9faf
:0304af0001fc9eaf
:0304b00001fc9daf
:0304b10001fc9bb0
:0304b20001fc9ab0
:0304b30001fc98b1
:0304b40001fc97b1
:0304b50001fc95b2
:0304b60001fc94b2
:0304b70001fc92b3
:0304b80001fc91b3
:0304b90001fc8fb4
:0304ba0001fc8eb4
:0304bb0001fc8db4
:0304bc0001fc8bb5
:0304bd0001fc8ab5
:0304be0001fc88b6
:0304bf0001fc87b6
:0304c00001fc85b7
:0304c10001fc84b7
:0304c20001fc82b8
:0304c30001fc81b8
:0304c40001fc7fb9
:0304c50001fc7eb9
:0304c60001fc7cba
:0304c70001fc7bba
:0304c80001fc7aba
:0304c90001fc78bb
:0304ca0001fc77bb
:0304cb0001fc75bc
:0304cc0001fc74bc
:0304cd0001fc72bd
:0304ce0001fc71bd
:0304cf0001fc6fbe
:0304d00001fc6ebe
:0304d10001fc6cbf
:0304d20001fc6bbf
:0304d30001fc69c0
:0304d40001fc68c0
:0304d50001fc66c1
:0304d60001fc65c1
:0304d70001fc63c2
:0304d80001fc62c2
:0304d90001fc60c3
:0304da0001fc5fc3
:0304db0001fc5dc4
:0304dc0001fc5cc4
:0304dd0001fc5ac5
:0304de0001fc59c5
:0304df0001fc57c6
:0304e00001fc56c6
:0304e10001fc54c7
:0304e20001fc53c7
:0304e30001fc51c8
:0304e40001fc50c8
:0304e50001fc4ec9
:0304e60001fc4dc9
:0304e70001fc4bca
:0304e80001fc4aca
:0304e90001fc48cb
:0304ea0001fc47cb
:0304eb0001fc45cc
:0304ec0001fc44cc
:0304ed0001fc42cd
:0304ee0001fc41cd
:0304ef0001fc3fce
:0304f00001fc3ece
:0304f10001fc3ccf
:0304f20001fc3bcf
:0304f30001fc39d0
:0304f40001fc38d0
:0304f50001fc36d1
:0304f60001fc35d1
:0304f70001fc33d2
:0304f80001fc32d2
:0304f90001fc30d3
:0304fa0001fc2ed4
:0304fb0001fc2dd4
:0304fc0001fc2bd5
:0304fd0001fc2ad5
:0304fe0001fc28d6
:0304ff0001fc27d6
:0305000001fc25d6
:0305010001fc24d6
:0305020001fc22d7
:0305030001fc21d7
:0305040001fc1fd8
:0305050001fc1ed8
:0305060001fc1cd9
:0305070001fc1ada
:0305080001fc19da
:0305090001fc17db
:03050a0001fc16db
:03050b0001fc14dc
:03050c0001fc13dc
:03050d0001fc11dd
:03050e0001fc10dd
:03050f0001fc0ede
:0305100001fc0dde
:0305110001fc0bdf
:0305120001fc09e0
:0305130001fc08e0
:0305140001fc06e1
:0305150001fc05e1
:0305160001fc03e2
:0305170001fc02e2
:0305180001fc00e3
:0305190001fbfee5
:03051a0001fbfde5
:03051b0001fbfbe6
:03051c0001fbfae6
:03051d0001fbf8e7
:03051e0001fbf7e7
:03051f0001fbf5e8
:0305200001fbf3e9
:0305210001fbf2e9
:0305220001fbf0ea
:0305230001fbefea
:0305240001fbedeb
:0305250001fbeceb
:0305260001fbeaec
:0305270001fbe8ed
:0305280001fbe7ed
:0305290001fbe5ee
:03052a0001fbe4ee
:03052b0001fbe2ef
:03052c0001fbe0f0
:03052d0001fbdff0
:03052e0001fbddf1
:03052f0001fbdcf1
:0305300001fbdaf2
:0305310001fbd8f3
:0305320001fbd7f3
:0305330001fbd5f4
:0305340001fbd4f4
:0305350001fbd2f5
:0305360001fbd0f6
:0305370001fbcff6
:0305380001fbcdf7
:0305390001fbccf7
:03053a0001fbcaf8
:03053b0001fbc8f9
:03053c0001fbc7f9
:03053d0001fbc5fa
:03053e0001fbc4fa
:03053f0001fbc2fb
:0305400001fbc0fc
:0305410001fbbffc
:0305420001fbbdfd
:0305430001fbbcfd
:0305440001fbbafe
:0305450001fbb8ff
:0305460001fbb7ff
:0305470001fbb500
:0305480001fbb301
:0305490001fbb201
:03054a0001fbb002
:03054b0001fbaf02
:03054c0001fbad03
:03054d0001fbab04
:03054e0001fbaa04
:03054f0001fba805
:0305500001fba606
:0305510001fba506
:0305520001fba307
:0305530001fba108
:0305540001fba008
:0305550001fb9e09
:0305560001fb9d09
:0305570001fb9b0a
:0305580001fb990b
:0305590001fb980b
:03055a0001fb960c
:03055b0001fb940d
:03055c0001fb930d
:03055d0001fb910e
:03055e0001fb8f0f
:03055f0001fb8e0f
:0305600001fb8c10
:0305610001fb8a11
:0305620001fb8911
:0305630001fb8712
:0305640001fb8513
:0305650001fb8413
:0305660001fb8214
:0305670001fb8114
:0305680001fb7f15
:0305690001fb7d16
:03056a0001fb7c16
:03056b0001fb7a17
:03056c0001fb7818
:03056d0001fb7718
:03056e0001fb7519
:03056f0001fb731a
:0305700001fb721a
:0305710001fb701b
:0305720001fb6e1c
:0305730001fb6c1d
:0305740001fb6b1d
:0305750001fb691e
:0305760001fb671f
:0305770001fb661f
:0305780001fb6420
:0305790001fb6221
:03057a0001fb6121
:03057b0001fb5f22
:03057c0001fb5d23
:03057d0001fb5c23
:03057e0001fb5a24
:03057f0001fb5825
:0305800001fb5725
:0305810001fb5526
:0305820001fb5327
:0305830001fb5227
:0305840001fb5028
:0305850001fb4e29
:0305860001fb4c2a
:0305870001fb4b2a
:0305880001fb492b
:0305890001fb472c
:03058a0001fb462c
:03058b0001fb442d
:03058c0001fb422e
:03058d0001fb412e
:03058e0001fb3f2f
:03058f0001fb3d30
:0305900001fb3b31
:0305910001fb3a31
:0305920001fb3832
:0305930001fb3633
:0305940001fb3533
:0305950001fb3334
:0305960001fb3135
:0305970001fb2f36
:0305980001fb2e36
:0305990001fb2c37
:03059a0001fb2a38
:03059b0001fb2938
:03059c0001fb2739
:03059d0001fb253a
:03059e0001fb233b
:03059f0001fb223b
:0305a00001fb203c
:0305a10001fb1e3d
:0305a20001fb1c3e
:0305a30001fb1b3e
:0305a40001fb193f
:0305a50001fb1740
:0305a60001fb1541
:0305a70001fb1441
:0305a80001fb1242
:0305a90001fb1043
:0305aa0001fb0f43
:0305ab0001fb0d44
:0305ac0001fb0b45
:0305ad0001fb0946
:0305ae0001fb0846
:0305af0001fb0647
:0305b00001fb0448
:0305b10001fb0249
:0305b20001fb0149
:0305b30001faff4b
:0305b40001fafd4c
:0305b50001fafb4d
:0305b60001fafa4d
:0305b70001faf84e
:0305b80001faf64f
:0305b90001faf450
:0305ba0001faf350
:0305bb0001faf151
:0305bc0001faef52
:0305bd0001faed53
:0305be0001faeb54
:0305bf0001faea54
:0305c00001fae855
:0305c10001fae656
:0305c20001fae457
:0305c30001fae357
:0305c40001fae158
:0305c50001fadf59
:0305c60001fadd5a
:0305c70001fadc5a
:0305c80001fada5b
:0305c90001fad85c
:0305ca0001fad65d
:0305cb0001fad45e
:0305cc0001fad35e
:0305cd0001fad15f
:0305ce0001facf60
:0305cf0001facd61
:0305d00001facb62
:0305d10001faca62
:0305d20001fac863
:0305d30001fac664
:0305d40001fac465
:0305d50001fac365
:0305d60001fac166
:0305d70001fabf67
:0305d80001fabd68
:0305d90001fabb69
:0305da0001faba69
:0305db0001fab86a
:0305dc0001fab66b
:0305dd0001fab46c
:0305de0001fab26d
:0305df0001fab16d
:0305e00001faaf6e
:0305e10001faad6f
:0305e20001faab70
:0305e30001faa971
:0305e40001faa871
:0305e50001faa672
:0305e60001faa473
:0305e70001faa274
:0305e80001faa075
:0305e90001fa9e76
:0305ea0001fa9d76
:0305eb0001fa9b77
:0305ec0001fa9978
:0305ed0001fa9779
:0305ee0001fa957a
:0305ef0001fa947a
:0305f00001fa927b
:0305f10001fa907c
:0305f20001fa8e7d
:0305f30001fa8c7e
:0305f40001fa8a7f
:0305f50001fa897f
:0305f60001fa8780
:0305f70001fa8581
:0305f80001fa8382
:0305f90001fa8183
:0305fa0001fa7f84
:0305fb0001fa7e84
:0305fc0001fa7c85
:0305fd0001fa7a86
:0305fe0001fa7887
:0305ff0001fa7688
:0306000001fa7488
:0306010001fa7388
:0306020001fa7189
:0306030001fa6f8a
:0306040001fa6d8b
:0306050001fa6b8c
:0306060001fa698d
:0306070001fa678e
:0306080001fa668e
:0306090001fa648f
:03060a0001fa6290
:03060b0001fa6091
:03060c0001fa5e92
:03060d0001fa5c93
:03060e0001fa5a94
:03060f0001fa5994
:0306100001fa5795
:0306110001fa5596
:0306120001fa5397
:0306130001fa5198
:0306140001fa4f99
:0306150001fa4d9a
:0306160001fa4c9a
:0306170001fa4a9b
:0306180001fa489c
:0306190001fa469d
:03061a0001fa449e
:03061b0001fa429f
:03061c0001fa40a0
:03061d0001fa3ea1
:03061e0001fa3da1
:03061f0001fa3ba2
:0306200001fa39a3
:0306210001fa37a4
:0306220001fa35a5
:0306230001fa33a6
:0306240001fa31a7
:0306250001fa2fa8
:0306260001fa2da9
:0306270001fa2ca9
:0306280001fa2aaa
:0306290001fa28ab
:03062a0001fa26ac
:03062b0001fa24ad
:03062c0001fa22ae
:03062d0001fa20af
:03062e0001fa1eb0
:03062f0001fa1cb1
:0306300001fa1ab2
:0306310001fa19b2
:0306320001fa17b3
:0306330001fa15b4
:0306340001fa13b5
:0306350001fa11b6
:0306360001fa0fb7
:0306370001fa0db8
:0306380001fa0bb9
:0306390001fa09ba
:03063a0001fa07bb
:03063b0001fa05bc
:03063c0001fa04bc
:03063d0001fa02bd
:03063e0001fa00be
:03063f0001f9fec0
:0306400001f9fcc1
:0306410001f9fac2
:0306420001f9f8c3
:0306430001f9f6c4
:0306440001f9f4c5
:0306450001f9f2c6
:0306460001f9f0c7
:0306470001f9eec8
:0306480001f9edc8
:0306490001f9ebc9
:03064a0001f9e9ca
:03064b0001f9e7cb
:03064c0001f9e5cc
:03064d0001f9e3cd
:03064e0001f9e1ce
:03064f0001f9dfcf
:0306500001f9ddd0
:0306510001f9dbd1
:0306520001f9d9d2
:0306530001f9d7d3
:0306540001f9d5d4
:0306550001f9d3d5
:0306560001f9d1d6
:0306570001f9cfd7
:0306580001f9cdd8
:0306590001f9ccd8
:03065a0001f9cad9
:03065b0001f9c8da
:03065c0001f9c6db
:03065d0001f9c4dc
:03065e0001f9c2dd
:03065f0001f9c0de
:0306600001f9bedf
:0306610001f9bce0
:0306620001f9bae1
:0306630001f9b8e2
:0306640001f9b6e3
:0306650001f9b4e4
:0306660001f9b2e5
:0306670001f9b0e6
:0306680001f9aee7
:0306690001f9ace8
:03066a0001f9aae9
:03066b0001f9a8ea
:03066c0001f9a6eb
:03066d0001f9a4ec
:03066e0001f9a2ed
:03066f0001f9a0ee
:0306700001f99eef
:0306710001f99cf0
:0306720001f99af1
:0306730001f998f2
:0306740001f996f3
:0306750001f994f4
:0306760001f992f5
:0306770001f991f5
:0306780001f98ff6
:0306790001f98df7
:03067a0001f98bf8
:03067b0001f989f9
:03067c0001f987fa
:03067d0001f985fb
:03067e0001f983fc
:03067f0001f981fd
:0306800001f97ffe
:0306810001f97dff
:0306820001f97b00
:0306830001f97901
:0306840001f97702
:0306850001f97503
:0306860001f97304
:0306870001f97105
:0306880001f96f06
:0306890001f96d07
:03068a0001f96b08
:03068b0001f96909
:03068c0001f9670a
:03068d0001f9650b
:03068e0001f9630c
:03068f0001f9610d
:0306900001f95e0f
:0306910001f95c10
:0306920001f95a11
:0306930001f95812
:0306940001f95613
:0306950001f95414
:0306960001f95215
:0306970001f95016
:0306980001f94e17
:0306990001f94c18
:03069a0001f94a19
:03069b0001f9481a
:03069c0001f9461b
:03069d0001f9441c
:03069e0001f9421d
:03069f0001f9401e
:0306a00001f93e1f
:0306a10001f93c20
:0306a20001f93a21
:0306a30001f93822
:0306a40001f93623
:0306a50001f93424
:0306a60001f93225
:0306a70001f93026
:0306a80001f92e27
:0306a90001f92c28
:0306aa0001f92a29
:0306ab0001f9282a
:0306ac0001f9262b
:0306ad0001f9242c
:0306ae0001f9212e
:0306af0001f91f2f
:0306b00001f91d30
:0306b10001f91b31
:0306b20001f91932
:0306b30001f91733
:0306b40001f91534
:0306b50001f91335
:0306b60001f91136
:0306b70001f90f37
:0306b80001f90d38
:0306b90001f90b39
:0306ba0001f9093a
:0306bb0001f9073b
:0306bc0001f9053c
:0306bd0001f9033d
:0306be0001f9013e
:0306bf0001f8fe41
:0306c00001f8fc42
:0306c10001f8fa43
:0306c20001f8f844
:0306c30001f8f645
:0306c40001f8f446
:0306c50001f8f247
:0306c60001f8f048
:0306c70001f8ee49
:0306c80001f8ec4a
:0306c90001f8ea4b
:0306ca0001f8e84c
:0306cb0001f8e64d
:0306cc0001f8e34f
:0306cd0001f8e150
:0306ce0001f8df51
:0306cf0001f8dd52
:0306d00001f8db53
:0306d10001f8d954
:0306d20001f8d755
:0306d30001f8d556
:0306d40001f8d357
:0306d50001f8d158
:0306d60001f8cf59
:0306d70001f8cc5b
:0306d80001f8ca5c
:0306d90001f8c85d
:0306da0001f8c65e
:0306db0001f8c45f
:0306dc0001f8c260
:0306dd0001f8c061
:0306de0001f8be62
:0306df0001f8bc63
:0306e00001f8b965
:0306e10001f8b766
:0306e20001f8b567
:0306e30001f8b368
:0306e40001f8b169
:0306e50001f8af6a
:0306e60001f8ad6b
:0306e70001f8ab6c
:0306e80001f8a96d
:0306e90001f8a66f
:0306ea0001f8a470
:0306eb0001f8a271
:0306ec0001f8a072
:0306ed0001f89e73
:0306ee0001f89c74
:0306ef0001f89a75
:0306f00001f89876
:0306f10001f89578
:0306f20001f89379
:0306f30001f8917a
:0306f40001f88f7b
:0306f50001f88d7c
:0306f60001f88b7d
:0306f70001f8897e
:0306f80001f88680
:0306f90001f88481
:0306fa0001f88282
:0306fb0001f88083
:0306fc0001f87e84
:0306fd0001f87c85
:0306fe0001f87a86
:0306ff0001f87788
:0307000001f87588
:0307010001f87389
:0307020001f8718a
:0307030001f86f8b
:0307040001f86d8c
:0307050001f86b8d
:0307060001f8688f
:0307070001f86690
:0307080001f86491
:0307090001f86292
:03070a0001f86093
:03070b0001f85e94
:03070c0001f85b96
:03070d0001f85997
:03070e0001f85798
:03070f0001f85599
:0307100001f8539a
:0307110001f8519b
:0307120001f84e9d
:0307130001f84c9e
:0307140001f84a9f
:0307150001f848a0
:0307160001f846a1
:0307170001f844a2
:0307180001f841a4
:0307190001f83fa5
:03071a0001f83da6
:03071b0001f83ba7
:03071c0001f839a8
:03071d0001f837a9
:03071e0001f834ab
:03071f0001f832ac
:0307200001f830ad
:0307210001f82eae
:0307220001f82caf
:0307230001f829b1
:0307240001f827b2
:0307250001f825b3
:0307260001f823b4
:0307270001f821b5
:0307280001f81eb7
:0307290001f81cb8
:03072a0001f81ab9
:03072b0001f818ba
:03072c0001f816bb
:03072d0001f813bd
:03072e0001f811be
:03072f0001f80fbf
:0307300001f80dc0
:0307310001f80bc1
:0307320001f808c3
:0307330001f806c4
:0307340001f804c5
:0307350001f802c6
:0307360001f800c7
:0307370001f7fdca
:0307380001f7fbcb
:0307390001f7f9cc
:03073a0001f7f7cd
:03073b0001f7f5ce
:03073c0001f7f2d0
:03073d0001f7f0d1
:03073e0001f7eed2
:03073f0001f7ecd3
:0307400001f7e9d5
:0307410001f7e7d6
:0307420001f7e5d7
:0307430001f7e3d8
:0307440001f7e0da
:0307450001f7dedb
:0307460001f7dcdc
:0307470001f7dadd
:0307480001f7d8de
:0307490001f7d5e0
:03074a0001f7d3e1
:03074b0001f7d1e2
:03074c0001f7cfe3
:03074d0001f7cce5
:03074e0001f7cae6
:03074f0001f7c8e7
:0307500001f7c6e8
:0307510001f7c3ea
:0307520001f7c1eb
:0307530001f7bfec
:0307540001f7bded
:0307550001f7baef
:0307560001f7b8f0
:0307570001f7b6f1
:0307580001f7b4f2
:0307590001f7b1f4
:03075a0001f7aff5
:03075b0001f7adf6
:03075c0001f7abf7
:03075d0001f7a8f9
:03075e0001f7a6fa
:03075f0001f7a4fb
:0307600001f7a2fc
:0307610001f79ffe
:0307620001f79dff
:0307630001f79b00
:0307640001f79901
:0307650001f79603
:0307660001f79404
:0307670001f79205
:0307680001f78f07
:0307690001f78d08
:03076a0001f78b09
:03076b0001f7890a
:03076c0001f7860c
:03076d0001f7840d
:03076e0001f7820e
:03076f0001f7800f
:0307700001f77d11
:0307710001f77b12
:0307720001f77913
:0307730001f77615
:0307740001f77416
:0307750001f77217
:0307760001f77018
:0307770001f76d1a
:0307780001f76b1b
:0307790001f7691c
:03077a0001f7661e
:03077b0001f7641f
:03077c0001f76220
:03077d0001f76021
:03077e0001f75d23
:03077f0001f75b24
:0307800001f75925
:0307810001f75627
:0307820001f75428
:0307830001f75229
:0307840001f74f2b
:0307850001f74d2c
:0307860001f74b2d
:0307870001f7482f
:0307880001f74630
:0307890001f74431
:03078a0001f74232
:03078b0001f73f34
:03078c0001f73d35
:03078d0001f73b36
:03078e0001f73838
:03078f0001f73639
:0307900001f7343a
:0307910001f7313c
:0307920001f72f3d
:0307930001f72d3e
:0307940001f72a40
:0307950001f72841
:0307960001f72642
:0307970001f72344
:0307980001f72145
:0307990001f71f46
:03079a0001f71c48
:03079b0001f71a49
:03079c0001f7184a
:03079d0001f7154c
:03079e0001f7134d
:03079f0001f7114e
:0307a00001f70e50
:0307a10001f70c51
:0307a20001f70a52
:0307a30001f70754
:0307a40001f70555
:0307a50001f70356
:0307a60001f70058
:0307a70001f6fe5a
:0307a80001f6fc5b
:0307a90001f6f95d
:0307aa0001f6f75e
:0307ab0001f6f55f
:0307ac0001f6f261
:0307ad0001f6f062
:0307ae0001f6ee63
:0307af0001f6eb65
:0307b00001f6e966
:0307b10001f6e668
:0307b20001f6e469
:0307b30001f6e26a
:0307b40001f6df6c
:0307b50001f6dd6d
:0307b60001f6db6e
:0307b70001f6d870
:0307b80001f6d671
:0307b90001f6d472
:0307ba0001f6d174
:0307bb0001f6cf75
:0307bc0001f6cc77
:0307bd0001f6ca78
:0307be0001f6c879
:0307bf0001f6c57b
:0307c00001f6c37c
:0307c10001f6c17d
:0307c20001f6be7f
:0307c30001f6bc80
:0307c40001f6b982
:0307c50001f6b783
:0307c60001f6b584
:0307c70001f6b286
:0307c80001f6b087
:0307c90001f6ae88
:0307ca0001f6ab8a
:0307cb0001f6a98b
:0307cc0001f6a68d
:0307cd0001f6a48e
:0307ce0001f6a28f
:0307cf0001f69f91
:0307d00001f69d92
:0307d10001f69a94
:0307d20001f69895
:0307d30001f69696
:0307d40001f69398
:0307d50001f69199
:0307d60001f68e9b
:0307d70001f68c9c
:0307d80001f68a9d
:0307d90001f6879f
:0307da0001f685a0
:0307db0001f682a2
:0307dc0001f680a3
:0307dd0001f67ea4
:0307de0001f67ba6
:0307df0001f679a7
:0307e00001f676a9
:0307e10001f674aa
:0307e20001f672ab
:0307e30001f66fad
:0307e40001f66dae
:0307e50001f66ab0
:0307e60001f668b1
:0307e70001f665b3
:0307e80001f663b4
:0307e90001f661b5
:0307ea0001f65eb7
:0307eb0001f65cb8
:0307ec0001f659ba
:0307ed0001f657bb
:0307ee0001f654bd
:0307ef0001f652be
:0307f00001f650bf
:0307f10001f64dc1
:0307f20001f64bc2
:0307f30001f648c4
:0307f40001f646c5
:0307f50001f643c7
:0307f60001f641c8
:0307f70001f63fc9
:0307f80001f63ccb
:0307f90001f63acc
:0307fa0001f637ce
:0307fb0001f635cf
:0307fc0001f632d1
:0307fd0001f630d2
:0307fe0001f62dd4
:0307ff0001f62bd5
:0308000001f629d5
:0308010001f626d7
:0308020001f624d8
:0308030001f621da
:0308040001f61fdb
:0308050001f61cdd
:0308060001f61ade
:0308070001f617e0
:0308080001f615e1
:0308090001f612e3
:03080a0001f610e4
:03080b0001f60de6
:03080c0001f60be7
:03080d0001f609e8
:03080e0001f606ea
:03080f0001f604eb
:0308100001f601ed
:0308110001f5ffef
:0308120001f5fcf1
:0308130001f5faf2
:0308140001f5f7f4
:0308150001f5f5f5
:0308160001f5f2f7
:0308170001f5f0f8
:0308180001f5edfa
:0308190001f5ebfb
:03081a0001f5e8fd
:03081b0001f5e6fe
:03081c0001f5e300
:03081d0001f5e101
:03081e0001f5de03
:03081f0001f5dc04
:0308200001f5d906
:0308210001f5d707
:0308220001f5d409
:0308230001f5d20a
:0308240001f5cf0c
:0308250001f5cd0d
:0308260001f5ca0f
:0308270001f5c810
:0308280001f5c611
:0308290001f5c313
:03082a0001f5c114
:03082b0001f5be16
:03082c0001f5bb18
:03082d0001f5b919
:03082e0001f5b61b
:03082f0001f5b41c
:0308300001f5b11e
:0308310001f5af1f
:0308320001f5ac21
:0308330001f5aa22
:0308340001f5a724
:0308350001f5a525
:0308360001f5a227
:0308370001f5a028
:0308380001f59d2a
:0308390001f59b2b
:03083a0001f5982d
:03083b0001f5962e
:03083c0001f59330
:03083d0001f59131
:03083e0001f58e33
:03083f0001f58c34
:0308400001f58936
:0308410001f58737
:0308420001f58439
:0308430001f5823a
:0308440001f57f3c
:0308450001f57d3d
:0308460001f57a3f
:0308470001f57741
:0308480001f57542
:0308490001f57244
:03084a0001f57045
:03084b0001f56d47
:03084c0001f56b48
:03084d0001f5684a
:03084e0001f5664b
:03084f0001f5634d
:0308500001f5614e
:0308510001f55e50
:0308520001f55c51
:0308530001f55953
:0308540001f55655
:0308550001f55456
:0308560001f55158
:0308570001f54f59
:0308580001f54c5b
:0308590001f54a5c
:03085a0001f5475e
:03085b0001f5455f
:03085c0001f54261
:03085d0001f53f63
:03085e0001f53d64
:03085f0001f53a66
:0308600001f53867
:0308610001f53569
:0308620001f5336a
:0308630001f5306c
:0308640001f52d6e
:0308650001f52b6f
:0308660001f52871
:0308670001f52672
:0308680001f52374
:0308690001f52175
:03086a0001f51e77
:03086b0001f51b79
:03086c0001f5197a
:03086d0001f5167c
:03086e0001f5147d
:03086f0001f5117f
:0308700001f50f80
:0308710001f50c82
:0308720001f50984
:0308730001f50785
:0308740001f50487
:0308750001f50288
:0308760001f4ff8b
:0308770001f4fc8d
:0308780001f4fa8e
:0308790001f4f790
:03087a0001f4f591
:03087b0001f4f293
:03087c0001f4ef95
:03087d0001f4ed96
:03087e0001f4ea98
:03087f0001f4e899
:0308800001f4e59b
:0308810001f4e29d
:0308820001f4e09e
:0308830001f4dda0
:0308840001f4dba1
:0308850001f4d8a3
:0308860001f4d5a5
:0308870001f4d3a6
:0308880001f4d0a8
:0308890001f4cea9
:03088a0001f4cbab
:03088b0001f4c8ad
:03088c0001f4c6ae
:03088d0001f4c3b0
:03088e0001f4c0b2
:03088f0001f4beb3
:0308900001f4bbb5
:0308910001f4b9b6
:0308920001f4b6b8
:0308930001f4b3ba
:0308940001f4b1bb
:0308950001f4aebd
:0308960001f4abbf
:0308970001f4a9c0
:0308980001f4a6c2
:0308990001f4a4c3
:03089a0001f4a1c5
:03089b0001f49ec7
:03089c0001f49cc8
:03089d0001f499ca
:03089e0001f496cc
:03089f0001f494cd
:0308a00001f491cf
:0308a10001f48fd0
:0308a20001f48cd2
:0308a30001f489d4
:0308a40001f487d5
:0308a50001f484d7
:0308a60001f481d9
:0308a70001f47fda
:0308a80001f47cdc
:0308a90001f479de
:0308aa0001f477df
:0308ab0001f474e1
:0308ac0001f471e3
:0308ad0001f46fe4
:0308ae0001f46ce6
:0308af0001f469e8
:0308b00001f467e9
:0308b10001f464eb
:0308b20001f461ed
:0308b30001f45fee
:0308b40001f45cf0
:0308b50001f459f2
:0308b60001f457f3
:0308b70001f454f5
:0308b80001f451f7
:0308b90001f44ff8
:0308ba0001f44cfa
:0308bb0001f449fc
:0308bc0001f447fd
:0308bd0001f444ff
:0308be0001f44101
:0308bf0001f43f02
:0308c00001f43c04
:0308c10001f43906
:0308c20001f43707
:0308c30001f43409
:0308c40001f4310b
:0308c50001f42f0c
:0308c60001f42c0e
:0308c70001f42910
:0308c80001f42711
:0308c90001f42413
:0308ca0001f42115
:0308cb0001f41f16
:0308cc0001f41c18
:0308cd0001f4191a
:0308ce0001f4161c
:0308cf0001f4141d
:0308d00001f4111f
:0308d10001f40e21
:0308d20001f40c22
:0308d30001f40924
:0308d40001f40626
:0308d50001f40427
:0308d60001f40129
:0308d70001f3fe2c
:0308d80001f3fb2e
:0308d90001f3f92f
:0308da0001f3f631
:0308db0001f3f333
:0308dc0001f3f134
:0308dd0001f3ee36
:0308de0001f3eb38
:0308df0001f3e83a
:0308e00001f3e63b
:0308e10001f3e33d
:0308e20001f3e03f
:0308e30001f3de40
:0308e40001f3db42
:0308e50001f3d844
:0308e60001f3d546
:0308e70001f3d347
:0308e80001f3d049
:0308e90001f3cd4b
:0308ea0001f3cb4c
:0308eb0001f3c84e
:0308ec0001f3c550
:0308ed0001f3c252
:0308ee0001f3c053
:0308ef0001f3bd55
:0308f00001f3ba57
:0308f10001f3b759
:0308f20001f3b55a
:0308f30001f3b25c
:0308f40001f3af5e
:0308f50001f3ac60
:0308f60001f3aa61
:0308f70001f3a763
:0308f80001f3a465
:0308f90001f3a167
:0308fa0001f39f68
:0308fb0001f39c6a
:0308fc0001f3996c
:0308fd0001f3976d
:0308fe0001f3946f
:0308ff0001f39171
:0309000001f38e72
:0309010001f38c73
:0309020001f38975
:0309030001f38677
:0309040001f38379
:0309050001f3807b
:0309060001f37e7c
:0309070001f37b7e
:0309080001f37880
:0309090001f37582
:03090a0001f37383
:03090b0001f37085
:03090c0001f36d87
:03090d0001f36a89
:03090e0001f3688a
:03090f0001f3658c
:0309100001f3628e
:0309110001f35f90
:0309120001f35d91
:0309130001f35a93
:0309140001f35795
:0309150001f35497
:0309160001f35199
:0309170001f34f9a
:0309180001f34c9c
:0309190001f3499e
:03091a0001f346a0
:03091b0001f343a2
:03091c0001f341a3
:03091d0001f33ea5
:03091e0001f33ba7
:03091f0001f338a9
:0309200001f336aa
:0309210001f333ac
:0309220001f330ae
:0309230001f32db0
:0309240001f32ab2
:0309250001f328b3
:0309260001f325b5
:0309270001f322b7
:0309280001f31fb9
:0309290001f31cbb
:03092a0001f31abc
:03092b0001f317be
:03092c0001f314c0
:03092d0001f311c2
:03092e0001f30ec4
:03092f0001f30cc5
:0309300001f309c7
:0309310001f306c9
:0309320001f303cb
:0309330001f300cd
:0309340001f2fdd0
:0309350001f2fbd1
:0309360001f2f8d3
:0309370001f2f5d5
:0309380001f2f2d7
:0309390001f2efd9
:03093a0001f2edda
:03093b0001f2eadc
:03093c0001f2e7de
:03093d0001f2e4e0
:03093e0001f2e1e2
:03093f0001f2dee4
:0309400001f2dce5
:0309410001f2d9e7
:0309420001f2d6e9
:0309430001f2d3eb
:0309440001f2d0ed
:0309450001f2cdef
:0309460001f2cbf0
:0309470001f2c8f2
:0309480001f2c5f4
:0309490001f2c2f6
:03094a0001f2bff8
:03094b0001f2bcfa
:03094c0001f2bafb
:03094d0001f2b7fd
:03094e0001f2b4ff
:03094f0001f2b101
:0309500001f2ae03
:0309510001f2ab05
:0309520001f2a906
:0309530001f2a608
:0309540001f2a30a
:0309550001f2a00c
:0309560001f29d0e
:0309570001f29a10
:0309580001f29712
:0309590001f29513
:03095a0001f29215
:03095b0001f28f17
:03095c0001f28c19
:03095d0001f2891b
:03095e0001f2861d
:03095f0001f2831f
:0309600001f28120
:0309610001f27e22
:0309620001f27b24
:0309630001f27826
:0309640001f27528
:0309650001f2722a
:0309660001f26f2c
:0309670001f26c2e
:0309680001f26a2f
:0309690001f26731
:03096a0001f26433
:03096b0001f26135
:03096c0001f25e37
:03096d0001f25b39
:03096e0001f2583b
:03096f0001f2553d
:0309700001f2533e
:0309710001f25040
:0309720001f24d42
:0309730001f24a44
:0309740001f24746
:0309750001f24448
:0309760001f2414a
:0309770001f23e4c
:0309780001f23b4e
:0309790001f2394f
:03097a0001f23651
:03097b0001f23353
:03097c0001f23055
:03097d0001f22d57
:03097e0001f22a59
:03097f0001f2275b
:0309800001f2245d
:0309810001f2215f
:0309820001f21e61
:0309830001f21b63
:0309840001f21964
:0309850001f21666
:0309860001f21368
:0309870001f2106a
:0309880001f20d6c
:0309890001f20a6e
:03098a0001f20770
:03098b0001f20472
:03098c0001f20174
:03098d0001f1fe77
:03098e0001f1fb79
:03098f0001f1f97a
:0309900001f1f67c
:0309910001f1f37e
:0309920001f1f080
:0309930001f1ed82
:0309940001f1ea84
:0309950001f1e786
:0309960001f1e488
:0309970001f1e18a
:0309980001f1de8c
:0309990001f1db8e
:03099a0001f1d890
:03099b0001f1d592
:03099c0001f1d294
:03099d0001f1d095
:03099e0001f1cd97
:03099f0001f1ca99
:0309a00001f1c79b
:0309a10001f1c49d
:0309a20001f1c19f
:0309a30001f1bea1
:0309a40001f1bba3
:0309a50001f1b8a5
:0309a60001f1b5a7
:0309a70001f1b2a9
:0309a80001f1afab
:0309a90001f1acad
:0309aa0001f1a9af
:0309ab0001f1a6b1
:0309ac0001f1a3b3
:0309ad0001f1a0b5
:0309ae0001f19db7
:0309af0001f19ab9
:0309b00001f197bb
:0309b10001f195bc
:0309b20001f192be
:0309b30001f18fc0
:0309b40001f18cc2
:0309b50001f189c4
:0309b60001f186c6
:0309b70001f183c8
:0309b80001f180ca
:0309b90001f17dcc
:0309ba0001f17ace
:0309bb0001f177d0
:0309bc0001f174d2
:0309bd0001f171d4
:0309be0001f16ed6
:0309bf0001f16bd8
:0309c00001f168da
:0309c10001f165dc
:0309c20001f162de
:0309c30001f15fe0
:0309c40001f15ce2
:0309c50001f159e4
:0309c60001f156e6
:0309c70001f153e8
:0309c80001f150ea
:0309c90001f14dec
:0309ca0001f14aee
:0309cb0001f147f0
:0309cc0001f144f2
:0309cd0001f141f4
:0309ce0001f13ef6
:0309cf0001f13bf8
:0309d00001f138fa
:0309d10001f135fc
:0309d20001f132fe
:0309d30001f12f00
:0309d40001f12c02
:0309d50001f12904
:0309d60001f12606
:0309d70001f12308
:0309d80001f1200a
:0309d90001f11d0c
:0309da0001f11a0e
:0309db0001f11710
:0309dc0001f11412
:0309dd0001f11114
:0309de0001f10e16
:0309df0001f10b18
:0309e00001f1081a
:0309e10001f1051c
:0309e20001f1021e
:0309e30001f0ff21
:0309e40001f0fc23
:0309e50001f0f925
:0309e60001f0f627
:0309e70001f0f329
:0309e80001f0f02b
:0309e90001f0ed2d
:0309ea0001f0ea2f
:0309eb0001f0e731
:0309ec0001f0e433
:0309ed0001f0e135
:0309ee0001f0de37
:0309ef0001f0db39
:0309f00001f0d83b
:0309f10001f0d53d
:0309f20001f0d23f
:0309f30001f0cf41
:0309f40001f0cc43
:0309f50001f0c846
:0309f60001f0c548
:0309f70001f0c24a
:0309f80001f0bf4c
:0309f90001f0bc4e
:0309fa0001f0b950
:0309fb0001f0b652
:0309fc0001f0b354
:0309fd0001f0b056
:0309fe0001f0ad58
:0309ff0001f0aa5a
:030a000001f0a75b
:030a010001f0a45d
:030a020001f0a15f
:030a030001f09e61
:030a040001f09b63
:030a050001f09865
:030a060001f09567
:030a070001f09269
:030a080001f08f6b
:030a090001f08b6e
:030a0a0001f08870
:030a0b0001f08572
:030a0c0001f08274
:030a0d0001f07f76
:030a0e0001f07c78
:030a0f0001f0797a
:030a100001f0767c
:030a110001f0737e
:030a120001f07080
:030a130001f06d82
:030a140001f06a84
:030a150001f06786
:030a160001f06488
:030a170001f0608b
:030a180001f05d8d
:030a190001f05a8f
:030a1a0001f05791
:030a1b0001f05493
:030a1c0001f05195
:030a1d0001f04e97
:030a1e0001f04b99
:030a1f0001f0489b
:030a200001f0459d
:030a210001f0429f
:030a220001f03ea2
:030a230001f03ba4
:030a240001f038a6
:030a250001f035a8
:030a260001f032aa
:030a270001f02fac
:030a280001f02cae
:030a290001f029b0
:030a2a0001f026b2
:030a2b0001f023b4
:030a2c0001f01fb7
:030a2d0001f01cb9
:030a2e0001f019bb
:030a2f0001f016bd
:030a300001f013bf
:030a310001f010c1
:030a320001f00dc3
:030a330001f00ac5
:030a340001f007c7
:030a350001f003ca
:030a360001f000cc
:030a370001effdcf
:030a380001effad1
:030a390001eff7d3
:030a3a0001eff4d5
:030a3b0001eff1d7
:030a3c0001efeed9
:030a3d0001efebdb
:030a3e0001efe7de
:030a3f0001efe4e0
:030a400001efe1e2
:030a410001efdee4
:030a420001efdbe6
:030a430001efd8e8
:030a440001efd5ea
:030a450001efd2ec
:030a460001efceef
:030a470001efcbf1
:030a480001efc8f3
:030a490001efc5f5
:030a4a0001efc2f7
:030a4b0001efbff9
:030a4c0001efbcfb
:030a4d0001efb8fe
:030a4e0001efb500
:030a4f0001efb202
:030a500001efaf04
:030a510001efac06
:030a520001efa908
:030a530001efa60a
:030a540001efa20d
:030a550001ef9f0f
:030a560001ef9c11
:030a570001ef9913
:030a580001ef9615
:030a590001ef9317
:030a5a0001ef8f1a
:030a5b0001ef8c1c
:030a5c0001ef891e
:030a5d0001ef8620
:030a5e0001ef8322
:030a5f0001ef8024
:030a600001ef7c27
:030a610001ef7929
:030a620001ef762b
:030a630001ef732d
:030a640001ef702f
:030a650001ef6d31
:030a660001ef6934
:030a670001ef6636
:030a680001ef6338
:030a690001ef603a
:030a6a0001ef5d3c
:030a6b0001ef5a3e
:030a6c0001ef5641
:030a6d0001ef5343
:030a6e0001ef5045
:030a6f0001ef4d47
:030a700001ef4a49
:030a710001ef464c
:030a720001ef434e
:030a730001ef4050
:030a740001ef3d52
:030a750001ef3a54
:030a760001ef3756
:030a770001ef3359
:030a780001ef305b
:030a790001ef2d5d
:030a7a0001ef2a5f
:030a7b0001ef2761
:030a7c0001ef2364
:030a7d0001ef2066
:030a7e0001ef1d68
:030a7f0001ef1a6a
:030a800001ef176c
:030a810001ef136f
:030a820001ef1071
:030a830001ef0d73
:030a840001ef0a75
:030a850001ef0777
:030a860001ef037a
:030a870001ef007c
:030a880001eefd7f
:030a890001eefa81
:030a8a0001eef684
:030a8b0001eef386
:030a8c0001eef088
:030a8d0001eeed8a
:030a8e0001eeea8c
:030a8f0001eee68f
:030a900001eee391
:030a910001eee093
:030a920001eedd95
:030a930001eeda97
:030a940001eed69a
:030a950001eed39c
:030a960001eed09e
:030a970001eecda0
:030a980001eec9a3
:030a990001eec6a5
:030a9a0001eec3a7
:030a9b0001eec0a9
:030a9c0001eebcac
:030a9d0001eeb9ae
:030a9e0001eeb6b0
:030a9f0001eeb3b2
:030aa00001eeafb5
:030aa10001eeacb7
:030aa20001eea9b9
:030aa30001eea6bb
:030aa40001eea3bd
:030aa50001ee9fc0
:030aa60001ee9cc2
:030aa70001ee99c4
:030aa80001ee96c6
:030aa90001ee92c9
:030aaa0001ee8fcb
:030aab0001ee8ccd
:030aac0001ee89cf
:030aad0001ee85d2
:030aae0001ee82d4
:030aaf0001ee7fd6
:030ab00001ee7cd8
:030ab10001ee78db
:030ab20001ee75dd
:030ab30001ee72df
:030ab40001ee6ee2
:030ab50001ee6be4
:030ab60001ee68e6
:030ab70001ee65e8
:030ab80001ee61eb
:030ab90001ee5eed
:030aba0001ee5bef
:030abb0001ee58f1
:030abc0001ee54f4
:030abd0001ee51f6
:030abe0001ee4ef8
:030abf0001ee4afb
:030ac00001ee47fd
:030ac10001ee44ff
:030ac20001ee4101
:030ac30001ee3d04
:030ac40001ee3a06
:030ac50001ee3708
:030ac60001ee340a
:030ac70001ee300d
:030ac80001ee2d0f
:030ac90001ee2a11
:030aca0001ee2614
:030acb0001ee2316
:030acc0001ee2018
:030acd0001ee1d1a
:030ace0001ee191d
:030acf0001ee161f
:030ad00001ee1321
:030ad10001ee0f24
:030ad20001ee0c26
:030ad30001ee0928
:030ad40001ee052b
:030ad50001ee022d
:030ad60001edff30
:030ad70001edfc32
:030ad80001edf835
:030ad90001edf537
:030ada0001edf239
:030adb0001edee3c
:030adc0001edeb3e
:030add0001ede840
:030ade0001ede443
:030adf0001ede145
:030ae00001edde47
:030ae10001edda4a
:030ae20001edd74c
:030ae30001edd44e
:030ae40001edd051
:030ae50001edcd53
:030ae60001edca55
:030ae70001edc757
:030ae80001edc35a
:030ae90001edc05c
:030aea0001edbd5e
:030aeb0001edb961
:030aec0001edb663
:030aed0001edb365
:030aee0001edaf68
:030aef0001edac6a
:030af00001eda96c
:030af10001eda56f
:030af20001eda271
:030af30001ed9f73
:030af40001ed9b76
:030af50001ed9878
:030af60001ed957a
:030af70001ed917d
:030af80001ed8e7f
:030af90001ed8b81
:030afa0001ed8784
:030afb0001ed8486
:030afc0001ed8089
:030afd0001ed7d8b
:030afe0001ed7a8d
:030aff0001ed7690
:030b000001ed7391
:030b010001ed7093
:030b020001ed6c96
:030b030001ed6998
:030b040001ed669a
:030b050001ed629d
:030b060001ed5f9f
:030b070001ed5ca1
:030b080001ed58a4
:030b090001ed55a6
:030b0a0001ed52a8
:030b0b0001ed4eab
:030b0c0001ed4bad
:030b0d0001ed47b0
:030b0e0001ed44b2
:030b0f0001ed41b4
:030b100001ed3db7
:030b110001ed3ab9
:030b120001ed37bb
:030b130001ed33be
:030b140001ed30c0
:030b150001ed2cc3
:030b160001ed29c5
:030b170001ed26c7
:030b180001ed22ca
:030b190001ed1fcc
:030b1a0001ed1cce
:030b1b0001ed18d1
:030b1c0001ed15d3
:030b1d0001ed11d6
:030b1e0001ed0ed8
:030b1f0001ed0bda
:030b200001ed07dd
:030b210001ed04df
:030b220001ed00e2
:030b230001ecfde5
:030b240001ecfae7
:030b250001ecf6ea
:030b260001ecf3ec
:030b270001ecefef
:030b280001ececf1
:030b290001ece9f3
:030b2a0001ece5f6
:030b2b0001ece2f8
:030b2c0001ecdefb
:030b2d0001ecdbfd
:030b2e0001ecd8ff
:030b2f0001ecd402
:030b300001ecd104
:030b310001eccd07
:030b320001ecca09
:030b330001ecc70b
:030b340001ecc30e
:030b350001ecc010
:030b360001ecbc13
:030b370001ecb915
:030b380001ecb617
:030b390001ecb21a
:030b3a0001ecaf1c
:030b3b0001ecab1f
:030b3c0001eca821
:030b3d0001eca424
:030b3e0001eca126
:030b3f0001ec9e28
:030b400001ec9a2b
:030b410001ec972d
:030b420001ec9330
:030b430001ec9032
:030b440001ec8d34
:030b450001ec8937
:030b460001ec8639
:030b470001ec823c
:030b480001ec7f3e
:030b490001ec7b41
:030b4a0001ec7843
:030b4b0001ec7446
:030b4c0001ec7148
:030b4d0001ec6e4a
:030b4e0001ec6a4d
:030b4f0001ec674f
:030b500001ec6352
:030b510001ec6054
:030b520001ec5c57
:030b530001ec5959
:030b540001ec555c
:030b550001ec525e
:030b560001ec4f60
:030b570001ec4b63
:030b580001ec4865
:030b590001ec4468
:030b5a0001ec416a
:030b5b0001ec3d6d
:030b5c0001ec3a6f
:030b5d0001ec3672
:030b5e0001ec3374
:030b5f0001ec2f77
:030b600001ec2c79
:030b610001ec297b
:030b620001ec257e
:030b630001ec2280
:030b640001ec1e83
:030b650001ec1b85
:030b660001ec1788
:030b670001ec148a
:030b680001ec108d
:030b690001ec0d8f
:030b6a0001ec0992
:030b6b0001ec0694
:030b6c0001ec0297
:030b6d0001ebff9a
:030b6e0001ebfb9d
:030b6f0001ebf89f
:030b700001ebf4a2
:030b710001ebf1a4
:030b720001ebeda7
:030b730001ebeaa9
:030b740001ebe7ab
:030b750001ebe3ae
:030b760001ebe0b0
:030b770001ebdcb3
:030b780001ebd9b5
:030b790001ebd5b8
:030b7a0001ebd2ba
:030b7b0001ebcebd
:030b7c0001ebcbbf
:030b7d0001ebc7c2
:030b7e0001ebc4c4
:030b7f0001ebc0c7
:030b800001ebbdc9
:030b810001ebb9cc
:030b820001ebb6ce
:030b830001ebb2d1
:030b840001ebafd3
:030b850001ebabd6
:030b860001eba8d8
:030b870001eba4db
:030b880001eba1dd
:030b890001eb9de0
:030b8a0001eb9ae2
:030b8b0001eb96e5
:030b8c0001eb93e7
:030b8d0001eb8fea
:030b8e0001eb8bed
:030b8f0001eb88ef
:030b900001eb84f2
:030b910001eb81f4
:030b920001eb7df7
:030b930001eb7af9
:030b940001eb76fc
:030b950001eb73fe
:030b960001eb6f01
:030b970001eb6c03
:030b980001eb6806
:030b990001eb6508
:030b9a0001eb610b
:030b9b0001eb5e0d
:030b9c0001eb5a10
:030b9d0001eb5712
:030b9e0001eb5315
:030b9f0001eb5017
:030ba00001eb4c1a
:030ba10001eb481d
:030ba20001eb451f
:030ba30001eb4122
:030ba40001eb3e24
:030ba50001eb3a27
:030ba60001eb3729
:030ba70001eb332c
:030ba80001eb302e
:030ba90001eb2c31
:030baa0001eb2933
:030bab0001eb2536
:030bac0001eb2139
:030bad0001eb1e3b
:030bae0001eb1a3e
:030baf0001eb1740
:030bb00001eb1343
:030bb10001eb1045
:030bb20001eb0c48
:030bb30001eb094a
:030bb40001eb054d
:030bb50001eb0150
:030bb60001eafe53
:030bb70001eafa56
:030bb80001eaf758
:030bb90001eaf35b
:030bba0001eaf05d
:030bbb0001eaec60
:030bbc0001eae962
:030bbd0001eae565
:030bbe0001eae168
:030bbf0001eade6a
:030bc00001eada6d
:030bc10001ead76f
:030bc20001ead372
:030bc30001eacf75
:030bc40001eacc77
:030bc50001eac87a
:030bc60001eac57c
:030bc70001eac17f
:030bc80001eabe81
:030bc90001eaba84
:030bca0001eab687
:030bcb0001eab389
:030bcc0001eaaf8c
:030bcd0001eaac8e
:030bce0001eaa891
:030bcf0001eaa494
:030bd00001eaa196
:030bd10001ea9d99
:030bd20001ea9a9b
:030bd30001ea969e
:030bd40001ea93a0
:030bd50001ea8fa3
:030bd60001ea8ba6
:030bd70001ea88a8
:030bd80001ea84ab
:030bd90001ea81ad
:030bda0001ea7db0
:030bdb0001ea79b3
:030bdc0001ea76b5
:030bdd0001ea72b8
:030bde0001ea6ebb
:030bdf0001ea6bbd
:030be00001ea67c0
:030be10001ea64c2
:030be20001ea60c5
:030be30001ea5cc8
:030be40001ea59ca
:030be50001ea55cd
:030be60001ea52cf
:030be70001ea4ed2
:030be80001ea4ad5
:030be90001ea47d7
:030bea0001ea43da
:030beb0001ea3fdd
:030bec0001ea3cdf
:030bed0001ea38e2
:030bee0001ea35e4
:030bef0001ea31e7
:030bf00001ea2dea
:030bf10001ea2aec
:030bf20001ea26ef
:030bf30001ea22f2
:030bf40001ea1ff4
:030bf50001ea1bf7
:030bf60001ea18f9
:030bf70001ea14fc
:030bf80001ea10ff
:030bf90001ea0d01
:030bfa0001ea0904
:030bfb0001ea0507
:030bfc0001ea0209
:030bfd0001e9fe0d
:030bfe0001e9fa10
:030bff0001e9f712
:030c000001e9f314
:030c010001e9ef17
:030c020001e9ec19
:030c030001e9e81c
:030c040001e9e51e
:030c050001e9e121
:030c060001e9dd24
:030c070001e9da26
:030c080001e9d629
:030c090001e9d22c
:030c0a0001e9cf2e
:030c0b0001e9cb31
:030c0c0001e9c734
:030c0d0001e9c436
:030c0e0001e9c039
:030c0f0001e9bc3c
:030c100001e9b93e
:030c110001e9b541
:030c120001e9b144
:030c130001e9ae46
:030c140001e9aa49
:030c150001e9a64c
:030c160001e9a34e
:030c170001e99f51
:030c180001e99b54
:030c190001e99856
:030c1a0001e99459
:030c1b0001e9905c
:030c1c0001e98d5e
:030c1d0001e98961
:030c1e0001e98564
:030c1f0001e98167
:030c200001e97e69
:030c210001e97a6c
:030c220001e9766f
:030c230001e97371
:030c240001e96f74
:030c250001e96b77
:030c260001e96879
:030c270001e9647c
:030c280001e9607f
:030c290001e95d81
:030c2a0001e95984
:030c2b0001e95587
:030c2c0001e95289
:030c2d0001e94e8c
:030c2e0001e94a8f
:030c2f0001e94692
:030c300001e94394
:030c310001e93f97
:030c320001e93b9a
:030c330001e9389c
:030c340001e9349f
:030c350001e930a2
:030c360001e92ca5
:030c370001e929a7
:030c380001e925aa
:030c390001e921ad
:030c3a0001e91eaf
:030c3b0001e91ab2
:030c3c0001e916b5
:030c3d0001e912b8
:030c3e0001e90fba
:030c3f0001e90bbd
:030c400001e907c0
:030c410001e904c2
:030c420001e900c5
:030c430001e8fcc9
:030c440001e8f8cc
:030c450001e8f5ce
:030c460001e8f1d1
:030c470001e8edd4
:030c480001e8e9d7
:030c490001e8e6d9
:030c4a0001e8e2dc
:030c4b0001e8dedf
:030c4c0001e8dbe1
:030c4d0001e8d7e4
:030c4e0001e8d3e7
:030c4f0001e8cfea
:030c500001e8ccec
:030c510001e8c8ef
:030c520001e8c4f2
:030c530001e8c0f5
:030c540001e8bdf7
:030c550001e8b9fa
:030c560001e8b5fd
:030c570001e8b100
:030c580001e8ae02
:030c590001e8aa05
:030c5a0001e8a608
:030c5b0001e8a20b
:030c5c0001e89f0d
:030c5d0001e89b10
:030c5e0001e89713
:030c5f0001e89316
:030c600001e89018
:030c610001e88c1b
:030c620001e8881e
:030c630001e88421
:030c640001e88123
:030c650001e87d26
:030c660001e87929
:030c670001e8752c
:030c680001e8722e
:030c690001e86e31
:030c6a0001e86a34
:030c6b0001e86637
:030c6c0001e8623a
:030c6d0001e85f3c
:030c6e0001e85b3f
:030c6f0001e85742
:030c700001e85345
:030c710001e85047
:030c720001e84c4a
:030c730001e8484d
:030c740001e84450
:030c750001e84053
:030c760001e83d55
:030c770001e83958
:030c780001e8355b
:030c790001e8315e
:030c7a0001e82e60
:030c7b0001e82a63
:030c7c0001e82666
:030c7d0001e82269
:030c7e0001e81e6c
:030c7f0001e81b6e
:030c800001e81771
:030c810001e81374
:030c820001e80f77
:030c830001e80b7a
:030c840001e8087c
:030c850001e8047f
:030c860001e80082
:030c870001e7fc86
:030c880001e7f889
:030c890001e7f58b
:030c8a0001e7f18e
:030c8b0001e7ed91
:030c8c0001e7e994
:030c8d0001e7e597
:030c8e0001e7e299
:030c8f0001e7de9c
:030c900001e7da9f
:030c910001e7d6a2
:030c920001e7d2a5
:030c930001e7cea8
:030c940001e7cbaa
:030c950001e7c7ad
:030c960001e7c3b0
:030c970001e7bfb3
:030c980001e7bbb6
:030c990001e7b8b8
:030c9a0001e7b4bb
:030c9b0001e7b0be
:030c9c0001e7acc1
:030c9d0001e7a8c4
:030c9e0001e7a4c7
:030c9f0001e7a1c9
:030ca00001e79dcc
:030ca10001e799cf
:030ca20001e795d2
:030ca30001e791d5
:030ca40001e78dd8
:030ca50001e78ada
:030ca60001e786dd
:030ca70001e782e0
:030ca80001e77ee3
:030ca90001e77ae6
:030caa0001e776e9
:030cab0001e773eb
:030cac0001e76fee
:030cad0001e76bf1
:030cae0001e767f4
:030caf0001e763f7
:030cb00001e75ffa
:030cb10001e75bfd
:030cb20001e758ff
:030cb30001e75402
:030cb40001e75005
:030cb50001e74c08
:030cb60001e7480b
:030cb70001e7440e
:030cb80001e74011
:030cb90001e73d13
:030cba0001e73916
:030cbb0001e73519
:030cbc0001e7311c
:030cbd0001e72d1f
:030cbe0001e72922
:030cbf0001e72525
:030cc00001e72227
:030cc10001e71e2a
:030cc20001e71a2d
:030cc30001e71630
:030cc40001e71233
:030cc50001e70e36
:030cc60001e70a39
:030cc70001e7063c
:030cc80001e7033e
:030cc90001e6ff42
:030cca0001e6fb45
:030ccb0001e6f748
:030ccc0001e6f34b
:030ccd0001e6ef4e
:030cce0001e6eb51
:030ccf0001e6e754
:030cd00001e6e357
:030cd10001e6e059
:030cd20001e6dc5c
:030cd30001e6d85f
:030cd40001e6d462
:030cd50001e6d065
:030cd60001e6cc68
:030cd70001e6c86b
:030cd80001e6c46e
:030cd90001e6c071
:030cda0001e6bd73
:030cdb0001e6b976
:030cdc0001e6b579
:030cdd0001e6b17c
:030cde0001e6ad7f
:030cdf0001e6a982
:030ce00001e6a585
:030ce10001e6a188
:030ce20001e69d8b
:030ce30001e6998e
:030ce40001e69690
:030ce50001e69293
:030ce60001e68e96
:030ce70001e68a99
:030ce80001e6869c
:030ce90001e6829f
:030cea0001e67ea2
:030ceb0001e67aa5
:030cec0001e676a8
:030ced0001e672ab
:030cee0001e66eae
:030cef0001e66ab1
:030cf00001e667b3
:030cf10001e663b6
:030cf20001e65fb9
:030cf30001e65bbc
:030cf40001e657bf
:030cf50001e653c2
:030cf60001e64fc5
:030cf70001e64bc8
:030cf80001e647cb
:030cf90001e643ce
:030cfa0001e63fd1
:030cfb0001e63bd4
:030cfc0001e637d7
:030cfd0001e633da
:030cfe0001e62fdd
:030cff0001e62cdf
:030d000001e628e1
:030d010001e624e4
:030d020001e620e7
:030d030001e61cea
:030d040001e618ed
:030d050001e614f0
:030d060001e610f3
:030d070001e60cf6
:030d080001e608f9
:030d090001e604fc
:030d0a0001e600ff
:030d0b0001e5fc03
:030d0c0001e5f806
:030d0d0001e5f409
:030d0e0001e5f00c
:030d0f0001e5ec0f
:030d100001e5e812
:030d110001e5e415
:030d120001e5e018
:030d130001e5dd1a
:030d140001e5d91d
:030d150001e5d520
:030d160001e5d123
:030d170001e5cd26
:030d180001e5c929
:030d190001e5c52c
:030d1a0001e5c12f
:030d1b0001e5bd32
:030d1c0001e5b935
:030d1d0001e5b538
:030d1e0001e5b13b
:030d1f0001e5ad3e
:030d200001e5a941
:030d210001e5a544
:030d220001e5a147
:030d230001e59d4a
:030d240001e5994d
:030d250001e59550
:030d260001e59153
:030d270001e58d56
:030d280001e58959
:030d290001e5855c
:030d2a0001e5815f
:030d2b0001e57d62
:030d2c0001e57965
:030d2d0001e57568
:030d2e0001e5716b
:030d2f0001e56d6e
:030d300001e56971
:030d310001e56574
:030d320001e56177
:030d330001e55d7a
:030d340001e5597d
:030d350001e55580
:030d360001e55183
:030d370001e54d86
:030d380001e54989
:030d390001e5458c
:030d3a0001e5418f
:030d3b0001e53d92
:030d3c0001e53995
:030d3d0001e53598
:030d3e0001e5319b
:030d3f0001e52d9e
:030d400001e529a1
:030d410001e525a4
:030d420001e521a7
:030d430001e51daa
:030d440001e519ad
:030d450001e515b0
:030d460001e511b3
:030d470001e50db6
:030d480001e509b9
:030d490001e505bc
:030d4a0001e501bf
:030d4b0001e4fdc3
:030d4c0001e4f9c6
:030d4d0001e4f5c9
:030d4e0001e4f1cc
:030d4f0001e4edcf
:030d500001e4e9d2
:030d510001e4e5d5
:030d520001e4e1d8
:030d530001e4dddb
:030d540001e4d8df
:030d550001e4d4e2
:030d560001e4d0e5
:030d570001e4cce8
:030d580001e4c8eb
:030d590001e4c4ee
:030d5a0001e4c0f1
:030d5b0001e4bcf4
:030d5c0001e4b8f7
:030d5d0001e4b4fa
:030d5e0001e4b0fd
:030d5f0001e4ac00
:030d600001e4a803
:030d610001e4a406
:030d620001e4a009
:030d630001e49c0c
:030d640001e4980f
:030d650001e49412
:030d660001e49015
:030d670001e48c18
:030d680001e4871c
:030d690001e4831f
:030d6a0001e47f22
:030d6b0001e47b25
:030d6c0001e47728
:030d6d0001e4732b
:030d6e0001e46f2e
:030d6f0001e46b31
:030d700001e46734
:030d710001e46337
:030d720001e45f3a
:030d730001e45b3d
:030d740001e45740
:030d750001e45343
:030d760001e44f46
:030d770001e44a4a
:030d780001e4464d
:030d790001e44250
:030d7a0001e43e53
:030d7b0001e43a56
:030d7c0001e43659
:030d7d0001e4325c
:030d7e0001e42e5f
:030d7f0001e42a62
:030d800001e42665
:030d810001e42268
:030d820001e41e6b
:030d830001e4196f
:030d840001e41572
:030d850001e41175
:030d860001e40d78
:030d870001e4097b
:030d880001e4057e
:030d890001e40181
:030d8a0001e3fd85
:030d8b0001e3f988
:030d8c0001e3f58b
:030d8d0001e3f08f
:030d8e0001e3ec92
:030d8f0001e3e895
:030d900001e3e498
:030d910001e3e09b
:030d920001e3dc9e
:030d930001e3d8a1
:030d940001e3d4a4
:030d950001e3d0a7
:030d960001e3cbab
:030d970001e3c7ae
:030d980001e3c3b1
:030d990001e3bfb4
:030d9a0001e3bbb7
:030d9b0001e3b7ba
:030d9c0001e3b3bd
:030d9d0001e3afc0
:030d9e0001e3abc3
:030d9f0001e3a6c7
:030da00001e3a2ca
:030da10001e39ecd
:030da20001e39ad0
:030da30001e396d3
:030da40001e392d6
:030da50001e38ed9
:030da60001e38adc
:030da70001e385e0
:030da80001e381e3
:030da90001e37de6
:030daa0001e379e9
:030dab0001e375ec
:030dac0001e371ef
:030dad0001e36df2
:030dae0001e368f6
:030daf0001e364f9
:030db00001e360fc
:030db10001e35cff
:030db20001e35802
:030db30001e35405
:030db40001e35008
:030db50001e34b0c
:030db60001e3470f
:030db70001e34312
:030db80001e33f15
:030db90001e33b18
:030dba0001e3371b
:030dbb0001e3331e
:030dbc0001e32e22
:030dbd0001e32a25
:030dbe0001e32628
:030dbf0001e3222b
:030dc00001e31e2e
:030dc10001e31a31
:030dc20001e31535
:030dc30001e31138
:030dc40001e30d3b
:030dc50001e3093e
:030dc60001e30541
:030dc70001e30144
:030dc80001e2fc49
:030dc90001e2f84c
:030dca0001e2f44f
:030dcb0001e2f052
:030dcc0001e2ec55
:030dcd0001e2e858
:030dce0001e2e35c
:030dcf0001e2df5f
:030dd00001e2db62
:030dd10001e2d765
:030dd20001e2d368
:030dd30001e2ce6c
:030dd40001e2ca6f
:030dd50001e2c672
:030dd60001e2c275
:030dd70001e2be78
:030dd80001e2ba7b
:030dd90001e2b57f
:030dda0001e2b182
:030ddb0001e2ad85
:030ddc0001e2a988
:030ddd0001e2a58b
:030dde0001e2a08f
:030ddf0001e29c92
:030de00001e29895
:030de10001e29498
:030de20001e2909b
:030de30001e28b9f
:030de40001e287a2
:030de50001e283a5
:030de60001e27fa8
:030de70001e27bab
:030de80001e276af
:030de90001e272b2
:030dea0001e26eb5
:030deb0001e26ab8
:030dec0001e266bb
:030ded0001e261bf
:030dee0001e25dc2
:030def0001e259c5
:030df00001e255c8
:030df10001e250cc
:030df20001e24ccf
:030df30001e248d2
:030df40001e244d5
:030df50001e240d8
:030df60001e23bdc
:030df70001e237df
:030df80001e233e2
:030df90001e22fe5
:030dfa0001e22be8
:030dfb0001e226ec
:030dfc0001e222ef
:030dfd0001e21ef2
:030dfe0001e21af5
:030dff0001e215f9
:030e000001e211fb
:030e010001e20dfe
:030e020001e20901
:030e030001e20405
:030e040001e20008
:030e050001e1fc0c
:030e060001e1f80f
:030e070001e1f313
:030e080001e1ef16
:030e090001e1eb19
:030e0a0001e1e71c
:030e0b0001e1e220
:030e0c0001e1de23
:030e0d0001e1da26
:030e0e0001e1d629
:030e0f0001e1d12d
:030e100001e1cd30
:030e110001e1c933
:030e120001e1c536
:030e130001e1c03a
:030e140001e1bc3d
:030e150001e1b840
:030e160001e1b443
:030e170001e1af47
:030e180001e1ab4a
:030e190001e1a74d
:030e1a0001e1a350
:030e1b0001e19e54
:030e1c0001e19a57
:030e1d0001e1965a
:030e1e0001e1925d
:030e1f0001e18d61
:030e200001e18964
:030e210001e18567
:030e220001e1816a
:030e230001e17c6e
:030e240001e17871
:030e250001e17474
:030e260001e16f78
:030e270001e16b7b
:030e280001e1677e
:030e290001e16381
:030e2a0001e15e85
:030e2b0001e15a88
:030e2c0001e1568b
:030e2d0001e1518f
:030e2e0001e14d92
:030e2f0001e14995
:030e300001e14598
:030e310001e1409c
:030e320001e13c9f
:030e330001e138a2
:030e340001e133a6
:030e350001e12fa9
:030e360001e12bac
:030e370001e127af
:030e380001e122b3
:030e390001e11eb6
:030e3a0001e11ab9
:030e3b0001e115bd
:030e3c0001e111c0
:030e3d0001e10dc3
:030e3e0001e108c7
:030e3f0001e104ca
:030e400001e100cd
:030e410001e0fcd1
:030e420001e0f7d5
:030e430001e0f3d8
:030e440001e0efdb
:030e450001e0eadf
:030e460001e0e6e2
:030e470001e0e2e5
:030e480001e0dde9
:030e490001e0d9ec
:030e4a0001e0d5ef
:030e4b0001e0d0f3
:030e4c0001e0ccf6
:030e4d0001e0c8f9
:030e4e0001e0c3fd
:030e4f0001e0bf00
:030e500001e0bb03
:030e510001e0b607
:030e520001e0b20a
:030e530001e0ae0d
:030e540001e0aa10
:030e550001e0a514
:030e560001e0a117
:030e570001e09d1a
:030e580001e0981e
:030e590001e09421
:030e5a0001e09024
:030e5b0001e08b28
:030e5c0001e0872b
:030e5d0001e0832e
:030e5e0001e07e32
:030e5f0001e07a35
:030e600001e07539
:030e610001e0713c
:030e620001e06d3f
:030e630001e06843
:030e640001e06446
:030e650001e06049
:030e660001e05b4d
:030e670001e05750
:030e680001e05353
:030e690001e04e57
:030e6a0001e04a5a
:030e6b0001e0465d
:030e6c0001e04161
:030e6d0001e03d64
:030e6e0001e03967
:030e6f0001e0346b
:030e700001e0306e
:030e710001e02c71
:030e720001e02775
:030e730001e02378
:030e740001e01e7c
:030e750001e01a7f
:030e760001e01682
:030e770001e01186
:030e780001e00d89
:030e790001e0098c
:030e7a0001e00490
:030e7b0001e00093
:030e7c0001dffb98
:030e7d0001dff79b
:030e7e0001dff39e
:030e7f0001dfeea2
:030e800001dfeaa5
:030e810001dfe6a8
:030e820001dfe1ac
:030e830001dfddaf
:030e840001dfd8b3
:030e850001dfd4b6
:030e860001dfd0b9
:030e870001dfcbbd
:030e880001dfc7c0
:030e890001dfc3c3
:030e8a0001dfbec7
:030e8b0001dfbaca
:030e8c0001dfb5ce
:030e8d0001dfb1d1
:030e8e0001dfadd4
:030e8f0001dfa8d8
:030e900001dfa4db
:030e910001df9fdf
:030e920001df9be2
:030e930001df97e5
:030e940001df92e9
:030e950001df8eec
:030e960001df89f0
:030e970001df85f3
:030e980001df81f6
:030e990001df7cfa
:030e9a0001df78fd
:030e9b0001df7301
:030e9c0001df6f04
:030e9d0001df6b07
:030e9e0001df660b
:030e9f0001df620e
:030ea00001df5d12
:030ea10001df5915
:030ea20001df5419
:030ea30001df501c
:030ea40001df4c1f
:030ea50001df4723
:030ea60001df4326
:030ea70001df3e2a
:030ea80001df3a2d
:030ea90001df3630
:030eaa0001df3134
:030eab0001df2d37
:030eac0001df283b
:030ead0001df243e
:030eae0001df1f42
:030eaf0001df1b45
:030eb00001df1748
:030eb10001df124c
:030eb20001df0e4f
:030eb30001df0953
:030eb40001df0556
:030eb50001df005a
:030eb60001defc5e
:030eb70001def762
:030eb80001def365
:030eb90001deef68
:030eba0001deea6c
:030ebb0001dee66f
:030ebc0001dee173
:030ebd0001dedd76
:030ebe0001ded87a
:030ebf0001ded47d
:030ec00001decf81
:030ec10001decb84
:030ec20001dec787
:030ec30001dec28b
:030ec40001debe8e
:030ec50001deb992
:030ec60001deb595
:030ec70001deb099
:030ec80001deac9c
:030ec90001dea7a0
:030eca0001dea3a3
:030ecb0001de9ea7
:030ecc0001de9aaa
:030ecd0001de95ae
:030ece0001de91b1
:030ecf0001de8db4
:030ed00001de88b8
:030ed10001de84bb
:030ed20001de7fbf
:030ed30001de7bc2
:030ed40001de76c6
:030ed50001de72c9
:030ed60001de6dcd
:030ed70001de69d0
:030ed80001de64d4
:030ed90001de60d7
:030eda0001de5bdb
:030edb0001de57de
:030edc0001de52e2
:030edd0001de4ee5
:030ede0001de49e9
:030edf0001de45ec
:030ee00001de40f0
:030ee10001de3cf3
:030ee20001de37f7
:030ee30001de33fa
:030ee40001de2efe
:030ee50001de2a01
:030ee60001de2604
:030ee70001de2108
:030ee80001de1d0b
:030ee90001de180f
:030eea0001de1412
:030eeb0001de0f16
:030eec0001de0b19
:030eed0001de061d
:030eee0001de0220
:030eef0001ddfd25
:030ef00001ddf928
:030ef10001ddf42c
:030ef20001ddf02f
:030ef30001ddeb33
:030ef40001dde637
:030ef50001dde23a
:030ef60001dddd3e
:030ef70001ddd941
:030ef80001ddd445
:030ef90001ddd048
:030efa0001ddcb4c
:030efb0001ddc74f
:030efc0001ddc253
:030efd0001ddbe56
:030efe0001ddb95a
:030eff0001ddb55d
:030f000001ddb060
:030f010001ddac63
:030f020001dda767
:030f030001dda36a
:030f040001dd9e6e
:030f050001dd9a71
:030f060001dd9575
:030f070001dd9178
:030f080001dd8c7c
:030f090001dd887f
:030f0a0001dd8383
:030f0b0001dd7e87
:030f0c0001dd7a8a
:030f0d0001dd758e
:030f0e0001dd7191
:030f0f0001dd6c95
:030f100001dd6898
:030f110001dd639c
:030f120001dd5f9f
:030f130001dd5aa3
:030f140001dd56a6
:030f150001dd51aa
:030f160001dd4dad
:030f170001dd48b1
:030f180001dd43b5
:030f190001dd3fb8
:030f1a0001dd3abc
:030f1b0001dd36bf
:030f1c0001dd31c3
:030f1d0001dd2dc6
:030f1e0001dd28ca
:030f1f0001dd24cd
:030f200001dd1fd1
:030f210001dd1ad5
:030f220001dd16d8
:030f230001dd11dc
:030f240001dd0ddf
:030f250001dd08e3
:030f260001dd04e6
:030f270001dcffeb
:030f280001dcfaef
:030f290001dcf6f2
:030f2a0001dcf1f6
:030f2b0001dcedf9
:030f2c0001dce8fd
:030f2d0001dce400
:030f2e0001dcdf04
:030f2f0001dcda08
:030f300001dcd60b
:030f310001dcd10f
:030f320001dccd12
:030f330001dcc816
:030f340001dcc419
:030f350001dcbf1d
:030f360001dcba21
:030f370001dcb624
:030f380001dcb128
:030f390001dcad2b
:030f3a0001dca82f
:030f3b0001dca432
:030f3c0001dc9f36
:030f3d0001dc9a3a
:030f3e0001dc963d
:030f3f0001dc9141
:030f400001dc8d44
:030f410001dc8848
:030f420001dc834c
:030f430001dc7f4f
:030f440001dc7a53
:030f450001dc7656
:030f460001dc715a
:030f470001dc6c5e
:030f480001dc6861
:030f490001dc6365
:030f4a0001dc5f68
:030f4b0001dc5a6c
:030f4c0001dc5570
:030f4d0001dc5173
:030f4e0001dc4c77
:030f4f0001dc487a
:030f500001dc437e
:030f510001dc3e82
:030f520001dc3a85
:030f530001dc3589
:030f540001dc308d
:030f550001dc2c90
:030f560001dc2794
:030f570001dc2397
:030f580001dc1e9b
:030f590001dc199f
:030f5a0001dc15a2
:030f5b0001dc10a6
:030f5c0001dc0baa
:030f5d0001dc07ad
:030f5e0001dc02b1
:030f5f0001dbfeb5
:030f600001dbf9b9
:030f610001dbf4bd
:030f620001dbf0c0
:030f630001dbebc4
:030f640001dbe6c8
:030f650001dbe2cb
:030f660001dbddcf
:030f670001dbd9d2
:030f680001dbd4d6
:030f690001dbcfda
:030f6a0001dbcbdd
:030f6b0001dbc6e1
:030f6c0001dbc1e5
:030f6d0001dbbde8
:030f6e0001dbb8ec
:030f6f0001dbb3f0
:030f700001dbaff3
:030f710001dbaaf7
:030f720001dba5fb
:030f730001dba1fe
:030f740001db9c02
:030f750001db9706
:030f760001db9309
:030f770001db8e0d
:030f780001db8a10
:030f790001db8514
:030f7a0001db8018
:030f7b0001db7c1b
:030f7c0001db771f
:030f7d0001db7223
:030f7e0001db6e26
:030f7f0001db692a
:030f800001db642e
:030f810001db6031
:030f820001db5b35
:030f830001db5639
:030f840001db523c
:030f850001db4d40
:030f860001db4844
:030f870001db4447
:030f880001db3f4b
:030f890001db3a4f
:030f8a0001db3652
:030f8b0001db3156
:030f8c0001db2c5a
:030f8d0001db275e
:030f8e0001db2361
:030f8f0001db1e65
:030f900001db1969
:030f910001db156c
:030f920001db1070
:030f930001db0b74
:030f940001db0777
:030f950001db027b
:030f960001dafd80
:030f970001daf983
:030f980001daf487
:030f990001daef8b
:030f9a0001daeb8e
:030f9b0001dae692
:030f9c0001dae196
:030f9d0001dadc9a
:030f9e0001dad89d
:030f9f0001dad3a1
:030fa00001dacea5
:030fa10001dacaa8
:030fa20001dac5ac
:030fa30001dac0b0
:030fa40001dabcb3
:030fa50001dab7b7
:030fa60001dab2bb
:030fa70001daadbf
:030fa80001daa9c2
:030fa90001daa4c6
:030faa0001da9fca
:030fab0001da9bcd
:030fac0001da96d1
:030fad0001da91d5
:030fae0001da8cd9
:030faf0001da88dc
:030fb00001da83e0
:030fb10001da7ee4
:030fb20001da7ae7
:030fb30001da75eb
:030fb40001da70ef
:030fb50001da6bf3
:030fb60001da67f6
:030fb70001da62fa
:030fb80001da5dfe
:030fb90001da5802
:030fba0001da5405
:030fbb0001da4f09
:030fbc0001da4a0d
:030fbd0001da4610
:030fbe0001da4114
:030fbf0001da3c18
:030fc00001da371c
:030fc10001da331f
:030fc20001da2e23
:030fc30001da2927
:030fc40001da242b
:030fc50001da202e
:030fc60001da1b32
:030fc70001da1636
:030fc80001da113a
:030fc90001da0d3d
:030fca0001da0841
:030fcb0001da0345
:030fcc0001d9fe4a
:030fcd0001d9fa4d
:030fce0001d9f551
:030fcf0001d9f055
:030fd00001d9eb59
:030fd10001d9e75c
:030fd20001d9e260
:030fd30001d9dd64
:030fd40001d9d868
:030fd50001d9d46b
:030fd60001d9cf6f
:030fd70001d9ca73
:030fd80001d9c577
:030fd90001d9c17a
:030fda0001d9bc7e
:030fdb0001d9b782
:030fdc0001d9b286
:030fdd0001d9ad8a
:030fde0001d9a98d
:030fdf0001d9a491
:030fe00001d99f95
:030fe10001d99a99
:030fe20001d9969c
:030fe30001d991a0
:030fe40001d98ca4
:030fe50001d987a8
:030fe60001d982ac
:030fe70001d97eaf
:030fe80001d979b3
:030fe90001d974b7
:030fea0001d96fbb
:030feb0001d96bbe
:030fec0001d966c2
:030fed0001d961c6
:030fee0001d95cca
:030fef0001d957ce
:030ff00001d953d1
:030ff10001d94ed5
:030ff20001d949d9
:030ff30001d944dd
:030ff40001d93fe1
:030ff50001d93be4
:030ff60001d936e8
:030ff70001d931ec
:030ff80001d92cf0
:030ff90001d927f4
:030ffa0001d923f7
:030ffb0001d91efb
:030ffc0001d919ff
:030ffd0001d91403
:030ffe0001d90f07
:030fff0001d90b0a
:0310000001d9060d
:0310010001d90111
:0310020001d8fc16
:0310030001d8f71a
:0310040001d8f31d
:0310050001d8ee21
:0310060001d8e925
:0310070001d8e429
:0310080001d8df2d
:0310090001d8da31
:03100a0001d8d634
:03100b0001d8d138
:03100c0001d8cc3c
:03100d0001d8c740
:03100e0001d8c244
:03100f0001d8be47
:0310100001d8b94b
:0310110001d8b44f
:0310120001d8af53
:0310130001d8aa57
:0310140001d8a55b
:0310150001d8a15e
:0310160001d89c62
:0310170001d89766
:0310180001d8926a
:0310190001d88d6e
:03101a0001d88872
:03101b0001d88475
:03101c0001d87f79
:03101d0001d87a7d
:03101e0001d87581
:03101f0001d87085
:0310200001d86b89
:0310210001d8678c
:0310220001d86290
:0310230001d85d94
:0310240001d85898
:0310250001d8539c
:0310260001d84ea0
:0310270001d849a4
:0310280001d845a7
:0310290001d840ab
:03102a0001d83baf
:03102b0001d836b3
:03102c0001d831b7
:03102d0001d82cbb
:03102e0001d827bf
:03102f0001d823c2
:0310300001d81ec6
:0310310001d819ca
:0310320001d814ce
:0310330001d80fd2
:0310340001d80ad6
:0310350001d805da
:0310360001d801dd
:0310370001d7fce2
:0310380001d7f7e6
:0310390001d7f2ea
:03103a0001d7edee
:03103b0001d7e8f2
:03103c0001d7e3f6
:03103d0001d7defa
:03103e0001d7dafd
:03103f0001d7d501
:0310400001d7d005
:0310410001d7cb09
:0310420001d7c60d
:0310430001d7c111
:0310440001d7bc15
:0310450001d7b719
:0310460001d7b21d
:0310470001d7ae20
:0310480001d7a924
:0310490001d7a428
:03104a0001d79f2c
:03104b0001d79a30
:03104c0001d79534
:03104d0001d79038
:03104e0001d78b3c
:03104f0001d78640
:0310500001d78243
:0310510001d77d47
:0310520001d7784b
:0310530001d7734f
:0310540001d76e53
:0310550001d76957
:0310560001d7645b
:0310570001d75f5f
:0310580001d75a63
:0310590001d75567
:03105a0001d7516a
:03105b0001d74c6e
:03105c0001d74772
:03105d0001d74276
:03105e0001d73d7a
:03105f0001d7387e
:0310600001d73382
:0310610001d72e86
:0310620001d7298a
:0310630001d7248e
:0310640001d71f92
:0310650001d71a96
:0310660001d71699
:0310670001d7119d
:0310680001d70ca1
:0310690001d707a5
:03106a0001d702a9
:03106b0001d6fdae
:03106c0001d6f8b2
:03106d0001d6f3b6
:03106e0001d6eeba
:03106f0001d6e9be
:0310700001d6e4c2
:0310710001d6dfc6
:0310720001d6daca
:0310730001d6d5ce
:0310740001d6d1d1
:0310750001d6ccd5
:0310760001d6c7d9
:0310770001d6c2dd
:0310780001d6bde1
:0310790001d6b8e5
:03107a0001d6b3e9
:03107b0001d6aeed
:03107c0001d6a9f1
:03107d0001d6a4f5
:03107e0001d69ff9
:03107f0001d69afd
:0310800001d69501
:0310810001d69005
:0310820001d68b09
:0310830001d6860d
:0310840001d68111
:0310850001d67c15
:0310860001d67719
:0310870001d6721d
:0310880001d66e20
:0310890001d66924
:03108a0001d66428
:03108b0001d65f2c
:03108c0001d65a30
:03108d0001d65534
:03108e0001d65038
:03108f0001d64b3c
:0310900001d64640
:0310910001d64144
:0310920001d63c48
:0310930001d6374c
:0310940001d63250
:0310950001d62d54
:0310960001d62858
:0310970001d6235c
:0310980001d61e60
:0310990001d61964
:03109a0001d61468
:03109b0001d60f6c
:03109c0001d60a70
:03109d0001d60574
:03109e0001d60078
:03109f0001d5fb7d
:0310a00001d5f681
:0310a10001d5f185
:0310a20001d5ec89
:0310a30001d5e78d
:0310a40001d5e291
:0310a50001d5dd95
:0310a60001d5d899
:0310a70001d5d39d
:0310a80001d5cea1
:0310a90001d5c9a5
:0310aa0001d5c4a9
:0310ab0001d5bfad
:0310ac0001d5bab1
:0310ad0001d5b5b5
:0310ae0001d5b0b9
:0310af0001d5abbd
:0310b00001d5a6c1
:0310b10001d5a1c5
:0310b20001d59cc9
:0310b30001d597cd
:0310b40001d592d1
:0310b50001d58dd5
:0310b60001d588d9
:0310b70001d583dd
:0310b80001d57ee1
:0310b90001d579e5
:0310ba0001d574e9
:0310bb0001d56fed
:0310bc0001d56af1
:0310bd0001d565f5
:0310be0001d560f9
:0310bf0001d55bfd
:0310c00001d55601
:0310c10001d55105
:0310c20001d54c09
:0310c30001d5470d
:0310c40001d54211
:0310c50001d53d15
:0310c60001d53819
:0310c70001d5331d
:0310c80001d52e21
:0310c90001d52925
:0310ca0001d52429
:0310cb0001d51f2d
:0310cc0001d51a31
:0310cd0001d51535
:0310ce0001d51039
:0310cf0001d50b3d
:0310d00001d50641
:0310d10001d50145
:0310d20001d4fb4b
:0310d30001d4f64f
:0310d40001d4f153
:0310d50001d4ec57
:0310d60001d4e75b
:0310d70001d4e25f
:0310d80001d4dd63
:0310d90001d4d867
:0310da0001d4d36b
:0310db0001d4ce6f
:0310dc0001d4c973
:0310dd0001d4c477
:0310de0001d4bf7b
:0310df0001d4ba7f
:0310e00001d4b583
:0310e10001d4b087
:0310e20001d4ab8b
:0310e30001d4a68f
:0310e40001d4a193
:0310e50001d49b98
:0310e60001d4969c
:0310e70001d491a0
:0310e80001d48ca4
:0310e90001d487a8
:0310ea0001d482ac
:0310eb0001d47db0
:0310ec0001d478b4
:0310ed0001d473b8
:0310ee0001d46ebc
:0310ef0001d469c0
:0310f00001d464c4
:0310f10001d45fc8
:0310f20001d45acc
:0310f30001d454d1
:0310f40001d44fd5
:0310f50001d44ad9
:0310f60001d445dd
:0310f70001d440e1
:0310f80001d43be5
:0310f90001d436e9
:0310fa0001d431ed
:0310fb0001d42cf1
:0310fc0001d427f5
:0310fd0001d422f9
:0310fe0001d41dfd
:0310ff0001d41702
:0311000001d41205
:0311010001d40d09
:0311020001d4080d
:0311030001d40311
:0311040001d3fe16
:0311050001d3f91a
:0311060001d3f41e
:0311070001d3ef22
:0311080001d3ea26
:0311090001d3e52a
:03110a0001d3df2f
:03110b0001d3da33
:03110c0001d3d537
:03110d0001d3d03b
:03110e0001d3cb3f
:03110f0001d3c643
:0311100001d3c147
:0311110001d3bc4b
:0311120001d3b74f
:0311130001d3b154
:0311140001d3ac58
:0311150001d3a75c
:0311160001d3a260
:0311170001d39d64
:0311180001d39868
:0311190001d3936c
:03111a0001d38e70
:03111b0001d38875
:03111c0001d38379
:03111d0001d37e7d
:03111e0001d37981
:03111f0001d37485
:0311200001d36f89
:0311210001d36a8d
:0311220001d36591
:0311230001d35f96
:0311240001d35a9a
:0311250001d3559e
:0311260001d350a2
:0311270001d34ba6
:0311280001d346aa
:0311290001d341ae
:03112a0001d33cb2
:03112b0001d336b7
:03112c0001d331bb
:03112d0001d32cbf
:03112e0001d327c3
:03112f0001d322c7
:0311300001d31dcb
:0311310001d318cf
:0311320001d312d4
:0311330001d30dd8
:0311340001d308dc
:0311350001d303e0
:0311360001d2fee5
:0311370001d2f9e9
:0311380001d2f3ee
:0311390001d2eef2
:03113a0001d2e9f6
:03113b0001d2e4fa
:03113c0001d2dffe
:03113d0001d2da02
:03113e0001d2d506
:03113f0001d2cf0b
:0311400001d2ca0f
:0311410001d2c513
:0311420001d2c017
:0311430001d2bb1b
:0311440001d2b61f
:0311450001d2b024
:0311460001d2ab28
:0311470001d2a62c
:0311480001d2a130
:0311490001d29c34
:03114a0001d29738
:03114b0001d2913d
:03114c0001d28c41
:03114d0001d28745
:03114e0001d28249
:03114f0001d27d4d
:0311500001d27752
:0311510001d27256
:0311520001d26d5a
:0311530001d2685e
:0311540001d26362
:0311550001d25e66
:0311560001d2586b
:0311570001d2536f
:0311580001d24e73
:0311590001d24977
:03115a0001d2447b
:03115b0001d23e80
:03115c0001d23984
:03115d0001d23488
:03115e0001d22f8c
:03115f0001d22a90
:0311600001d22495
:0311610001d21f99
:0311620001d21a9d
:0311630001d215a1
:0311640001d210a5
:0311650001d20aaa
:0311660001d205ae
:0311670001d200b2
:0311680001d1fbb7
:0311690001d1f6bb
:03116a0001d1f0c0
:03116b0001d1ebc4
:03116c0001d1e6c8
:03116d0001d1e1cc
:03116e0001d1dcd0
:03116f0001d1d6d5
:0311700001d1d1d9
:0311710001d1ccdd
:0311720001d1c7e1
:0311730001d1c1e6
:0311740001d1bcea
:0311750001d1b7ee
:0311760001d1b2f2
:0311770001d1adf6
:0311780001d1a7fb
:0311790001d1a2ff
:03117a0001d19d03
:03117b0001d19807
:03117c0001d1920c
:03117d0001d18d10
:03117e0001d18814
:03117f0001d18318
:0311800001d17e1c
:0311810001d17821
:0311820001d17325
:0311830001d16e29
:0311840001d1692d
:0311850001d16332
:0311860001d15e36
:0311870001d1593a
:0311880001d1543e
:0311890001d14e43
:03118a0001d14947
:03118b0001d1444b
:03118c0001d13f4f
:03118d0001d13954
:03118e0001d13458
:03118f0001d12f5c
:0311900001d12a60
:0311910001d12465
:0311920001d11f69
:0311930001d11a6d
:0311940001d11571
:0311950001d10f76
:0311960001d10a7a
:0311970001d1057e
:0311980001d10082
:0311990001d0fa88
:03119a0001d0f58c
:03119b0001d0f090
:03119c0001d0eb94
:03119d0001d0e599
:03119e0001d0e09d
:03119f0001d0dba1
:0311a00001d0d6a5
:0311a10001d0d0aa
:0311a20001d0cbae
:0311a30001d0c6b2
:0311a40001d0c0b7
:0311a50001d0bbbb
:0311a60001d0b6bf
:0311a70001d0b1c3
:0311a80001d0abc8
:0311a90001d0a6cc
:0311aa0001d0a1d0
:0311ab0001d09cd4
:0311ac0001d096d9
:0311ad0001d091dd
:0311ae0001d08ce1
:0311af0001d086e6
:0311b00001d081ea
:0311b10001d07cee
:0311b20001d077f2
:0311b30001d071f7
:0311b40001d06cfb
:0311b50001d067ff
:0311b60001d06104
:0311b70001d05c08
:0311b80001d0570c
:0311b90001d05111
:0311ba0001d04c15
:0311bb0001d04719
:0311bc0001d0421d
:0311bd0001d03c22
:0311be0001d03726
:0311bf0001d0322a
:0311c00001d02c2f
:0311c10001d02733
:0311c20001d02237
:0311c30001d01c3c
:0311c40001d01740
:0311c50001d01244
:0311c60001d00d48
:0311c70001d0074d
:0311c80001d00251
:0311c90001cffd56
:0311ca0001cff75b
:0311cb0001cff25f
:0311cc0001cfed63
:0311cd0001cfe768
:0311ce0001cfe26c
:0311cf0001cfdd70
:0311d00001cfd775
:0311d10001cfd279
:0311d20001cfcd7d
:0311d30001cfc782
:0311d40001cfc286
:0311d50001cfbd8a
:0311d60001cfb78f
:0311d70001cfb293
:0311d80001cfad97
:0311d90001cfa79c
:0311da0001cfa2a0
:0311db0001cf9da4
:0311dc0001cf97a9
:0311dd0001cf92ad
:0311de0001cf8db1
:0311df0001cf87b6
:0311e00001cf82ba
:0311e10001cf7dbe
:0311e20001cf77c3
:0311e30001cf72c7
:0311e40001cf6dcb
:0311e50001cf67d0
:0311e60001cf62d4
:0311e70001cf5dd8
:0311e80001cf57dd
:0311e90001cf52e1
:0311ea0001cf4de5
:0311eb0001cf47ea
:0311ec0001cf42ee
:0311ed0001cf3df2
:0311ee0001cf37f7
:0311ef0001cf32fb
:0311f00001cf2dff
:0311f10001cf2704
:0311f20001cf2208
:0311f30001cf1d0c
:0311f40001cf1711
:0311f50001cf1215
:0311f60001cf0c1a
:0311f70001cf071e
:0311f80001cf0222
:0311f90001cefc28
:0311fa0001cef72c
:0311fb0001cef230
:0311fc0001ceec35
:0311fd0001cee739
:0311fe0001cee23d
:0311ff0001cedc42
:0312000001ced745
:0312010001ced14a
:0312020001cecc4e
:0312030001cec752
:0312040001cec157
:0312050001cebc5b
:0312060001ceb75f
:0312070001ceb164
:0312080001ceac68
:0312090001cea66d
:03120a0001cea171
:03120b0001ce9c75
:03120c0001ce967a
:03120d0001ce917e
:03120e0001ce8b83
:03120f0001ce8687
:0312100001ce818b
:0312110001ce7b90
:0312120001ce7694
:0312130001ce7198
:0312140001ce6b9d
:0312150001ce66a1
:0312160001ce60a6
:0312170001ce5baa
:0312180001ce56ae
:0312190001ce50b3
:03121a0001ce4bb7
:03121b0001ce45bc
:03121c0001ce40c0
:03121d0001ce3bc4
:03121e0001ce35c9
:03121f0001ce30cd
:0312200001ce2ad2
:0312210001ce25d6
:0312220001ce1fdb
:0312230001ce1adf
:0312240001ce15e3
:0312250001ce0fe8
:0312260001ce0aec
:0312270001ce04f1
:0312280001cdfff6
:0312290001cdfafa
:03122a0001cdf4ff
:03122b0001cdef03
:03122c0001cde908
:03122d0001cde40c
:03122e0001cdde11
:03122f0001cdd915
:0312300001cdd419
:0312310001cdce1e
:0312320001cdc922
:0312330001cdc327
:0312340001cdbe2b
:0312350001cdb830
:0312360001cdb334
:0312370001cdae38
:0312380001cda83d
:0312390001cda341
:03123a0001cd9d46
:03123b0001cd984a
:03123c0001cd924f
:03123d0001cd8d53
:03123e0001cd8857
:03123f0001cd825c
:0312400001cd7d60
:0312410001cd7765
:0312420001cd7269
:0312430001cd6c6e
:0312440001cd6772
:0312450001cd6177
:0312460001cd5c7b
:0312470001cd577f
:0312480001cd5184
:0312490001cd4c88
:03124a0001cd468d
:03124b0001cd4191
:03124c0001cd3b96
:03124d0001cd369a
:03124e0001cd309f
:03124f0001cd2ba3
:0312500001cd25a8
:0312510001cd20ac
:0312520001cd1bb0
:0312530001cd15b5
:0312540001cd10b9
:0312550001cd0abe
:0312560001cd05c2
:0312570001ccffc8
:0312580001ccfacc
:0312590001ccf4d1
:03125a0001ccefd5
:03125b0001cce9da
:03125c0001cce4de
:03125d0001ccdee3
:03125e0001ccd9e7
:03125f0001ccd3ec
:0312600001cccef0
:0312610001ccc9f4
:0312620001ccc3f9
:0312630001ccbefd
:0312640001ccb802
:0312650001ccb306
:0312660001ccad0b
:0312670001cca80f
:0312680001cca214
:0312690001cc9d18
:03126a0001cc971d
:03126b0001cc9221
:03126c0001cc8c26
:03126d0001cc872a
:03126e0001cc812f
:03126f0001cc7c33
:0312700001cc7638
:0312710001cc713c
:0312720001cc6b41
:0312730001cc6645
:0312740001cc604a
:0312750001cc5b4e
:0312760001cc5553
:0312770001cc5057
:0312780001cc4a5c
:0312790001cc4560
:03127a0001cc3f65
:03127b0001cc3a69
:03127c0001cc346e
:03127d0001cc2f72
:03127e0001cc2977
:03127f0001cc247b
:0312800001cc1e80
:0312810001cc1984
:0312820001cc1389
:0312830001cc0e8d
:0312840001cc0892
:0312850001cc0396
:0312860001cbfd9c
:0312870001cbf8a0
:0312880001cbf2a5
:0312890001cbeda9
:03128a0001cbe7ae
:03128b0001cbe1b3
:03128c0001cbdcb7
:03128d0001cbd6bc
:03128e0001cbd1c0
:03128f0001cbcbc5
:0312900001cbc6c9
:0312910001cbc0ce
:0312920001cbbbd2
:0312930001cbb5d7
:0312940001cbb0db
:0312950001cbaae0
:0312960001cba5e4
:0312970001cb9fe9
:0312980001cb9aed
:0312990001cb94f2
:03129a0001cb8ef7
:03129b0001cb89fb
:03129c0001cb8300
:03129d0001cb7e04
:03129e0001cb7809
:03129f0001cb730d
:0312a00001cb6d12
:0312a10001cb6816
:0312a20001cb621b
:0312a30001cb5d1f
:0312a40001cb5724
:0312a50001cb5129
:0312a60001cb4c2d
:0312a70001cb4632
:0312a80001cb4136
:0312a90001cb3b3b
:0312aa0001cb363f
:0312ab0001cb3044
:0312ac0001cb2b48
:0312ad0001cb254d
:0312ae0001cb1f52
:0312af0001cb1a56
:0312b00001cb145b
:0312b10001cb0f5f
:0312b20001cb0964
:0312b30001cb0468
:0312b40001cafe6e
:0312b50001caf972
:0312b60001caf377
:0312b70001caed7c
:0312b80001cae880
:0312b90001cae285
:0312ba0001cadd89
:0312bb0001cad78e
:0312bc0001cad292
:0312bd0001cacc97
:0312be0001cac69c
:0312bf0001cac1a0
:0312c00001cabba5
:0312c10001cab6a9
:0312c20001cab0ae
:0312c30001caaab3
:0312c40001caa5b7
:0312c50001ca9fbc
:0312c60001ca9ac0
:0312c70001ca94c5
:0312c80001ca8fc9
:0312c90001ca89ce
:0312ca0001ca83d3
:0312cb0001ca7ed7
:0312cc0001ca78dc
:0312cd0001ca73e0
:0312ce0001ca6de5
:0312cf0001ca67ea
:0312d00001ca62ee
:0312d10001ca5cf3
:0312d20001ca57f7
:0312d30001ca51fc
:0312d40001ca4b01
:0312d50001ca4605
:0312d60001ca400a
:0312d70001ca3b0e
:0312d80001ca3513
:0312d90001ca2f18
:0312da0001ca2a1c
:0312db0001ca2421
:0312dc0001ca1f25
:0312dd0001ca192a
:0312de0001ca132f
:0312df0001ca0e33
:0312e00001ca0838
:0312e10001ca023d
:0312e20001c9fd42
:0312e30001c9f747
:0312e40001c9f24b
:0312e50001c9ec50
:0312e60001c9e655
:0312e70001c9e159
:0312e80001c9db5e
:0312e90001c9d563
:0312ea0001c9d067
:0312eb0001c9ca6c
:0312ec0001c9c570
:0312ed0001c9bf75
:0312ee0001c9b97a
:0312ef0001c9b47e
:0312f00001c9ae83
:0312f10001c9a888
:0312f20001c9a38c
:0312f30001c99d91
:0312f40001c99895
:0312f50001c9929a
:0312f60001c98c9f
:0312f70001c987a3
:0312f80001c981a8
:0312f90001c97bad
:0312fa0001c976b1
:0312fb0001c970b6
:0312fc0001c96abb
:0312fd0001c965bf
:0312fe0001c95fc4
:0312ff0001c959c9
:0313000001c954cc
:0313010001c94ed1
:0313020001c949d5
:0313030001c943da
:0313040001c93ddf
:0313050001c938e3
:0313060001c932e8
:0313070001c92ced
:0313080001c927f1
:0313090001c921f6
:03130a0001c91bfb
:03130b0001c916ff
:03130c0001c91004
:03130d0001c90a09
:03130e0001c9050d
:03130f0001c8ff13
:0313100001c8f918
:0313110001c8f41c
:0313120001c8ee21
:0313130001c8e826
:0313140001c8e32a
:0313150001c8dd2f
:0313160001c8d734
:0313170001c8d238
:0313180001c8cc3d
:0313190001c8c642
:03131a0001c8c146
:03131b0001c8bb4b
:03131c0001c8b550
:03131d0001c8b054
:03131e0001c8aa59
:03131f0001c8a45e
:0313200001c89e63
:0313210001c89967
:0313220001c8936c
:0313230001c88d71
:0313240001c88875
:0313250001c8827a
:0313260001c87c7f
:0313270001c87783
:0313280001c87188
:0313290001c86b8d
:03132a0001c86691
:03132b0001c86096
:03132c0001c85a9b
:03132d0001c854a0
:03132e0001c84fa4
:03132f0001c849a9
:0313300001c843ae
:0313310001c83eb2
:0313320001c838b7
:0313330001c832bc
:0313340001c82dc0
:0313350001c827c5
:0313360001c821ca
:0313370001c81bcf
:0313380001c816d3
:0313390001c810d8
:03133a0001c80add
:03133b0001c805e1
:03133c0001c7ffe7
:03133d0001c7f9ec
:03133e0001c7f3f1
:03133f0001c7eef5
:0313400001c7e8fa
:0313410001c7e2ff
:0313420001c7dd03
:0313430001c7d708
:0313440001c7d10d
:0313450001c7cb12
:0313460001c7c616
:0313470001c7c01b
:0313480001c7ba20
:0313490001c7b425
:03134a0001c7af29
:03134b0001c7a92e
:03134c0001c7a333
:03134d0001c79e37
:03134e0001c7983c
:03134f0001c79241
:0313500001c78c46
:0313510001c7874a
:0313520001c7814f
:0313530001c77b54
:0313540001c77559
:0313550001c7705d
:0313560001c76a62
:0313570001c76467
:0313580001c75e6c
:0313590001c75970
:03135a0001c75375
:03135b0001c74d7a
:03135c0001c7477f
:03135d0001c74283
:03135e0001c73c88
:03135f0001c7368d
:0313600001c73092
:0313610001c72b96
:0313620001c7259b
:0313630001c71fa0
:0313640001c719a5
:0313650001c714a9
:0313660001c70eae
:0313670001c708b3
:0313680001c702b8
:0313690001c6fdbd
:03136a0001c6f7c2
:03136b0001c6f1c7
:03136c0001c6ebcc
:03136d0001c6e6d0
:03136e0001c6e0d5
:03136f0001c6dada
:0313700001c6d4df
:0313710001c6cfe3
:0313720001c6c9e8
:0313730001c6c3ed
:0313740001c6bdf2
:0313750001c6b7f7
:0313760001c6b2fb
:0313770001c6ac00
:0313780001c6a605
:0313790001c6a00a
:03137a0001c69b0e
:03137b0001c69513
:03137c0001c68f18
:03137d0001c6891d
:03137e0001c68322
:03137f0001c67e26
:0313800001c6782b
:0313810001c67230
:0313820001c66c35
:0313830001c6663a
:0313840001c6613e
:0313850001c65b43
:0313860001c65548
:0313870001c64f4d
:0313880001c64952
:0313890001c64456
:03138a0001c63e5b
:03138b0001c63860
:03138c0001c63265
:03138d0001c62c6a
:03138e0001c6276e
:03138f0001c62173
:0313900001c61b78
:0313910001c6157d
:0313920001c60f82
:0313930001c60a86
:0313940001c6048b
:0313950001c5fe91
:0313960001c5f896
:0313970001c5f29b
:0313980001c5ed9f
:0313990001c5e7a4
:03139a0001c5e1a9
:03139b0001c5dbae
:03139c0001c5d5b3
:03139d0001c5d0b7
:03139e0001c5cabc
:03139f0001c5c4c1
:0313a00001c5bec6
:0313a10001c5b8cb
:0313a20001c5b2d0
:0313a30001c5add4
:0313a40001c5a7d9
:0313a50001c5a1de
:0313a60001c59be3
:0313a70001c595e8
:0313a80001c58fed
:0313a90001c58af1
:0313aa0001c584f6
:0313ab0001c57efb
:0313ac0001c57800
:0313ad0001c57205
:0313ae0001c56c0a
:0313af0001c5670e
:0313b00001c56113
:0313b10001c55b18
:0313b20001c5551d
:0313b30001c54f22
:0313b40001c54927
:0313b50001c5442b
:0313b60001c53e30
:0313b70001c53835
:0313b80001c5323a
:0313b90001c52c3f
:0313ba0001c52644
:0313bb0001c52148
:0313bc0001c51b4d
:0313bd0001c51552
:0313be0001c50f57
:0313bf0001c5095c
:0313c00001c50361
:0313c10001c4fd67
:0313c20001c4f86b
:0313c30001c4f270
:0313c40001c4ec75
:0313c50001c4e67a
:0313c60001c4e07f
:0313c70001c4da84
:0313c80001c4d489
:0313c90001c4ce8e
:0313ca0001c4c992
:0313cb0001c4c397
:0313cc0001c4bd9c
:0313cd0001c4b7a1
:0313ce0001c4b1a6
:0313cf0001c4abab
:0313d00001c4a5b0
:0313d10001c4a0b4
:0313d20001c49ab9
:0313d30001c494be
:0313d40001c48ec3
:0313d50001c488c8
:0313d60001c482cd
:0313d70001c47cd2
:0313d80001c476d7
:0313d90001c471db
:0313da0001c46be0
:0313db0001c465e5
:0313dc0001c45fea
:0313dd0001c459ef
:0313de0001c453f4
:0313df0001c44df9
:0313e00001c447fe
:0313e10001c44103
:0313e20001c43c07
:0313e30001c4360c
:0313e40001c43011
:0313e50001c42a16
:0313e60001c4241b
:0313e70001c41e20
:0313e80001c41825
:0313e90001c4122a
:0313ea0001c40c2f
:0313eb0001c40634
:0313ec0001c40138
:0313ed0001c3fb3e
:0313ee0001c3f543
:0313ef0001c3ef48
:0313f00001c3e94d
:0313f10001c3e352
:0313f20001c3dd57
:0313f30001c3d75c
:0313f40001c3d161
:0313f50001c3cb66
:0313f60001c3c56b
:0313f70001c3c06f
:0313f80001c3ba74
:0313f90001c3b479
:0313fa0001c3ae7e
:0313fb0001c3a883
:0313fc0001c3a288
:0313fd0001c39c8d
:0313fe0001c39692
:0313ff0001c39097
:0314000001c38a9b
:0314010001c384a0
:0314020001c37ea5
:0314030001c379a9
:0314040001c373ae
:0314050001c36db3
:0314060001c367b8
:0314070001c361bd
:0314080001c35bc2
:0314090001c355c7
:03140a0001c34fcc
:03140b0001c349d1
:03140c0001c343d6
:03140d0001c33ddb
:03140e0001c337e0
:03140f0001c331e5
:0314100001c32bea
:0314110001c325ef
:0314120001c320f3
:0314130001c31af8
:0314140001c314fd
:0314150001c30e02
:0314160001c30807
:0314170001c3020c
:0314180001c2fc12
:0314190001c2f617
:03141a0001c2f01c
:03141b0001c2ea21
:03141c0001c2e426
:03141d0001c2de2b
:03141e0001c2d830
:03141f0001c2d235
:0314200001c2cc3a
:0314210001c2c63f
:0314220001c2c044
:0314230001c2ba49
:0314240001c2b44e
:0314250001c2ae53
:0314260001c2a858
:0314270001c2a25d
:0314280001c29d61
:0314290001c29766
:03142a0001c2916b
:03142b0001c28b70
:03142c0001c28575
:03142d0001c27f7a
:03142e0001c2797f
:03142f0001c27384
:0314300001c26d89
:0314310001c2678e
:0314320001c26193
:0314330001c25b98
:0314340001c2559d
:0314350001c24fa2
:0314360001c249a7
:0314370001c243ac
:0314380001c23db1
:0314390001c237b6
:03143a0001c231bb
:03143b0001c22bc0
:03143c0001c225c5
:03143d0001c21fca
:03143e0001c219cf
:03143f0001c213d4
:0314400001c20dd9
:0314410001c207de
:0314420001c201e3
:0314430001c1fbe9
:0314440001c1f5ee
:0314450001c1eff3
:0314460001c1e9f8
:0314470001c1e3fd
:0314480001c1dd02
:0314490001c1d707
:03144a0001c1d10c
:03144b0001c1cb11
:03144c0001c1c516
:03144d0001c1bf1b
:03144e0001c1b920
:03144f0001c1b325
:0314500001c1ad2a
:0314510001c1a72f
:0314520001c1a134
:0314530001c19b39
:0314540001c1953e
:0314550001c18f43
:0314560001c18948
:0314570001c1834d
:0314580001c17d52
:0314590001c17757
:03145a0001c1715c
:03145b0001c16b61
:03145c0001c16566
:03145d0001c15f6b
:03145e0001c15970
:03145f0001c15375
:0314600001c14d7a
:0314610001c1477f
:0314620001c14184
:0314630001c13b89
:0314640001c1358e
:0314650001c12f93
:0314660001c12998
:0314670001c1239d
:0314680001c11da2
:0314690001c116a8
:03146a0001c110ad
:03146b0001c10ab2
:03146c0001c104b7
:03146d0001c0febd
:03146e0001c0f8c2
:03146f0001c0f2c7
:0314700001c0eccc
:0314710001c0e6d1
:0314720001c0e0d6
:0314730001c0dadb
:0314740001c0d4e0
:0314750001c0cee5
:0314760001c0c8ea
:0314770001c0c2ef
:0314780001c0bcf4
:0314790001c0b6f9
:03147a0001c0b0fe
:03147b0001c0aa03
:03147c0001c0a408
:03147d0001c09e0d
:03147e0001c09713
:03147f0001c09118
:0314800001c08b1d
:0314810001c08522
:0314820001c07f27
:0314830001c0792c
:0314840001c07331
:0314850001c06d36
:0314860001c0673b
:0314870001c06140
:0314880001c05b45
:0314890001c0554a
:03148a0001c04f4f
:03148b0001c04954
:03148c0001c04359
:03148d0001c03d5e
:03148e0001c03664
:03148f0001c03069
:0314900001c02a6e
:0314910001c02473
:0314920001c01e78
:0314930001c0187d
:0314940001c01282
:0314950001c00c87
:0314960001c0068c
:0314970001c00091
:0314980001bffa97
:0314990001bff49c
:03149a0001bfeda2
:03149b0001bfe7a7
:03149c0001bfe1ac
:03149d0001bfdbb1
:03149e0001bfd5b6
:03149f0001bfcfbb
:0314a00001bfc9c0
:0314a10001bfc3c5
:0314a20001bfbdca
:0314a30001bfb7cf
:0314a40001bfb1d4
:0314a50001bfaada
:0314a60001bfa4df
:0314a70001bf9ee4
:0314a80001bf98e9
:0314a90001bf92ee
:0314aa0001bf8cf3
:0314ab0001bf86f8
:0314ac0001bf80fd
:0314ad0001bf7a02
:0314ae0001bf7407
:0314af0001bf6d0d
:0314b00001bf6712
:0314b10001bf6117
:0314b20001bf5b1c
:0314b30001bf5521
:0314b40001bf4f26
:0314b50001bf492b
:0314b60001bf4330
:0314b70001bf3d35
:0314b80001bf363b
:0314b90001bf3040
:0314ba0001bf2a45
:0314bb0001bf244a
:0314bc0001bf1e4f
:0314bd0001bf1854
:0314be0001bf1259
:0314bf0001bf0c5e
:0314c00001bf0564
:0314c10001beff6a
:0314c20001bef96f
:0314c30001bef374
:0314c40001beed79
:0314c50001bee77e
:0314c60001bee183
:0314c70001bedb88
:0314c80001bed48e
:0314c90001bece93
:0314ca0001bec898
:0314cb0001bec29d
:0314cc0001bebca2
:0314cd0001beb6a7
:0314ce0001beb0ac
:0314cf0001bea9b2
:0314d00001bea3b7
:0314d10001be9dbc
:0314d20001be97c1
:0314d30001be91c6
:0314d40001be8bcb
:0314d50001be85d0
:0314d60001be7ed6
:0314d70001be78db
:0314d80001be72e0
:0314d90001be6ce5
:0314da0001be66ea
:0314db0001be60ef
:0314dc0001be59f5
:0314dd0001be53fa
:0314de0001be4dff
:0314df0001be4704
:0314e00001be4109
:0314e10001be3b0e
:0314e20001be3513
:0314e30001be2e19
:0314e40001be281e
:0314e50001be2223
:0314e60001be1c28
:0314e70001be162d
:0314e80001be1032
:0314e90001be0938
:0314ea0001be033d
:0314eb0001bdfd43
:0314ec0001bdf748
:0314ed0001bdf14d
:0314ee0001bdea53
:0314ef0001bde458
:0314f00001bdde5d
:0314f10001bdd862
:0314f20001bdd267
:0314f30001bdcc6c
:0314f40001bdc572
:0314f50001bdbf77
:0314f60001bdb97c
:0314f70001bdb381
:0314f80001bdad86
:0314f90001bda78b
:0314fa0001bda091
:0314fb0001bd9a96
:0314fc0001bd949b
:0314fd0001bd8ea0
:0314fe0001bd88a5
:0314ff0001bd81ab
:0315000001bd7baf
:0315010001bd75b4
:0315020001bd6fb9
:0315030001bd69be
:0315040001bd62c4
:0315050001bd5cc9
:0315060001bd56ce
:0315070001bd50d3
:0315080001bd4ad8
:0315090001bd43de
:03150a0001bd3de3
:03150b0001bd37e8
:03150c0001bd31ed
:03150d0001bd2bf2
:03150e0001bd24f8
:03150f0001bd1efd
:0315100001bd1802
:0315110001bd1207
:0315120001bd0c0c
:0315130001bd0512
:0315140001bcff18
:0315150001bcf91d
:0315160001bcf322
:0315170001bcec28
:0315180001bce62d
:0315190001bce032
:03151a0001bcda37
:03151b0001bcd43c
:03151c0001bccd42
:03151d0001bcc747
:03151e0001bcc14c
:03151f0001bcbb51
:0315200001bcb457
:0315210001bcae5c
:0315220001bca861
:0315230001bca266
:0315240001bc9c6b
:0315250001bc9571
:0315260001bc8f76
:0315270001bc897b
:0315280001bc8380
:0315290001bc7c86
:03152a0001bc768b
:03152b0001bc7090
:03152c0001bc6a95
:03152d0001bc639b
:03152e0001bc5da0
:03152f0001bc57a5
:0315300001bc51aa
:0315310001bc4ab0
:0315320001bc44b5
:0315330001bc3eba
:0315340001bc38bf
:0315350001bc31c5
:0315360001bc2bca
:0315370001bc25cf
:0315380001bc1fd4
:0315390001bc18da
:03153a0001bc12df
:03153b0001bc0ce4
:03153c0001bc06e9
:03153d0001bbfff0
:03153e0001bbf9f5
:03153f0001bbf3fa
:0315400001bbedff
:0315410001bbe605
:0315420001bbe00a
:0315430001bbda0f
:0315440001bbd414
:0315450001bbcd1a
:0315460001bbc71f
:0315470001bbc124
:0315480001bbba2a
:0315490001bbb42f
:03154a0001bbae34
:03154b0001bba839
:03154c0001bba13f
:03154d0001bb9b44
:03154e0001bb9549
:03154f0001bb8f4e
:0315500001bb8854
:0315510001bb8259
:0315520001bb7c5e
:0315530001bb7564
:0315540001bb6f69
:0315550001bb696e
:0315560001bb6373
:0315570001bb5c79
:0315580001bb567e
:0315590001bb5083
:03155a0001bb4989
:03155b0001bb438e
:03155c0001bb3d93
:03155d0001bb3798
:03155e0001bb309e
:03155f0001bb2aa3
:0315600001bb24a8
:0315610001bb1dae
:0315620001bb17b3
:0315630001bb11b8
:0315640001bb0bbd
:0315650001bb04c3
:0315660001bafec9
:0315670001baf8ce
:0315680001baf1d4
:0315690001baebd9
:03156a0001bae5de
:03156b0001badee4
:03156c0001bad8e9
:03156d0001bad2ee
:03156e0001baccf3
:03156f0001bac5f9
:0315700001babffe
:0315710001bab903
:0315720001bab209
:0315730001baac0e
:0315740001baa613
:0315750001ba9f19
:0315760001ba991e
:0315770001ba9323
:0315780001ba8c29
:0315790001ba862e
:03157a0001ba8033
:03157b0001ba7939
:03157c0001ba733e
:03157d0001ba6d43
:03157e0001ba6649
:03157f0001ba604e
:0315800001ba5a53
:0315810001ba5359
:0315820001ba4d5e
:0315830001ba4763
:0315840001ba4069
:0315850001ba3a6e
:0315860001ba3473
:0315870001ba2d79
:0315880001ba277e
:0315890001ba2183
:03158a0001ba1a89
:03158b0001ba148e
:03158c0001ba0e93
:03158d0001ba0799
:03158e0001ba019e
:03158f0001b9fba4
:0315900001b9f4aa
:0315910001b9eeaf
:0315920001b9e8b4
:0315930001b9e1ba
:0315940001b9dbbf
:0315950001b9d5c4
:0315960001b9ceca
:0315970001b9c8cf
:0315980001b9c2d4
:0315990001b9bbda
:03159a0001b9b5df
:03159b0001b9afe4
:03159c0001b9a8ea
:03159d0001b9a2ef
:03159e0001b99bf5
:03159f0001b995fa
:0315a00001b98fff
:0315a10001b98805
:0315a20001b9820a
:0315a30001b97c0f
:0315a40001b97515
:0315a50001b96f1a
:0315a60001b9691f
:0315a70001b96225
:0315a80001b95c2a
:0315a90001b95530
:0315aa0001b94f35
:0315ab0001b9493a
:0315ac0001b94240
:0315ad0001b93c45
:0315ae0001b9364a
:0315af0001b92f50
:0315b00001b92955
:0315b10001b9225b
:0315b20001b91c60
:0315b30001b91665
:0315b40001b90f6b
:0315b50001b90970
:0315b60001b90375
:0315b70001b8fc7c
:0315b80001b8f681
:0315b90001b8ef87
:0315ba0001b8e98c
:0315bb0001b8e391
:0315bc0001b8dc97
:0315bd0001b8d69c
:0315be0001b8cfa2
:0315bf0001b8c9a7
:0315c00001b8c3ac
:0315c10001b8bcb2
:0315c20001b8b6b7
:0315c30001b8b0bc
:0315c40001b8a9c2
:0315c50001b8a3c7
:0315c60001b89ccd
:0315c70001b896d2
:0315c80001b890d7
:0315c90001b889dd
:0315ca0001b883e2
:0315cb0001b87ce8
:0315cc0001b876ed
:0315cd0001b86ff3
:0315ce0001b869f8
:0315cf0001b863fd
:0315d00001b85c03
:0315d10001b85608
:0315d20001b84f0e
:0315d30001b84913
:0315d40001b84318
:0315d50001b83c1e
:0315d60001b83623
:0315d70001b82f29
:0315d80001b8292e
:0315d90001b82333
:0315da0001b81c39
:0315db0001b8163e
:0315dc0001b80f44
:0315dd0001b80949
:0315de0001b8024f
:0315df0001b7fc55
:0315e00001b7f65a
:0315e10001b7ef60
:0315e20001b7e965
:0315e30001b7e26b
:0315e40001b7dc70
:0315e50001b7d576
:0315e60001b7cf7b
:0315e70001b7c980
:0315e80001b7c286
:0315e90001b7bc8b
:0315ea0001b7b591
:0315eb0001b7af96
:0315ec0001b7a89c
:0315ed0001b7a2a1
:0315ee0001b79ba7
:0315ef0001b795ac
:0315f00001b78fb1
:0315f10001b788b7
:0315f20001b782bc
:0315f30001b77bc2
:0315f40001b775c7
:0315f50001b76ecd
:0315f60001b768d2
:0315f70001b761d8
:0315f80001b75bdd
:0315f90001b755e2
:0315fa0001b74ee8
:0315fb0001b748ed
:0315fc0001b741f3
:0315fd0001b73bf8
:0315fe0001b734fe
:0315ff0001b72e03
:0316000001b72708
:0316010001b7210d
:0316020001b71a13
:0316030001b71418
:0316040001b70d1e
:0316050001b70723
:0316060001b70128
:0316070001b6fa2f
:0316080001b6f434
:0316090001b6ed3a
:03160a0001b6e73f
:03160b0001b6e045
:03160c0001b6da4a
:03160d0001b6d350
:03160e0001b6cd55
:03160f0001b6c65b
:0316100001b6c060
:0316110001b6b966
:0316120001b6b36b
:0316130001b6ac71
:0316140001b6a676
:0316150001b69f7c
:0316160001b69981
:0316170001b69287
:0316180001b68c8c
:0316190001b68691
:03161a0001b67f97
:03161b0001b6799c
:03161c0001b672a2
:03161d0001b66ca7
:03161e0001b665ad
:03161f0001b65fb2
:0316200001b658b8
:0316210001b652bd
:0316220001b64bc3
:0316230001b645c8
:0316240001b63ece
:0316250001b638d3
:0316260001b631d9
:0316270001b62bde
:0316280001b624e4
:0316290001b61ee9
:03162a0001b617ef
:03162b0001b611f4
:03162c0001b60afa
:03162d0001b604ff
:03162e0001b5fd06
:03162f0001b5f70b
:0316300001b5f011
:0316310001b5ea16
:0316320001b5e31c
:0316330001b5dd21
:0316340001b5d627
:0316350001b5cf2d
:0316360001b5c932
:0316370001b5c238
:0316380001b5bc3d
:0316390001b5b543
:03163a0001b5af48
:03163b0001b5a84e
:03163c0001b5a253
:03163d0001b59b59
:03163e0001b5955e
:03163f0001b58e64
:0316400001b58869
:0316410001b5816f
:0316420001b57b74
:0316430001b5747a
:0316440001b56e7f
:0316450001b56785
:0316460001b5618a
:0316470001b55a90
:0316480001b55495
:0316490001b54d9b
:03164a0001b546a1
:03164b0001b540a6
:03164c0001b539ac
:03164d0001b533b1
:03164e0001b52cb7
:03164f0001b526bc
:0316500001b51fc2
:0316510001b519c7
:0316520001b512cd
:0316530001b50cd2
:0316540001b505d8
:0316550001b4fedf
:0316560001b4f8e4
:0316570001b4f1ea
:0316580001b4ebef
:0316590001b4e4f5
:03165a0001b4defa
:03165b0001b4d700
:03165c0001b4d105
:03165d0001b4ca0b
:03165e0001b4c410
:03165f0001b4bd16
:0316600001b4b61c
:0316610001b4b021
:0316620001b4a927
:0316630001b4a32c
:0316640001b49c32
:0316650001b49637
:0316660001b48f3d
:0316670001b48843
:0316680001b48248
:0316690001b47b4e
:03166a0001b47553
:03166b0001b46e59
:03166c0001b4685e
:03166d0001b46164
:03166e0001b45a6a
:03166f0001b4546f
:0316700001b44d75
:0316710001b4477a
:0316720001b44080
:0316730001b43a85
:0316740001b4338b
:0316750001b42c91
:0316760001b42696
:0316770001b41f9c
:0316780001b419a1
:0316790001b412a7
:03167a0001b40cac
:03167b0001b405b2
:03167c0001b3feb9
:03167d0001b3f8be
:03167e0001b3f1c4
:03167f0001b3ebc9
:0316800001b3e4cf
:0316810001b3ddd5
:0316820001b3d7da
:0316830001b3d0e0
:0316840001b3cae5
:0316850001b3c3eb
:0316860001b3bcf1
:0316870001b3b6f6
:0316880001b3affc
:0316890001b3a901
:03168a0001b3a207
:03168b0001b39b0d
:03168c0001b39512
:03168d0001b38e18
:03168e0001b3881d
:03168f0001b38123
:0316900001b37a29
:0316910001b3742e
:0316920001b36d34
:0316930001b36739
:0316940001b3603f
:0316950001b35945
:0316960001b3534a
:0316970001b34c50
:0316980001b34556
:0316990001b33f5b
:03169a0001b33861
:03169b0001b33266
:03169c0001b32b6c
:03169d0001b32472
:03169e0001b31e77
:03169f0001b3177d
:0316a00001b31182
:0316a10001b30a88
:0316a20001b3038e
:0316a30001b2fd94
:0316a40001b2f69a
:0316a50001b2efa0
:0316a60001b2e9a5
:0316a70001b2e2ab
:0316a80001b2dbb1
:0316a90001b2d5b6
:0316aa0001b2cebc
:0316ab0001b2c8c1
:0316ac0001b2c1c7
:0316ad0001b2bacd
:0316ae0001b2b4d2
:0316af0001b2add8
:0316b00001b2a6de
:0316b10001b2a0e3
:0316b20001b299e9
:0316b30001b292ef
:0316b40001b28cf4
:0316b50001b285fa
:0316b60001b27fff
:0316b70001b27805
:0316b80001b2710b
:0316b90001b26b10
:0316ba0001b26416
:0316bb0001b25d1c
:0316bc0001b25721
:0316bd0001b25027
:0316be0001b2492d
:0316bf0001b24332
:0316c00001b23c38
:0316c10001b2353e
:0316c20001b22f43
:0316c30001b22849
:0316c40001b2214f
:0316c50001b21b54
:0316c60001b2145a
:0316c70001b20d60
:0316c80001b20765
:0316c90001b2006b
:0316ca0001b1f972
:0316cb0001b1f377
:0316cc0001b1ec7d
:0316cd0001b1e583
:0316ce0001b1df88
:0316cf0001b1d88e
:0316d00001b1d194
:0316d10001b1cb99
:0316d20001b1c49f
:0316d30001b1bda5
:0316d40001b1b7aa
:0316d50001b1b0b0
:0316d60001b1a9b6
:0316d70001b1a3bb
:0316d80001b19cc1
:0316d90001b195c7
:0316da0001b18fcc
:0316db0001b188d2
:0316dc0001b181d8
:0316dd0001b17ade
:0316de0001b174e3
:0316df0001b16de9
:0316e00001b166ef
:0316e10001b160f4
:0316e20001b159fa
:0316e30001b15200
:0316e40001b14c05
:0316e50001b1450b
:0316e60001b13e11
:0316e70001b13816
:0316e80001b1311c
:0316e90001b12a22
:0316ea0001b12328
:0316eb0001b11d2d
:0316ec0001b11633
:0316ed0001b10f39
:0316ee0001b1093e
:0316ef0001b10244
:0316f00001b0fb4b
:0316f10001b0f550
:0316f20001b0ee56
:0316f30001b0e75c
:0316f40001b0e062
:0316f50001b0da67
:0316f60001b0d36d
:0316f70001b0cc73
:0316f80001b0c678
:0316f90001b0bf7e
:0316fa0001b0b884
:0316fb0001b0b18a
:0316fc0001b0ab8f
:0316fd0001b0a495
:0316fe0001b09d9b
:0316ff0001b097a0
:0317000001b090a5
:0317010001b089ab
:0317020001b082b1
:0317030001b07cb6
:0317040001b075bc
:0317050001b06ec2
:0317060001b067c8
:0317070001b061cd
:0317080001b05ad3
:0317090001b053d9
:03170a0001b04dde
:03170b0001b046e4
:03170c0001b03fea
:03170d0001b038f0
:03170e0001b032f5
:03170f0001b02bfb
:0317100001b02401
:0317110001b01d07
:0317120001b0170c
:0317130001b01012
:0317140001b00918
:0317150001b0021e
:0317160001affc24
:0317170001aff52a
:0317180001afee30
:0317190001afe736
:03171a0001afe13b
:03171b0001afda41
:03171c0001afd347
:03171d0001afcc4d
:03171e0001afc652
:03171f0001afbf58
:0317200001afb85e
:0317210001afb164
:0317220001afab69
:0317230001afa46f
:0317240001af9d75
:0317250001af967b
:0317260001af9080
:0317270001af8986
:0317280001af828c
:0317290001af7b92
:03172a0001af7597
:03172b0001af6e9d
:03172c0001af67a3
:03172d0001af60a9
:03172e0001af59af
:03172f0001af53b4
:0317300001af4cba
:0317310001af45c0
:0317320001af3ec6
:0317330001af38cb
:0317340001af31d1
:0317350001af2ad7
:0317360001af23dd
:0317370001af1de2
:0317380001af16e8
:0317390001af0fee
:03173a0001af08f4
:03173b0001af01fa
:03173c0001aefb00
:03173d0001aef406
:03173e0001aeed0c
:03173f0001aee612
:0317400001aedf18
:0317410001aed91d
:0317420001aed223
:0317430001aecb29
:0317440001aec42f
:0317450001aebe34
:0317460001aeb73a
:0317470001aeb040
:0317480001aea946
:0317490001aea24c
:03174a0001ae9c51
:03174b0001ae9557
:03174c0001ae8e5d
:03174d0001ae8763
:03174e0001ae8069
:03174f0001ae7a6e
:0317500001ae7374
:0317510001ae6c7a
:0317520001ae6580
:0317530001ae5e86
:0317540001ae578c
:0317550001ae5191
:0317560001ae4a97
:0317570001ae439d
:0317580001ae3ca3
:0317590001ae35a9
:03175a0001ae2fae
:03175b0001ae28b4
:03175c0001ae21ba
:03175d0001ae1ac0
:03175e0001ae13c6
:03175f0001ae0dcb
:0317600001ae06d1
:0317610001adffd8
:0317620001adf8de
:0317630001adf1e4
:0317640001adeaea
:0317650001ade4ef
:0317660001adddf5
:0317670001add6fb
:0317680001adcf01
:0317690001adc807
:03176a0001adc10d
:03176b0001adbb12
:03176c0001adb418
:03176d0001adad1e
:03176e0001ada624
:03176f0001ad9f2a
:0317700001ad9830
:0317710001ad9235
:0317720001ad8b3b
:0317730001ad8441
:0317740001ad7d47
:0317750001ad764d
:0317760001ad6f53
:0317770001ad6958
:0317780001ad625e
:0317790001ad5b64
:03177a0001ad546a
:03177b0001ad4d70
:03177c0001ad4676
:03177d0001ad407b
:03177e0001ad3981
:03177f0001ad3287
:0317800001ad2b8d
:0317810001ad2493
:0317820001ad1d99
:0317830001ad169f
:0317840001ad10a4
:0317850001ad09aa
:0317860001ad02b0
:0317870001acfbb7
:0317880001acf4bd
:0317890001acedc3
:03178a0001ace6c9
:03178b0001ace0ce
:03178c0001acd9d4
:03178d0001acd2da
:03178e0001accbe0
:03178f0001acc4e6
:0317900001acbdec
:0317910001acb6f2
:0317920001acaff8
:0317930001aca9fd
:0317940001aca203
:0317950001ac9b09
:0317960001ac940f
:0317970001ac8d15
:0317980001ac861b
:0317990001ac7f21
:03179a0001ac7827
:03179b0001ac722c
:03179c0001ac6b32
:03179d0001ac6438
:03179e0001ac5d3e
:03179f0001ac5644
:0317a00001ac4f4a
:0317a10001ac4850
:0317a20001ac4156
:0317a30001ac3a5c
:0317a40001ac3461
:0317a50001ac2d67
:0317a60001ac266d
:0317a70001ac1f73
:0317a80001ac1879
:0317a90001ac117f
:0317aa0001ac0a85
:0317ab0001ac038b
:0317ac0001abfc92
:0317ad0001abf697
:0317ae0001abef9d
:0317af0001abe8a3
:0317b00001abe1a9
:0317b10001abdaaf
:0317b20001abd3b5
:0317b30001abccbb
:0317b40001abc5c1
:0317b50001abbec7
:0317b60001abb7cd
:0317b70001abb1d2
:0317b80001abaad8
:0317b90001aba3de
:0317ba0001ab9ce4
:0317bb0001ab95ea
:0317bc0001ab8ef0
:0317bd0001ab87f6
:0317be0001ab80fc
:0317bf0001ab7902
:0317c00001ab7208
:0317c10001ab6b0e
:0317c20001ab6414
:0317c30001ab5e19
:0317c40001ab571f
:0317c50001ab5025
:0317c60001ab492b
:0317c70001ab4231
:0317c80001ab3b37
:0317c90001ab343d
:0317ca0001ab2d43
:0317cb0001ab2649
:0317cc0001ab1f4f
:0317cd0001ab1855
:0317ce0001ab115b
:0317cf0001ab0a61
:0317d00001ab0466
:0317d10001aafd6d
:0317d20001aaf673
:0317d30001aaef79
:0317d40001aae87f
:0317d50001aae185
:0317d60001aada8b
:0317d70001aad391
:0317d80001aacc97
:0317d90001aac59d
:0317da0001aabea3
:0317db0001aab7a9
:0317dc0001aab0af
:0317dd0001aaa9b5
:0317de0001aaa2bb
:0317df0001aa9bc1
:0317e00001aa94c7
:0317e10001aa8dcd
:0317e20001aa87d2
:0317e30001aa80d8
:0317e40001aa79de
:0317e50001aa72e4
:0317e60001aa6bea
:0317e70001aa64f0
:0317e80001aa5df6
:0317e90001aa56fc
:0317ea0001aa4f02
:0317eb0001aa4808
:0317ec0001aa410e
:0317ed0001aa3a14
:0317ee0001aa331a
:0317ef0001aa2c20
:0317f00001aa2526
:0317f10001aa1e2c
:0317f20001aa1732
:0317f30001aa1038
:0317f40001aa093e
:0317f50001aa0244
:0317f60001a9fb4b
:0317f70001a9f451
:0317f80001a9ed57
:0317f90001a9e65d
:0317fa0001a9df63
:0317fb0001a9d869
:0317fc0001a9d16f
:0317fd0001a9ca75
:0317fe0001a9c47a
:0317ff0001a9bd80
:0318000001a9b685
:0318010001a9af8b
:0318020001a9a891
:0318030001a9a197
:0318040001a99a9d
:0318050001a993a3
:0318060001a98ca9
:0318070001a985af
:0318080001a97eb5
:0318090001a977bb
:03180a0001a970c1
:03180b0001a969c7
:03180c0001a962cd
:03180d0001a95bd3
:03180e0001a954d9
:03180f0001a94ddf
:0318100001a946e5
:0318110001a93feb
:0318120001a938f1
:0318130001a931f7
:0318140001a92afd
:0318150001a92303
:0318160001a91c09
:0318170001a9150f
:0318180001a90e15
:0318190001a9071b
:03181a0001a90021
:03181b0001a8f928
:03181c0001a8f22e
:03181d0001a8eb34
:03181e0001a8e43a
:03181f0001a8dd40
:0318200001a8d646
:0318210001a8cf4c
:0318220001a8c852
:0318230001a8c158
:0318240001a8ba5e
:0318250001a8b364
:0318260001a8ac6a
:0318270001a8a570
:0318280001a89d77
:0318290001a8967d
:03182a0001a88f83
:03182b0001a88889
:03182c0001a8818f
:03182d0001a87a95
:03182e0001a8739b
:03182f0001a86ca1
:0318300001a865a7
:0318310001a85ead
:0318320001a857b3
:0318330001a850b9
:0318340001a849bf
:0318350001a842c5
:0318360001a83bcb
:0318370001a834d1
:0318380001a82dd7
:0318390001a826dd
:03183a0001a81fe3
:03183b0001a818e9
:03183c0001a811ef
:03183d0001a80af5
:03183e0001a803fb
:03183f0001a7fc02
:0318400001a7f508
:0318410001a7ee0e
:0318420001a7e714
:0318430001a7e01a
:0318440001a7d920
:0318450001a7d127
:0318460001a7ca2d
:0318470001a7c333
:0318480001a7bc39
:0318490001a7b53f
:03184a0001a7ae45
:03184b0001a7a74b
:03184c0001a7a051
:03184d0001a79957
:03184e0001a7925d
:03184f0001a78b63
:0318500001a78469
:0318510001a77d6f
:0318520001a77675
:0318530001a76f7b
:0318540001a76881
:0318550001a76187
:0318560001a7598e
:0318570001a75294
:0318580001a74b9a
:0318590001a744a0
:03185a0001a73da6
:03185b0001a736ac
:03185c0001a72fb2
:03185d0001a728b8
:03185e0001a721be
:03185f0001a71ac4
:0318600001a713ca
:0318610001a70cd0
:0318620001a705d6
:0318630001a6fdde
:0318640001a6f6e4
:0318650001a6efea
:0318660001a6e8f0
:0318670001a6e1f6
:0318680001a6dafc
:0318690001a6d302
:03186a0001a6cc08
:03186b0001a6c50e
:03186c0001a6be14
:03186d0001a6b71a
:03186e0001a6b020
:03186f0001a6a827
:0318700001a6a12d
:0318710001a69a33
:0318720001a69339
:0318730001a68c3f
:0318740001a68545
:0318750001a67e4b
:0318760001a67751
:0318770001a67057
:0318780001a6695d
:0318790001a66164
:03187a0001a65a6a
:03187b0001a65370
:03187c0001a64c76
:03187d0001a6457c
:03187e0001a63e82
:03187f0001a63788
:0318800001a6308e
:0318810001a62994
:0318820001a6229a
:0318830001a61aa1
:0318840001a613a7
:0318850001a60cad
:0318860001a605b3
:0318870001a5feba
:0318880001a5f7c0
:0318890001a5f0c6
:03188a0001a5e9cc
:03188b0001a5e1d3
:03188c0001a5dad9
:03188d0001a5d3df
:03188e0001a5cce5
:03188f0001a5c5eb
:0318900001a5bef1
:0318910001a5b7f7
:0318920001a5b0fd
:0318930001a5a804
:0318940001a5a10a
:0318950001a59a10
:0318960001a59316
:0318970001a58c1c
:0318980001a58522
:0318990001a57e28
:03189a0001a5772e
:03189b0001a56f35
:03189c0001a5683b
:03189d0001a56141
:03189e0001a55a47
:03189f0001a5534d
:0318a00001a54c53
:0318a10001a54559
:0318a20001a53d60
:0318a30001a53666
:0318a40001a52f6c
:0318a50001a52872
:0318a60001a52178
:0318a70001a51a7e
:0318a80001a51384
:0318a90001a50b8b
:0318aa0001a50491
:0318ab0001a4fd98
:0318ac0001a4f69e
:0318ad0001a4efa4
:0318ae0001a4e8aa
:0318af0001a4e1b0
:0318b00001a4d9b7
:0318b10001a4d2bd
:0318b20001a4cbc3
:0318b30001a4c4c9
:0318b40001a4bdcf
:0318b50001a4b6d5
:0318b60001a4aedc
:0318b70001a4a7e2
:0318b80001a4a0e8
:0318b90001a499ee
:0318ba0001a492f4
:0318bb0001a48bfa
:0318bc0001a48301
:0318bd0001a47c07
:0318be0001a4750d
:0318bf0001a46e13
:0318c00001a46719
:0318c10001a4601f
:0318c20001a45826
:0318c30001a4512c
:0318c40001a44a32
:0318c50001a44338
:0318c60001a43c3e
:0318c70001a43445
:0318c80001a42d4b
:0318c90001a42651
:0318ca0001a41f57
:0318cb0001a4185d
:0318cc0001a41163
:0318cd0001a4096a
:0318ce0001a40270
:0318cf0001a3fb77
:0318d00001a3f47d
:0318d10001a3ed83
:0318d20001a3e58a
:0318d30001a3de90
:0318d40001a3d796
:0318d50001a3d09c
:0318d60001a3c9a2
:0318d70001a3c1a9
:0318d80001a3baaf
:0318d90001a3b3b5
:0318da0001a3acbb
:0318db0001a3a5c1
:0318dc0001a39ec7
:0318dd0001a396ce
:0318de0001a38fd4
:0318df0001a388da
:0318e00001a381e0
:0318e10001a379e7
:0318e20001a372ed
:0318e30001a36bf3
:0318e40001a364f9
:0318e50001a35dff
:0318e60001a35506
:0318e70001a34e0c
:0318e80001a34712
:0318e90001a34018
:0318ea0001a3391e
:0318eb0001a33125
:0318ec0001a32a2b
:0318ed0001a32331
:0318ee0001a31c37
:0318ef0001a3153d
:0318f00001a30d44
:0318f10001a3064a
:0318f20001a2ff51
:0318f30001a2f857
:0318f40001a2f05e
:0318f50001a2e964
:0318f60001a2e26a
:0318f70001a2db70
:0318f80001a2d476
:0318f90001a2cc7d
:0318fa0001a2c583
:0318fb0001a2be89
:0318fc0001a2b78f
:0318fd0001a2af96
:0318fe0001a2a89c
:0318ff0001a2a1a2
:0319000001a29aa7
:0319010001a292ae
:0319020001a28bb4
:0319030001a284ba
:0319040001a27dc0
:0319050001a275c7
:0319060001a26ecd
:0319070001a267d3
:0319080001a260d9
:0319090001a258e0
:03190a0001a251e6
:03190b0001a24aec
:03190c0001a243f2
:03190d0001a23cf8
:03190e0001a234ff
:03190f0001a22d05
:0319100001a2260b
:0319110001a21f11
:0319120001a21718
:0319130001a2101e
:0319140001a20924
:0319150001a2012b
:0319160001a1fa32
:0319170001a1f338
:0319180001a1ec3e
:0319190001a1e445
:03191a0001a1dd4b
:03191b0001a1d651
:03191c0001a1cf57
:03191d0001a1c75e
:03191e0001a1c064
:03191f0001a1b96a
:0319200001a1b270
:0319210001a1aa77
:0319220001a1a37d
:0319230001a19c83
:0319240001a19589
:0319250001a18d90
:0319260001a18696
:0319270001a17f9c
:0319280001a177a3
:0319290001a170a9
:03192a0001a169af
:03192b0001a162b5
:03192c0001a15abc
:03192d0001a153c2
:03192e0001a14cc8
:03192f0001a144cf
:0319300001a13dd5
:0319310001a136db
:0319320001a12fe1
:0319330001a127e8
:0319340001a120ee
:0319350001a119f4
:0319360001a111fb
:0319370001a10a01
:0319380001a10307
:0319390001a0fc0e
:03193a0001a0f415
:03193b0001a0ed1b
:03193c0001a0e621
:03193d0001a0de28
:03193e0001a0d72e
:03193f0001a0d034
:0319400001a0c93a
:0319410001a0c141
:0319420001a0ba47
:0319430001a0b34d
:0319440001a0ab54
:0319450001a0a45a
:0319460001a09d60
:0319470001a09567
:0319480001a08e6d
:0319490001a08773
:03194a0001a08079
:03194b0001a07880
:03194c0001a07186
:03194d0001a06a8c
:03194e0001a06293
:03194f0001a05b99
:0319500001a0549f
:0319510001a04ca6
:0319520001a045ac
:0319530001a03eb2
:0319540001a036b9
:0319550001a02fbf
:0319560001a028c5
:0319570001a020cc
:0319580001a019d2
:0319590001a012d8
:03195a0001a00adf
:03195b0001a003e5
:03195c00019ffcec
:03195d00019ff4f3
:03195e00019fedf9
:03195f00019fe6ff
:03196000019fde06
:03196100019fd70c
:03196200019fd012
:03196300019fc918
:03196400019fc11f
:03196500019fba25
:03196600019fb22c
:03196700019fab32
:03196800019fa438
:03196900019f9c3f
:03196a00019f9545
:03196b00019f8e4b
:03196c00019f8652
:03196d00019f7f58
:03196e00019f785e
:03196f00019f7065
:03197000019f696b
:03197100019f6271
:03197200019f5a78
:03197300019f537e
:03197400019f4c84
:03197500019f448b
:03197600019f3d91
:03197700019f3697
:03197800019f2e9e
:03197900019f27a4
:03197a00019f20aa
:03197b00019f18b1
:03197c00019f11b7
:03197d00019f0abd
:03197e00019f02c4
:03197f00019efbcb
:03198000019ef3d2
:03198100019eecd8
:03198200019ee5de
:03198300019edde5
:03198400019ed6eb
:03198500019ecff1
:03198600019ec7f8
:03198700019ec0fe
:03198800019eb904
:03198900019eb10b
:03198a00019eaa11
:03198b00019ea218
:03198c00019e9b1e
:03198d00019e9424
:03198e00019e8c2b
:03198f00019e8531
:03199000019e7e37
:03199100019e763e
:03199200019e6f44
:03199300019e674b
:03199400019e6051
:03199500019e5957
:03199600019e515e
:03199700019e4a64
:03199800019e426b
:03199900019e3b71
:03199a00019e3477
:03199b00019e2c7e
:03199c00019e2584
:03199d00019e1e8a
:03199e00019e1691
:03199f00019e0f97
:0319a000019e079e
:0319a100019e00a4
:0319a200019df9ab
:0319a300019df1b2
:0319a400019deab8
:0319a500019de2bf
:0319a600019ddbc5
:0319a700019dd4cb
:0319a800019dccd2
:0319a900019dc5d8
:0319aa00019dbddf
:0319ab00019db6e5
:0319ac00019dafeb
:0319ad00019da7f2
:0319ae00019da0f8
:0319af00019d98ff
:0319b000019d9105
:0319b100019d8a0b
:0319b200019d8212
:0319b300019d7b18
:0319b400019d731f
:0319b500019d6c25
:0319b600019d652b
:0319b700019d5d32
:0319b800019d5638
:0319b900019d4e3f
:0319ba00019d4745
:0319bb00019d3f4c
:0319bc00019d3852
:0319bd00019d3158
:0319be00019d295f
:0319bf00019d2265
:0319c000019d1a6c
:0319c100019d1372
:0319c200019d0b79
:0319c300019d047f
:0319c400019cfd86
:0319c500019cf58d
:0319c600019cee93
:0319c700019ce69a
:0319c800019cdfa0
:0319c900019cd7a7
:0319ca00019cd0ad
:0319cb00019cc9b3
:0319cc00019cc1ba
:0319cd00019cbac0
:0319ce00019cb2c7
:0319cf00019cabcd
:0319d000019ca3d4
:0319d100019c9cda
:0319d200019c95e0
:0319d300019c8de7
:0319d400019c86ed
:0319d500019c7ef4
:0319d600019c77fa
:0319d700019c6f01
:0319d800019c6807
:0319d900019c600e
:0319da00019c5914
:0319db00019c521a
:0319dc00019c4a21
:0319dd00019c4327
:0319de00019c3b2e
:0319df00019c3434
:0319e000019c2c3b
:0319e100019c2541
:0319e200019c1d48
:0319e300019c164e
:0319e400019c0e55
:0319e500019c075b
:0319e600019c0061
:0319e700019bf869
:0319e800019bf16f
:0319e900019be976
:0319ea00019be27c
:0319eb00019bda83
:0319ec00019bd389
:0319ed00019bcb90
:0319ee00019bc496
:0319ef00019bbc9d
:0319f000019bb5a3
:0319f100019badaa
:0319f200019ba6b0
:0319f300019b9eb7
:0319f400019b97bd
:0319f500019b8fc4
:0319f600019b88ca
:0319f700019b81d0
:0319f800019b79d7
:0319f900019b72dd
:0319fa00019b6ae4
:0319fb00019b63ea
:0319fc00019b5bf1
:0319fd00019b54f7
:0319fe00019b4cfe
:0319ff00019b4504
:031a0000019b3d0a
:031a0100019b3610
:031a0200019b2e17
:031a0300019b271d
:031a0400019b1f24
:031a0500019b182a
:031a0600019b1031
:031a0700019b0937
:031a0800019b013e
:031a0900019afa45
:031a0a00019af24c
:031a0b00019aeb52
:031a0c00019ae359
:031a0d00019adc5f
:031a0e00019ad466
:031a0f00019acd6c
:031a1000019ac573
:031a1100019abe79
:031a1200019ab680
:031a1300019aaf86
:031a1400019aa78d
:031a1500019aa093
:031a1600019a989a
:031a1700019a91a0
:031a1800019a89a7
:031a1900019a82ad
:031a1a00019a7ab4
:031a1b00019a73ba
:031a1c00019a6bc1
:031a1d00019a64c7
:031a1e00019a5cce
:031a1f00019a55d4
:031a2000019a4ddb
:031a2100019a46e1
:031a2200019a3ee8
:031a2300019a37ee
:031a2400019a2ff5
:031a2500019a28fb
:031a2600019a2002
:031a2700019a1908
:031a2800019a110f
:031a2900019a0916
:031a2a00019a021c
:031a2b000199fa24
:031a2c000199f32a
:031a2d000199eb31
:031a2e000199e437
:031a2f000199dc3e
:031a30000199d544
:031a31000199cd4b
:031a32000199c651
:031a33000199be58
:031a34000199b75e
:031a35000199af65
:031a36000199a86b
:031a37000199a072
:031a380001999879
:031a39000199917f
:031a3a0001998986
:031a3b000199828c
:031a3c0001997a93
:031a3d0001997399
:031a3e0001996ba0
:031a3f00019964a6
:031a400001995cad
:031a4100019955b3
:031a420001994dba
:031a4300019946c0
:031a440001993ec7
:031a4500019936ce
:031a460001992fd4
:031a4700019927db
:031a4800019920e1
:031a4900019918e8
:031a4a00019911ee
:031a4b00019909f5
:031a4c00019902fb
:031a4d000198fa03
:031a4e000198f20a
:031a4f000198eb10
:031a50000198e317
:031a51000198dc1d
:031a52000198d424
:031a53000198cd2a
:031a54000198c531
:031a55000198bd38
:031a56000198b63e
:031a57000198ae45
:031a58000198a74b
:031a590001989f52
:031a5a0001989858
:031a5b000198905f
:031a5c0001988866
:031a5d000198816c
:031a5e0001987973
:031a5f0001987279
:031a600001986a80
:031a610001986386
:031a620001985b8d
:031a630001985394
:031a640001984c9a
:031a6500019844a1
:031a660001983da7
:031a6700019835ae
:031a680001982db5
:031a6900019826bb
:031a6a0001981ec2
:031a6b00019817c8
:031a6c0001980fcf
:031a6d00019808d5
:031a6e00019800dc
:031a6f000197f8e4
:031a70000197f1ea
:031a71000197e9f1
:031a72000197e2f7
:031a73000197dafe
:031a74000197d205
:031a75000197cb0b
:031a76000197c312
:031a77000197bc18
:031a78000197b41f
:031a79000197ac26
:031a7a000197a52c
:031a7b0001979d33
:031a7c0001979639
:031a7d0001978e40
:031a7e0001978647
:031a7f0001977f4d
:031a800001977754
:031a81000197705a
:031a820001976861
:031a830001976068
:031a84000197596e
:031a850001975175
:031a86000197497c
:031a870001974282
:031a880001973a89
:031a89000197338f
:031a8a0001972b96
:031a8b000197239d
:031a8c0001971ca3
:031a8d00019714aa
:031a8e0001970db0
:031a8f00019705b7
:031a90000196fdbf
:031a91000196f6c5
:031a92000196eecc
:031a93000196e6d3
:031a94000196dfd9
:031a95000196d7e0
:031a96000196d0e6
:031a97000196c8ed
:031a98000196c0f4
:031a99000196b9fa
:031a9a000196b101
:031a9b000196a908
:031a9c000196a20e
:031a9d0001969a15
:031a9e000196921c
:031a9f0001968b22
:031aa00001968329
:031aa10001967c2f
:031aa20001967436
:031aa30001966c3d
:031aa40001966543
:031aa50001965d4a
:031aa60001965551
:031aa70001964e57
:031aa8000196465e
:031aa90001963e65
:031aaa000196376b
:031aab0001962f72
:031aac0001962779
:031aad000196207f
:031aae0001961886
:031aaf000196108d
:031ab00001960993
:031ab1000196019a
:031ab2000195f9a2
:031ab3000195f2a8
:031ab4000195eaaf
:031ab5000195e3b5
:031ab6000195dbbc
:031ab7000195d3c3
:031ab8000195ccc9
:031ab9000195c4d0
:031aba000195bcd7
:031abb000195b5dd
:031abc000195ade4
:031abd000195a5eb
:031abe0001959ef1
:031abf00019596f8
:031ac00001958eff
:031ac10001958705
:031ac20001957f0c
:031ac30001957713
:031ac40001957019
:031ac50001956820
:031ac60001956027
:031ac7000195582e
:031ac80001955134
:031ac9000195493b
:031aca0001954142
:031acb0001953a48
:031acc000195324f
:031acd0001952a56
:031ace000195235c
:031acf0001951b63
:031ad0000195136a
:031ad10001950c70
:031ad20001950477
:031ad3000194fc7f
:031ad4000194f585
:031ad5000194ed8c
:031ad6000194e593
:031ad7000194de99
:031ad8000194d6a0
:031ad9000194cea7
:031ada000194c6ae
:031adb000194bfb4
:031adc000194b7bb
:031add000194afc2
:031ade000194a8c8
:031adf000194a0cf
:031ae000019498d6
:031ae100019491dc
:031ae200019489e3
:031ae300019481ea
:031ae400019479f1
:031ae500019472f7
:031ae60001946afe
:031ae70001946205
:031ae80001945b0b
:031ae90001945312
:031aea0001944b19
:031aeb0001944320
:031aec0001943c26
:031aed000194342d
:031aee0001942c34
:031aef000194253a
:031af00001941d41
:031af10001941548
:031af20001940d4f
:031af30001940655
:031af4000193fe5d
:031af5000193f664
:031af6000193ef6a
:031af7000193e771
:031af8000193df78
:031af9000193d77f
:031afa000193d085
:031afb000193c88c
:031afc000193c093
:031afd000193b999
:031afe000193b1a0
:031aff000193a9a7
:031b00000193a1ad
:031b010001939ab3
:031b0200019392ba
:031b030001938ac1
:031b0400019382c8
:031b050001937bce
:031b0600019373d5
:031b070001936bdc
:031b0800019363e3
:031b090001935ce9
:031b0a00019354f0
:031b0b0001934cf7
:031b0c00019345fd
:031b0d0001933d04
:031b0e000193350b
:031b0f0001932d12
:031b100001932618
:031b110001931e1f
:031b120001931626
:031b130001930e2d
:031b140001930733
:031b15000192ff3b
:031b16000192f742
:031b17000192ef49
:031b18000192e84f
:031b19000192e056
:031b1a000192d85d
:031b1b000192d064
:031b1c000192c96a
:031b1d000192c171
:031b1e000192b978
:031b1f000192b17f
:031b20000192a986
:031b21000192a28c
:031b220001929a93
:031b23000192929a
:031b240001928aa1
:031b2500019283a7
:031b260001927bae
:031b2700019273b5
:031b280001926bbc
:031b2900019264c2
:031b2a0001925cc9
:031b2b00019254d0
:031b2c0001924cd7
:031b2d00019244de
:031b2e0001923de4
:031b2f00019235eb
:031b300001922df2
:031b3100019225f9
:031b320001921eff
:031b330001921606
:031b340001920e0d
:031b350001920614
:031b36000191fe1c
:031b37000191f722
:031b38000191ef29
:031b39000191e730
:031b3a000191df37
:031b3b000191d83d
:031b3c000191d044
:031b3d000191c84b
:031b3e000191c052
:031b3f000191b859
:031b40000191b15f
:031b41000191a966
:031b42000191a16d
:031b430001919974
:031b44000191917b
:031b450001918a81
:031b460001918288
:031b470001917a8f
:031b480001917296
:031b490001916a9d
:031b4a00019163a3
:031b4b0001915baa
:031b4c00019153b1
:031b4d0001914bb8
:031b4e00019143bf
:031b4f0001913cc5
:031b5000019134cc
:031b510001912cd3
:031b5200019124da
:031b530001911ce1
:031b5400019115e7
:031b550001910dee
:031b5600019105f5
:031b57000190fdfd
:031b58000190f504
:031b59000190ee0a
:031b5a000190e611
:031b5b000190de18
:031b5c000190d61f
:031b5d000190ce26
:031b5e000190c62d
:031b5f000190bf33
:031b60000190b73a
:031b61000190af41
:031b62000190a748
:031b630001909f4f
:031b640001909855
:031b65000190905c
:031b660001908863
:031b67000190806a
:031b680001907871
:031b690001907078
:031b6a000190697e
:031b6b0001906185
:031b6c000190598c
:031b6d0001905193
:031b6e000190499a
:031b6f00019041a1
:031b700001903aa7
:031b7100019032ae
:031b720001902ab5
:031b7300019022bc
:031b740001901ac3
:031b7500019012ca
:031b760001900ad1
:031b7700019003d7
:031b7800018ffbdf
:031b7900018ff3e6
:031b7a00018febed
:031b7b00018fe3f4
:031b7c00018fdbfb
:031b7d00018fd401
:031b7e00018fcc08
:031b7f00018fc40f
:031b8000018fbc16
:031b8100018fb41d
:031b8200018fac24
:031b8300018fa42b
:031b8400018f9d31
:031b8500018f9538
:031b8600018f8d3f
:031b8700018f8546
:031b8800018f7d4d
:031b8900018f7554
:031b8a00018f6d5b
:031b8b00018f6661
:031b8c00018f5e68
:031b8d00018f566f
:031b8e00018f4e76
:031b8f00018f467d
:031b9000018f3e84
:031b9100018f368b
:031b9200018f2f91
:031b9300018f2798
:031b9400018f1f9f
:031b9500018f17a6
:031b9600018f0fad
:031b9700018f07b4
:031b9800018effbc
:031b9900018ef7c3
:031b9a00018ef0c9
:031b9b00018ee8d0
:031b9c00018ee0d7
:031b9d00018ed8de
:031b9e00018ed0e5
:031b9f00018ec8ec
:031ba000018ec0f3
:031ba100018eb8fa
:031ba200018eb001
:031ba300018ea907
:031ba400018ea10e
:031ba500018e9915
:031ba600018e911c
:031ba700018e8923
:031ba800018e812a
:031ba900018e7931
:031baa00018e7138
:031bab00018e693f
:031bac00018e6245
:031bad00018e5a4c
:031bae00018e5253
:031baf00018e4a5a
:031bb000018e4261
:031bb100018e3a68
:031bb200018e326f
:031bb300018e2a76
:031bb400018e227d
:031bb500018e1b83
:031bb600018e138a
:031bb700018e0b91
:031bb800018e0398
:031bb900018dfba0
:031bba00018df3a7
:031bbb00018debae
:031bbc00018de3b5
:031bbd00018ddbbc
:031bbe00018dd3c3
:031bbf00018dcbca
:031bc000018dc4d0
:031bc100018dbcd7
:031bc200018db4de
:031bc300018dace5
:031bc400018da4ec
:031bc500018d9cf3
:031bc600018d94fa
:031bc700018d8c01
:031bc800018d8408
:031bc900018d7c0f
:031bca00018d7416
:031bcb00018d6c1d
:031bcc00018d6523
:031bcd00018d5d2a
:031bce00018d5531
:031bcf00018d4d38
:031bd000018d453f
:031bd100018d3d46
:031bd200018d354d
:031bd300018d2d54
:031bd400018d255b
:031bd500018d1d62
:031bd600018d1569
:031bd700018d0d70
:031bd800018d0577
:031bd900018cfd7f
:031bda00018cf685
:031bdb00018cee8c
:031bdc00018ce693
:031bdd00018cde9a
:031bde00018cd6a1
:031bdf00018ccea8
:031be000018cc6af
:031be100018cbeb6
:031be200018cb6bd
:031be300018caec4
:031be400018ca6cb
:031be500018c9ed2
:031be600018c96d9
:031be700018c8ee0
:031be800018c86e7
:031be900018c7eee
:031bea00018c76f5
:031beb00018c6efc
:031bec00018c6702
:031bed00018c5f09
:031bee00018c5710
:031bef00018c4f17
:031bf000018c471e
:031bf100018c3f25
:031bf200018c372c
:031bf300018c2f33
:031bf400018c273a
:031bf500018c1f41
:031bf600018c1748
:031bf700018c0f4f
:031bf800018c0756
:031bf900018bff5e
:031bfa00018bf765
:031bfb00018bef6c
:031bfc00018be773
:031bfd00018bdf7a
:031bfe00018bd781
:031bff00018bcf88
:031c0000018bc78e
:031c0100018bbf95
:031c0200018bb79c
:031c0300018bafa3
:031c0400018ba7aa
:031c0500018b9fb1
:031c0600018b97b8
:031c0700018b8fbf
:031c0800018b87c6
:031c0900018b7fcd
:031c0a00018b77d4
:031c0b00018b70da
:031c0c00018b68e1
:031c0d00018b60e8
:031c0e00018b58ef
:031c0f00018b50f6
:031c1000018b48fd
:031c1100018b4004
:031c1200018b380b
:031c1300018b3012
:031c1400018b2819
:031c1500018b2020
:031c1600018b1827
:031c1700018b102e
:031c1800018b0835
:031c1900018b003c
:031c1a00018af844
:031c1b00018af04b
:031c1c00018ae852
:031c1d00018ae059
:031c1e00018ad860
:031c1f00018ad067
:031c2000018ac86e
:031c2100018ac075
:031c2200018ab87c
:031c2300018ab083
:031c2400018aa88a
:031c2500018aa091
:031c2600018a9898
:031c2700018a909f
:031c2800018a88a6
:031c2900018a80ad
:031c2a00018a78b4
:031c2b00018a70bb
:031c2c00018a68c2
:031c2d00018a60c9
:031c2e00018a58d0
:031c2f00018a50d7
:031c3000018a48de
:031c3100018a40e5
:031c3200018a37ed
:031c3300018a2ff4
:031c3400018a27fb
:031c3500018a1f02
:031c3600018a1709
:031c3700018a0f10
:031c3800018a0717
:031c39000189ff1f
:031c3a000189f726
:031c3b000189ef2d
:031c3c000189e734
:031c3d000189df3b
:031c3e000189d742
:031c3f000189cf49
:031c40000189c750
:031c41000189bf57
:031c42000189b75e
:031c43000189af65
:031c44000189a76c
:031c450001899f73
:031c46000189977a
:031c470001898f81
:031c480001898788
:031c490001897f8f
:031c4a0001897796
:031c4b0001896f9d
:031c4c00018967a4
:031c4d0001895fab
:031c4e00018957b2
:031c4f0001894fb9
:031c5000018947c0
:031c510001893ec8
:031c5200018936cf
:031c530001892ed6
:031c5400018926dd
:031c550001891ee4
:031c5600018916eb
:031c570001890ef2
:031c5800018906f9
:031c59000188fe01
:031c5a000188f608
:031c5b000188ee0f
:031c5c000188e616
:031c5d000188de1d
:031c5e000188d624
:031c5f000188ce2b
:031c60000188c632
:031c61000188be39
:031c62000188b640
:031c63000188ad48
:031c64000188a54f
:031c650001889d56
:031c66000188955d
:031c670001888d64
:031c68000188856b
:031c690001887d72
:031c6a0001887579
:031c6b0001886d80
:031c6c0001886587
:031c6d0001885d8e
:031c6e0001885595
:031c6f0001884d9c
:031c7000018845a3
:031c710001883cab
:031c7200018834b2
:031c730001882cb9
:031c7400018824c0
:031c750001881cc7
:031c7600018814ce
:031c770001880cd5
:031c7800018804dc
:031c79000187fce4
:031c7a000187f4eb
:031c7b000187ecf2
:031c7c000187e4f9
:031c7d000187dc00
:031c7e000187d308
:031c7f000187cb0f
:031c80000187c316
:031c81000187bb1d
:031c82000187b324
:031c83000187ab2b
:031c84000187a332
:031c850001879b39
:031c860001879340
:031c870001878b47
:031c88000187824f
:031c890001877a56
:031c8a000187725d
:031c8b0001876a64
:031c8c000187626b
:031c8d0001875a72
:031c8e0001875279
:031c8f0001874a80
:031c900001874287
:031c910001873a8e
:031c920001873196
:031c93000187299d
:031c9400018721a4
:031c9500018719ab
:031c9600018711b2
:031c9700018709b9
:031c9800018701c0
:031c99000186f9c8
:031c9a000186f1cf
:031c9b000186e8d7
:031c9c000186e0de
:031c9d000186d8e5
:031c9e000186d0ec
:031c9f000186c8f3
:031ca0000186c0fa
:031ca1000186b801
:031ca2000186b008
:031ca3000186a80f
:031ca40001869f17
:031ca5000186971e
:031ca60001868f25
:031ca7000186872c
:031ca80001867f33
:031ca9000186773a
:031caa0001866f41
:031cab0001866649
:031cac0001865e50
:031cad0001865657
:031cae0001864e5e
:031caf0001864665
:031cb00001863e6c
:031cb10001863673
:031cb20001862e7a
:031cb30001862582
:031cb40001861d89
:031cb50001861590
:031cb60001860d97
:031cb7000186059e
:031cb8000185fda6
:031cb9000185f5ad
:031cba000185ecb5
:031cbb000185e4bc
:031cbc000185dcc3
:031cbd000185d4ca
:031cbe000185ccd1
:031cbf000185c4d8
:031cc0000185bcdf
:031cc1000185b3e7
:031cc2000185abee
:031cc3000185a3f5
:031cc40001859bfc
:031cc50001859303
:031cc60001858b0a
:031cc70001858212
:031cc80001857a19
:031cc90001857220
:031cca0001856a27
:031ccb000185622e
:031ccc0001855a35
:031ccd000185523c
:031cce0001854944
:031ccf000185414b
:031cd00001853952
:031cd10001853159
:031cd20001852960
:031cd30001852167
:031cd4000185186f
:031cd50001851076
:031cd6000185087d
:031cd70001850084
:031cd8000184f88c
:031cd9000184f093
:031cda000184e79b
:031cdb000184dfa2
:031cdc000184d7a9
:031cdd000184cfb0
:031cde000184c7b7
:031cdf000184bebf
:031ce0000184b6c6
:031ce1000184aecd
:031ce2000184a6d4
:031ce30001849edb
:031ce400018496e2
:031ce50001848dea
:031ce600018485f1
:031ce70001847df8
:031ce800018475ff
:031ce90001846d06
:031cea000184640e
:031ceb0001845c15
:031cec000184541c
:031ced0001844c23
:031cee000184442a
:031cef0001843c31
:031cf00001843339
:031cf10001842b40
:031cf20001842347
:031cf30001841b4e
:031cf40001841355
:031cf50001840a5d
:031cf60001840264
:031cf7000183fa6c
:031cf8000183f273
:031cf9000183ea7a
:031cfa000183e182
:031cfb000183d989
:031cfc000183d190
:031cfd000183c997
:031cfe000183c19e
:031cff000183b8a6
:031d00000183b0ac
:031d01000183a8b3
:031d02000183a0ba
:031d0300018397c2
:031d040001838fc9
:031d0500018387d0
:031d060001837fd7
:031d0700018377de
:031d080001836ee6
:031d0900018366ed
:031d0a0001835ef4
:031d0b00018356fb
:031d0c0001834e02
:031d0d000183450a
:031d0e0001833d11
:031d0f0001833518
:031d100001832d1f
:031d110001832427
:031d120001831c2e
:031d130001831435
:031d140001830c3c
:031d150001830443
:031d16000182fb4c
:031d17000182f353
:031d18000182eb5a
:031d19000182e361
:031d1a000182da69
:031d1b000182d270
:031d1c000182ca77
:031d1d000182c27e
:031d1e000182b986
:031d1f000182b18d
:031d20000182a994
:031d21000182a19b
:031d2200018299a2
:031d2300018290aa
:031d2400018288b1
:031d2500018280b8
:031d2600018278bf
:031d270001826fc7
:031d2800018267ce
:031d290001825fd5
:031d2a00018257dc
:031d2b0001824ee4
:031d2c00018246eb
:031d2d0001823ef2
:031d2e00018236f9
:031d2f0001822d01
:031d300001822508
:031d310001821d0f
:031d320001821516
:031d330001820c1e
:031d340001820425
:031d35000181fc2d
:031d36000181f434
:031d37000181eb3c
:031d38000181e343
:031d39000181db4a
:031d3a000181d351
:031d3b000181ca59
:031d3c000181c260
:031d3d000181ba67
:031d3e000181b16f
:031d3f000181a976
:031d40000181a17d
:031d410001819984
:031d42000181908c
:031d430001818893
:031d44000181809a
:031d4500018178a1
:031d460001816fa9
:031d4700018167b0
:031d480001815fb7
:031d4900018157be
:031d4a0001814ec6
:031d4b00018146cd
:031d4c0001813ed4
:031d4d00018135dc
:031d4e0001812de3
:031d4f00018125ea
:031d500001811df1
:031d5100018114f9
:031d520001810c00
:031d530001810407
:031d54000180fb10
:031d55000180f317
:031d56000180eb1e
:031d57000180e325
:031d58000180da2d
:031d59000180d234
:031d5a000180ca3b
:031d5b000180c143
:031d5c000180b94a
:031d5d000180b151
:031d5e000180a958
:031d5f000180a060
:031d600001809867
:031d61000180906e
:031d620001808776
:031d630001807f7d
:031d640001807784
:031d650001806e8c
:031d660001806693
:031d670001805e9a
:031d6800018056a1
:031d690001804da9
:031d6a00018045b0
:031d6b0001803db7
:031d6c00018034bf
:031d6d0001802cc6
:031d6e00018024cd
:031d6f0001801bd5
:031d7000018013dc
:031d710001800be3
:031d7200018003ea
:031d7300017ffaf3
:031d7400017ff2fa
:031d7500017fea01
:031d7600017fe109
:031d7700017fd910
:031d7800017fd117
:031d7900017fc81f
:031d7a00017fc026
:031d7b00017fb82d
:031d7c00017faf35
:031d7d00017fa73c
:031d7e00017f9f43
:031d7f00017f964b
:031d8000017f8e52
:031d8100017f8659
:031d8200017f7d61
:031d8300017f7568
:031d8400017f6d6f
:031d8500017f6477
:031d8600017f5c7e
:031d8700017f5485
:031d8800017f4b8d
:031d8900017f4394
:031d8a00017f3b9b
:031d8b00017f32a3
:031d8c00017f2aaa
:031d8d00017f22b1
:031d8e00017f19b9
:031d8f00017f11c0
:031d9000017f09c7
:031d9100017f00cf
:031d9200017ef8d7
:031d9300017ef0de
:031d9400017ee7e6
:031d9500017edfed
:031d9600017ed7f4
:031d9700017ecefc
:031d9800017ec603
:031d9900017ebe0a
:031d9a00017eb512
:031d9b00017ead19
:031d9c00017ea520
:031d9d00017e9c28
:031d9e00017e942f
:031d9f00017e8c36
:031da000017e833e
:031da100017e7b45
:031da200017e734c
:031da300017e6a54
:031da400017e625b
:031da500017e5963
:031da600017e516a
:031da700017e4971
:031da800017e4079
:031da900017e3880
:031daa00017e3087
:031dab00017e278f
:031dac00017e1f96
:031dad00017e179d
:031dae00017e0ea5
:031daf00017e06ac
:031db000017dfdb5
:031db100017df5bc
:031db200017dedc3
:031db300017de4cb
:031db400017ddcd2
:031db500017dd4d9
:031db600017dcbe1
:031db700017dc3e8
:031db800017dbaf0
:031db900017db2f7
:031dba00017daafe
:031dbb00017da106
:031dbc00017d990d
:031dbd00017d9114
:031dbe00017d881c
:031dbf00017d8023
:031dc000017d772b
:031dc100017d6f32
:031dc200017d6739
:031dc300017d5e41
:031dc400017d5648
:031dc500017d4e4f
:031dc600017d4557
:031dc700017d3d5e
:031dc800017d3466
:031dc900017d2c6d
:031dca00017d2474
:031dcb00017d1b7c
:031dcc00017d1383
:031dcd00017d0a8b
:031dce00017d0292
:031dcf00017cfa9a
:031dd000017cf1a2
:031dd100017ce9a9
:031dd200017ce0b1
:031dd300017cd8b8
:031dd400017cd0bf
:031dd500017cc7c7
:031dd600017cbfce
:031dd700017cb6d6
:031dd800017caedd
:031dd900017ca6e4
:031dda00017c9dec
:031ddb00017c95f3
:031ddc00017c8cfb
:031ddd00017c8402
:031dde00017c7c09
:031ddf00017c7311
:031de000017c6b18
:031de100017c6220
:031de200017c5a27
:031de300017c522e
:031de400017c4936
:031de500017c413d
:031de600017c3845
:031de700017c304c
:031de800017c2754
:031de900017c1f5b
:031dea00017c1762
:031deb00017c0e6a
:031dec00017c0671
:031ded00017bfd7a
:031dee00017bf581
:031def00017bed88
:031df000017be490
:031df100017bdc97
:031df200017bd39f
:031df300017bcba6
:031df400017bc2ae
:031df500017bbab5
:031df600017bb2bc
:031df700017ba9c4
:031df800017ba1cb
:031df900017b98d3
:031dfa00017b90da
:031dfb00017b87e2
:031dfc00017b7fe9
:031dfd00017b77f0
:031dfe00017b6ef8
:031dff00017b66ff
:031e0000017b5d06
:031e0100017b550d
:031e0200017b4c15
:031e0300017b441c
:031e0400017b3b24
:031e0500017b332b
:031e0600017b2b32
:031e0700017b223a
:031e0800017b1a41
:031e0900017b1149
:031e0a00017b0950
:031e0b00017b0058
:031e0c00017af860
:031e0d00017aef68
:031e0e00017ae76f
:031e0f00017adf76
:031e1000017ad67e
:031e1100017ace85
:031e1200017ac58d
:031e1300017abd94
:031e1400017ab49c
:031e1500017aaca3
:031e1600017aa3ab
:031e1700017a9bb2
:031e1800017a92ba
:031e1900017a8ac1
:031e1a00017a81c9
:031e1b00017a79d0
:031e1c00017a71d7
:031e1d00017a68df
:031e1e00017a60e6
:031e1f00017a57ee
:031e2000017a4ff5
:031e2100017a46fd
:031e2200017a3e04
:031e2300017a350c
:031e2400017a2d13
:031e2500017a241b
:031e2600017a1c22
:031e2700017a132a
:031e2800017a0b31
:031e2900017a0239
:031e2a000179fa41
:031e2b000179f248
:031e2c000179e950
:031e2d000179e157
:031e2e000179d85f
:031e2f000179d066
:031e30000179c76e
:031e31000179bf75
:031e32000179b67d
:031e33000179ae84
:031e34000179a58c
:031e350001799d93
:031e36000179949b
:031e370001798ca2
:031e3800017983aa
:031e390001797bb1
:031e3a00017972b9
:031e3b0001796ac0
:031e3c00017961c8
:031e3d00017959cf
:031e3e00017950d7
:031e3f00017948de
:031e400001793fe6
:031e4100017937ed
:031e420001792ef5
:031e4300017926fc
:031e440001791d04
:031e45000179150b
:031e460001790c13
:031e47000179041a
:031e48000178fb23
:031e49000178f32a
:031e4a000178ea32
:031e4b000178e239
:031e4c000178d941
:031e4d000178d148
:031e4e000178c850
:031e4f000178c057
:031e50000178b75f
:031e51000178af66
:031e52000178a66e
:031e530001789e75
:031e54000178957d
:031e550001788d84
:031e56000178848c
:031e570001787c93
:031e58000178739b
:031e590001786ba2
:031e5a00017862aa
:031e5b0001785ab1
:031e5c00017851b9
:031e5d00017849c0
:031e5e00017840c8
:031e5f00017837d0
:031e600001782fd7
:031e6100017826df
:031e620001781ee6
:031e6300017815ee
:031e640001780df5
:031e6500017804fd
:031e66000177fc05
:031e67000177f30d
:031e68000177eb14
:031e69000177e21c
:031e6a000177da23
:031e6b000177d12b
:031e6c000177c932
:031e6d000177c03a
:031e6e000177b841
:031e6f000177af49
:031e70000177a651
:031e710001779e58
:031e720001779560
:031e730001778d67
:031e74000177846f
:031e750001777c76
:031e76000177737e
:031e770001776b85
:031e78000177628d
:031e790001775a94
:031e7a000177519c
:031e7b00017748a4
:031e7c00017740ab
:031e7d00017737b3
:031e7e0001772fba
:031e7f00017726c2
:031e800001771ec9
:031e8100017715d1
:031e820001770dd8
:031e8300017704e0
:031e84000176fce8
:031e85000176f3f0
:031e86000176eaf8
:031e87000176e2ff
:031e88000176d907
:031e89000176d10e
:031e8a000176c816
:031e8b000176c01d
:031e8c000176b725
:031e8d000176ae2d
:031e8e000176a634
:031e8f0001769d3c
:031e900001769543
:031e910001768c4b
:031e920001768452
:031e930001767b5a
:031e940001767262
:031e950001766a69
:031e960001766171
:031e970001765978
:031e980001765080
:031e990001764887
:031e9a0001763f8f
:031e9b0001763697
:031e9c0001762e9e
:031e9d00017625a6
:031e9e0001761dad
:031e9f00017614b5
:031ea00001760cbc
:031ea100017603c4
:031ea2000175facd
:031ea3000175f2d4
:031ea4000175e9dc
:031ea5000175e1e3
:031ea6000175d8eb
:031ea7000175d0f2
:031ea8000175c7fa
:031ea9000175be02
:031eaa000175b609
:031eab000175ad11
:031eac000175a518
:031ead0001759c20
:031eae0001759328
:031eaf0001758b2f
:031eb00001758237
:031eb10001757a3e
:031eb20001757146
:031eb3000175684e
:031eb40001756055
:031eb5000175575d
:031eb60001754f64
:031eb7000175466c
:031eb80001753d74
:031eb9000175357b
:031eba0001752c83
:031ebb000175248a
:031ebc0001751b92
:031ebd000175129a
:031ebe0001750aa1
:031ebf00017501a9
:031ec0000174f9b1
:031ec1000174f0b9
:031ec2000174e7c1
:031ec3000174dfc8
:031ec4000174d6d0
:031ec5000174ced7
:031ec6000174c5df
:031ec7000174bce7
:031ec8000174b4ee
:031ec9000174abf6
:031eca000174a2fe
:031ecb0001749a05
:031ecc000174910d
:031ecd0001748914
:031ece000174801c
:031ecf0001747724
:031ed00001746f2b
:031ed10001746633
:031ed20001745d3b
:031ed30001745542
:031ed40001744c4a
:031ed50001744451
:031ed60001743b59
:031ed70001743261
:031ed80001742a68
:031ed90001742170
:031eda0001741878
:031edb000174107f
:031edc0001740787
:031edd000173ff8f
:031ede000173f697
:031edf000173ed9f
:031ee0000173e5a6
:031ee1000173dcae
:031ee2000173d3b6
:031ee3000173cbbd
:031ee4000173c2c5
:031ee5000173b9cd
:031ee6000173b1d4
:031ee7000173a8dc
:031ee80001739fe4
:031ee900017397eb
:031eea0001738ef3
:031eeb00017386fa
:031eec0001737d02
:031eed000173740a
:031eee0001736c11
:031eef0001736319
:031ef00001735a21
:031ef10001735228
:031ef20001734930
:031ef30001734038
:031ef4000173383f
:031ef50001732f47
:031ef6000173264f
:031ef70001731e56
:031ef8000173155e
:031ef90001730c66
:031efa000173046d
:031efb000172fb76
:031efc000172f27e
:031efd000172ea85
:031efe000172e18d
:031eff000172d895
:031f00000172d09b
:031f01000172c7a3
:031f02000172beab
:031f03000172b6b2
:031f04000172adba
:031f05000172a4c2
:031f060001729cc9
:031f0700017293d1
:031f080001728ad9
:031f0900017282e0
:031f0a00017279e8
:031f0b00017270f0
:031f0c00017268f7
:031f0d0001725fff
:031f0e0001725607
:031f0f0001724e0e
:031f100001724516
:031f110001723c1e
:031f120001723425
:031f130001722b2d
:031f140001722235
:031f150001721a3c
:031f160001721144
:031f17000172084c
:031f180001720053
:031f19000171f75c
:031f1a000171ee64
:031f1b000171e66b
:031f1c000171dd73
:031f1d000171d47b
:031f1e000171cb83
:031f1f000171c38a
:031f20000171ba92
:031f21000171b19a
:031f22000171a9a1
:031f23000171a0a9
:031f2400017197b1
:031f250001718fb8
:031f2600017186c0
:031f270001717dc8
:031f2800017174d0
:031f290001716cd7
:031f2a00017163df
:031f2b0001715ae7
:031f2c00017152ee
:031f2d00017149f6
:031f2e00017140fe
:031f2f0001713805
:031f300001712f0d
:031f310001712615
:031f320001711d1d
:031f330001711524
:031f340001710c2c
:031f350001710334
:031f36000170fb3c
:031f37000170f244
:031f38000170e94c
:031f39000170e054
:031f3a000170d85b
:031f3b000170cf63
:031f3c000170c66b
:031f3d000170be72
:031f3e000170b57a
:031f3f000170ac82
:031f40000170a38a
:031f410001709b91
:031f420001709299
:031f4300017089a1
:031f4400017081a8
:031f4500017078b0
:031f460001706fb8
:031f4700017066c0
:031f480001705ec7
:031f4900017055cf
:031f4a0001704cd7
:031f4b00017043df
:031f4c0001703be6
:031f4d00017032ee
:031f4e00017029f6
:031f4f00017021fd
:031f500001701805
:031f510001700f0d
:031f520001700615
:031f5300016ffe1d
:031f5400016ff525
:031f5500016fec2d
:031f5600016fe335
:031f5700016fdb3c
:031f5800016fd244
:031f5900016fc94c
:031f5a00016fc054
:031f5b00016fb85b
:031f5c00016faf63
:031f5d00016fa66b
:031f5e00016f9d73
:031f5f00016f957a
:031f6000016f8c82
:031f6100016f838a
:031f6200016f7a92
:031f6300016f7299
:031f6400016f69a1
:031f6500016f60a9
:031f6600016f57b1
:031f6700016f4fb8
:031f6800016f46c0
:031f6900016f3dc8
:031f6a00016f34d0
:031f6b00016f2cd7
:031f6c00016f23df
:031f6d00016f1ae7
:031f6e00016f11ef
:031f6f00016f09f6
:031f7000016f00fe
:031f7100016ef707
:031f7200016eee0f
:031f7300016ee616
:031f7400016edd1e
:031f7500016ed426
:031f7600016ecb2e
:031f7700016ec335
:031f7800016eba3d
:031f7900016eb145
:031f7a00016ea84d
:031f7b00016e9f55
:031f7c00016e975c
:031f7d00016e8e64
:031f7e00016e856c
:031f7f00016e7c74
:031f8000016e747b
:031f8100016e6b83
:031f8200016e628b
:031f8300016e5993
:031f8400016e509b
:031f8500016e48a2
:031f8600016e3faa
:031f8700016e36b2
:031f8800016e2dba
:031f8900016e25c1
:031f8a00016e1cc9
:031f8b00016e13d1
:031f8c00016e0ad9
:031f8d00016e01e1
:031f8e00016df9e9
:031f8f00016df0f1
:031f9000016de7f9
:031f9100016dde01
:031f9200016dd509
:031f9300016dcd10
:031f9400016dc418
:031f9500016dbb20
:031f9600016db228
:031f9700016da930
:031f9800016da137
:031f9900016d983f
:031f9a00016d8f47
:031f9b00016d864f
:031f9c00016d7d57
:031f9d00016d755e
:031f9e00016d6c66
:031f9f00016d636e
:031fa000016d5a76
:031fa100016d517e
:031fa200016d4985
:031fa300016d408d
:031fa400016d3795
:031fa500016d2e9d
:031fa600016d25a5
:031fa700016d1dac
:031fa800016d14b4
:031fa900016d0bbc
:031faa00016d02c4
:031fab00016cf9cd
:031fac00016cf1d4
:031fad00016ce8dc
:031fae00016cdfe4
:031faf00016cd6ec
:031fb000016ccdf4
:031fb100016cc4fc
:031fb200016cbc03
:031fb300016cb30b
:031fb400016caa13
:031fb500016ca11b
:031fb600016c9823
:031fb700016c902a
:031fb800016c8732
:031fb900016c7e3a
:031fba00016c7542
:031fbb00016c6c4a
:031fbc00016c6352
:031fbd00016c5b59
:031fbe00016c5261
:031fbf00016c4969
:031fc000016c4071
:031fc100016c3779
:031fc200016c2e81
:031fc300016c2688
:031fc400016c1d90
:031fc500016c1498
:031fc600016c0ba0
:031fc700016c02a8
:031fc800016bf9b1
:031fc900016bf1b8
:031fca00016be8c0
:031fcb00016bdfc8
:031fcc00016bd6d0
:031fcd00016bcdd8
:031fce00016bc4e0
:031fcf00016bbce7
:031fd000016bb3ef
:031fd100016baaf7
:031fd200016ba1ff
:031fd300016b9807
:031fd400016b8f0f
:031fd500016b8617
:031fd600016b7e1e
:031fd700016b7526
:031fd800016b6c2e
:031fd900016b6336
:031fda00016b5a3e
:031fdb00016b5146
:031fdc00016b494d
:031fdd00016b4055
:031fde00016b375d
:031fdf00016b2e65
:031fe000016b256d
:031fe100016b1c75
:031fe200016b137d
:031fe300016b0b84
:031fe400016b028c
:031fe500016af995
:031fe600016af09d
:031fe700016ae7a5
:031fe800016adead
:031fe900016ad5b5
:031fea00016accbd
:031feb00016ac4c4
:031fec00016abbcc
:031fed00016ab2d4
:031fee00016aa9dc
:031fef00016aa0e4
:031ff000016a97ec
:031ff100016a8ef4
:031ff200016a86fb
:031ff300016a7d03
:031ff400016a740b
:031ff500016a6b13
:031ff600016a621b
:031ff700016a5923
:031ff800016a502b
:031ff900016a4733
:031ffa00016a3e3b
:031ffb00016a3642
:031ffc00016a2d4a
:031ffd00016a2452
:031ffe00016a1b5a
:031fff00016a1262
:00000001FF
