:03000000000000fd
:0300010000000def
:03000200000019e2
:03000300000026d4
:03000400000032c7
:0300050000003fb9
:0300060000004bac
:030007000000589e
:0300080000006590
:0300090000007183
:03000a0000007e75
:03000b0000008a68
:03000c000000975a
:03000d000000a34d
:03000e000000b03f
:03000f000000bc32
:030010000000c924
:030011000000d616
:030012000000e209
:030013000000effb
:030014000000fbee
:03001500000108df
:03001600000114d2
:03001700000121c4
:0300180000012eb6
:0300190000013aa9
:03001a000001479b
:03001b000001538e
:03001c0000016080
:03001d0000016c73
:03001e0000017965
:03001f0000018657
:030020000001924a
:0300210000019f3c
:030022000001ab2f
:030023000001b821
:030024000001c414
:030025000001d106
:030026000001def8
:030027000001eaeb
:030028000001f7dd
:03002900000203cf
:03002a00000210c1
:03002b0000021cb4
:03002c00000229a6
:03002d0000023599
:03002e000002428b
:03002f0000024f7d
:0300300000025b70
:0300310000026862
:0300320000027455
:0300330000028147
:0300340000028d3a
:0300350000029a2c
:030036000002a71e
:030037000002b311
:030038000002c003
:030039000002ccf6
:03003a000002d9e8
:03003b000002e5db
:03003c000002f2cd
:03003d000002ffbf
:03003e0000030bb1
:03003f00000318a3
:0300400000032496
:0300410000033188
:0300420000033d7b
:0300430000034a6d
:030044000003575f
:0300450000036352
:0300460000037044
:0300470000037c37
:0300480000038929
:030049000003951c
:03004a000003a20e
:03004b000003ae01
:03004c000003bbf3
:03004d000003c8e5
:03004e000003d4d8
:03004f000003e1ca
:030050000003edbd
:030051000003faaf
:03005200000406a1
:0300530000041393
:0300540000042085
:0300550000042c78
:030056000004396a
:030057000004455d
:030058000004524f
:0300590000045e42
:03005a0000046b34
:03005b0000047826
:03005c0000048419
:03005d000004910b
:03005e0000049dfe
:03005f000004aaf0
:030060000004b6e3
:030061000004c3d5
:030062000004cfc8
:030063000004dcba
:030064000004e9ac
:030065000004f59f
:0300660000050290
:0300670000050e83
:0300680000051b75
:0300690000052768
:03006a000005345a
:03006b000005414c
:03006c0000054d3f
:03006d0000055a31
:03006e0000056624
:03006f0000057316
:0300700000057f09
:0300710000058cfb
:03007200000599ed
:030073000005a5e0
:030074000005b2d2
:030075000005bec5
:030076000005cbb7
:030077000005d7aa
:030078000005e49c
:030079000005f08f
:03007a000005fd81
:03007b0000060a72
:03007c0000061665
:03007d0000062357
:03007e0000062f4a
:03007f0000063c3c
:030080000006482f
:0300810000065521
:0300820000066213
:0300830000066e06
:0300840000067bf8
:03008500000687eb
:03008600000694dd
:030087000006a0d0
:030088000006adc2
:030089000006bab4
:03008a000006c6a7
:03008b000006d399
:03008c000006df8c
:03008d000006ec7e
:03008e000006f871
:03008f0000070562
:0300900000071155
:0300910000071e47
:0300920000072b39
:030093000007372c
:030094000007441e
:0300950000075011
:0300960000075d03
:03009700000769f6
:03009800000776e8
:03009900000783da
:03009a0000078fcd
:03009b0000079cbf
:03009c000007a8b2
:03009d000007b5a4
:03009e000007c197
:03009f000007ce89
:0300a0000007db7b
:0300a1000007e76e
:0300a2000007f460
:0300a30000080052
:0300a40000080d44
:0300a50000081937
:0300a60000082629
:0300a7000008321c
:0300a80000083f0e
:0300a90000084c00
:0300aa00000858f3
:0300ab00000865e5
:0300ac00000871d8
:0300ad0000087eca
:0300ae0000088abd
:0300af00000897af
:0300b0000008a4a1
:0300b1000008b094
:0300b2000008bd86
:0300b3000008c979
:0300b4000008d66b
:0300b5000008e25e
:0300b6000008ef50
:0300b7000008fc42
:0300b80000090834
:0300b90000091526
:0300ba0000092119
:0300bb0000092e0b
:0300bc0000093afe
:0300bd00000947f0
:0300be00000953e3
:0300bf00000960d5
:0300c00000096dc7
:0300c100000979ba
:0300c200000986ac
:0300c3000009929f
:0300c40000099f91
:0300c5000009ab84
:0300c6000009b876
:0300c7000009c568
:0300c8000009d15b
:0300c9000009de4d
:0300ca000009ea40
:0300cb000009f732
:0300cc00000a0324
:0300cd00000a1016
:0300ce00000a1c09
:0300cf00000a29fb
:0300d000000a36ed
:0300d100000a42e0
:0300d200000a4fd2
:0300d300000a5bc5
:0300d400000a68b7
:0300d500000a74aa
:0300d600000a819c
:0300d700000a8e8e
:0300d800000a9a81
:0300d900000aa773
:0300da00000ab366
:0300db00000ac058
:0300dc00000acc4b
:0300dd00000ad93d
:0300de00000ae62f
:0300df00000af222
:0300e000000aff14
:0300e100000b0b06
:0300e200000b18f8
:0300e300000b24eb
:0300e400000b31dd
:0300e500000b3dd0
:0300e600000b4ac2
:0300e700000b57b4
:0300e800000b63a7
:0300e900000b7099
:0300ea00000b7c8c
:0300eb00000b897e
:0300ec00000b9571
:0300ed00000ba263
:0300ee00000baf55
:0300ef00000bbb48
:0300f000000bc83a
:0300f100000bd42d
:0300f200000be11f
:0300f300000bed12
:0300f400000bfa04
:0300f500000c06f6
:0300f600000c13e8
:0300f700000c20da
:0300f800000c2ccd
:0300f900000c39bf
:0300fa00000c45b2
:0300fb00000c52a4
:0300fc00000c5e97
:0300fd00000c6b89
:0300fe00000c787b
:0300ff00000c846e
:03010000000c915f
:03010100000c9d52
:03010200000caa44
:03010300000cb637
:03010400000cc329
:03010500000ccf1c
:03010600000cdc0e
:03010700000ce900
:03010800000cf5f3
:03010900000d02e4
:03010a00000d0ed7
:03010b00000d1bc9
:03010c00000d27bc
:03010d00000d34ae
:03010e00000d41a0
:03010f00000d4d93
:03011000000d5a85
:03011100000d6678
:03011200000d736a
:03011300000d7f5d
:03011400000d8c4f
:03011500000d9842
:03011600000da534
:03011700000db226
:03011800000dbe19
:03011900000dcb0b
:03011a00000dd7fe
:03011b00000de4f0
:03011c00000df0e3
:03011d00000dfdd5
:03011e00000e0ac6
:03011f00000e16b9
:03012000000e23ab
:03012100000e2f9e
:03012200000e3c90
:03012300000e4883
:03012400000e5575
:03012500000e6168
:03012600000e6e5a
:03012700000e7b4c
:03012800000e873f
:03012900000e9431
:03012a00000ea024
:03012b00000ead16
:03012c00000eb909
:03012d00000ec6fb
:03012e00000ed2ee
:03012f00000edfe0
:03013000000eecd2
:03013100000ef8c5
:03013200000f05b6
:03013300000f11a9
:03013400000f1e9b
:03013500000f2a8e
:03013600000f3780
:03013700000f4472
:03013800000f5065
:03013900000f5d57
:03013a00000f694a
:03013b00000f763c
:03013c00000f822f
:03013d00000f8f21
:03013e00000f9b14
:03013f00000fa806
:03014000000fb5f8
:03014100000fc1eb
:03014200000fcedd
:03014300000fdad0
:03014400000fe7c2
:03014500000ff3b5
:03014600001000a6
:0301470000100c99
:030148000010198b
:030149000010267d
:03014a0000103270
:03014b0000103f62
:03014c0000104b55
:03014d0000105847
:03014e000010643a
:03014f000010712c
:0301500000107e1e
:0301510000108a11
:0301520000109703
:030153000010a3f6
:030154000010b0e8
:030155000010bcdb
:030156000010c9cd
:030157000010d5c0
:030158000010e2b2
:030159000010efa4
:03015a000010fb97
:03015b0000110888
:03015c000011147b
:03015d000011216d
:03015e0000112d60
:03015f0000113a52
:0301600000114645
:0301610000115337
:0301620000116029
:0301630000116c1c
:030164000011790e
:0301650000118501
:03016600001192f3
:0301670000119ee6
:030168000011abd8
:030169000011b8ca
:03016a000011c4bd
:03016b000011d1af
:03016c000011dda2
:03016d000011ea94
:03016e000011f687
:03016f0000120378
:0301700000120f6b
:0301710000121c5d
:030172000012294f
:0301730000123542
:0301740000124234
:0301750000124e27
:0301760000125b19
:030177000012670c
:03017800001274fe
:03017900001280f1
:03017a0000128de3
:03017b0000129ad5
:03017c000012a6c8
:03017d000012b3ba
:03017e000012bfad
:03017f000012cc9f
:030180000012d892
:030181000012e584
:030182000012f177
:030183000012fe69
:0301840000130b5a
:030185000013174d
:030186000013243f
:0301870000133032
:0301880000133d24
:0301890000134917
:03018a0000135609
:03018b00001362fc
:03018c0000136fee
:03018d0000137ce0
:03018e00001388d3
:03018f00001395c5
:030190000013a1b8
:030191000013aeaa
:030192000013ba9d
:030193000013c78f
:030194000013d481
:030195000013e074
:030196000013ed66
:030197000013f959
:030198000014064a
:030199000014123d
:03019a0000141f2f
:03019b0000142b22
:03019c0000143814
:03019d0000144506
:03019e00001451f9
:03019f0000145eeb
:0301a00000146ade
:0301a100001477d0
:0301a200001483c3
:0301a300001490b5
:0301a40000149ca8
:0301a5000014a99a
:0301a6000014b68c
:0301a7000014c27f
:0301a8000014cf71
:0301a9000014db64
:0301aa000014e856
:0301ab000014f449
:0301ac000015013a
:0301ad0000150d2d
:0301ae0000151a1f
:0301af0000152711
:0301b00000153304
:0301b100001540f6
:0301b20000154ce9
:0301b300001559db
:0301b400001565ce
:0301b500001572c0
:0301b60000157eb3
:0301b70000158ba5
:0301b80000159897
:0301b9000015a48a
:0301ba000015b17c
:0301bb000015bd6f
:0301bc000015ca61
:0301bd000015d654
:0301be000015e346
:0301bf000015ef39
:0301c0000015fc2b
:0301c1000016091c
:0301c2000016150f
:0301c30000162201
:0301c40000162ef4
:0301c50000163be6
:0301c600001647d9
:0301c700001654cb
:0301c800001660be
:0301c90000166db0
:0301ca0000167aa2
:0301cb0000168695
:0301cc0000169387
:0301cd0000169f7a
:0301ce000016ac6c
:0301cf000016b85f
:0301d0000016c551
:0301d1000016d144
:0301d2000016de36
:0301d3000016ea29
:0301d4000016f71b
:0301d5000017040c
:0301d600001710ff
:0301d70000171df1
:0301d800001729e4
:0301d900001736d6
:0301da00001742c9
:0301db0000174fbb
:0301dc0000175bae
:0301dd00001768a0
:0301de0000177592
:0301df0000178185
:0301e00000178e77
:0301e10000179a6a
:0301e2000017a75c
:0301e3000017b34f
:0301e4000017c041
:0301e5000017cc34
:0301e6000017d926
:0301e7000017e618
:0301e8000017f20b
:0301e9000017fffd
:0301ea0000180bef
:0301eb00001818e1
:0301ec00001824d4
:0301ed00001831c6
:0301ee0000183db9
:0301ef0000184aab
:0301f0000018579d
:0301f10000186390
:0301f20000187082
:0301f30000187c75
:0301f40000188967
:0301f5000018955a
:0301f6000018a24c
:0301f7000018ae3f
:0301f8000018bb31
:0301f9000018c724
:0301fa000018d416
:0301fb000018e108
:0301fc000018edfb
:0301fd000018faed
:0301fe00001906df
:0301ff00001913d1
:0302000000191fc3
:0302010000192cb5
:03020200001938a8
:030203000019459a
:030204000019528c
:0302050000195e7f
:0302060000196b71
:0302070000197764
:0302080000198456
:0302090000199049
:03020a0000199d3b
:03020b000019a92e
:03020c000019b620
:03020d000019c312
:03020e000019cf05
:03020f000019dcf7
:030210000019e8ea
:030211000019f5dc
:03021200001a01ce
:03021300001a0ec0
:03021400001a1ab3
:03021500001a27a5
:03021600001a3398
:03021700001a408a
:03021800001a4d7c
:03021900001a596f
:03021a00001a6661
:03021b00001a7254
:03021c00001a7f46
:03021d00001a8b39
:03021e00001a982b
:03021f00001aa41e
:03022000001ab110
:03022100001abe02
:03022200001acaf5
:03022300001ad7e7
:03022400001ae3da
:03022500001af0cc
:03022600001afcbf
:03022700001b09b0
:03022800001b15a3
:03022900001b2295
:03022a00001b2e88
:03022b00001b3b7a
:03022c00001b486c
:03022d00001b545f
:03022e00001b6151
:03022f00001b6d44
:03023000001b7a36
:03023100001b8629
:03023200001b931b
:03023300001b9f0e
:03023400001bac00
:03023500001bb8f3
:03023600001bc5e5
:03023700001bd2d7
:03023800001bdeca
:03023900001bebbc
:03023a00001bf7af
:03023b00001c04a0
:03023c00001c1093
:03023d00001c1d85
:03023e00001c2978
:03023f00001c366a
:03024000001c425d
:03024100001c4f4f
:03024200001c5c41
:03024300001c6834
:03024400001c7526
:03024500001c8119
:03024600001c8e0b
:03024700001c9afe
:03024800001ca7f0
:03024900001cb3e3
:03024a00001cc0d5
:03024b00001ccdc7
:03024c00001cd9ba
:03024d00001ce6ac
:03024e00001cf29f
:03024f00001cff91
:03025000001d0b83
:03025100001d1875
:03025200001d2468
:03025300001d315a
:03025400001d3d4d
:03025500001d4a3f
:03025600001d5731
:03025700001d6324
:03025800001d7016
:03025900001d7c09
:03025a00001d89fb
:03025b00001d95ee
:03025c00001da2e0
:03025d00001daed3
:03025e00001dbbc5
:03025f00001dc7b8
:03026000001dd4aa
:03026100001de19c
:03026200001ded8f
:03026300001dfa81
:03026400001e0673
:03026500001e1365
:03026600001e1f58
:03026700001e2c4a
:03026800001e383d
:03026900001e452f
:03026a00001e5122
:03026b00001e5e14
:03026c00001e6b06
:03026d00001e77f9
:03026e00001e84eb
:03026f00001e90de
:03027000001e9dd0
:03027100001ea9c3
:03027200001eb6b5
:03027300001ec2a8
:03027400001ecf9a
:03027500001edb8d
:03027600001ee87f
:03027700001ef472
:03027800001f0163
:03027900001f0e55
:03027a00001f1a48
:03027b00001f273a
:03027c00001f332d
:03027d00001f401f
:03027e00001f4c12
:03027f00001f5904
:03028000001f65f7
:03028100001f72e9
:03028200001f7edc
:03028300001f8bce
:03028400001f98c0
:03028500001fa4b3
:03028600001fb1a5
:03028700001fbd98
:03028800001fca8a
:03028900001fd67d
:03028a00001fe36f
:03028b00001fef62
:03028c00001ffc54
:03028d0000200846
:03028e0000201538
:03028f000020222a
:0302900000202e1d
:0302910000203b0f
:0302920000204702
:03029300002054f4
:03029400002060e7
:0302950000206dd9
:03029600002079cc
:03029700002086be
:03029800002092b1
:0302990000209fa3
:03029a000020ab96
:03029b000020b888
:03029c000020c57a
:03029d000020d16d
:03029e000020de5f
:03029f000020ea52
:0302a0000020f744
:0302a10000210336
:0302a20000211028
:0302a30000211c1b
:0302a4000021290d
:0302a50000213500
:0302a600002142f2
:0302a70000214ee5
:0302a80000215bd7
:0302a900002168c9
:0302aa00002174bc
:0302ab00002181ae
:0302ac0000218da1
:0302ad0000219a93
:0302ae000021a686
:0302af000021b378
:0302b0000021bf6b
:0302b1000021cc5d
:0302b2000021d850
:0302b3000021e542
:0302b4000021f135
:0302b5000021fe27
:0302b60000220b18
:0302b7000022170b
:0302b800002224fd
:0302b900002230f0
:0302ba0000223de2
:0302bb00002249d5
:0302bc00002256c7
:0302bd00002262ba
:0302be0000226fac
:0302bf0000227b9f
:0302c00000228891
:0302c10000229484
:0302c2000022a176
:0302c3000022ae68
:0302c4000022ba5b
:0302c5000022c74d
:0302c6000022d340
:0302c7000022e032
:0302c8000022ec25
:0302c9000022f917
:0302ca0000230509
:0302cb00002312fb
:0302cc0000231eee
:0302cd0000232be0
:0302ce00002337d3
:0302cf00002344c5
:0302d000002351b7
:0302d10000235daa
:0302d20000236a9c
:0302d3000023768f
:0302d40000238381
:0302d50000238f74
:0302d60000239c66
:0302d7000023a859
:0302d8000023b54b
:0302d9000023c13e
:0302da000023ce30
:0302db000023da23
:0302dc000023e715
:0302dd000023f308
:0302de00002400f9
:0302df0000240deb
:0302e000002419de
:0302e100002426d0
:0302e200002432c3
:0302e30000243fb5
:0302e40000244ba8
:0302e5000024589a
:0302e6000024648d
:0302e7000024717f
:0302e80000247d72
:0302e90000248a64
:0302ea0000249657
:0302eb000024a349
:0302ec000024b03b
:0302ed000024bc2e
:0302ee000024c920
:0302ef000024d513
:0302f0000024e205
:0302f1000024eef8
:0302f2000024fbea
:0302f300002507dc
:0302f400002514ce
:0302f500002520c1
:0302f60000252db3
:0302f700002539a6
:0302f80000254698
:0302f9000025528b
:0302fa0000255f7d
:0302fb0000256c6f
:0302fc0000257862
:0302fd0000258554
:0302fe0000259147
:0302ff0000259e39
:030300000025aa2b
:030301000025b71d
:030302000025c310
:030303000025d002
:030304000025dcf5
:030305000025e9e7
:030306000025f5da
:03030700002602cb
:0303080000260ebe
:0303090000261bb0
:03030a00002627a3
:03030b0000263495
:03030c0000264187
:03030d0000264d7a
:03030e0000265a6c
:03030f000026665f
:0303100000267351
:0303110000267f44
:0303120000268c36
:0303130000269829
:030314000026a51b
:030315000026b10e
:030316000026be00
:030317000026caf3
:030318000026d7e5
:030319000026e3d8
:03031a000026f0ca
:03031b000026fdbc
:03031c00002709ae
:03031d00002716a0
:03031e0000272293
:03031f0000272f85
:0303200000273b78
:030321000027486a
:030322000027545d
:030323000027614f
:0303240000276d42
:0303250000277a34
:0303260000278627
:0303270000279319
:0303280000279f0c
:030329000027acfe
:03032a000027b8f1
:03032b000027c5e3
:03032c000027d2d5
:03032d000027dec8
:03032e000027ebba
:03032f000027f7ad
:030330000028049e
:0303310000281091
:0303320000281d83
:0303330000282976
:0303340000283668
:030335000028425b
:0303360000284f4d
:0303370000285b40
:0303380000286832
:0303390000287425
:03033a0000288117
:03033b0000288d0a
:03033c0000289afc
:03033d000028a6ef
:03033e000028b3e1
:03033f000028c0d3
:030340000028ccc6
:030341000028d9b8
:030342000028e5ab
:030343000028f29d
:030344000028fe90
:0303450000290b81
:0303460000291774
:0303470000292466
:0303480000293059
:0303490000293d4b
:03034a000029493e
:03034b0000295630
:03034c0000296223
:03034d0000296f15
:03034e0000297b08
:03034f00002988fa
:03035000002994ed
:030351000029a1df
:030352000029aed1
:030353000029bac4
:030354000029c7b6
:030355000029d3a9
:030356000029e09b
:030357000029ec8e
:030358000029f980
:03035900002a0572
:03035a00002a1264
:03035b00002a1e57
:03035c00002a2b49
:03035d00002a373c
:03035e00002a442e
:03035f00002a5021
:03036000002a5d13
:03036100002a6906
:03036200002a76f8
:03036300002a82eb
:03036400002a8fdd
:03036500002a9bd0
:03036600002aa8c2
:03036700002ab5b4
:03036800002ac1a7
:03036900002ace99
:03036a00002ada8c
:03036b00002ae77e
:03036c00002af371
:03036d00002b0062
:03036e00002b0c55
:03036f00002b1947
:03037000002b253a
:03037100002b322c
:03037200002b3e1f
:03037300002b4b11
:03037400002b5704
:03037500002b64f6
:03037600002b70e9
:03037700002b7ddb
:03037800002b89ce
:03037900002b96c0
:03037a00002ba2b3
:03037b00002bafa5
:03037c00002bbb98
:03037d00002bc88a
:03037e00002bd47d
:03037f00002be16f
:03038000002bee61
:03038100002bfa54
:03038200002c0745
:03038300002c1338
:03038400002c202a
:03038500002c2c1d
:03038600002c390f
:03038700002c4502
:03038800002c52f4
:03038900002c5ee7
:03038a00002c6bd9
:03038b00002c77cc
:03038c00002c84be
:03038d00002c90b1
:03038e00002c9da3
:03038f00002ca996
:03039000002cb688
:03039100002cc27b
:03039200002ccf6d
:03039300002cdb60
:03039400002ce852
:03039500002cf445
:03039600002d0136
:03039700002d0d29
:03039800002d1a1b
:03039900002d270d
:03039a00002d3300
:03039b00002d40f2
:03039c00002d4ce5
:03039d00002d59d7
:03039e00002d65ca
:03039f00002d72bc
:0303a000002d7eaf
:0303a100002d8ba1
:0303a200002d9794
:0303a300002da486
:0303a400002db079
:0303a500002dbd6b
:0303a600002dc95e
:0303a700002dd650
:0303a800002de243
:0303a900002def35
:0303aa00002dfb28
:0303ab00002e0819
:0303ac00002e140c
:0303ad00002e21fe
:0303ae00002e2df1
:0303af00002e3ae3
:0303b000002e46d6
:0303b100002e53c8
:0303b200002e5fbb
:0303b300002e6cad
:0303b400002e78a0
:0303b500002e8592
:0303b600002e9185
:0303b700002e9e77
:0303b800002eaa6a
:0303b900002eb75c
:0303ba00002ec44e
:0303bb00002ed041
:0303bc00002edd33
:0303bd00002ee926
:0303be00002ef618
:0303bf00002f020a
:0303c000002f0ffc
:0303c100002f1bef
:0303c200002f28e1
:0303c300002f34d4
:0303c400002f41c6
:0303c500002f4db9
:0303c600002f5aab
:0303c700002f669e
:0303c800002f7390
:0303c900002f7f83
:0303ca00002f8c75
:0303cb00002f9868
:0303cc00002fa55a
:0303cd00002fb14d
:0303ce00002fbe3f
:0303cf00002fca32
:0303d000002fd724
:0303d100002fe317
:0303d200002ff009
:0303d300002ffcfc
:0303d400003009ed
:0303d500003015e0
:0303d600003022d2
:0303d70000302ec5
:0303d80000303bb7
:0303d900003047aa
:0303da000030549c
:0303db000030608f
:0303dc0000306d81
:0303dd0000307974
:0303de0000308666
:0303df0000309259
:0303e00000309f4b
:0303e1000030ab3e
:0303e2000030b830
:0303e3000030c423
:0303e4000030d115
:0303e5000030de07
:0303e6000030eafa
:0303e7000030f7ec
:0303e800003103de
:0303e900003110d0
:0303ea0000311cc3
:0303eb00003129b5
:0303ec00003135a8
:0303ed000031429a
:0303ee0000314e8d
:0303ef0000315b7f
:0303f00000316772
:0303f10000317464
:0303f20000318057
:0303f30000318d49
:0303f4000031993c
:0303f5000031a62e
:0303f6000031b221
:0303f7000031bf13
:0303f8000031cb06
:0303f9000031d8f8
:0303fa000031e4eb
:0303fb000031f1dd
:0303fc000031fdd0
:0303fd0000320ac1
:0303fe00003216b4
:0303ff00003223a6
:0304000000322f98
:0304010000323c8a
:030402000032487d
:030403000032556f
:0304040000326162
:0304050000326e54
:0304060000327a47
:0304070000328739
:030408000032932c
:030409000032a01e
:03040a000032ac11
:03040b000032b903
:03040c000032c5f6
:03040d000032d2e8
:03040e000032dedb
:03040f000032ebcd
:030410000032f7c0
:03041100003304b1
:03041200003310a4
:0304130000331d96
:0304140000332989
:030415000033367b
:030416000033426e
:0304170000334f60
:0304180000335b53
:0304190000336845
:03041a0000337438
:03041b000033812a
:03041c0000338d1d
:03041d0000339a0f
:03041e000033a602
:03041f000033b3f4
:030420000033bfe7
:030421000033ccd9
:030422000033d8cc
:030423000033e5be
:030424000033f1b1
:030425000033fea3
:0304260000340a95
:0304270000341787
:030428000034237a
:030429000034306c
:03042a0000343c5f
:03042b0000344951
:03042c0000345544
:03042d0000346236
:03042e0000346e29
:03042f0000347b1b
:030430000034870e
:0304310000349400
:030432000034a0f3
:030433000034ade5
:030434000034b9d8
:030435000034c6ca
:030436000034d2bd
:030437000034dfaf
:030438000034eba2
:030439000034f894
:03043a0000350486
:03043b0000351178
:03043c0000351d6b
:03043d0000352a5d
:03043e0000353650
:03043f0000354342
:0304400000354f35
:0304410000355c27
:030442000035681a
:030443000035750c
:03044400003581ff
:0304450000358ef1
:0304460000359ae4
:030447000035a7d6
:030448000035b3c9
:030449000035c0bb
:03044a000035ccae
:03044b000035d9a0
:03044c000035e593
:03044d000035f285
:03044e000035fe78
:03044f0000360b69
:030450000036175c
:030451000036244e
:0304520000363041
:0304530000363d33
:0304540000364926
:0304550000365618
:030456000036620b
:0304570000366ffd
:0304580000367bf0
:03045900003688e2
:03045a00003694d5
:03045b000036a1c7
:03045c000036adba
:03045d000036baac
:03045e000036c69f
:03045f000036d391
:030460000036df84
:030461000036ec76
:030462000036f869
:030463000037055a
:030464000037114d
:0304650000371e3f
:0304660000372a32
:0304670000373724
:0304680000374317
:0304690000375009
:03046a0000375cfc
:03046b00003769ee
:03046c00003775e1
:03046d00003782d3
:03046e0000378ec6
:03046f0000379bb8
:030470000037a7ab
:030471000037b49d
:030472000037c090
:030473000037cd82
:030474000037d975
:030475000037e667
:030476000037f25a
:030477000037ff4c
:0304780000380b3e
:0304790000381830
:03047a0000382423
:03047b0000383016
:03047c0000383d08
:03047d00003849fb
:03047e00003856ed
:03047f00003862e0
:0304800000386fd2
:0304810000387bc5
:03048200003888b7
:03048300003894aa
:030484000038a19c
:030485000038ad8f
:030486000038ba81
:030487000038c674
:030488000038d366
:030489000038df59
:03048a000038ec4b
:03048b000038f83e
:03048c000039052f
:03048d0000391122
:03048e0000391e14
:03048f0000392a07
:03049000003937f9
:03049100003943ec
:03049200003950de
:0304930000395cd1
:03049400003969c3
:03049500003975b6
:03049600003982a8
:0304970000398e9b
:0304980000399b8d
:030499000039a780
:03049a000039b472
:03049b000039c065
:03049c000039cd57
:03049d000039d94a
:03049e000039e63c
:03049f000039f22f
:0304a0000039ff21
:0304a100003a0b13
:0304a200003a1805
:0304a300003a24f8
:0304a400003a30eb
:0304a500003a3ddd
:0304a600003a49d0
:0304a700003a56c2
:0304a800003a62b5
:0304a900003a6fa7
:0304aa00003a7b9a
:0304ab00003a888c
:0304ac00003a947f
:0304ad00003aa171
:0304ae00003aad64
:0304af00003aba56
:0304b000003ac649
:0304b100003ad33b
:0304b200003adf2e
:0304b300003aec20
:0304b400003af813
:0304b500003b0504
:0304b600003b11f7
:0304b700003b1ee9
:0304b800003b2adc
:0304b900003b37ce
:0304ba00003b43c1
:0304bb00003b50b3
:0304bc00003b5ca6
:0304bd00003b6998
:0304be00003b758b
:0304bf00003b827d
:0304c000003b8e70
:0304c100003b9a63
:0304c200003ba755
:0304c300003bb348
:0304c400003bc03a
:0304c500003bcc2d
:0304c600003bd91f
:0304c700003be512
:0304c800003bf204
:0304c900003bfef7
:0304ca00003c0be8
:0304cb00003c17db
:0304cc00003c24cd
:0304cd00003c30c0
:0304ce00003c3db2
:0304cf00003c49a5
:0304d000003c5697
:0304d100003c628a
:0304d200003c6f7c
:0304d300003c7b6f
:0304d400003c8861
:0304d500003c9454
:0304d600003ca146
:0304d700003cad39
:0304d800003cba2b
:0304d900003cc61e
:0304da00003cd211
:0304db00003cdf03
:0304dc00003cebf6
:0304dd00003cf8e8
:0304de00003d04da
:0304df00003d11cc
:0304e000003d1dbf
:0304e100003d2ab1
:0304e200003d36a4
:0304e300003d4396
:0304e400003d4f89
:0304e500003d5c7b
:0304e600003d686e
:0304e700003d7560
:0304e800003d8153
:0304e900003d8e45
:0304ea00003d9a38
:0304eb00003da72a
:0304ec00003db31d
:0304ed00003dbf10
:0304ee00003dcc02
:0304ef00003dd8f5
:0304f000003de5e7
:0304f100003df1da
:0304f200003dfecc
:0304f300003e0abe
:0304f400003e17b0
:0304f500003e23a3
:0304f600003e3095
:0304f700003e3c88
:0304f800003e497a
:0304f900003e556d
:0304fa00003e625f
:0304fb00003e6e52
:0304fc00003e7b44
:0304fd00003e8737
:0304fe00003e9429
:0304ff00003ea01c
:03050000003eac0e
:03050100003eb900
:03050200003ec5f3
:03050300003ed2e5
:03050400003eded8
:03050500003eebca
:03050600003ef7bd
:03050700003f04ae
:03050800003f10a1
:03050900003f1d93
:03050a00003f2986
:03050b00003f3678
:03050c00003f426b
:03050d00003f4f5d
:03050e00003f5b50
:03050f00003f6842
:03051000003f7435
:03051100003f8028
:03051200003f8d1a
:03051300003f990d
:03051400003fa6ff
:03051500003fb2f2
:03051600003fbfe4
:03051700003fcbd7
:03051800003fd8c9
:03051900003fe4bc
:03051a00003ff1ae
:03051b00003ffda1
:03051c0000400a92
:03051d0000401685
:03051e0000402377
:03051f0000402f6a
:0305200000403c5c
:030521000040484f
:0305220000405442
:0305230000406134
:0305240000406d27
:0305250000407a19
:030526000040860c
:03052700004093fe
:0305280000409ff1
:030529000040ace3
:03052a000040b8d6
:03052b000040c5c8
:03052c000040d1bb
:03052d000040dead
:03052e000040eaa0
:03052f000040f693
:0305300000410384
:0305310000410f77
:0305320000411c69
:030533000041285c
:030534000041354e
:0305350000414141
:0305360000414e33
:0305370000415a26
:0305380000416718
:030539000041730b
:03053a00004180fd
:03053b0000418cf0
:03053c00004199e2
:03053d000041a5d5
:03053e000041b1c8
:03053f000041beba
:030540000041caad
:030541000041d79f
:030542000041e392
:030543000041f084
:030544000041fc77
:0305450000420968
:030546000042155b
:030547000042224d
:0305480000422e40
:0305490000423b32
:03054a0000424725
:03054b0000425318
:03054c000042600a
:03054d0000426cfd
:03054e00004279ef
:03054f00004285e2
:03055000004292d4
:0305510000429ec7
:030552000042abb9
:030553000042b7ac
:030554000042c49e
:030555000042d091
:030556000042dd83
:030557000042e976
:030558000042f569
:030559000043025a
:03055a0000430e4d
:03055b0000431b3f
:03055c0000432732
:03055d0000433424
:03055e0000434017
:03055f0000434d09
:03056000004359fc
:03056100004366ee
:03056200004372e1
:0305630000437ed4
:0305640000438bc6
:03056500004397b9
:030566000043a4ab
:030567000043b09e
:030568000043bd90
:030569000043c983
:03056a000043d675
:03056b000043e268
:03056c000043ef5a
:03056d000043fb4d
:03056e000044073f
:03056f0000441431
:0305700000442024
:0305710000442d16
:0305720000443909
:03057300004446fb
:03057400004452ee
:0305750000445fe0
:0305760000446bd3
:03057700004478c5
:03057800004484b8
:03057900004490ab
:03057a0000449d9d
:03057b000044a990
:03057c000044b682
:03057d000044c275
:03057e000044cf67
:03057f000044db5a
:030580000044e84c
:030581000044f43f
:0305820000450130
:0305830000450d23
:0305840000451916
:0305850000452608
:03058600004532fb
:0305870000453fed
:0305880000454be0
:03058900004558d2
:03058a00004564c5
:03058b00004571b7
:03058c0000457daa
:03058d000045899d
:03058e000045968f
:03058f000045a282
:030590000045af74
:030591000045bb67
:030592000045c859
:030593000045d44c
:030594000045e13e
:030595000045ed31
:030596000045fa23
:0305970000460615
:0305980000461208
:0305990000461ffa
:03059a0000462bed
:03059b00004638df
:03059c00004644d2
:03059d00004651c4
:03059e0000465db7
:03059f0000466aa9
:0305a0000046769c
:0305a1000046828f
:0305a20000468f81
:0305a30000469b74
:0305a4000046a866
:0305a5000046b459
:0305a6000046c14b
:0305a7000046cd3e
:0305a8000046da30
:0305a9000046e623
:0305aa000046f216
:0305ab000046ff08
:0305ac0000470bfa
:0305ad00004718ec
:0305ae00004724df
:0305af00004731d1
:0305b00000473dc4
:0305b10000474ab6
:0305b200004756a9
:0305b3000047629c
:0305b40000476f8e
:0305b50000477b81
:0305b60000478873
:0305b70000479466
:0305b8000047a158
:0305b9000047ad4b
:0305ba000047ba3d
:0305bb000047c630
:0305bc000047d223
:0305bd000047df15
:0305be000047eb08
:0305bf000047f8fa
:0305c000004804ec
:0305c100004811de
:0305c20000481dd1
:0305c30000482ac3
:0305c400004836b6
:0305c500004842a9
:0305c60000484f9b
:0305c70000485b8e
:0305c80000486880
:0305c90000487473
:0305ca0000488165
:0305cb0000488d58
:0305cc000048994b
:0305cd000048a63d
:0305ce000048b230
:0305cf000048bf22
:0305d0000048cb15
:0305d1000048d807
:0305d2000048e4fa
:0305d3000048f1ec
:0305d4000048fddf
:0305d500004909d1
:0305d600004916c3
:0305d700004922b6
:0305d80000492fa8
:0305d90000493b9b
:0305da000049488d
:0305db0000495480
:0305dc0000496172
:0305dd0000496d65
:0305de0000497958
:0305df000049864a
:0305e0000049923d
:0305e10000499f2f
:0305e2000049ab22
:0305e3000049b814
:0305e4000049c407
:0305e5000049d0fa
:0305e6000049ddec
:0305e7000049e9df
:0305e8000049f6d1
:0305e900004a02c3
:0305ea00004a0fb5
:0305eb00004a1ba8
:0305ec00004a279b
:0305ed00004a348d
:0305ee00004a4080
:0305ef00004a4d72
:0305f000004a5965
:0305f100004a6657
:0305f200004a724a
:0305f300004a7f3c
:0305f400004a8b2f
:0305f500004a9722
:0305f600004aa414
:0305f700004ab007
:0305f800004abdf9
:0305f900004ac9ec
:0305fa00004ad6de
:0305fb00004ae2d1
:0305fc00004aeec4
:0305fd00004afbb6
:0305fe00004b07a8
:0305ff00004b149a
:03060000004b208c
:03060100004b2d7e
:03060200004b3971
:03060300004b4564
:03060400004b5256
:03060500004b5e49
:03060600004b6b3b
:03060700004b772e
:03060800004b8420
:03060900004b9013
:03060a00004b9c06
:03060b00004ba9f8
:03060c00004bb5eb
:03060d00004bc2dd
:03060e00004bced0
:03060f00004bdbc2
:03061000004be7b5
:03061100004bf3a8
:03061200004c0099
:03061300004c0c8c
:03061400004c197e
:03061500004c2571
:03061600004c3263
:03061700004c3e56
:03061800004c4a49
:03061900004c573b
:03061a00004c632e
:03061b00004c7020
:03061c00004c7c13
:03061d00004c8905
:03061e00004c95f8
:03061f00004ca1eb
:03062000004caedd
:03062100004cbad0
:03062200004cc7c2
:03062300004cd3b5
:03062400004cdfa8
:03062500004cec9a
:03062600004cf88d
:03062700004d057e
:03062800004d1171
:03062900004d1e63
:03062a00004d2a56
:03062b00004d3649
:03062c00004d433b
:03062d00004d4f2e
:03062e00004d5c20
:03062f00004d6813
:03063000004d7505
:03063100004d81f8
:03063200004d8deb
:03063300004d9add
:03063400004da6d0
:03063500004db3c2
:03063600004dbfb5
:03063700004dcca7
:03063800004dd89a
:03063900004de48d
:03063a00004df17f
:03063b00004dfd72
:03063c00004e0a63
:03063d00004e1656
:03063e00004e2249
:03063f00004e2f3b
:03064000004e3b2e
:03064100004e4820
:03064200004e5413
:03064300004e6105
:03064400004e6df8
:03064500004e79eb
:03064600004e86dd
:03064700004e92d0
:03064800004e9fc2
:03064900004eabb5
:03064a00004eb7a8
:03064b00004ec49a
:03064c00004ed08d
:03064d00004edd7f
:03064e00004ee972
:03064f00004ef664
:03065000004f0256
:03065100004f0e49
:03065200004f1b3b
:03065300004f272e
:03065400004f3420
:03065500004f4013
:03065600004f4c06
:03065700004f59f8
:03065800004f65eb
:03065900004f72dd
:03065a00004f7ed0
:03065b00004f8bc2
:03065c00004f97b5
:03065d00004fa3a8
:03065e00004fb09a
:03065f00004fbc8d
:03066000004fc97f
:03066100004fd572
:03066200004fe165
:03066300004fee57
:03066400004ffa4a
:030665000050073b
:030666000050132e
:0306670000501f21
:0306680000502c13
:0306690000503806
:03066a00005045f8
:03066b00005051eb
:03066c0000505edd
:03066d0000506ad0
:03066e00005076c3
:03066f00005083b5
:0306700000508fa8
:0306710000509c9a
:030672000050a88d
:030673000050b480
:030674000050c172
:030675000050cd65
:030676000050da57
:030677000050e64a
:030678000050f23d
:030679000050ff2f
:03067a0000510b21
:03067b0000511813
:03067c0000512406
:03067d00005130f9
:03067e0000513deb
:03067f00005149de
:03068000005156d0
:03068100005162c3
:0306820000516fb5
:0306830000517ba8
:030684000051879b
:030685000051948d
:030686000051a080
:030687000051ad72
:030688000051b965
:030689000051c558
:03068a000051d24a
:03068b000051de3d
:03068c000051eb2f
:03068d000051f722
:03068e0000520314
:03068f0000521006
:0306900000521cf9
:03069100005229eb
:03069200005235de
:03069300005241d1
:0306940000524ec3
:0306950000525ab6
:03069600005267a8
:030697000052739b
:0306980000527f8e
:0306990000528c80
:03069a0000529873
:03069b000052a565
:03069c000052b158
:03069d000052bd4b
:03069e000052ca3d
:03069f000052d630
:0306a0000052e322
:0306a1000052ef15
:0306a2000052fb08
:0306a300005308f9
:0306a400005314ec
:0306a500005321de
:0306a60000532dd1
:0306a700005339c4
:0306a800005346b6
:0306a900005352a9
:0306aa0000535f9b
:0306ab0000536b8e
:0306ac0000537781
:0306ad0000538473
:0306ae0000539066
:0306af0000539d58
:0306b0000053a94b
:0306b1000053b53e
:0306b2000053c230
:0306b3000053ce23
:0306b4000053db15
:0306b5000053e708
:0306b6000053f3fb
:0306b700005400ec
:0306b80000540cdf
:0306b900005419d1
:0306ba00005425c4
:0306bb00005431b7
:0306bc0000543ea9
:0306bd0000544a9c
:0306be000054578e
:0306bf0000546381
:0306c00000546f74
:0306c10000547c66
:0306c20000548859
:0306c3000054954b
:0306c4000054a13e
:0306c5000054ad31
:0306c6000054ba23
:0306c7000054c616
:0306c8000054d209
:0306c9000054dffb
:0306ca000054ebee
:0306cb000054f8e0
:0306cc00005504d2
:0306cd00005510c5
:0306ce0000551db7
:0306cf00005529aa
:0306d0000055369c
:0306d1000055428f
:0306d20000554e82
:0306d30000555b74
:0306d40000556767
:0306d50000557459
:0306d6000055804c
:0306d70000558c3f
:0306d80000559931
:0306d9000055a524
:0306da000055b216
:0306db000055be09
:0306dc000055cafc
:0306dd000055d7ee
:0306de000055e3e1
:0306df000055efd4
:0306e0000055fcc6
:0306e100005608b8
:0306e200005615aa
:0306e3000056219d
:0306e40000562d90
:0306e50000563a82
:0306e60000564675
:0306e70000565367
:0306e80000565f5a
:0306e90000566b4d
:0306ea000056783f
:0306eb0000568432
:0306ec0000569025
:0306ed0000569d17
:0306ee000056a90a
:0306ef000056b6fc
:0306f0000056c2ef
:0306f1000056cee2
:0306f2000056dbd4
:0306f3000056e7c7
:0306f4000056f4b9
:0306f500005700ab
:0306f60000570c9e
:0306f70000571990
:0306f80000572583
:0306f90000573176
:0306fa0000573e68
:0306fb0000574a5b
:0306fc000057574d
:0306fd0000576340
:0306fe0000576f33
:0306ff0000577c25
:0307000000578817
:0307010000579509
:030702000057a1fc
:030703000057adef
:030704000057bae1
:030705000057c6d4
:030706000057d2c7
:030707000057dfb9
:030708000057ebac
:030709000057f89e
:03070a0000580490
:03070b0000581083
:03070c0000581d75
:03070d0000582968
:03070e000058355b
:03070f000058424d
:0307100000584e40
:0307110000585b32
:0307120000586725
:0307130000587318
:030714000058800a
:0307150000588cfd
:03071600005898f0
:030717000058a5e2
:030718000058b1d5
:030719000058bec7
:03071a000058caba
:03071b000058d6ad
:03071c000058e39f
:03071d000058ef92
:03071e000058fb85
:03071f0000590876
:0307200000591469
:030721000059215b
:0307220000592d4e
:0307230000593941
:0307240000594633
:0307250000595226
:0307260000595e19
:0307270000596b0b
:03072800005977fe
:03072900005984f0
:03072a00005990e3
:03072b0000599cd6
:03072c000059a9c8
:03072d000059b5bb
:03072e000059c1ae
:03072f000059cea0
:030730000059da93
:030731000059e785
:030732000059f378
:030733000059ff6b
:03073400005a0c5c
:03073500005a184f
:03073600005a2442
:03073700005a3134
:03073800005a3d27
:03073900005a4a19
:03073a00005a560c
:03073b00005a62ff
:03073c00005a6ff1
:03073d00005a7be4
:03073e00005a87d7
:03073f00005a94c9
:03074000005aa0bc
:03074100005aacaf
:03074200005ab9a1
:03074300005ac594
:03074400005ad286
:03074500005ade79
:03074600005aea6c
:03074700005af75e
:03074800005b0350
:03074900005b0f43
:03074a00005b1c35
:03074b00005b2828
:03074c00005b351a
:03074d00005b410d
:03074e00005b4d00
:03074f00005b5af2
:03075000005b66e5
:03075100005b72d8
:03075200005b7fca
:03075300005b8bbd
:03075400005b97b0
:03075500005ba4a2
:03075600005bb095
:03075700005bbd87
:03075800005bc97a
:03075900005bd56d
:03075a00005be25f
:03075b00005bee52
:03075c00005bfa45
:03075d00005c0736
:03075e00005c1329
:03075f00005c1f1c
:03076000005c2c0e
:03076100005c3801
:03076200005c45f3
:03076300005c51e6
:03076400005c5dd9
:03076500005c6acb
:03076600005c76be
:03076700005c82b1
:03076800005c8fa3
:03076900005c9b96
:03076a00005ca789
:03076b00005cb47b
:03076c00005cc06e
:03076d00005ccc61
:03076e00005cd953
:03076f00005ce546
:03077000005cf238
:03077100005cfe2b
:03077200005d0a1d
:03077300005d170f
:03077400005d2302
:03077500005d2ff5
:03077600005d3ce7
:03077700005d48da
:03077800005d54cd
:03077900005d61bf
:03077a00005d6db2
:03077b00005d79a5
:03077c00005d8697
:03077d00005d928a
:03077e00005d9f7c
:03077f00005dab6f
:03078000005db762
:03078100005dc454
:03078200005dd047
:03078300005ddc3a
:03078400005de92c
:03078500005df51f
:03078600005e0111
:03078700005e0e03
:03078800005e1af6
:03078900005e26e9
:03078a00005e33db
:03078b00005e3fce
:03078c00005e4bc1
:03078d00005e58b3
:03078e00005e64a6
:03078f00005e7198
:03079000005e7d8b
:03079100005e897e
:03079200005e9670
:03079300005ea263
:03079400005eae56
:03079500005ebb48
:03079600005ec73b
:03079700005ed32e
:03079800005ee020
:03079900005eec13
:03079a00005ef806
:03079b00005f05f7
:03079c00005f11ea
:03079d00005f1ddd
:03079e00005f2acf
:03079f00005f36c2
:0307a000005f42b5
:0307a100005f4fa7
:0307a200005f5b9a
:0307a300005f678d
:0307a400005f747f
:0307a500005f8072
:0307a600005f8d64
:0307a700005f9957
:0307a800005fa54a
:0307a900005fb23c
:0307aa00005fbe2f
:0307ab00005fca22
:0307ac00005fd714
:0307ad00005fe307
:0307ae00005feffa
:0307af00005ffcec
:0307b000006008de
:0307b100006014d1
:0307b200006021c3
:0307b30000602db6
:0307b400006039a9
:0307b5000060469b
:0307b6000060528e
:0307b70000605e81
:0307b80000606b73
:0307b90000607766
:0307ba0000608359
:0307bb000060904b
:0307bc0000609c3e
:0307bd000060a831
:0307be000060b523
:0307bf000060c116
:0307c0000060cd09
:0307c1000060dafb
:0307c2000060e6ee
:0307c3000060f2e1
:0307c4000060ffd3
:0307c50000610bc5
:0307c600006117b8
:0307c700006124aa
:0307c8000061309d
:0307c90000613c90
:0307ca0000614982
:0307cb0000615575
:0307cc0000616168
:0307cd0000616e5a
:0307ce0000617a4d
:0307cf0000618640
:0307d00000619332
:0307d10000619f25
:0307d2000061ab18
:0307d3000061b80a
:0307d4000061c4fd
:0307d5000061d1ef
:0307d6000061dde2
:0307d7000061e9d5
:0307d8000061f6c7
:0307d900006202b9
:0307da0000620eac
:0307db0000621b9e
:0307dc0000622791
:0307dd0000623384
:0307de0000624076
:0307df0000624c69
:0307e0000062585c
:0307e1000062654e
:0307e20000627141
:0307e30000627d34
:0307e40000628927
:0307e50000629619
:0307e6000062a20c
:0307e7000062aeff
:0307e8000062bbf1
:0307e9000062c7e4
:0307ea000062d3d7
:0307eb000062e0c9
:0307ec000062ecbc
:0307ed000062f8af
:0307ee00006305a0
:0307ef0000631193
:0307f00000631d86
:0307f10000632a78
:0307f2000063366b
:0307f3000063425e
:0307f40000634f50
:0307f50000635b43
:0307f60000636736
:0307f70000637428
:0307f8000063801b
:0307f90000638c0e
:0307fa0000639900
:0307fb000063a5f3
:0307fc000063b1e6
:0307fd000063bed8
:0307fe000063cacb
:0307ff000063d6be
:030800000063e3af
:030801000063efa2
:030802000063fb95
:0308030000640886
:0308040000641479
:030805000064206c
:0308060000642d5e
:0308070000643951
:0308080000644544
:0308090000645236
:03080a0000645e29
:03080b0000646a1c
:03080c000064770e
:03080d0000648301
:03080e0000648ff4
:03080f0000649ce6
:030810000064a8d9
:030811000064b4cc
:030812000064c0bf
:030813000064cdb1
:030814000064d9a4
:030815000064e597
:030816000064f289
:030817000064fe7c
:0308180000650a6e
:0308190000651760
:03081a0000652353
:03081b0000652f46
:03081c0000653c38
:03081d000065482b
:03081e000065541e
:03081f0000656110
:0308200000656d03
:03082100006579f6
:03082200006586e8
:03082300006592db
:0308240000659ece
:030825000065abc0
:030826000065b7b3
:030827000065c3a6
:030828000065cf99
:030829000065dc8b
:03082a000065e87e
:03082b000065f471
:03082c0000660162
:03082d0000660d55
:03082e0000661948
:03082f000066263a
:030830000066322d
:0308310000663e20
:0308320000664b12
:0308330000665705
:03083400006663f8
:03083500006670ea
:0308360000667cdd
:03083700006688d0
:03083800006695c2
:030839000066a1b5
:03083a000066ada8
:03083b000066b99b
:03083c000066c68d
:03083d000066d280
:03083e000066de73
:03083f000066eb65
:030840000066f758
:030841000067034a
:030842000067103c
:0308430000671c2f
:0308440000672822
:0308450000673514
:0308460000674107
:0308470000674dfa
:03084800006759ed
:03084900006766df
:03084a00006772d2
:03084b0000677ec5
:03084c0000678bb7
:03084d00006797aa
:03084e000067a39d
:03084f000067b08f
:030850000067bc82
:030851000067c875
:030852000067d567
:030853000067e15a
:030854000067ed4d
:030855000067f940
:0308560000680631
:0308570000681224
:0308580000681e17
:0308590000682b09
:03085a00006837fc
:03085b00006843ef
:03085c00006850e1
:03085d0000685cd4
:03085e00006868c7
:03085f00006874ba
:03086000006881ac
:0308610000688d9f
:0308620000689992
:030863000068a684
:030864000068b277
:030865000068be6a
:030866000068cb5c
:030867000068d74f
:030868000068e342
:030869000068ef35
:03086a000068fc27
:03086b0000690819
:03086c000069140c
:03086d00006921fe
:03086e0000692df1
:03086f00006939e4
:03087000006946d6
:03087100006952c9
:0308720000695ebc
:0308730000696aaf
:03087400006977a1
:0308750000698394
:0308760000698f87
:0308770000699c79
:030878000069a86c
:030879000069b45f
:03087a000069c151
:03087b000069cd44
:03087c000069d937
:03087d000069e52a
:03087e000069f21c
:03087f000069fe0f
:03088000006a0a01
:03088100006a17f3
:03088200006a23e6
:03088300006a2fd9
:03088400006a3bcc
:03088500006a48be
:03088600006a54b1
:03088700006a60a4
:03088800006a6d96
:03088900006a7989
:03088a00006a857c
:03088b00006a926e
:03088c00006a9e61
:03088d00006aaa54
:03088e00006ab647
:03088f00006ac339
:03089000006acf2c
:03089100006adb1f
:03089200006ae811
:03089300006af404
:03089400006b00f6
:03089500006b0ce9
:03089600006b19db
:03089700006b25ce
:03089800006b31c1
:03089900006b3eb3
:03089a00006b4aa6
:03089b00006b5699
:03089c00006b628c
:03089d00006b6f7e
:03089e00006b7b71
:03089f00006b8764
:0308a000006b9456
:0308a100006ba049
:0308a200006bac3c
:0308a300006bb82f
:0308a400006bc521
:0308a500006bd114
:0308a600006bdd07
:0308a700006beaf9
:0308a800006bf6ec
:0308a900006c02de
:0308aa00006c0ed1
:0308ab00006c1bc3
:0308ac00006c27b6
:0308ad00006c33a9
:0308ae00006c409b
:0308af00006c4c8e
:0308b000006c5881
:0308b100006c6474
:0308b200006c7166
:0308b300006c7d59
:0308b400006c894c
:0308b500006c963e
:0308b600006ca231
:0308b700006cae24
:0308b800006cba17
:0308b900006cc709
:0308ba00006cd3fc
:0308bb00006cdfef
:0308bc00006cebe2
:0308bd00006cf8d4
:0308be00006d04c6
:0308bf00006d10b9
:0308c000006d1dab
:0308c100006d299e
:0308c200006d3591
:0308c300006d4184
:0308c400006d4e76
:0308c500006d5a69
:0308c600006d665c
:0308c700006d734e
:0308c800006d7f41
:0308c900006d8b34
:0308ca00006d9727
:0308cb00006da419
:0308cc00006db00c
:0308cd00006dbcff
:0308ce00006dc8f2
:0308cf00006dd5e4
:0308d000006de1d7
:0308d100006dedca
:0308d200006dfabc
:0308d300006e06ae
:0308d400006e12a1
:0308d500006e1e94
:0308d600006e2b86
:0308d700006e3779
:0308d800006e436c
:0308d900006e4f5f
:0308da00006e5c51
:0308db00006e6844
:0308dc00006e7437
:0308dd00006e8129
:0308de00006e8d1c
:0308df00006e990f
:0308e000006ea502
:0308e100006eb2f4
:0308e200006ebee7
:0308e300006ecada
:0308e400006ed6cd
:0308e500006ee3bf
:0308e600006eefb2
:0308e700006efba5
:0308e800006f0797
:0308e900006f1489
:0308ea00006f207c
:0308eb00006f2c6f
:0308ec00006f3961
:0308ed00006f4554
:0308ee00006f5147
:0308ef00006f5d3a
:0308f000006f6a2c
:0308f100006f761f
:0308f200006f8212
:0308f300006f8e05
:0308f400006f9bf7
:0308f500006fa7ea
:0308f600006fb3dd
:0308f700006fbfd0
:0308f800006fccc2
:0308f900006fd8b5
:0308fa00006fe4a8
:0308fb00006ff19a
:0308fc00006ffd8d
:0308fd000070097f
:0308fe0000701572
:0308ff0000702264
:0309000000702e56
:0309010000703a49
:030902000070463c
:030903000070532e
:0309040000705f21
:0309050000706b14
:0309060000707707
:03090700007084f9
:03090800007090ec
:0309090000709cdf
:03090a000070a8d2
:03090b000070b5c4
:03090c000070c1b7
:03090d000070cdaa
:03090e000070d99d
:03090f000070e68f
:030910000070f282
:030911000070fe75
:0309120000710a67
:0309130000711759
:030914000071234c
:0309150000712f3f
:0309160000713b32
:0309170000714824
:0309180000715417
:030919000071600a
:03091a0000716dfc
:03091b00007179ef
:03091c00007185e2
:03091d00007191d5
:03091e0000719ec7
:03091f000071aaba
:030920000071b6ad
:030921000071c2a0
:030922000071cf92
:030923000071db85
:030924000071e778
:030925000071f36b
:030926000072005c
:0309270000720c4f
:0309280000721842
:0309290000722435
:03092a0000723127
:03092b0000723d1a
:03092c000072490d
:03092d0000725500
:03092e00007262f2
:03092f0000726ee5
:0309300000727ad8
:03093100007286cb
:03093200007293bd
:0309330000729fb0
:030934000072aba3
:030935000072b796
:030936000072c488
:030937000072d07b
:030938000072dc6e
:030939000072e861
:03093a000072f553
:03093b0000730145
:03093c0000730d38
:03093d000073192b
:03093e000073251e
:03093f0000733210
:0309400000733e03
:0309410000734af6
:03094200007356e9
:03094300007363db
:0309440000736fce
:0309450000737bc1
:03094600007387b4
:03094700007394a6
:030948000073a099
:030949000073ac8c
:03094a000073b87f
:03094b000073c571
:03094c000073d164
:03094d000073dd57
:03094e000073e94a
:03094f000073f63c
:030950000074022e
:0309510000740e21
:0309520000741a14
:0309530000742706
:03095400007433f9
:0309550000743fec
:0309560000744bdf
:03095700007458d1
:03095800007464c4
:03095900007470b7
:03095a0000747caa
:03095b000074889d
:03095c000074958f
:03095d000074a182
:03095e000074ad75
:03095f000074b968
:030960000074c65a
:030961000074d24d
:030962000074de40
:030963000074ea33
:030964000074f725
:0309650000750317
:0309660000750f0a
:0309670000751bfd
:03096800007528ef
:03096900007534e2
:03096a00007540d5
:03096b0000754cc8
:03096c00007558bb
:03096d00007565ad
:03096e00007571a0
:03096f0000757d93
:0309700000758986
:0309710000759678
:030972000075a26b
:030973000075ae5e
:030974000075ba51
:030975000075c743
:030976000075d336
:030977000075df29
:030978000075eb1c
:030979000075f70f
:03097a0000760400
:03097b00007610f3
:03097c0000761ce6
:03097d00007628d9
:03097e00007635cb
:03097f00007641be
:0309800000764db1
:03098100007659a4
:0309820000766597
:0309830000767289
:0309840000767e7c
:0309850000768a6f
:0309860000769662
:030987000076a354
:030988000076af47
:030989000076bb3a
:03098a000076c72d
:03098b000076d320
:03098c000076e012
:03098d000076ec05
:03098e000076f8f8
:03098f00007704ea
:03099000007711dc
:0309910000771dcf
:03099200007729c2
:03099300007735b5
:03099400007741a8
:0309950000774e9a
:0309960000775a8d
:0309970000776680
:0309980000777273
:0309990000777f65
:03099a0000778b58
:03099b000077974b
:03099c000077a33e
:03099d000077af31
:03099e000077bc23
:03099f000077c816
:0309a0000077d409
:0309a1000077e0fc
:0309a2000077edee
:0309a3000077f9e1
:0309a400007805d3
:0309a500007811c6
:0309a60000781db9
:0309a70000782aab
:0309a8000078369e
:0309a90000784291
:0309aa0000784e84
:0309ab0000785a77
:0309ac0000786769
:0309ad000078735c
:0309ae0000787f4f
:0309af0000788b42
:0309b00000789834
:0309b1000078a427
:0309b2000078b01a
:0309b3000078bc0d
:0309b4000078c800
:0309b5000078d5f2
:0309b6000078e1e5
:0309b7000078edd8
:0309b8000078f9cb
:0309b900007905bd
:0309ba00007912af
:0309bb0000791ea2
:0309bc0000792a95
:0309bd0000793688
:0309be000079437a
:0309bf0000794f6d
:0309c00000795b60
:0309c10000796753
:0309c20000797346
:0309c30000798038
:0309c40000798c2b
:0309c5000079981e
:0309c6000079a411
:0309c7000079b004
:0309c8000079bdf6
:0309c9000079c9e9
:0309ca000079d5dc
:0309cb000079e1cf
:0309cc000079edc2
:0309cd000079fab4
:0309ce00007a06a6
:0309cf00007a1299
:0309d000007a1e8c
:0309d100007a2a7f
:0309d200007a3771
:0309d300007a4364
:0309d400007a4f57
:0309d500007a5b4a
:0309d600007a673d
:0309d700007a742f
:0309d800007a8022
:0309d900007a8c15
:0309da00007a9808
:0309db00007aa4fb
:0309dc00007ab1ed
:0309dd00007abde0
:0309de00007ac9d3
:0309df00007ad5c6
:0309e000007ae1b9
:0309e100007aeeab
:0309e200007afa9e
:0309e300007b0690
:0309e400007b1283
:0309e500007b1e76
:0309e600007b2b68
:0309e700007b375b
:0309e800007b434e
:0309e900007b4f41
:0309ea00007b5b34
:0309eb00007b6826
:0309ec00007b7419
:0309ed00007b800c
:0309ee00007b8cff
:0309ef00007b98f2
:0309f000007ba5e4
:0309f100007bb1d7
:0309f200007bbdca
:0309f300007bc9bd
:0309f400007bd5b0
:0309f500007be2a2
:0309f600007bee95
:0309f700007bfa88
:0309f800007c067a
:0309f900007c126d
:0309fa00007c1f5f
:0309fb00007c2b52
:0309fc00007c3745
:0309fd00007c4338
:0309fe00007c4f2b
:0309ff00007c5b1e
:030a0000007c680f
:030a0100007c7402
:030a0200007c80f5
:030a0300007c8ce8
:030a0400007c98db
:030a0500007ca5cd
:030a0600007cb1c0
:030a0700007cbdb3
:030a0800007cc9a6
:030a0900007cd599
:030a0a00007ce28b
:030a0b00007cee7e
:030a0c00007cfa71
:030a0d00007d0663
:030a0e00007d1256
:030a0f00007d1e49
:030a1000007d2b3b
:030a1100007d372e
:030a1200007d4321
:030a1300007d4f14
:030a1400007d5b07
:030a1500007d68f9
:030a1600007d74ec
:030a1700007d80df
:030a1800007d8cd2
:030a1900007d98c5
:030a1a00007da4b8
:030a1b00007db1aa
:030a1c00007dbd9d
:030a1d00007dc990
:030a1e00007dd583
:030a1f00007de176
:030a2000007dee68
:030a2100007dfa5b
:030a2200007e064d
:030a2300007e1240
:030a2400007e1e33
:030a2500007e2a26
:030a2600007e3718
:030a2700007e430b
:030a2800007e4ffe
:030a2900007e5bf1
:030a2a00007e67e4
:030a2b00007e74d6
:030a2c00007e80c9
:030a2d00007e8cbc
:030a2e00007e98af
:030a2f00007ea4a2
:030a3000007eb095
:030a3100007ebd87
:030a3200007ec97a
:030a3300007ed56d
:030a3400007ee160
:030a3500007eed53
:030a3600007ef946
:030a3700007f0637
:030a3800007f122a
:030a3900007f1e1d
:030a3a00007f2a10
:030a3b00007f3603
:030a3c00007f43f5
:030a3d00007f4fe8
:030a3e00007f5bdb
:030a3f00007f67ce
:030a4000007f73c1
:030a4100007f7fb4
:030a4200007f8ca6
:030a4300007f9899
:030a4400007fa48c
:030a4500007fb07f
:030a4600007fbc72
:030a4700007fc865
:030a4800007fd557
:030a4900007fe14a
:030a4a00007fed3d
:030a4b00007ff930
:030a4c0000800522
:030a4d0000801115
:030a4e0000801e07
:030a4f0000802afa
:030a5000008036ed
:030a5100008042e0
:030a520000804ed3
:030a530000805ac6
:030a5400008067b8
:030a5500008073ab
:030a560000807f9e
:030a570000808b91
:030a580000809784
:030a59000080a377
:030a5a000080b069
:030a5b000080bc5c
:030a5c000080c84f
:030a5d000080d442
:030a5e000080e035
:030a5f000080ec28
:030a60000080f81b
:030a61000081050c
:030a6200008111ff
:030a630000811df2
:030a6400008129e5
:030a6500008135d8
:030a6600008141cb
:030a670000814ebd
:030a680000815ab0
:030a6900008166a3
:030a6a0000817296
:030a6b0000817e89
:030a6c0000818a7c
:030a6d000081976e
:030a6e000081a361
:030a6f000081af54
:030a70000081bb47
:030a71000081c73a
:030a72000081d32d
:030a73000081e01f
:030a74000081ec12
:030a75000081f805
:030a7600008204f7
:030a7700008210ea
:030a780000821cdd
:030a7900008228d0
:030a7a00008235c2
:030a7b00008241b5
:030a7c0000824da8
:030a7d000082599b
:030a7e000082658e
:030a7f0000827181
:030a800000827d74
:030a810000828a66
:030a820000829659
:030a83000082a24c
:030a84000082ae3f
:030a85000082ba32
:030a86000082c625
:030a87000082d317
:030a88000082df0a
:030a89000082ebfd
:030a8a000082f7f0
:030a8b00008303e2
:030a8c0000830fd5
:030a8d0000831bc8
:030a8e00008328ba
:030a8f00008334ad
:030a9000008340a0
:030a910000834c93
:030a920000835886
:030a930000836479
:030a94000083706c
:030a950000837d5e
:030a960000838951
:030a970000839544
:030a98000083a137
:030a99000083ad2a
:030a9a000083b91d
:030a9b000083c510
:030a9c000083d202
:030a9d000083def5
:030a9e000083eae8
:030a9f000083f6db
:030aa000008402cd
:030aa10000840ec0
:030aa20000841ab3
:030aa300008427a5
:030aa40000843398
:030aa50000843f8b
:030aa60000844b7e
:030aa70000845771
:030aa80000846364
:030aa90000846f57
:030aaa0000847c49
:030aab000084883c
:030aac000084942f
:030aad000084a022
:030aae000084ac15
:030aaf000084b808
:030ab0000084c4fb
:030ab1000084d1ed
:030ab2000084dde0
:030ab3000084e9d3
:030ab4000084f5c6
:030ab500008501b8
:030ab60000850dab
:030ab7000085199e
:030ab80000852591
:030ab90000853283
:030aba0000853e76
:030abb0000854a69
:030abc000085565c
:030abd000085624f
:030abe0000856e42
:030abf0000857a35
:030ac00000858727
:030ac1000085931a
:030ac20000859f0d
:030ac3000085ab00
:030ac4000085b7f3
:030ac5000085c3e6
:030ac6000085cfd9
:030ac7000085dbcc
:030ac8000085e8be
:030ac9000085f4b1
:030aca00008600a3
:030acb0000860c96
:030acc0000861889
:030acd000086247c
:030ace000086306f
:030acf0000863c62
:030ad00000864954
:030ad10000865547
:030ad2000086613a
:030ad30000866d2d
:030ad40000867920
:030ad50000868513
:030ad60000869106
:030ad70000869df9
:030ad8000086aaeb
:030ad9000086b6de
:030ada000086c2d1
:030adb000086cec4
:030adc000086dab7
:030add000086e6aa
:030ade000086f29d
:030adf000086fe90
:030ae00000870b81
:030ae10000871774
:030ae20000872367
:030ae30000872f5a
:030ae40000873b4d
:030ae50000874740
:030ae60000875333
:030ae70000875f26
:030ae80000876c18
:030ae9000087780b
:030aea00008784fe
:030aeb00008790f1
:030aec0000879ce4
:030aed000087a8d7
:030aee000087b4ca
:030aef000087c0bd
:030af0000087ccb0
:030af1000087d9a2
:030af2000087e595
:030af3000087f188
:030af4000087fd7b
:030af5000088096d
:030af60000881560
:030af70000882153
:030af80000882d46
:030af90000883a38
:030afa000088462b
:030afb000088521e
:030afc0000885e11
:030afd0000886a04
:030afe00008876f7
:030aff00008882ea
:030b000000888edc
:030b010000889acf
:030b02000088a7c1
:030b03000088b3b4
:030b04000088bfa7
:030b05000088cb9a
:030b06000088d78d
:030b07000088e380
:030b08000088ef73
:030b09000088fb66
:030b0a0000890758
:030b0b000089144a
:030b0c000089203d
:030b0d0000892c30
:030b0e0000893823
:030b0f0000894416
:030b100000895009
:030b110000895cfc
:030b1200008968ef
:030b1300008974e2
:030b1400008980d5
:030b150000898dc7
:030b1600008999ba
:030b17000089a5ad
:030b18000089b1a0
:030b19000089bd93
:030b1a000089c986
:030b1b000089d579
:030b1c000089e16c
:030b1d000089ed5f
:030b1e000089f952
:030b1f00008a0643
:030b2000008a1236
:030b2100008a1e29
:030b2200008a2a1c
:030b2300008a360f
:030b2400008a4202
:030b2500008a4ef5
:030b2600008a5ae8
:030b2700008a66db
:030b2800008a72ce
:030b2900008a7fc0
:030b2a00008a8bb3
:030b2b00008a97a6
:030b2c00008aa399
:030b2d00008aaf8c
:030b2e00008abb7f
:030b2f00008ac772
:030b3000008ad365
:030b3100008adf58
:030b3200008aeb4b
:030b3300008af83d
:030b3400008b042f
:030b3500008b1022
:030b3600008b1c15
:030b3700008b2808
:030b3800008b34fb
:030b3900008b40ee
:030b3a00008b4ce1
:030b3b00008b58d4
:030b3c00008b64c7
:030b3d00008b70ba
:030b3e00008b7dac
:030b3f00008b899f
:030b4000008b9592
:030b4100008ba185
:030b4200008bad78
:030b4300008bb96b
:030b4400008bc55e
:030b4500008bd151
:030b4600008bdd44
:030b4700008be937
:030b4800008bf52a
:030b4900008c021b
:030b4a00008c0e0e
:030b4b00008c1a01
:030b4c00008c26f4
:030b4d00008c32e7
:030b4e00008c3eda
:030b4f00008c4acd
:030b5000008c56c0
:030b5100008c62b3
:030b5200008c6ea6
:030b5300008c7a99
:030b5400008c868c
:030b5500008c937e
:030b5600008c9f71
:030b5700008cab64
:030b5800008cb757
:030b5900008cc34a
:030b5a00008ccf3d
:030b5b00008cdb30
:030b5c00008ce723
:030b5d00008cf316
:030b5e00008cff09
:030b5f00008d0bfb
:030b6000008d17ee
:030b6100008d24e0
:030b6200008d30d3
:030b6300008d3cc6
:030b6400008d48b9
:030b6500008d54ac
:030b6600008d609f
:030b6700008d6c92
:030b6800008d7885
:030b6900008d8478
:030b6a00008d906b
:030b6b00008d9c5e
:030b6c00008da851
:030b6d00008db444
:030b6e00008dc136
:030b6f00008dcd29
:030b7000008dd91c
:030b7100008de50f
:030b7200008df102
:030b7300008dfdf5
:030b7400008e09e7
:030b7500008e15da
:030b7600008e21cd
:030b7700008e2dc0
:030b7800008e39b3
:030b7900008e45a6
:030b7a00008e5199
:030b7b00008e5e8b
:030b7c00008e6a7e
:030b7d00008e7671
:030b7e00008e8264
:030b7f00008e8e57
:030b8000008e9a4a
:030b8100008ea63d
:030b8200008eb230
:030b8300008ebe23
:030b8400008eca16
:030b8500008ed609
:030b8600008ee2fc
:030b8700008eeeef
:030b8800008efae2
:030b8900008f06d4
:030b8a00008f13c6
:030b8b00008f1fb9
:030b8c00008f2bac
:030b8d00008f379f
:030b8e00008f4392
:030b8f00008f4f85
:030b9000008f5b78
:030b9100008f676b
:030b9200008f735e
:030b9300008f7f51
:030b9400008f8b44
:030b9500008f9737
:030b9600008fa32a
:030b9700008faf1d
:030b9800008fbb10
:030b9900008fc703
:030b9a00008fd4f5
:030b9b00008fe0e8
:030b9c00008fecdb
:030b9d00008ff8ce
:030b9e00009004c0
:030b9f00009010b3
:030ba00000901ca6
:030ba10000902899
:030ba2000090348c
:030ba3000090407f
:030ba40000904c72
:030ba50000905865
:030ba60000906458
:030ba7000090704b
:030ba80000907c3e
:030ba90000908831
:030baa0000909424
:030bab000090a116
:030bac000090ad09
:030bad000090b9fc
:030bae000090c5ef
:030baf000090d1e2
:030bb0000090ddd5
:030bb1000090e9c8
:030bb2000090f5bb
:030bb300009101ad
:030bb40000910da0
:030bb50000911993
:030bb60000912586
:030bb70000913179
:030bb80000913d6c
:030bb9000091495f
:030bba0000915552
:030bbb0000916145
:030bbc0000916d38
:030bbd000091792b
:030bbe000091851e
:030bbf0000919210
:030bc00000919e03
:030bc1000091aaf6
:030bc2000091b6e9
:030bc3000091c2dc
:030bc4000091cecf
:030bc5000091dac2
:030bc6000091e6b5
:030bc7000091f2a8
:030bc8000091fe9b
:030bc90000920a8d
:030bca0000921680
:030bcb0000922273
:030bcc0000922e66
:030bcd0000923a59
:030bce000092464c
:030bcf000092523f
:030bd00000925e32
:030bd10000926a25
:030bd20000927618
:030bd3000092820b
:030bd40000928efe
:030bd50000929af1
:030bd6000092a7e3
:030bd7000092b3d6
:030bd8000092bfc9
:030bd9000092cbbc
:030bda000092d7af
:030bdb000092e3a2
:030bdc000092ef95
:030bdd000092fb88
:030bde000093077a
:030bdf000093136d
:030be00000931f60
:030be10000932b53
:030be20000933746
:030be30000934339
:030be40000934f2c
:030be50000935b1f
:030be60000936712
:030be70000937305
:030be80000937ff8
:030be90000938beb
:030bea00009397de
:030beb000093a3d1
:030bec000093afc4
:030bed000093bbb7
:030bee000093c7aa
:030bef000093d39d
:030bf0000093df90
:030bf1000093eb83
:030bf2000093f875
:030bf30000940467
:030bf4000094105a
:030bf50000941c4d
:030bf60000942840
:030bf70000943433
:030bf80000944026
:030bf90000944c19
:030bfa000094580c
:030bfb00009464ff
:030bfc00009470f2
:030bfd0000947ce5
:030bfe00009488d8
:030bff00009494cb
:030c00000094a0bd
:030c01000094acb0
:030c02000094b8a3
:030c03000094c496
:030c04000094d089
:030c05000094dc7c
:030c06000094e86f
:030c07000094f462
:030c080000950054
:030c090000950c47
:030c0a000095183a
:030c0b000095242d
:030c0c0000953020
:030c0d0000953c13
:030c0e0000954806
:030c0f00009554f9
:030c1000009560ec
:030c110000956cdf
:030c1200009578d2
:030c1300009584c5
:030c1400009590b8
:030c150000959cab
:030c16000095a89e
:030c17000095b491
:030c18000095c084
:030c19000095cc77
:030c1a000095d86a
:030c1b000095e45d
:030c1c000095f050
:030c1d000095fc43
:030c1e0000960934
:030c1f0000961527
:030c20000096211a
:030c210000962d0d
:030c220000963900
:030c2300009645f3
:030c2400009651e6
:030c250000965dd9
:030c2600009669cc
:030c2700009675bf
:030c2800009681b2
:030c290000968da5
:030c2a0000969998
:030c2b000096a58b
:030c2c000096b17e
:030c2d000096bd71
:030c2e000096c964
:030c2f000096d557
:030c30000096e14a
:030c31000096ed3d
:030c32000096f930
:030c330000970522
:030c340000971115
:030c350000971d08
:030c3600009729fb
:030c3700009735ee
:030c3800009741e1
:030c390000974dd4
:030c3a00009759c7
:030c3b00009765ba
:030c3c00009771ad
:030c3d0000977da0
:030c3e0000978993
:030c3f0000979586
:030c40000097a179
:030c41000097ad6c
:030c42000097b95f
:030c43000097c552
:030c44000097d145
:030c45000097dd38
:030c46000097e92b
:030c47000097f51e
:030c480000980110
:030c490000980d03
:030c4a00009819f6
:030c4b00009825e9
:030c4c00009831dc
:030c4d0000983dcf
:030c4e00009849c2
:030c4f00009855b5
:030c5000009861a8
:030c510000986d9b
:030c52000098798e
:030c530000988581
:030c540000989174
:030c550000989d67
:030c56000098a95a
:030c57000098b54d
:030c58000098c140
:030c59000098cd33
:030c5a000098d926
:030c5b000098e519
:030c5c000098f10c
:030c5d000098fdff
:030c5e00009909f1
:030c5f00009915e4
:030c6000009921d7
:030c610000992dca
:030c6200009939bd
:030c6300009945b0
:030c6400009951a3
:030c650000995d96
:030c660000996989
:030c67000099757c
:030c68000099816f
:030c690000998d62
:030c6a0000999955
:030c6b000099a548
:030c6c000099b13b
:030c6d000099bd2e
:030c6e000099c921
:030c6f000099d514
:030c70000099e107
:030c71000099ecfb
:030c72000099f8ee
:030c7300009a04e0
:030c7400009a10d3
:030c7500009a1cc6
:030c7600009a28b9
:030c7700009a34ac
:030c7800009a409f
:030c7900009a4c92
:030c7a00009a5885
:030c7b00009a6478
:030c7c00009a706b
:030c7d00009a7c5e
:030c7e00009a8851
:030c7f00009a9444
:030c8000009aa037
:030c8100009aac2a
:030c8200009ab81d
:030c8300009ac410
:030c8400009ad003
:030c8500009adcf6
:030c8600009ae8e9
:030c8700009af4dc
:030c8800009b00ce
:030c8900009b0cc1
:030c8a00009b18b4
:030c8b00009b24a7
:030c8c00009b309a
:030c8d00009b3c8d
:030c8e00009b4880
:030c8f00009b5473
:030c9000009b6066
:030c9100009b6c59
:030c9200009b784c
:030c9300009b843f
:030c9400009b9032
:030c9500009b9c25
:030c9600009ba818
:030c9700009bb40b
:030c9800009bc0fe
:030c9900009bccf1
:030c9a00009bd8e4
:030c9b00009be4d7
:030c9c00009bf0ca
:030c9d00009bfbbe
:030c9e00009c07b0
:030c9f00009c13a3
:030ca000009c1f96
:030ca100009c2b89
:030ca200009c377c
:030ca300009c436f
:030ca400009c4f62
:030ca500009c5b55
:030ca600009c6748
:030ca700009c733b
:030ca800009c7f2e
:030ca900009c8b21
:030caa00009c9714
:030cab00009ca307
:030cac00009caffa
:030cad00009cbbed
:030cae00009cc7e0
:030caf00009cd3d3
:030cb000009cdfc6
:030cb100009cebb9
:030cb200009cf7ac
:030cb300009d039e
:030cb400009d0f91
:030cb500009d1b84
:030cb600009d2777
:030cb700009d336a
:030cb800009d3f5d
:030cb900009d4a51
:030cba00009d5644
:030cbb00009d6237
:030cbc00009d6e2a
:030cbd00009d7a1d
:030cbe00009d8610
:030cbf00009d9203
:030cc000009d9ef6
:030cc100009daae9
:030cc200009db6dc
:030cc300009dc2cf
:030cc400009dcec2
:030cc500009ddab5
:030cc600009de6a8
:030cc700009df29b
:030cc800009dfe8e
:030cc900009e0a80
:030cca00009e1673
:030ccb00009e2266
:030ccc00009e2e59
:030ccd00009e3a4c
:030cce00009e463f
:030ccf00009e5133
:030cd000009e5d26
:030cd100009e6919
:030cd200009e750c
:030cd300009e81ff
:030cd400009e8df2
:030cd500009e99e5
:030cd600009ea5d8
:030cd700009eb1cb
:030cd800009ebdbe
:030cd900009ec9b1
:030cda00009ed5a4
:030cdb00009ee197
:030cdc00009eed8a
:030cdd00009ef97d
:030cde00009f056f
:030cdf00009f1162
:030ce000009f1d55
:030ce100009f2948
:030ce200009f343c
:030ce300009f402f
:030ce400009f4c22
:030ce500009f5815
:030ce600009f6408
:030ce700009f70fb
:030ce800009f7cee
:030ce900009f88e1
:030cea00009f94d4
:030ceb00009fa0c7
:030cec00009facba
:030ced00009fb8ad
:030cee00009fc4a0
:030cef00009fd093
:030cf000009fdc86
:030cf100009fe879
:030cf200009ff36d
:030cf300009fff60
:030cf40000a00b52
:030cf50000a01745
:030cf60000a02338
:030cf70000a02f2b
:030cf80000a03b1e
:030cf90000a04711
:030cfa0000a05304
:030cfb0000a05ff7
:030cfc0000a06bea
:030cfd0000a077dd
:030cfe0000a083d0
:030cff0000a08fc3
:030d000000a09bb5
:030d010000a0a7a8
:030d020000a0b29c
:030d030000a0be8f
:030d040000a0ca82
:030d050000a0d675
:030d060000a0e268
:030d070000a0ee5b
:030d080000a0fa4e
:030d090000a10640
:030d0a0000a11233
:030d0b0000a11e26
:030d0c0000a12a19
:030d0d0000a1360c
:030d0e0000a142ff
:030d0f0000a14ef2
:030d100000a159e6
:030d110000a165d9
:030d120000a171cc
:030d130000a17dbf
:030d140000a189b2
:030d150000a195a5
:030d160000a1a198
:030d170000a1ad8b
:030d180000a1b97e
:030d190000a1c571
:030d1a0000a1d164
:030d1b0000a1dd57
:030d1c0000a1e94a
:030d1d0000a1f43e
:030d1e0000a20030
:030d1f0000a20c23
:030d200000a21816
:030d210000a22409
:030d220000a230fc
:030d230000a23cef
:030d240000a248e2
:030d250000a254d5
:030d260000a260c8
:030d270000a26cbb
:030d280000a278ae
:030d290000a283a2
:030d2a0000a28f95
:030d2b0000a29b88
:030d2c0000a2a77b
:030d2d0000a2b36e
:030d2e0000a2bf61
:030d2f0000a2cb54
:030d300000a2d747
:030d310000a2e33a
:030d320000a2ef2d
:030d330000a2fb20
:030d340000a30712
:030d350000a31206
:030d360000a31ef9
:030d370000a32aec
:030d380000a336df
:030d390000a342d2
:030d3a0000a34ec5
:030d3b0000a35ab8
:030d3c0000a366ab
:030d3d0000a3729e
:030d3e0000a37e91
:030d3f0000a38a84
:030d400000a39578
:030d410000a3a16b
:030d420000a3ad5e
:030d430000a3b951
:030d440000a3c544
:030d450000a3d137
:030d460000a3dd2a
:030d470000a3e91d
:030d480000a3f510
:030d490000a40102
:030d4a0000a40df5
:030d4b0000a418e9
:030d4c0000a424dc
:030d4d0000a430cf
:030d4e0000a43cc2
:030d4f0000a448b5
:030d500000a454a8
:030d510000a4609b
:030d520000a46c8e
:030d530000a47881
:030d540000a48474
:030d550000a48f68
:030d560000a49b5b
:030d570000a4a74e
:030d580000a4b341
:030d590000a4bf34
:030d5a0000a4cb27
:030d5b0000a4d71a
:030d5c0000a4e30d
:030d5d0000a4ef00
:030d5e0000a4fbf3
:030d5f0000a506e6
:030d600000a512d9
:030d610000a51ecc
:030d620000a52abf
:030d630000a536b2
:030d640000a542a5
:030d650000a54e98
:030d660000a55a8b
:030d670000a5667e
:030d680000a57172
:030d690000a57d65
:030d6a0000a58958
:030d6b0000a5954b
:030d6c0000a5a13e
:030d6d0000a5ad31
:030d6e0000a5b924
:030d6f0000a5c517
:030d700000a5d10a
:030d710000a5dcfe
:030d720000a5e8f1
:030d730000a5f4e4
:030d740000a600d6
:030d750000a60cc9
:030d760000a618bc
:030d770000a624af
:030d780000a630a2
:030d790000a63c95
:030d7a0000a64789
:030d7b0000a6537c
:030d7c0000a65f6f
:030d7d0000a66b62
:030d7e0000a67755
:030d7f0000a68348
:030d800000a68f3b
:030d810000a69b2e
:030d820000a6a721
:030d830000a6b215
:030d840000a6be08
:030d850000a6cafb
:030d860000a6d6ee
:030d870000a6e2e1
:030d880000a6eed4
:030d890000a6fac7
:030d8a0000a706b9
:030d8b0000a711ad
:030d8c0000a71da0
:030d8d0000a72993
:030d8e0000a73586
:030d8f0000a74179
:030d900000a74d6c
:030d910000a7595f
:030d920000a76552
:030d930000a77046
:030d940000a77c39
:030d950000a7882c
:030d960000a7941f
:030d970000a7a012
:030d980000a7ac05
:030d990000a7b8f8
:030d9a0000a7c4eb
:030d9b0000a7cfdf
:030d9c0000a7dbd2
:030d9d0000a7e7c5
:030d9e0000a7f3b8
:030d9f0000a7ffab
:030da00000a80b9d
:030da10000a81790
:030da20000a82383
:030da30000a82e77
:030da40000a83a6a
:030da50000a8465d
:030da60000a85250
:030da70000a85e43
:030da80000a86a36
:030da90000a87629
:030daa0000a8811d
:030dab0000a88d10
:030dac0000a89903
:030dad0000a8a5f6
:030dae0000a8b1e9
:030daf0000a8bddc
:030db00000a8c9cf
:030db10000a8d5c2
:030db20000a8e0b6
:030db30000a8eca9
:030db40000a8f89c
:030db50000a9048e
:030db60000a91081
:030db70000a91c74
:030db80000a92867
:030db90000a9335b
:030dba0000a93f4e
:030dbb0000a94b41
:030dbc0000a95734
:030dbd0000a96327
:030dbe0000a96f1a
:030dbf0000a97b0d
:030dc00000a98601
:030dc10000a992f4
:030dc20000a99ee7
:030dc30000a9aada
:030dc40000a9b6cd
:030dc50000a9c2c0
:030dc60000a9ceb3
:030dc70000a9d9a7
:030dc80000a9e59a
:030dc90000a9f18d
:030dca0000a9fd80
:030dcb0000aa0972
:030dcc0000aa1565
:030dcd0000aa2158
:030dce0000aa2c4c
:030dcf0000aa383f
:030dd00000aa4432
:030dd10000aa5025
:030dd20000aa5c18
:030dd30000aa680b
:030dd40000aa74fe
:030dd50000aa7ff2
:030dd60000aa8be5
:030dd70000aa97d8
:030dd80000aaa3cb
:030dd90000aaafbe
:030dda0000aabbb1
:030ddb0000aac6a5
:030ddc0000aad298
:030ddd0000aade8b
:030dde0000aaea7e
:030ddf0000aaf671
:030de00000ab0263
:030de10000ab0e56
:030de20000ab194a
:030de30000ab253d
:030de40000ab3130
:030de50000ab3d23
:030de60000ab4916
:030de70000ab5509
:030de80000ab60fd
:030de90000ab6cf0
:030dea0000ab78e3
:030deb0000ab84d6
:030dec0000ab90c9
:030ded0000ab9cbc
:030dee0000aba7b0
:030def0000abb3a3
:030df00000abbf96
:030df10000abcb89
:030df20000abd77c
:030df30000abe36f
:030df40000abee63
:030df50000abfa56
:030df60000ac0648
:030df70000ac123b
:030df80000ac1e2e
:030df90000ac2a21
:030dfa0000ac3515
:030dfb0000ac4108
:030dfc0000ac4dfb
:030dfd0000ac59ee
:030dfe0000ac65e1
:030dff0000ac71d4
:030e000000ac7cc7
:030e010000ac88ba
:030e020000ac94ad
:030e030000aca0a0
:030e040000acac93
:030e050000acb886
:030e060000acc37a
:030e070000accf6d
:030e080000acdb60
:030e090000ace753
:030e0a0000acf346
:030e0b0000acff39
:030e0c0000ad0a2c
:030e0d0000ad161f
:030e0e0000ad2212
:030e0f0000ad2e05
:030e100000ad3af8
:030e110000ad46eb
:030e120000ad51df
:030e130000ad5dd2
:030e140000ad69c5
:030e150000ad75b8
:030e160000ad81ab
:030e170000ad8d9e
:030e180000ad9892
:030e190000ada485
:030e1a0000adb078
:030e1b0000adbc6b
:030e1c0000adc85e
:030e1d0000add352
:030e1e0000addf45
:030e1f0000adeb38
:030e200000adf72b
:030e210000ae031d
:030e220000ae0f10
:030e230000ae1a04
:030e240000ae26f7
:030e250000ae32ea
:030e260000ae3edd
:030e270000ae4ad0
:030e280000ae55c4
:030e290000ae61b7
:030e2a0000ae6daa
:030e2b0000ae799d
:030e2c0000ae8590
:030e2d0000ae9183
:030e2e0000ae9c77
:030e2f0000aea86a
:030e300000aeb45d
:030e310000aec050
:030e320000aecc43
:030e330000aed737
:030e340000aee32a
:030e350000aeef1d
:030e360000aefb10
:030e370000af0702
:030e380000af12f6
:030e390000af1ee9
:030e3a0000af2adc
:030e3b0000af36cf
:030e3c0000af42c2
:030e3d0000af4db6
:030e3e0000af59a9
:030e3f0000af659c
:030e400000af718f
:030e410000af7d82
:030e420000af8876
:030e430000af9469
:030e440000afa05c
:030e450000afac4f
:030e460000afb842
:030e470000afc435
:030e480000afcf29
:030e490000afdb1c
:030e4a0000afe70f
:030e4b0000aff302
:030e4c0000affff5
:030e4d0000b00ae8
:030e4e0000b016db
:030e4f0000b022ce
:030e500000b02ec1
:030e510000b03ab4
:030e520000b045a8
:030e530000b0519b
:030e540000b05d8e
:030e550000b06981
:030e560000b07574
:030e570000b08068
:030e580000b08c5b
:030e590000b0984e
:030e5a0000b0a441
:030e5b0000b0af35
:030e5c0000b0bb28
:030e5d0000b0c71b
:030e5e0000b0d30e
:030e5f0000b0df01
:030e600000b0eaf5
:030e610000b0f6e8
:030e620000b102da
:030e630000b10ecd
:030e640000b11ac0
:030e650000b125b4
:030e660000b131a7
:030e670000b13d9a
:030e680000b1498d
:030e690000b15580
:030e6a0000b16074
:030e6b0000b16c67
:030e6c0000b1785a
:030e6d0000b1844d
:030e6e0000b18f41
:030e6f0000b19b34
:030e700000b1a727
:030e710000b1b31a
:030e720000b1bf0d
:030e730000b1ca01
:030e740000b1d6f4
:030e750000b1e2e7
:030e760000b1eeda
:030e770000b1facd
:030e780000b205c0
:030e790000b211b3
:030e7a0000b21da6
:030e7b0000b22999
:030e7c0000b2348d
:030e7d0000b24080
:030e7e0000b24c73
:030e7f0000b25866
:030e800000b26459
:030e810000b26f4d
:030e820000b27b40
:030e830000b28733
:030e840000b29326
:030e850000b29e1a
:030e860000b2aa0d
:030e870000b2b600
:030e880000b2c2f3
:030e890000b2cee6
:030e8a0000b2d9da
:030e8b0000b2e5cd
:030e8c0000b2f1c0
:030e8d0000b2fdb3
:030e8e0000b308a6
:030e8f0000b31499
:030e900000b3208c
:030e910000b32c7f
:030e920000b33872
:030e930000b34366
:030e940000b34f59
:030e950000b35b4c
:030e960000b3673f
:030e970000b37233
:030e980000b37e26
:030e990000b38a19
:030e9a0000b3960c
:030e9b0000b3a100
:030e9c0000b3adf3
:030e9d0000b3b9e6
:030e9e0000b3c5d9
:030e9f0000b3d1cc
:030ea00000b3dcc0
:030ea10000b3e8b3
:030ea20000b3f4a6
:030ea30000b40098
:030ea40000b40b8c
:030ea50000b4177f
:030ea60000b42372
:030ea70000b42f65
:030ea80000b43a59
:030ea90000b4464c
:030eaa0000b4523f
:030eab0000b45e32
:030eac0000b46926
:030ead0000b47519
:030eae0000b4810c
:030eaf0000b48dff
:030eb00000b498f3
:030eb10000b4a4e6
:030eb20000b4b0d9
:030eb30000b4bccc
:030eb40000b4c8bf
:030eb50000b4d3b3
:030eb60000b4dfa6
:030eb70000b4eb99
:030eb80000b4f78c
:030eb90000b5027f
:030eba0000b50e72
:030ebb0000b51a65
:030ebc0000b52658
:030ebd0000b5314c
:030ebe0000b53d3f
:030ebf0000b54932
:030ec00000b55525
:030ec10000b56019
:030ec20000b56c0c
:030ec30000b578ff
:030ec40000b584f2
:030ec50000b58fe6
:030ec60000b59bd9
:030ec70000b5a7cc
:030ec80000b5b3bf
:030ec90000b5beb3
:030eca0000b5caa6
:030ecb0000b5d699
:030ecc0000b5e28c
:030ecd0000b5ed80
:030ece0000b5f973
:030ecf0000b60565
:030ed00000b61158
:030ed10000b61c4c
:030ed20000b6283f
:030ed30000b63432
:030ed40000b64025
:030ed50000b64b19
:030ed60000b6570c
:030ed70000b663ff
:030ed80000b66ef3
:030ed90000b67ae6
:030eda0000b686d9
:030edb0000b692cc
:030edc0000b69dc0
:030edd0000b6a9b3
:030ede0000b6b5a6
:030edf0000b6c199
:030ee00000b6cc8d
:030ee10000b6d880
:030ee20000b6e473
:030ee30000b6f066
:030ee40000b6fb5a
:030ee50000b7074c
:030ee60000b7133f
:030ee70000b71f32
:030ee80000b72a26
:030ee90000b73619
:030eea0000b7420c
:030eeb0000b74d00
:030eec0000b759f3
:030eed0000b765e6
:030eee0000b771d9
:030eef0000b77ccd
:030ef00000b788c0
:030ef10000b794b3
:030ef20000b7a0a6
:030ef30000b7ab9a
:030ef40000b7b78d
:030ef50000b7c380
:030ef60000b7cf73
:030ef70000b7da67
:030ef80000b7e65a
:030ef90000b7f24d
:030efa0000b7fd41
:030efb0000b80933
:030efc0000b81526
:030efd0000b82119
:030efe0000b82c0d
:030eff0000b83800
:030f000000b844f2
:030f010000b850e5
:030f020000b85bd9
:030f030000b867cc
:030f040000b873bf
:030f050000b87eb3
:030f060000b88aa6
:030f070000b89699
:030f080000b8a28c
:030f090000b8ad80
:030f0a0000b8b973
:030f0b0000b8c566
:030f0c0000b8d05a
:030f0d0000b8dc4d
:030f0e0000b8e840
:030f0f0000b8f433
:030f100000b8ff27
:030f110000b90b19
:030f120000b9170c
:030f130000b92200
:030f140000b92ef3
:030f150000b93ae6
:030f160000b946d9
:030f170000b951cd
:030f180000b95dc0
:030f190000b969b3
:030f1a0000b974a7
:030f1b0000b9809a
:030f1c0000b98c8d
:030f1d0000b99880
:030f1e0000b9a374
:030f1f0000b9af67
:030f200000b9bb5a
:030f210000b9c64e
:030f220000b9d241
:030f230000b9de34
:030f240000b9ea27
:030f250000b9f51b
:030f260000ba010d
:030f270000ba0d00
:030f280000ba18f4
:030f290000ba24e7
:030f2a0000ba30da
:030f2b0000ba3ccd
:030f2c0000ba47c1
:030f2d0000ba53b4
:030f2e0000ba5fa7
:030f2f0000ba6a9b
:030f300000ba768e
:030f310000ba8281
:030f320000ba8d75
:030f330000ba9968
:030f340000baa55b
:030f350000bab14e
:030f360000babc42
:030f370000bac835
:030f380000bad428
:030f390000badf1c
:030f3a0000baeb0f
:030f3b0000baf702
:030f3c0000bb02f5
:030f3d0000bb0ee8
:030f3e0000bb1adb
:030f3f0000bb26ce
:030f400000bb31c2
:030f410000bb3db5
:030f420000bb49a8
:030f430000bb549c
:030f440000bb608f
:030f450000bb6c82
:030f460000bb7776
:030f470000bb8369
:030f480000bb8f5c
:030f490000bb9b4f
:030f4a0000bba643
:030f4b0000bbb236
:030f4c0000bbbe29
:030f4d0000bbc91d
:030f4e0000bbd510
:030f4f0000bbe103
:030f500000bbecf7
:030f510000bbf8ea
:030f520000bc04dc
:030f530000bc0fd0
:030f540000bc1bc3
:030f550000bc27b6
:030f560000bc32aa
:030f570000bc3e9d
:030f580000bc4a90
:030f590000bc5683
:030f5a0000bc6177
:030f5b0000bc6d6a
:030f5c0000bc795d
:030f5d0000bc8451
:030f5e0000bc9044
:030f5f0000bc9c37
:030f600000bca72b
:030f610000bcb31e
:030f620000bcbf11
:030f630000bcca05
:030f640000bcd6f8
:030f650000bce2eb
:030f660000bceddf
:030f670000bcf9d2
:030f680000bd05c4
:030f690000bd10b8
:030f6a0000bd1cab
:030f6b0000bd289e
:030f6c0000bd3392
:030f6d0000bd3f85
:030f6e0000bd4b78
:030f6f0000bd566c
:030f700000bd625f
:030f710000bd6e52
:030f720000bd7a45
:030f730000bd8539
:030f740000bd912c
:030f750000bd9d1f
:030f760000bda813
:030f770000bdb406
:030f780000bdc0f9
:030f790000bdcbed
:030f7a0000bdd7e0
:030f7b0000bde3d3
:030f7c0000bdeec7
:030f7d0000bdfaba
:030f7e0000be06ac
:030f7f0000be11a0
:030f800000be1d93
:030f810000be2986
:030f820000be347a
:030f830000be406d
:030f840000be4c60
:030f850000be5754
:030f860000be6347
:030f870000be6f3a
:030f880000be7a2e
:030f890000be8621
:030f8a0000be9214
:030f8b0000be9d08
:030f8c0000bea9fb
:030f8d0000beb5ee
:030f8e0000bec0e2
:030f8f0000beccd5
:030f900000bed8c8
:030f910000bee3bc
:030f920000beefaf
:030f930000befba2
:030f940000bf0695
:030f950000bf1288
:030f960000bf1e7b
:030f970000bf296f
:030f980000bf3562
:030f990000bf4056
:030f9a0000bf4c49
:030f9b0000bf583c
:030f9c0000bf6330
:030f9d0000bf6f23
:030f9e0000bf7b16
:030f9f0000bf860a
:030fa00000bf92fd
:030fa10000bf9ef0
:030fa20000bfa9e4
:030fa30000bfb5d7
:030fa40000bfc1ca
:030fa50000bfccbe
:030fa60000bfd8b1
:030fa70000bfe4a4
:030fa80000bfef98
:030fa90000bffb8b
:030faa0000c0077d
:030fab0000c01271
:030fac0000c01e64
:030fad0000c02a57
:030fae0000c0354b
:030faf0000c0413e
:030fb00000c04c32
:030fb10000c05825
:030fb20000c06418
:030fb30000c06f0c
:030fb40000c07bff
:030fb50000c087f2
:030fb60000c092e6
:030fb70000c09ed9
:030fb80000c0aacc
:030fb90000c0b5c0
:030fba0000c0c1b3
:030fbb0000c0cda6
:030fbc0000c0d89a
:030fbd0000c0e48d
:030fbe0000c0ef81
:030fbf0000c0fb74
:030fc00000c10766
:030fc10000c1125a
:030fc20000c11e4d
:030fc30000c12a40
:030fc40000c13534
:030fc50000c14127
:030fc60000c14d1a
:030fc70000c1580e
:030fc80000c16401
:030fc90000c16ff5
:030fca0000c17be8
:030fcb0000c187db
:030fcc0000c192cf
:030fcd0000c19ec2
:030fce0000c1aab5
:030fcf0000c1b5a9
:030fd00000c1c19c
:030fd10000c1cd8f
:030fd20000c1d883
:030fd30000c1e476
:030fd40000c1ef6a
:030fd50000c1fb5d
:030fd60000c2074f
:030fd70000c21243
:030fd80000c21e36
:030fd90000c22a29
:030fda0000c2351d
:030fdb0000c24110
:030fdc0000c24c04
:030fdd0000c258f7
:030fde0000c264ea
:030fdf0000c26fde
:030fe00000c27bd1
:030fe10000c287c4
:030fe20000c292b8
:030fe30000c29eab
:030fe40000c2a99f
:030fe50000c2b592
:030fe60000c2c185
:030fe70000c2cc79
:030fe80000c2d86c
:030fe90000c2e45f
:030fea0000c2ef53
:030feb0000c2fb46
:030fec0000c30639
:030fed0000c3122c
:030fee0000c31e1f
:030fef0000c32913
:030ff00000c33506
:030ff10000c341f9
:030ff20000c34ced
:030ff30000c358e0
:030ff40000c363d4
:030ff50000c36fc7
:030ff60000c37bba
:030ff70000c386ae
:030ff80000c392a1
:030ff90000c39d95
:030ffa0000c3a988
:030ffb0000c3b57b
:030ffc0000c3c06f
:030ffd0000c3cc62
:030ffe0000c3d756
:030fff0000c3e349
:0310000000c3ef3b
:0310010000c3fa2f
:0310020000c40621
:0310030000c41214
:0310040000c41d08
:0310050000c429fb
:0310060000c434ef
:0310070000c440e2
:0310080000c44cd5
:0310090000c457c9
:03100a0000c463bc
:03100b0000c46eb0
:03100c0000c47aa3
:03100d0000c48696
:03100e0000c4918a
:03100f0000c49d7d
:0310100000c4a871
:0310110000c4b464
:0310120000c4c057
:0310130000c4cb4b
:0310140000c4d73e
:0310150000c4e232
:0310160000c4ee25
:0310170000c4fa18
:0310180000c5050b
:0310190000c511fe
:03101a0000c51cf2
:03101b0000c528e5
:03101c0000c534d8
:03101d0000c53fcc
:03101e0000c54bbf
:03101f0000c556b3
:0310200000c562a6
:0310210000c56e99
:0310220000c5798d
:0310230000c58580
:0310240000c59074
:0310250000c59c67
:0310260000c5a85a
:0310270000c5b34e
:0310280000c5bf41
:0310290000c5ca35
:03102a0000c5d628
:03102b0000c5e11c
:03102c0000c5ed0f
:03102d0000c5f902
:03102e0000c604f5
:03102f0000c610e8
:0310300000c61bdc
:0310310000c627cf
:0310320000c633c2
:0310330000c63eb6
:0310340000c64aa9
:0310350000c6559d
:0310360000c66190
:0310370000c66d83
:0310380000c67877
:0310390000c6846a
:03103a0000c68f5e
:03103b0000c69b51
:03103c0000c6a645
:03103d0000c6b238
:03103e0000c6be2b
:03103f0000c6c91f
:0310400000c6d512
:0310410000c6e006
:0310420000c6ecf9
:0310430000c6f8ec
:0310440000c703df
:0310450000c70fd2
:0310460000c71ac6
:0310470000c726b9
:0310480000c731ad
:0310490000c73da0
:03104a0000c74993
:03104b0000c75487
:03104c0000c7607a
:03104d0000c76b6e
:03104e0000c77761
:03104f0000c78255
:0310500000c78e48
:0310510000c79a3b
:0310520000c7a52f
:0310530000c7b122
:0310540000c7bc16
:0310550000c7c809
:0310560000c7d3fd
:0310570000c7dff0
:0310580000c7ebe3
:0310590000c7f6d7
:03105a0000c802c9
:03105b0000c80dbd
:03105c0000c819b0
:03105d0000c824a4
:03105e0000c83097
:03105f0000c83c8a
:0310600000c8477e
:0310610000c85371
:0310620000c85e65
:0310630000c86a58
:0310640000c8754c
:0310650000c8813f
:0310660000c88c33
:0310670000c89826
:0310680000c8a419
:0310690000c8af0d
:03106a0000c8bb00
:03106b0000c8c6f4
:03106c0000c8d2e7
:03106d0000c8dddb
:03106e0000c8e9ce
:03106f0000c8f5c1
:0310700000c900b4
:0310710000c90ca7
:0310720000c9179b
:0310730000c9238e
:0310740000c92e82
:0310750000c93a75
:0310760000c94569
:0310770000c9515c
:0310780000c95d4f
:0310790000c96843
:03107a0000c97436
:03107b0000c97f2a
:03107c0000c98b1d
:03107d0000c99611
:03107e0000c9a204
:03107f0000c9adf8
:0310800000c9b9eb
:0310810000c9c4df
:0310820000c9d0d2
:0310830000c9dcc5
:0310840000c9e7b9
:0310850000c9f3ac
:0310860000c9fea0
:0310870000ca0a92
:0310880000ca1586
:0310890000ca2179
:03108a0000ca2c6d
:03108b0000ca3860
:03108c0000ca4354
:03108d0000ca4f47
:03108e0000ca5b3a
:03108f0000ca662e
:0310900000ca7221
:0310910000ca7d15
:0310920000ca8908
:0310930000ca94fc
:0310940000caa0ef
:0310950000caabe3
:0310960000cab7d6
:0310970000cac2ca
:0310980000cacebd
:0310990000cadab0
:03109a0000cae5a4
:03109b0000caf197
:03109c0000cafc8b
:03109d0000cb087d
:03109e0000cb1371
:03109f0000cb1f64
:0310a00000cb2a58
:0310a10000cb364b
:0310a20000cb413f
:0310a30000cb4d32
:0310a40000cb5826
:0310a50000cb6419
:0310a60000cb6f0d
:0310a70000cb7b00
:0310a80000cb87f3
:0310a90000cb92e7
:0310aa0000cb9eda
:0310ab0000cba9ce
:0310ac0000cbb5c1
:0310ad0000cbc0b5
:0310ae0000cbcca8
:0310af0000cbd79c
:0310b00000cbe38f
:0310b10000cbee83
:0310b20000cbfa76
:0310b30000cc0569
:0310b40000cc115c
:0310b50000cc1c50
:0310b60000cc2843
:0310b70000cc3337
:0310b80000cc3f2a
:0310b90000cc4a1e
:0310ba0000cc5611
:0310bb0000cc6204
:0310bc0000cc6df8
:0310bd0000cc79eb
:0310be0000cc84df
:0310bf0000cc90d2
:0310c00000cc9bc6
:0310c10000cca7b9
:0310c20000ccb2ad
:0310c30000ccbea0
:0310c40000ccc994
:0310c50000ccd587
:0310c60000cce07b
:0310c70000ccec6e
:0310c80000ccf762
:0310c90000cd0354
:0310ca0000cd0e48
:0310cb0000cd1a3b
:0310cc0000cd252f
:0310cd0000cd3122
:0310ce0000cd3c16
:0310cf0000cd4809
:0310d00000cd53fd
:0310d10000cd5ff0
:0310d20000cd6ae4
:0310d30000cd76d7
:0310d40000cd81cb
:0310d50000cd8dbe
:0310d60000cd98b2
:0310d70000cda4a5
:0310d80000cdaf99
:0310d90000cdbb8c
:0310da0000cdc680
:0310db0000cdd273
:0310dc0000cddd67
:0310dd0000cde95a
:0310de0000cdf54d
:0310df0000ce0040
:0310e00000ce0c33
:0310e10000ce1727
:0310e20000ce231a
:0310e30000ce2e0e
:0310e40000ce3a01
:0310e50000ce45f5
:0310e60000ce51e8
:0310e70000ce5cdc
:0310e80000ce68cf
:0310e90000ce73c3
:0310ea0000ce7fb6
:0310eb0000ce8aaa
:0310ec0000ce969d
:0310ed0000cea191
:0310ee0000cead84
:0310ef0000ceb878
:0310f00000cec46b
:0310f10000cecf5f
:0310f20000cedb52
:0310f30000cee646
:0310f40000cef13a
:0310f50000cefd2d
:0310f60000cf0820
:0310f70000cf1413
:0310f80000cf1f07
:0310f90000cf2bfa
:0310fa0000cf36ee
:0310fb0000cf42e1
:0310fc0000cf4dd5
:0310fd0000cf59c8
:0310fe0000cf64bc
:0310ff0000cf70af
:0311000000cf7ba2
:0311010000cf8795
:0311020000cf9289
:0311030000cf9e7c
:0311040000cfa970
:0311050000cfb563
:0311060000cfc057
:0311070000cfcc4a
:0311080000cfd73e
:0311090000cfe331
:03110a0000cfee25
:03110b0000cffa18
:03110c0000d0050b
:03110d0000d011fe
:03110e0000d01cf2
:03110f0000d028e5
:0311100000d033d9
:0311110000d03fcc
:0311120000d04ac0
:0311130000d056b3
:0311140000d061a7
:0311150000d06d9a
:0311160000d0788e
:0311170000d08382
:0311180000d08f75
:0311190000d09a69
:03111a0000d0a65c
:03111b0000d0b150
:03111c0000d0bd43
:03111d0000d0c837
:03111e0000d0d42a
:03111f0000d0df1e
:0311200000d0eb11
:0311210000d0f605
:0311220000d102f7
:0311230000d10deb
:0311240000d119de
:0311250000d124d2
:0311260000d130c5
:0311270000d13bb9
:0311280000d147ac
:0311290000d152a0
:03112a0000d15d94
:03112b0000d16987
:03112c0000d1747b
:03112d0000d1806e
:03112e0000d18b62
:03112f0000d19755
:0311300000d1a249
:0311310000d1ae3c
:0311320000d1b930
:0311330000d1c523
:0311340000d1d017
:0311350000d1dc0a
:0311360000d1e7fe
:0311370000d1f2f2
:0311380000d1fee5
:0311390000d209d8
:03113a0000d215cb
:03113b0000d220bf
:03113c0000d22cb2
:03113d0000d237a6
:03113e0000d24399
:03113f0000d24e8d
:0311400000d25a80
:0311410000d26574
:0311420000d27167
:0311430000d27c5b
:0311440000d2874f
:0311450000d29342
:0311460000d29e36
:0311470000d2aa29
:0311480000d2b51d
:0311490000d2c110
:03114a0000d2cc04
:03114b0000d2d8f7
:03114c0000d2e3eb
:03114d0000d2efde
:03114e0000d2fad2
:03114f0000d305c5
:0311500000d311b8
:0311510000d31cac
:0311520000d3289f
:0311530000d33393
:0311540000d33f86
:0311550000d34a7a
:0311560000d3566d
:0311570000d36161
:0311580000d36c55
:0311590000d37848
:03115a0000d3833c
:03115b0000d38f2f
:03115c0000d39a23
:03115d0000d3a616
:03115e0000d3b10a
:03115f0000d3bdfd
:0311600000d3c8f1
:0311610000d3d3e5
:0311620000d3dfd8
:0311630000d3eacc
:0311640000d3f6bf
:0311650000d401b2
:0311660000d40da5
:0311670000d41899
:0311680000d4238d
:0311690000d42f80
:03116a0000d43a74
:03116b0000d44667
:03116c0000d4515b
:03116d0000d45d4e
:03116e0000d46842
:03116f0000d47435
:0311700000d47f29
:0311710000d48a1d
:0311720000d49610
:0311730000d4a104
:0311740000d4adf7
:0311750000d4b8eb
:0311760000d4c4de
:0311770000d4cfd2
:0311780000d4dac6
:0311790000d4e6b9
:03117a0000d4f1ad
:03117b0000d4fda0
:03117c0000d50893
:03117d0000d51486
:03117e0000d51f7a
:03117f0000d52a6e
:0311800000d53661
:0311810000d54155
:0311820000d54d48
:0311830000d5583c
:0311840000d5642f
:0311850000d56f23
:0311860000d57a17
:0311870000d5860a
:0311880000d591fe
:0311890000d59df1
:03118a0000d5a8e5
:03118b0000d5b3d9
:03118c0000d5bfcc
:03118d0000d5cac0
:03118e0000d5d6b3
:03118f0000d5e1a7
:0311900000d5ed9a
:0311910000d5f88e
:0311920000d60381
:0311930000d60f74
:0311940000d61a68
:0311950000d6265b
:0311960000d6314f
:0311970000d63c43
:0311980000d64836
:0311990000d6532a
:03119a0000d65f1d
:03119b0000d66a11
:03119c0000d67604
:03119d0000d681f8
:03119e0000d68cec
:03119f0000d698df
:0311a00000d6a3d3
:0311a10000d6afc6
:0311a20000d6baba
:0311a30000d6c5ae
:0311a40000d6d1a1
:0311a50000d6dc95
:0311a60000d6e888
:0311a70000d6f37c
:0311a80000d6fe70
:0311a90000d70a62
:0311aa0000d71556
:0311ab0000d72149
:0311ac0000d72c3d
:0311ad0000d73731
:0311ae0000d74324
:0311af0000d74e18
:0311b00000d75a0b
:0311b10000d765ff
:0311b20000d770f3
:0311b30000d77ce6
:0311b40000d787da
:0311b50000d793cd
:0311b60000d79ec1
:0311b70000d7a9b5
:0311b80000d7b5a8
:0311b90000d7c09c
:0311ba0000d7cc8f
:0311bb0000d7d783
:0311bc0000d7e277
:0311bd0000d7ee6a
:0311be0000d7f95e
:0311bf0000d80550
:0311c00000d81044
:0311c10000d81b38
:0311c20000d8272b
:0311c30000d8321f
:0311c40000d83e12
:0311c50000d84906
:0311c60000d854fa
:0311c70000d860ed
:0311c80000d86be1
:0311c90000d877d4
:0311ca0000d882c8
:0311cb0000d88dbc
:0311cc0000d899af
:0311cd0000d8a4a3
:0311ce0000d8af97
:0311cf0000d8bb8a
:0311d00000d8c67e
:0311d10000d8d271
:0311d20000d8dd65
:0311d30000d8e859
:0311d40000d8f44c
:0311d50000d8ff40
:0311d60000d90b32
:0311d70000d91626
:0311d80000d9211a
:0311d90000d92d0d
:0311da0000d93801
:0311db0000d943f5
:0311dc0000d94fe8
:0311dd0000d95adc
:0311de0000d966cf
:0311df0000d971c3
:0311e00000d97cb7
:0311e10000d988aa
:0311e20000d9939e
:0311e30000d99e92
:0311e40000d9aa85
:0311e50000d9b579
:0311e60000d9c16c
:0311e70000d9cc60
:0311e80000d9d754
:0311e90000d9e347
:0311ea0000d9ee3b
:0311eb0000d9f92f
:0311ec0000da0521
:0311ed0000da1015
:0311ee0000da1c08
:0311ef0000da27fc
:0311f00000da32f0
:0311f10000da3ee3
:0311f20000da49d7
:0311f30000da54cb
:0311f40000da60be
:0311f50000da6bb2
:0311f60000da76a6
:0311f70000da8299
:0311f80000da8d8d
:0311f90000da9980
:0311fa0000daa474
:0311fb0000daaf68
:0311fc0000dabb5b
:0311fd0000dac64f
:0311fe0000dad143
:0311ff0000dadd36
:0312000000dae829
:0312010000daf31d
:0312020000daff10
:0312030000db0a03
:0312040000db16f6
:0312050000db21ea
:0312060000db2cde
:0312070000db38d1
:0312080000db43c5
:0312090000db4eb9
:03120a0000db5aac
:03120b0000db65a0
:03120c0000db7094
:03120d0000db7c87
:03120e0000db877b
:03120f0000db926f
:0312100000db9e62
:0312110000dba956
:0312120000dbb44a
:0312130000dbc03d
:0312140000dbcb31
:0312150000dbd724
:0312160000dbe218
:0312170000dbed0c
:0312180000dbf9ff
:0312190000dc04f2
:03121a0000dc0fe6
:03121b0000dc1bd9
:03121c0000dc26cd
:03121d0000dc31c1
:03121e0000dc3db4
:03121f0000dc48a8
:0312200000dc539c
:0312210000dc5f8f
:0312220000dc6a83
:0312230000dc7577
:0312240000dc816a
:0312250000dc8c5e
:0312260000dc9752
:0312270000dca345
:0312280000dcae39
:0312290000dcb92d
:03122a0000dcc520
:03122b0000dcd014
:03122c0000dcdb08
:03122d0000dce7fb
:03122e0000dcf2ef
:03122f0000dcfde3
:0312300000dd09d5
:0312310000dd14c9
:0312320000dd1fbd
:0312330000dd2bb0
:0312340000dd36a4
:0312350000dd4198
:0312360000dd4d8b
:0312370000dd587f
:0312380000dd6373
:0312390000dd6f66
:03123a0000dd7a5a
:03123b0000dd854e
:03123c0000dd9141
:03123d0000dd9c35
:03123e0000dda729
:03123f0000ddb31c
:0312400000ddbe10
:0312410000ddc904
:0312420000ddd5f7
:0312430000dde0eb
:0312440000ddebdf
:0312450000ddf7d2
:0312460000de02c5
:0312470000de0db9
:0312480000de19ac
:0312490000de24a0
:03124a0000de2f94
:03124b0000de3b87
:03124c0000de467b
:03124d0000de516f
:03124e0000de5d62
:03124f0000de6856
:0312500000de734a
:0312510000de7f3d
:0312520000de8a31
:0312530000de9525
:0312540000dea019
:0312550000deac0c
:0312560000deb700
:0312570000dec2f4
:0312580000decee7
:0312590000ded9db
:03125a0000dee4cf
:03125b0000def0c2
:03125c0000defbb6
:03125d0000df06a9
:03125e0000df129c
:03125f0000df1d90
:0312600000df2884
:0312610000df3477
:0312620000df3f6b
:0312630000df4a5f
:0312640000df5553
:0312650000df6146
:0312660000df6c3a
:0312670000df772e
:0312680000df8321
:0312690000df8e15
:03126a0000df9909
:03126b0000dfa5fc
:03126c0000dfb0f0
:03126d0000dfbbe4
:03126e0000dfc7d7
:03126f0000dfd2cb
:0312700000dfddbf
:0312710000dfe8b3
:0312720000dff4a6
:0312730000dfff9a
:0312740000e00a8d
:0312750000e01680
:0312760000e02174
:0312770000e02c68
:0312780000e0385b
:0312790000e0434f
:03127a0000e04e43
:03127b0000e05937
:03127c0000e0652a
:03127d0000e0701e
:03127e0000e07b12
:03127f0000e08705
:0312800000e092f9
:0312810000e09ded
:0312820000e0a8e1
:0312830000e0b4d4
:0312840000e0bfc8
:0312850000e0cabc
:0312860000e0d6af
:0312870000e0e1a3
:0312880000e0ec97
:0312890000e0f78b
:03128a0000e1037d
:03128b0000e10e71
:03128c0000e11965
:03128d0000e12558
:03128e0000e1304c
:03128f0000e13b40
:0312900000e14634
:0312910000e15227
:0312920000e15d1b
:0312930000e1680f
:0312940000e17402
:0312950000e17ff6
:0312960000e18aea
:0312970000e195de
:0312980000e1a1d1
:0312990000e1acc5
:03129a0000e1b7b9
:03129b0000e1c3ac
:03129c0000e1cea0
:03129d0000e1d994
:03129e0000e1e488
:03129f0000e1f07b
:0312a00000e1fb6f
:0312a10000e20662
:0312a20000e21255
:0312a30000e21d49
:0312a40000e2283d
:0312a50000e23331
:0312a60000e23f24
:0312a70000e24a18
:0312a80000e2550c
:0312a90000e26000
:0312aa0000e26cf3
:0312ab0000e277e7
:0312ac0000e282db
:0312ad0000e28ece
:0312ae0000e299c2
:0312af0000e2a4b6
:0312b00000e2afaa
:0312b10000e2bb9d
:0312b20000e2c691
:0312b30000e2d185
:0312b40000e2dc79
:0312b50000e2e86c
:0312b60000e2f360
:0312b70000e2fe54
:0312b80000e30947
:0312b90000e3153a
:0312ba0000e3202e
:0312bb0000e32b22
:0312bc0000e33616
:0312bd0000e34209
:0312be0000e34dfd
:0312bf0000e358f1
:0312c00000e364e4
:0312c10000e36fd8
:0312c20000e37acc
:0312c30000e385c0
:0312c40000e391b3
:0312c50000e39ca7
:0312c60000e3a79b
:0312c70000e3b28f
:0312c80000e3be82
:0312c90000e3c976
:0312ca0000e3d46a
:0312cb0000e3df5e
:0312cc0000e3eb51
:0312cd0000e3f645
:0312ce0000e40138
:0312cf0000e40c2c
:0312d00000e4181f
:0312d10000e42313
:0312d20000e42e07
:0312d30000e439fb
:0312d40000e445ee
:0312d50000e450e2
:0312d60000e45bd6
:0312d70000e466ca
:0312d80000e472bd
:0312d90000e47db1
:0312da0000e488a5
:0312db0000e49399
:0312dc0000e49f8c
:0312dd0000e4aa80
:0312de0000e4b574
:0312df0000e4c068
:0312e00000e4cc5b
:0312e10000e4d74f
:0312e20000e4e243
:0312e30000e4ed37
:0312e40000e4f92a
:0312e50000e5041d
:0312e60000e50f11
:0312e70000e51a05
:0312e80000e525f9
:0312e90000e531ec
:0312ea0000e53ce0
:0312eb0000e547d4
:0312ec0000e552c8
:0312ed0000e55ebb
:0312ee0000e569af
:0312ef0000e574a3
:0312f00000e57f97
:0312f10000e58b8a
:0312f20000e5967e
:0312f30000e5a172
:0312f40000e5ac66
:0312f50000e5b859
:0312f60000e5c34d
:0312f70000e5ce41
:0312f80000e5d935
:0312f90000e5e429
:0312fa0000e5f01c
:0312fb0000e5fb10
:0312fc0000e60603
:0312fd0000e611f7
:0312fe0000e61dea
:0312ff0000e628de
:0313000000e633d1
:0313010000e63ec5
:0313020000e649b9
:0313030000e655ac
:0313040000e660a0
:0313050000e66b94
:0313060000e67688
:0313070000e6827b
:0313080000e68d6f
:0313090000e69863
:03130a0000e6a357
:03130b0000e6ae4b
:03130c0000e6ba3e
:03130d0000e6c532
:03130e0000e6d026
:03130f0000e6db1a
:0313100000e6e70d
:0313110000e6f201
:0313120000e6fdf5
:0313130000e708e8
:0313140000e713dc
:0313150000e71fcf
:0313160000e72ac3
:0313170000e735b7
:0313180000e740ab
:0313190000e74b9f
:03131a0000e75792
:03131b0000e76286
:03131c0000e76d7a
:03131d0000e7786e
:03131e0000e78362
:03131f0000e78f55
:0313200000e79a49
:0313210000e7a53d
:0313220000e7b031
:0313230000e7bc24
:0313240000e7c718
:0313250000e7d20c
:0313260000e7dd00
:0313270000e7e8f4
:0313280000e7f4e7
:0313290000e7ffdb
:03132a0000e80ace
:03132b0000e815c2
:03132c0000e820b6
:03132d0000e82ca9
:03132e0000e8379d
:03132f0000e84291
:0313300000e84d85
:0313310000e85879
:0313320000e8646c
:0313330000e86f60
:0313340000e87a54
:0313350000e88548
:0313360000e8903c
:0313370000e89c2f
:0313380000e8a723
:0313390000e8b217
:03133a0000e8bd0b
:03133b0000e8c8ff
:03133c0000e8d3f3
:03133d0000e8dfe6
:03133e0000e8eada
:03133f0000e8f5ce
:0313400000e900c1
:0313410000e90bb5
:0313420000e917a8
:0313430000e9229c
:0313440000e92d90
:0313450000e93884
:0313460000e94378
:0313470000e94f6b
:0313480000e95a5f
:0313490000e96553
:03134a0000e97047
:03134b0000e97b3b
:03134c0000e9862f
:03134d0000e99222
:03134e0000e99d16
:03134f0000e9a80a
:0313500000e9b3fe
:0313510000e9bef2
:0313520000e9cae5
:0313530000e9d5d9
:0313540000e9e0cd
:0313550000e9ebc1
:0313560000e9f6b5
:0313570000ea01a8
:0313580000ea0d9b
:0313590000ea188f
:03135a0000ea2383
:03135b0000ea2e77
:03135c0000ea396b
:03135d0000ea455e
:03135e0000ea5052
:03135f0000ea5b46
:0313600000ea663a
:0313610000ea712e
:0313620000ea7c22
:0313630000ea8815
:0313640000ea9309
:0313650000ea9efd
:0313660000eaa9f1
:0313670000eab4e5
:0313680000eabfd9
:0313690000eacbcc
:03136a0000ead6c0
:03136b0000eae1b4
:03136c0000eaeca8
:03136d0000eaf79c
:03136e0000eb028f
:03136f0000eb0e82
:0313700000eb1976
:0313710000eb246a
:0313720000eb2f5e
:0313730000eb3a52
:0313740000eb4546
:0313750000eb5139
:0313760000eb5c2d
:0313770000eb6721
:0313780000eb7215
:0313790000eb7d09
:03137a0000eb88fd
:03137b0000eb93f1
:03137c0000eb9fe4
:03137d0000ebaad8
:03137e0000ebb5cc
:03137f0000ebc0c0
:0313800000ebcbb4
:0313810000ebd6a8
:0313820000ebe29b
:0313830000ebed8f
:0313840000ebf883
:0313850000ec0376
:0313860000ec0e6a
:0313870000ec195e
:0313880000ec2452
:0313890000ec3045
:03138a0000ec3b39
:03138b0000ec462d
:03138c0000ec5121
:03138d0000ec5c15
:03138e0000ec6709
:03138f0000ec73fc
:0313900000ec7ef0
:0313910000ec89e4
:0313920000ec94d8
:0313930000ec9fcc
:0313940000ecaac0
:0313950000ecb5b4
:0313960000ecc1a7
:0313970000eccc9b
:0313980000ecd78f
:0313990000ece283
:03139a0000eced77
:03139b0000ecf86b
:03139c0000ed035e
:03139d0000ed0f51
:03139e0000ed1a45
:03139f0000ed2539
:0313a00000ed302d
:0313a10000ed3b21
:0313a20000ed4615
:0313a30000ed5109
:0313a40000ed5cfd
:0313a50000ed68f0
:0313a60000ed73e4
:0313a70000ed7ed8
:0313a80000ed89cc
:0313a90000ed94c0
:0313aa0000ed9fb4
:0313ab0000edaaa8
:0313ac0000edb69b
:0313ad0000edc18f
:0313ae0000edcc83
:0313af0000edd777
:0313b00000ede26b
:0313b10000eded5f
:0313b20000edf853
:0313b30000ee0346
:0313b40000ee0f39
:0313b50000ee1a2d
:0313b60000ee2521
:0313b70000ee3015
:0313b80000ee3b09
:0313b90000ee46fd
:0313ba0000ee51f1
:0313bb0000ee5ce5
:0313bc0000ee68d8
:0313bd0000ee73cc
:0313be0000ee7ec0
:0313bf0000ee89b4
:0313c00000ee94a8
:0313c10000ee9f9c
:0313c20000eeaa90
:0313c30000eeb584
:0313c40000eec078
:0313c50000eecc6b
:0313c60000eed75f
:0313c70000eee253
:0313c80000eeed47
:0313c90000eef83b
:0313ca0000ef032e
:0313cb0000ef0e22
:0313cc0000ef1916
:0313cd0000ef240a
:0313ce0000ef30fd
:0313cf0000ef3bf1
:0313d00000ef46e5
:0313d10000ef51d9
:0313d20000ef5ccd
:0313d30000ef67c1
:0313d40000ef72b5
:0313d50000ef7da9
:0313d60000ef889d
:0313d70000ef9490
:0313d80000ef9f84
:0313d90000efaa78
:0313da0000efb56c
:0313db0000efc060
:0313dc0000efcb54
:0313dd0000efd648
:0313de0000efe13c
:0313df0000efec30
:0313e00000eff823
:0313e10000f00316
:0313e20000f00e0a
:0313e30000f019fe
:0313e40000f024f2
:0313e50000f02fe6
:0313e60000f03ada
:0313e70000f045ce
:0313e80000f050c2
:0313e90000f05bb6
:0313ea0000f066aa
:0313eb0000f0729d
:0313ec0000f07d91
:0313ed0000f08885
:0313ee0000f09379
:0313ef0000f09e6d
:0313f00000f0a961
:0313f10000f0b455
:0313f20000f0bf49
:0313f30000f0ca3d
:0313f40000f0d531
:0313f50000f0e124
:0313f60000f0ec18
:0313f70000f0f70c
:0313f80000f102ff
:0313f90000f10df3
:0313fa0000f118e7
:0313fb0000f123db
:0313fc0000f12ecf
:0313fd0000f139c3
:0313fe0000f144b7
:0313ff0000f14fab
:0314000000f15a9e
:0314010000f16691
:0314020000f17185
:0314030000f17c79
:0314040000f1876d
:0314050000f19261
:0314060000f19d55
:0314070000f1a849
:0314080000f1b33d
:0314090000f1be31
:03140a0000f1c925
:03140b0000f1d419
:03140c0000f1df0d
:03140d0000f1ea01
:03140e0000f1f6f4
:03140f0000f201e7
:0314100000f20cdb
:0314110000f217cf
:0314120000f222c3
:0314130000f22db7
:0314140000f238ab
:0314150000f2439f
:0314160000f24e93
:0314170000f25987
:0314180000f2647b
:0314190000f26f6f
:03141a0000f27a63
:03141b0000f28557
:03141c0000f2914a
:03141d0000f29c3e
:03141e0000f2a732
:03141f0000f2b226
:0314200000f2bd1a
:0314210000f2c80e
:0314220000f2d302
:0314230000f2def6
:0314240000f2e9ea
:0314250000f2f4de
:0314260000f2ffd2
:0314270000f30ac5
:0314280000f315b9
:0314290000f320ad
:03142a0000f32ba1
:03142b0000f33695
:03142c0000f34288
:03142d0000f34d7c
:03142e0000f35870
:03142f0000f36364
:0314300000f36e58
:0314310000f3794c
:0314320000f38440
:0314330000f38f34
:0314340000f39a28
:0314350000f3a51c
:0314360000f3b010
:0314370000f3bb04
:0314380000f3c6f8
:0314390000f3d1ec
:03143a0000f3dce0
:03143b0000f3e7d4
:03143c0000f3f2c8
:03143d0000f3fdbc
:03143e0000f408af
:03143f0000f414a2
:0314400000f41f96
:0314410000f42a8a
:0314420000f4357e
:0314430000f44072
:0314440000f44b66
:0314450000f4565a
:0314460000f4614e
:0314470000f46c42
:0314480000f47736
:0314490000f4822a
:03144a0000f48d1e
:03144b0000f49812
:03144c0000f4a306
:03144d0000f4aefa
:03144e0000f4b9ee
:03144f0000f4c4e2
:0314500000f4cfd6
:0314510000f4daca
:0314520000f4e5be
:0314530000f4f0b2
:0314540000f4fba6
:0314550000f50699
:0314560000f5118d
:0314570000f51c81
:0314580000f52775
:0314590000f53368
:03145a0000f53e5c
:03145b0000f54950
:03145c0000f55444
:03145d0000f55f38
:03145e0000f56a2c
:03145f0000f57520
:0314600000f58014
:0314610000f58b08
:0314620000f596fc
:0314630000f5a1f0
:0314640000f5ace4
:0314650000f5b7d8
:0314660000f5c2cc
:0314670000f5cdc0
:0314680000f5d8b4
:0314690000f5e3a8
:03146a0000f5ee9c
:03146b0000f5f990
:03146c0000f60483
:03146d0000f60f77
:03146e0000f61a6b
:03146f0000f6255f
:0314700000f63053
:0314710000f63b47
:0314720000f6463b
:0314730000f6512f
:0314740000f65c23
:0314750000f66717
:0314760000f6720b
:0314770000f67dff
:0314780000f688f3
:0314790000f693e7
:03147a0000f69edb
:03147b0000f6a9cf
:03147c0000f6b4c3
:03147d0000f6bfb7
:03147e0000f6caab
:03147f0000f6d59f
:0314800000f6e093
:0314810000f6eb87
:0314820000f6f67b
:0314830000f7016e
:0314840000f70c62
:0314850000f71756
:0314860000f7224a
:0314870000f72d3e
:0314880000f73832
:0314890000f74326
:03148a0000f74e1a
:03148b0000f7590e
:03148c0000f76402
:03148d0000f76ff6
:03148e0000f77aea
:03148f0000f785de
:0314900000f790d2
:0314910000f79bc6
:0314920000f7a6ba
:0314930000f7b1ae
:0314940000f7bca2
:0314950000f7c796
:0314960000f7d28a
:0314970000f7dd7e
:0314980000f7e872
:0314990000f7f366
:03149a0000f7fe5a
:03149b0000f8094d
:03149c0000f81441
:03149d0000f81f35
:03149e0000f82a29
:03149f0000f8351d
:0314a00000f84011
:0314a10000f84b05
:0314a20000f856f9
:0314a30000f861ed
:0314a40000f86ce1
:0314a50000f877d5
:0314a60000f882c9
:0314a70000f88dbd
:0314a80000f898b1
:0314a90000f8a3a5
:0314aa0000f8ae99
:0314ab0000f8b98d
:0314ac0000f8c481
:0314ad0000f8cf75
:0314ae0000f8da69
:0314af0000f8e55d
:0314b00000f8f051
:0314b10000f8fb45
:0314b20000f90638
:0314b30000f9112c
:0314b40000f91c20
:0314b50000f92714
:0314b60000f93208
:0314b70000f93dfc
:0314b80000f948f0
:0314b90000f953e4
:0314ba0000f95ed8
:0314bb0000f969cc
:0314bc0000f974c0
:0314bd0000f97fb4
:0314be0000f98aa8
:0314bf0000f9959c
:0314c00000f9a090
:0314c10000f9ab84
:0314c20000f9b678
:0314c30000f9c16c
:0314c40000f9cc60
:0314c50000f9d754
:0314c60000f9e248
:0314c70000f9ec3d
:0314c80000f9f731
:0314c90000fa0224
:0314ca0000fa0d18
:0314cb0000fa180c
:0314cc0000fa2300
:0314cd0000fa2ef4
:0314ce0000fa39e8
:0314cf0000fa44dc
:0314d00000fa4fd0
:0314d10000fa5ac4
:0314d20000fa65b8
:0314d30000fa70ac
:0314d40000fa7ba0
:0314d50000fa8694
:0314d60000fa9188
:0314d70000fa9c7c
:0314d80000faa770
:0314d90000fab264
:0314da0000fabd58
:0314db0000fac84c
:0314dc0000fad340
:0314dd0000fade34
:0314de0000fae928
:0314df0000faf41c
:0314e00000fafe11
:0314e10000fb0904
:0314e20000fb14f8
:0314e30000fb1fec
:0314e40000fb2ae0
:0314e50000fb35d4
:0314e60000fb40c8
:0314e70000fb4bbc
:0314e80000fb56b0
:0314e90000fb61a4
:0314ea0000fb6c98
:0314eb0000fb778c
:0314ec0000fb8280
:0314ed0000fb8d74
:0314ee0000fb9868
:0314ef0000fba35c
:0314f00000fbae50
:0314f10000fbb944
:0314f20000fbc438
:0314f30000fbce2d
:0314f40000fbd921
:0314f50000fbe415
:0314f60000fbef09
:0314f70000fbfafd
:0314f80000fc05f0
:0314f90000fc10e4
:0314fa0000fc1bd8
:0314fb0000fc26cc
:0314fc0000fc31c0
:0314fd0000fc3cb4
:0314fe0000fc47a8
:0314ff0000fc529c
:0315000000fc5d8f
:0315010000fc6883
:0315020000fc7377
:0315030000fc7d6c
:0315040000fc8860
:0315050000fc9354
:0315060000fc9e48
:0315070000fca93c
:0315080000fcb430
:0315090000fcbf24
:03150a0000fcca18
:03150b0000fcd50c
:03150c0000fce000
:03150d0000fcebf4
:03150e0000fcf6e8
:03150f0000fd01db
:0315100000fd0ccf
:0315110000fd16c4
:0315120000fd21b8
:0315130000fd2cac
:0315140000fd37a0
:0315150000fd4294
:0315160000fd4d88
:0315170000fd587c
:0315180000fd6370
:0315190000fd6e64
:03151a0000fd7958
:03151b0000fd844c
:03151c0000fd8f40
:03151d0000fd9935
:03151e0000fda429
:03151f0000fdaf1d
:0315200000fdba11
:0315210000fdc505
:0315220000fdd0f9
:0315230000fddbed
:0315240000fde6e1
:0315250000fdf1d5
:0315260000fdfcc9
:0315270000fe07bc
:0315280000fe12b0
:0315290000fe1ca5
:03152a0000fe2799
:03152b0000fe328d
:03152c0000fe3d81
:03152d0000fe4875
:03152e0000fe5369
:03152f0000fe5e5d
:0315300000fe6951
:0315310000fe7445
:0315320000fe7f39
:0315330000fe8a2d
:0315340000fe9422
:0315350000fe9f16
:0315360000feaa0a
:0315370000feb5fe
:0315380000fec0f2
:0315390000fecbe6
:03153a0000fed6da
:03153b0000fee1ce
:03153c0000feecc2
:03153d0000fef7b6
:03153e0000ff01aa
:03153f0000ff0c9e
:0315400000ff1792
:0315410000ff2286
:0315420000ff2d7a
:0315430000ff386e
:0315440000ff4362
:0315450000ff4e56
:0315460000ff594a
:0315470000ff633f
:0315480000ff6e33
:0315490000ff7927
:03154a0000ff841b
:03154b0000ff8f0f
:03154c0000ff9a03
:03154d0000ffa5f7
:03154e0000ffb0eb
:03154f0000ffbbdf
:0315500000ffc5d4
:0315510000ffd0c8
:0315520000ffdbbc
:0315530000ffe6b0
:0315540000fff1a4
:0315550000fffc98
:031556000100078a
:031557000100127e
:0315580001001d72
:0315590001002767
:03155a000100325b
:03155b0001003d4f
:03155c0001004843
:03155d0001005337
:03155e0001005e2b
:03155f000100691f
:0315600001007413
:0315610001007e08
:03156200010089fc
:03156300010094f0
:0315640001009fe4
:031565000100aad8
:031566000100b5cc
:031567000100c0c0
:031568000100cbb4
:031569000100d5a9
:03156a000100e09d
:03156b000100eb91
:03156c000100f685
:03156d0001010178
:03156e0001010c6c
:03156f0001011760
:0315700001012155
:0315710001012c49
:031572000101373d
:0315730001014231
:0315740001014d25
:0315750001015819
:031576000101630d
:0315770001016e01
:03157800010178f6
:03157900010183ea
:03157a0001018ede
:03157b00010199d2
:03157c000101a4c6
:03157d000101afba
:03157e000101baae
:03157f000101c4a3
:031580000101cf97
:031581000101da8b
:031582000101e57f
:031583000101f073
:031584000101fb67
:031585000102065a
:031586000102104f
:0315870001021b43
:0315880001022637
:031589000102312b
:03158a0001023c1f
:03158b0001024713
:03158c0001025207
:03158d0001025cfc
:03158e00010267f0
:03158f00010272e4
:0315900001027dd8
:03159100010288cc
:03159200010293c0
:0315930001029db5
:031594000102a8a9
:031595000102b39d
:031596000102be91
:031597000102c985
:031598000102d479
:031599000102df6d
:03159a000102e962
:03159b000102f456
:03159c000102ff4a
:03159d0001030a3d
:03159e0001031531
:03159f0001032025
:0315a00001032a1a
:0315a1000103350e
:0315a20001034002
:0315a30001034bf6
:0315a400010356ea
:0315a500010361de
:0315a60001036bd3
:0315a700010376c7
:0315a800010381bb
:0315a90001038caf
:0315aa00010397a3
:0315ab000103a297
:0315ac000103ac8c
:0315ad000103b780
:0315ae000103c274
:0315af000103cd68
:0315b0000103d85c
:0315b1000103e350
:0315b2000103ed45
:0315b3000103f839
:0315b4000104032c
:0315b50001040e20
:0315b60001041914
:0315b70001042309
:0315b80001042efd
:0315b900010439f1
:0315ba00010444e5
:0315bb0001044fd9
:0315bc0001045acd
:0315bd00010464c2
:0315be0001046fb6
:0315bf0001047aaa
:0315c0000104859e
:0315c10001049092
:0315c20001049b86
:0315c3000104a57b
:0315c4000104b06f
:0315c5000104bb63
:0315c6000104c657
:0315c7000104d14b
:0315c8000104db40
:0315c9000104e634
:0315ca000104f128
:0315cb000104fc1c
:0315cc000105070f
:0315cd0001051104
:0315ce0001051cf8
:0315cf00010527ec
:0315d000010532e0
:0315d10001053dd4
:0315d200010547c9
:0315d300010552bd
:0315d40001055db1
:0315d500010568a5
:0315d60001057399
:0315d70001057e8d
:0315d80001058882
:0315d90001059376
:0315da0001059e6a
:0315db000105a95e
:0315dc000105b452
:0315dd000105be47
:0315de000105c93b
:0315df000105d42f
:0315e0000105df23
:0315e1000105ea17
:0315e2000105f40c
:0315e3000105ff00
:0315e40001060af3
:0315e500010615e7
:0315e600010620db
:0315e70001062ad0
:0315e800010635c4
:0315e900010640b8
:0315ea0001064bac
:0315eb00010655a1
:0315ec0001066095
:0315ed0001066b89
:0315ee000106767d
:0315ef0001068171
:0315f00001068b66
:0315f1000106965a
:0315f2000106a14e
:0315f3000106ac42
:0315f4000106b736
:0315f5000106c12b
:0315f6000106cc1f
:0315f7000106d713
:0315f8000106e207
:0315f9000106ecfc
:0315fa000106f7f0
:0315fb00010702e3
:0315fc0001070dd7
:0315fd00010718cb
:0315fe00010722c0
:0315ff0001072db4
:03160000010738a7
:031601000107439b
:0316020001074e8f
:0316030001075884
:0316040001076378
:0316050001076e6c
:0316060001077960
:0316070001078355
:0316080001078e49
:031609000107993d
:03160a000107a431
:03160b000107ae26
:03160c000107b91a
:03160d000107c40e
:03160e000107cf02
:03160f000107daf6
:031610000107e4eb
:031611000107efdf
:031612000107fad3
:03161300010805c6
:0316140001080fbb
:0316150001081aaf
:03161600010825a3
:0316170001083097
:0316180001083a8c
:0316190001084580
:03161a0001085074
:03161b0001085b68
:03161c000108665c
:03161d0001087051
:03161e0001087b45
:03161f0001088639
:031620000108912d
:0316210001089b22
:031622000108a616
:031623000108b10a
:031624000108bcfe
:031625000108c6f3
:031626000108d1e7
:031627000108dcdb
:031628000108e7cf
:031629000108f1c4
:03162a000108fcb8
:03162b00010907ab
:03162c000109129f
:03162d0001091c94
:03162e0001092788
:03162f000109327c
:0316300001093d70
:0316310001094765
:0316320001095259
:0316330001095d4d
:0316340001096841
:0316350001097236
:0316360001097d2a
:031637000109881e
:0316380001099312
:0316390001099d07
:03163a000109a8fb
:03163b000109b3ef
:03163c000109bee3
:03163d000109c8d8
:03163e000109d3cc
:03163f000109dec0
:031640000109e9b4
:031641000109f3a9
:031642000109fe9d
:03164300010a0990
:03164400010a1385
:03164500010a1e79
:03164600010a296d
:03164700010a3461
:03164800010a3e56
:03164900010a494a
:03164a00010a543e
:03164b00010a5f32
:03164c00010a6927
:03164d00010a741b
:03164e00010a7f0f
:03164f00010a8a03
:03165000010a94f8
:03165100010a9fec
:03165200010aaae0
:03165300010ab4d5
:03165400010abfc9
:03165500010acabd
:03165600010ad5b1
:03165700010adfa6
:03165800010aea9a
:03165900010af58e
:03165a00010b0081
:03165b00010b0a76
:03165c00010b156a
:03165d00010b205e
:03165e00010b2a53
:03165f00010b3547
:03166000010b403b
:03166100010b4b2f
:03166200010b5524
:03166300010b6018
:03166400010b6b0c
:03166500010b7501
:03166600010b80f5
:03166700010b8be9
:03166800010b96dd
:03166900010ba0d2
:03166a00010babc6
:03166b00010bb6ba
:03166c00010bc0af
:03166d00010bcba3
:03166e00010bd697
:03166f00010be18b
:03167000010beb80
:03167100010bf674
:03167200010c0167
:03167300010c0b5c
:03167400010c1650
:03167500010c2144
:03167600010c2b39
:03167700010c362d
:03167800010c4121
:03167900010c4c15
:03167a00010c560a
:03167b00010c61fe
:03167c00010c6cf2
:03167d00010c76e7
:03167e00010c81db
:03167f00010c8ccf
:03168000010c96c4
:03168100010ca1b8
:03168200010cacac
:03168300010cb7a0
:03168400010cc195
:03168500010ccc89
:03168600010cd77d
:03168700010ce172
:03168800010cec66
:03168900010cf75a
:03168a00010d014e
:03168b00010d0c42
:03168c00010d1736
:03168d00010d222a
:03168e00010d2c1f
:03168f00010d3713
:03169000010d4207
:03169100010d4cfc
:03169200010d57f0
:03169300010d62e4
:03169400010d6cd9
:03169500010d77cd
:03169600010d82c1
:03169700010d8cb6
:03169800010d97aa
:03169900010da29e
:03169a00010dac93
:03169b00010db787
:03169c00010dc27b
:03169d00010dcc70
:03169e00010dd764
:03169f00010de258
:0316a000010ded4c
:0316a100010df741
:0316a200010e0234
:0316a300010e0d28
:0316a400010e171d
:0316a500010e2211
:0316a600010e2d05
:0316a700010e37fa
:0316a800010e42ee
:0316a900010e4de2
:0316aa00010e57d7
:0316ab00010e62cb
:0316ac00010e6dbf
:0316ad00010e77b4
:0316ae00010e82a8
:0316af00010e8d9c
:0316b000010e9791
:0316b100010ea285
:0316b200010ead79
:0316b300010eb76e
:0316b400010ec262
:0316b500010ecd56
:0316b600010ed74b
:0316b700010ee23f
:0316b800010eed33
:0316b900010ef728
:0316ba00010f021b
:0316bb00010f0d0f
:0316bc00010f1704
:0316bd00010f22f8
:0316be00010f2dec
:0316bf00010f37e1
:0316c000010f42d5
:0316c100010f4dc9
:0316c200010f57be
:0316c300010f62b2
:0316c400010f6da6
:0316c500010f779b
:0316c600010f828f
:0316c700010f8c84
:0316c800010f9778
:0316c900010fa26c
:0316ca00010fac61
:0316cb00010fb755
:0316cc00010fc249
:0316cd00010fcc3e
:0316ce00010fd732
:0316cf00010fe226
:0316d000010fec1b
:0316d100010ff70f
:0316d20001100202
:0316d30001100cf7
:0316d400011017eb
:0316d500011022df
:0316d60001102cd4
:0316d700011037c8
:0316d800011041bd
:0316d90001104cb1
:0316da00011057a5
:0316db000110619a
:0316dc0001106c8e
:0316dd0001107782
:0316de0001108177
:0316df0001108c6b
:0316e0000110975f
:0316e1000110a154
:0316e2000110ac48
:0316e3000110b73c
:0316e4000110c131
:0316e5000110cc25
:0316e6000110d61a
:0316e7000110e10e
:0316e8000110ec02
:0316e9000110f6f7
:0316ea00011101ea
:0316eb0001110cde
:0316ec00011116d3
:0316ed00011121c7
:0316ee0001112bbc
:0316ef00011136b0
:0316f000011141a4
:0316f10001114b99
:0316f2000111568d
:0316f30001116181
:0316f40001116b76
:0316f5000111766a
:0316f6000111805f
:0316f70001118b53
:0316f80001119647
:0316f9000111a03c
:0316fa000111ab30
:0316fb000111b624
:0316fc000111c019
:0316fd000111cb0d
:0316fe000111d502
:0316ff000111e0f6
:031700000111ebe9
:031701000111f5de
:03170200011200d1
:0317030001120bc5
:03170400011215ba
:03170500011220ae
:0317060001122aa3
:0317070001123597
:031708000112408b
:0317090001124a80
:03170a0001125574
:03170b0001125f69
:03170c0001126a5d
:03170d0001127551
:03170e0001127f46
:03170f0001128a3a
:031710000112942f
:0317110001129f23
:031712000112aa17
:031713000112b40c
:031714000112bf00
:031715000112c9f5
:031716000112d4e9
:031717000112dfdd
:031718000112e9d2
:031719000112f4c6
:03171a000112febb
:03171b00011309ae
:03171c00011314a2
:03171d0001131e97
:03171e000113298b
:03171f0001133380
:0317200001133e74
:0317210001134968
:031722000113535d
:0317230001135e51
:0317240001136846
:031725000113733a
:0317260001137e2e
:0317270001138823
:0317280001139317
:0317290001139d0c
:03172a000113a800
:03172b000113b3f4
:03172c000113bde9
:03172d000113c8dd
:03172e000113d2d2
:03172f000113ddc6
:031730000113e8ba
:031731000113f2af
:031732000113fda3
:0317330001140797
:031734000114128b
:0317350001141c80
:0317360001142774
:0317370001143268
:0317380001143c5d
:0317390001144751
:03173a0001145146
:03173b0001145c3a
:03173c000114672e
:03173d0001147123
:03173e0001147c17
:03173f000114860c
:0317400001149100
:0317410001149bf5
:031742000114a6e9
:031743000114b1dd
:031744000114bbd2
:031745000114c6c6
:031746000114d0bb
:031747000114dbaf
:031748000114e5a4
:031749000114f098
:03174a000114fb8c
:03174b0001150580
:03174c0001151074
:03174d0001151a69
:03174e000115255d
:03174f0001152f52
:0317500001153a46
:031751000115443b
:0317520001154f2f
:0317530001155a23
:0317540001156418
:0317550001156f0c
:0317560001157901
:03175700011584f5
:0317580001158eea
:03175900011599de
:03175a000115a4d2
:03175b000115aec7
:03175c000115b9bb
:03175d000115c3b0
:03175e000115cea4
:03175f000115d899
:031760000115e38d
:031761000115ed82
:031762000115f876
:0317630001160369
:0317640001160d5e
:0317650001161852
:0317660001162247
:0317670001162d3b
:0317680001163730
:0317690001164224
:03176a0001164c19
:03176b000116570d
:03176c0001166102
:03176d0001166cf6
:03176e00011677ea
:03176f00011681df
:0317700001168cd3
:03177100011696c8
:031772000116a1bc
:031773000116abb1
:031774000116b6a5
:031775000116c09a
:031776000116cb8e
:031777000116d583
:031778000116e077
:031779000116eb6b
:03177a000116f560
:03177b0001170053
:03177c0001170a48
:03177d000117153c
:03177e0001171f31
:03177f0001172a25
:031780000117341a
:0317810001173f0e
:0317820001174903
:03178300011754f7
:0317840001175eec
:03178500011769e0
:03178600011773d5
:0317870001177ec9
:03178800011789bd
:03178900011793b2
:03178a0001179ea6
:03178b000117a89b
:03178c000117b38f
:03178d000117bd84
:03178e000117c878
:03178f000117d26d
:031790000117dd61
:031791000117e756
:031792000117f24a
:031793000117fc3f
:0317940001180732
:0317950001181127
:0317960001181c1b
:0317970001182610
:0317980001183104
:0317990001183bf9
:03179a00011846ed
:03179b00011850e2
:03179c0001185bd6
:03179d00011865cb
:03179e00011870bf
:03179f0001187bb3
:0317a000011885a8
:0317a1000118909c
:0317a20001189a91
:0317a3000118a585
:0317a4000118af7a
:0317a5000118ba6e
:0317a6000118c463
:0317a7000118cf57
:0317a8000118d94c
:0317a9000118e440
:0317aa000118ee35
:0317ab000118f929
:0317ac000119031d
:0317ad0001190e11
:0317ae0001191806
:0317af00011923fa
:0317b00001192def
:0317b100011938e3
:0317b200011942d8
:0317b30001194dcc
:0317b400011957c1
:0317b500011962b5
:0317b60001196caa
:0317b7000119779e
:0317b80001198193
:0317b90001198c87
:0317ba000119967c
:0317bb000119a170
:0317bc000119ab65
:0317bd000119b659
:0317be000119c04e
:0317bf000119cb42
:0317c0000119d537
:0317c1000119e02b
:0317c2000119ea20
:0317c3000119f514
:0317c4000119ff09
:0317c500011a0afc
:0317c600011a14f1
:0317c700011a1ee6
:0317c800011a29da
:0317c900011a33cf
:0317ca00011a3ec3
:0317cb00011a48b8
:0317cc00011a53ac
:0317cd00011a5da1
:0317ce00011a6895
:0317cf00011a728a
:0317d000011a7d7e
:0317d100011a8773
:0317d200011a9267
:0317d300011a9c5c
:0317d400011aa750
:0317d500011ab145
:0317d600011abc39
:0317d700011ac62e
:0317d800011ad122
:0317d900011adb17
:0317da00011ae60b
:0317db00011af000
:0317dc00011afbf4
:0317dd00011b05e8
:0317de00011b10dc
:0317df00011b1ad1
:0317e000011b24c6
:0317e100011b2fba
:0317e200011b39af
:0317e300011b44a3
:0317e400011b4e98
:0317e500011b598c
:0317e600011b6381
:0317e700011b6e75
:0317e800011b786a
:0317e900011b835e
:0317ea00011b8d53
:0317eb00011b9847
:0317ec00011ba23c
:0317ed00011bad30
:0317ee00011bb725
:0317ef00011bc11a
:0317f000011bcc0e
:0317f100011bd603
:0317f200011be1f7
:0317f300011bebec
:0317f400011bf6e0
:0317f500011c00d4
:0317f600011c0bc8
:0317f700011c15bd
:0317f800011c20b1
:0317f900011c2aa6
:0317fa00011c349b
:0317fb00011c3f8f
:0317fc00011c4984
:0317fd00011c5478
:0317fe00011c5e6d
:0317ff00011c6961
:03180000011c7355
:03180100011c7e49
:03180200011c883e
:03180300011c9233
:03180400011c9d27
:03180500011ca71c
:03180600011cb210
:03180700011cbc05
:03180800011cc7f9
:03180900011cd1ee
:03180a00011cdce2
:03180b00011ce6d7
:03180c00011cf0cc
:03180d00011cfbc0
:03180e00011d05b4
:03180f00011d10a8
:03181000011d1a9d
:03181100011d2591
:03181200011d2f86
:03181300011d3a7a
:03181400011d446f
:03181500011d4e64
:03181600011d5958
:03181700011d634d
:03181800011d6e41
:03181900011d7836
:03181a00011d832a
:03181b00011d8d1f
:03181c00011d9714
:03181d00011da208
:03181e00011dacfd
:03181f00011db7f1
:03182000011dc1e6
:03182100011dccda
:03182200011dd6cf
:03182300011de0c4
:03182400011debb8
:03182500011df5ad
:03182600011e00a0
:03182700011e0a95
:03182800011e1589
:03182900011e1f7e
:03182a00011e2973
:03182b00011e3467
:03182c00011e3e5c
:03182d00011e4950
:03182e00011e5345
:03182f00011e5d3a
:03183000011e682e
:03183100011e7223
:03183200011e7d17
:03183300011e870c
:03183400011e9200
:03183500011e9cf5
:03183600011ea6ea
:03183700011eb1de
:03183800011ebbd3
:03183900011ec6c7
:03183a00011ed0bc
:03183b00011edab1
:03183c00011ee5a5
:03183d00011eef9a
:03183e00011efa8e
:03183f00011f0482
:03184000011f0e77
:03184100011f196b
:03184200011f2360
:03184300011f2e54
:03184400011f3849
:03184500011f423e
:03184600011f4d32
:03184700011f5727
:03184800011f621b
:03184900011f6c10
:03184a00011f7605
:03184b00011f81f9
:03184c00011f8bee
:03184d00011f96e2
:03184e00011fa0d7
:03184f00011faacc
:03185000011fb5c0
:03185100011fbfb5
:03185200011fcaa9
:03185300011fd49e
:03185400011fde93
:03185500011fe987
:03185600011ff37c
:03185700011ffe70
:0318580001200864
:0318590001201259
:03185a0001201d4d
:03185b0001202742
:03185c0001203236
:03185d0001203c2b
:03185e0001204620
:03185f0001205114
:0318600001205b09
:03186100012065fe
:03186200012070f2
:0318630001207ae7
:03186400012085db
:0318650001208fd0
:03186600012099c5
:031867000120a4b9
:031868000120aeae
:031869000120b9a2
:03186a000120c397
:03186b000120cd8c
:03186c000120d880
:03186d000120e275
:03186e000120ec6a
:03186f000120f75e
:0318700001210152
:0318710001210c46
:031872000121163b
:0318730001212030
:0318740001212b24
:0318750001213519
:0318760001213f0e
:0318770001214a02
:03187800012154f7
:0318790001215eec
:03187a00012169e0
:03187b00012173d5
:03187c0001217ec9
:03187d00012188be
:03187e00012192b3
:03187f0001219da7
:031880000121a79c
:031881000121b191
:031882000121bc85
:031883000121c67a
:031884000121d06f
:031885000121db63
:031886000121e558
:031887000121f04c
:031888000121fa41
:0318890001220435
:03188a0001220f29
:03188b000122191e
:03188c0001222313
:03188d0001222e07
:03188e00012238fc
:03188f00012242f1
:0318900001224de5
:03189100012257da
:03189200012261cf
:0318930001226cc3
:03189400012276b8
:03189500012280ad
:0318960001228ba1
:0318970001229596
:031898000122a08a
:031899000122aa7f
:03189a000122b474
:03189b000122bf68
:03189c000122c95d
:03189d000122d352
:03189e000122de46
:03189f000122e83b
:0318a0000122f230
:0318a1000122fd24
:0318a20001230718
:0318a3000123110d
:0318a40001231c01
:0318a500012326f6
:0318a600012330eb
:0318a70001233bdf
:0318a800012345d4
:0318a90001234fc9
:0318aa0001235abd
:0318ab00012364b2
:0318ac0001236ea7
:0318ad000123799b
:0318ae0001238390
:0318af0001238d85
:0318b00001239879
:0318b1000123a26e
:0318b2000123ac63
:0318b3000123b757
:0318b4000123c14c
:0318b5000123cb41
:0318b6000123d635
:0318b7000123e02a
:0318b8000123ea1f
:0318b9000123f513
:0318ba000123ff08
:0318bb00012409fc
:0318bc00012414f0
:0318bd0001241ee5
:0318be00012428da
:0318bf00012432cf
:0318c00001243dc3
:0318c100012447b8
:0318c200012451ad
:0318c30001245ca1
:0318c40001246696
:0318c5000124708b
:0318c60001247b7f
:0318c70001248574
:0318c80001248f69
:0318c90001249a5d
:0318ca000124a452
:0318cb000124ae47
:0318cc000124b93b
:0318cd000124c330
:0318ce000124cd25
:0318cf000124d71a
:0318d0000124e20e
:0318d1000124ec03
:0318d2000124f6f8
:0318d300012501eb
:0318d40001250be0
:0318d500012515d5
:0318d600012520c9
:0318d70001252abe
:0318d800012534b3
:0318d90001253fa7
:0318da000125499c
:0318db0001255391
:0318dc0001255d86
:0318dd000125687a
:0318de000125726f
:0318df0001257c64
:0318e00001258758
:0318e1000125914d
:0318e20001259b42
:0318e3000125a636
:0318e4000125b02b
:0318e5000125ba20
:0318e6000125c415
:0318e7000125cf09
:0318e8000125d9fe
:0318e9000125e3f3
:0318ea000125eee7
:0318eb000125f8dc
:0318ec00012602d0
:0318ed0001260cc5
:0318ee00012617b9
:0318ef00012621ae
:0318f00001262ba3
:0318f10001263697
:0318f2000126408c
:0318f30001264a81
:0318f40001265476
:0318f50001265f6a
:0318f6000126695f
:0318f70001267354
:0318f80001267e48
:0318f9000126883d
:0318fa0001269232
:0318fb0001269c27
:0318fc000126a71b
:0318fd000126b110
:0318fe000126bb05
:0318ff000126c5fa
:031900000126d0ed
:031901000126dae2
:031902000126e4d7
:031903000126efcb
:031904000126f9c0
:03190500012703b4
:0319060001270da9
:031907000127189d
:0319080001272292
:0319090001272c87
:03190a000127367c
:03190b0001274170
:03190c0001274b65
:03190d000127555a
:03190e000127604e
:03190f0001276a43
:0319100001277438
:0319110001277e2d
:0319120001278921
:0319130001279316
:0319140001279d0b
:031915000127a700
:031916000127b2f4
:031917000127bce9
:031918000127c6de
:031919000127d0d3
:03191a000127dbc7
:03191b000127e5bc
:03191c000127efb1
:03191d000127f9a6
:03191e0001280499
:03191f0001280e8e
:0319200001281883
:0319210001282278
:0319220001282d6c
:0319230001283761
:0319240001284156
:0319250001284b4b
:031926000128563f
:0319270001286034
:0319280001286a29
:031929000128741e
:03192a0001287f12
:03192b0001288907
:03192c00012893fc
:03192d0001289df1
:03192e000128a8e5
:03192f000128b2da
:031930000128bccf
:031931000128c6c4
:031932000128d1b8
:031933000128dbad
:031934000128e5a2
:031935000128ef97
:031936000128fa8b
:031937000129047f
:0319380001290e74
:0319390001291869
:03193a000129225e
:03193b0001292d52
:03193c0001293747
:03193d000129413c
:03193e0001294b31
:03193f0001295625
:031940000129601a
:0319410001296a0f
:0319420001297404
:0319430001297ff8
:03194400012989ed
:03194500012993e2
:0319460001299dd7
:031947000129a7cc
:031948000129b2c0
:031949000129bcb5
:03194a000129c6aa
:03194b000129d09f
:03194c000129db93
:03194d000129e588
:03194e000129ef7d
:03194f000129f972
:03195000012a0366
:03195100012a0e5a
:03195200012a184f
:03195300012a2244
:03195400012a2c39
:03195500012a372d
:03195600012a4122
:03195700012a4b17
:03195800012a550c
:03195900012a5f01
:03195a00012a6af5
:03195b00012a74ea
:03195c00012a7edf
:03195d00012a88d4
:03195e00012a92c9
:03195f00012a9dbd
:03196000012aa7b2
:03196100012ab1a7
:03196200012abb9c
:03196300012ac591
:03196400012ad085
:03196500012ada7a
:03196600012ae46f
:03196700012aee64
:03196800012af859
:03196900012b034c
:03196a00012b0d41
:03196b00012b1736
:03196c00012b212b
:03196d00012b2b20
:03196e00012b3614
:03196f00012b4009
:03197000012b4afe
:03197100012b54f3
:03197200012b5ee8
:03197300012b69dc
:03197400012b73d1
:03197500012b7dc6
:03197600012b87bb
:03197700012b91b0
:03197800012b9ca4
:03197900012ba699
:03197a00012bb08e
:03197b00012bba83
:03197c00012bc478
:03197d00012bcf6c
:03197e00012bd961
:03197f00012be356
:03198000012bed4b
:03198100012bf740
:03198200012c0134
:03198300012c0c28
:03198400012c161d
:03198500012c2012
:03198600012c2a07
:03198700012c34fc
:03198800012c3ff0
:03198900012c49e5
:03198a00012c53da
:03198b00012c5dcf
:03198c00012c67c4
:03198d00012c71b9
:03198e00012c7cad
:03198f00012c86a2
:03199000012c9097
:03199100012c9a8c
:03199200012ca481
:03199300012cae76
:03199400012cb96a
:03199500012cc35f
:03199600012ccd54
:03199700012cd749
:03199800012ce13e
:03199900012cec32
:03199a00012cf627
:03199b00012d001b
:03199c00012d0a10
:03199d00012d1405
:03199e00012d1efa
:03199f00012d28ef
:0319a000012d33e3
:0319a100012d3dd8
:0319a200012d47cd
:0319a300012d51c2
:0319a400012d5bb7
:0319a500012d65ac
:0319a600012d70a0
:0319a700012d7a95
:0319a800012d848a
:0319a900012d8e7f
:0319aa00012d9874
:0319ab00012da269
:0319ac00012dad5d
:0319ad00012db752
:0319ae00012dc147
:0319af00012dcb3c
:0319b000012dd531
:0319b100012ddf26
:0319b200012de91b
:0319b300012df40f
:0319b400012dfe04
:0319b500012e08f8
:0319b600012e12ed
:0319b700012e1ce2
:0319b800012e26d7
:0319b900012e30cc
:0319ba00012e3bc0
:0319bb00012e45b5
:0319bc00012e4faa
:0319bd00012e599f
:0319be00012e6394
:0319bf00012e6d89
:0319c000012e777e
:0319c100012e8272
:0319c200012e8c67
:0319c300012e965c
:0319c400012ea051
:0319c500012eaa46
:0319c600012eb43b
:0319c700012ebe30
:0319c800012ec924
:0319c900012ed319
:0319ca00012edd0e
:0319cb00012ee703
:0319cc00012ef1f8
:0319cd00012efbed
:0319ce00012f05e1
:0319cf00012f0fd6
:0319d000012f1aca
:0319d100012f24bf
:0319d200012f2eb4
:0319d300012f38a9
:0319d400012f429e
:0319d500012f4c93
:0319d600012f5688
:0319d700012f607d
:0319d800012f6b71
:0319d900012f7566
:0319da00012f7f5b
:0319db00012f8950
:0319dc00012f9345
:0319dd00012f9d3a
:0319de00012fa72f
:0319df00012fb124
:0319e000012fbc18
:0319e100012fc60d
:0319e200012fd002
:0319e300012fdaf7
:0319e400012fe4ec
:0319e500012feee1
:0319e600012ff8d6
:0319e700013002ca
:0319e80001300cbf
:0319e900013017b3
:0319ea00013021a8
:0319eb0001302b9d
:0319ec0001303592
:0319ed0001303f87
:0319ee000130497c
:0319ef0001305371
:0319f00001305d66
:0319f1000130675b
:0319f2000130724f
:0319f30001307c44
:0319f40001308639
:0319f5000130902e
:0319f60001309a23
:0319f7000130a418
:0319f8000130ae0d
:0319f9000130b802
:0319fa000130c2f7
:0319fb000130ccec
:0319fc000130d7e0
:0319fd000130e1d5
:0319fe000130ebca
:0319ff000130f5bf
:031a00000130ffb3
:031a0100013109a7
:031a02000131139c
:031a030001311d91
:031a040001312786
:031a05000131317b
:031a060001313b70
:031a070001314664
:031a080001315059
:031a090001315a4e
:031a0a0001316443
:031a0b0001316e38
:031a0c000131782d
:031a0d0001318222
:031a0e0001318c17
:031a0f000131960c
:031a10000131a001
:031a11000131aaf6
:031a12000131b4eb
:031a13000131bfdf
:031a14000131c9d4
:031a15000131d3c9
:031a16000131ddbe
:031a17000131e7b3
:031a18000131f1a8
:031a19000131fb9d
:031a1a0001320591
:031a1b0001320f86
:031a1c000132197b
:031a1d0001322370
:031a1e0001322d65
:031a1f000132375a
:031a20000132424e
:031a210001324c43
:031a220001325638
:031a23000132602d
:031a240001326a22
:031a250001327417
:031a260001327e0c
:031a270001328801
:031a2800013292f6
:031a290001329ceb
:031a2a000132a6e0
:031a2b000132b0d5
:031a2c000132baca
:031a2d000132c4bf
:031a2e000132ceb4
:031a2f000132d8a9
:031a30000132e39d
:031a31000132ed92
:031a32000132f787
:031a33000133017b
:031a340001330b70
:031a350001331565
:031a360001331f5a
:031a37000133294f
:031a380001333344
:031a390001333d39
:031a3a000133472e
:031a3b0001335123
:031a3c0001335b18
:031a3d000133650d
:031a3e0001336f02
:031a3f00013379f7
:031a4000013383ec
:031a410001338de1
:031a4200013397d6
:031a43000133a2ca
:031a44000133acbf
:031a45000133b6b4
:031a46000133c0a9
:031a47000133ca9e
:031a48000133d493
:031a49000133de88
:031a4a000133e87d
:031a4b000133f272
:031a4c000133fc67
:031a4d000134065b
:031a4e0001341050
:031a4f0001341a45
:031a50000134243a
:031a510001342e2f
:031a520001343824
:031a530001344219
:031a540001344c0e
:031a550001345603
:031a5600013460f8
:031a570001346aed
:031a5800013474e2
:031a590001347ed7
:031a5a00013488cc
:031a5b00013492c1
:031a5c0001349cb6
:031a5d000134a6ab
:031a5e000134b0a0
:031a5f000134bb94
:031a60000134c589
:031a61000134cf7e
:031a62000134d973
:031a63000134e368
:031a64000134ed5d
:031a65000134f752
:031a660001350146
:031a670001350b3b
:031a680001351530
:031a690001351f25
:031a6a000135291a
:031a6b000135330f
:031a6c0001353d04
:031a6d00013547f9
:031a6e00013551ee
:031a6f0001355be3
:031a7000013565d8
:031a710001356fcd
:031a7200013579c2
:031a7300013583b7
:031a740001358dac
:031a7500013597a1
:031a76000135a196
:031a77000135ab8b
:031a78000135b580
:031a79000135bf75
:031a7a000135c96a
:031a7b000135d35f
:031a7c000135dd54
:031a7d000135e749
:031a7e000135f13e
:031a7f000135fb33
:031a800001360527
:031a810001360f1c
:031a820001361911
:031a830001362306
:031a840001362dfb
:031a8500013637f0
:031a8600013641e5
:031a870001364bda
:031a8800013655cf
:031a890001365fc4
:031a8a00013669b9
:031a8b00013673ae
:031a8c0001367da3
:031a8d0001368798
:031a8e000136918d
:031a8f0001369b82
:031a90000136a577
:031a91000136af6c
:031a92000136b961
:031a93000136c356
:031a94000136cd4b
:031a95000136d740
:031a96000136e135
:031a97000136eb2a
:031a98000136f51f
:031a99000136ff14
:031a9a0001370908
:031a9b00013713fd
:031a9c0001371df2
:031a9d00013727e7
:031a9e00013731dc
:031a9f0001373bd1
:031aa000013745c6
:031aa10001374fbb
:031aa200013759b0
:031aa300013763a5
:031aa40001376c9b
:031aa50001377690
:031aa60001378085
:031aa70001378a7a
:031aa8000137946f
:031aa90001379e64
:031aaa000137a859
:031aab000137b24e
:031aac000137bc43
:031aad000137c638
:031aae000137d02d
:031aaf000137da22
:031ab0000137e417
:031ab1000137ee0c
:031ab2000137f801
:031ab300013802f5
:031ab40001380cea
:031ab500013816df
:031ab600013820d4
:031ab70001382ac9
:031ab800013834be
:031ab90001383eb3
:031aba00013848a8
:031abb000138529d
:031abc0001385c92
:031abd0001386687
:031abe000138707c
:031abf0001387a71
:031ac00001388367
:031ac10001388d5c
:031ac20001389751
:031ac3000138a146
:031ac4000138ab3b
:031ac5000138b530
:031ac6000138bf25
:031ac7000138c91a
:031ac8000138d30f
:031ac9000138dd04
:031aca000138e7f9
:031acb000138f1ee
:031acc000138fbe3
:031acd00013905d7
:031ace0001390fcc
:031acf00013919c1
:031ad000013923b6
:031ad10001392dab
:031ad200013937a0
:031ad30001394096
:031ad40001394a8b
:031ad50001395480
:031ad60001395e75
:031ad7000139686a
:031ad8000139725f
:031ad90001397c54
:031ada0001398649
:031adb000139903e
:031adc0001399a33
:031add000139a428
:031ade000139ae1d
:031adf000139b812
:031ae0000139c207
:031ae1000139ccfc
:031ae2000139d5f2
:031ae3000139dfe7
:031ae4000139e9dc
:031ae5000139f3d1
:031ae6000139fdc6
:031ae700013a07ba
:031ae800013a11af
:031ae900013a1ba4
:031aea00013a2599
:031aeb00013a2f8e
:031aec00013a3983
:031aed00013a4378
:031aee00013a4d6d
:031aef00013a5762
:031af000013a6058
:031af100013a6a4d
:031af200013a7442
:031af300013a7e37
:031af400013a882c
:031af500013a9221
:031af600013a9c16
:031af700013aa60b
:031af800013ab000
:031af900013abaf5
:031afa00013ac4ea
:031afb00013acde0
:031afc00013ad7d5
:031afd00013ae1ca
:031afe00013aebbf
:031aff00013af5b4
:031b0000013affa8
:031b0100013b099c
:031b0200013b1391
:031b0300013b1d86
:031b0400013b277b
:031b0500013b3170
:031b0600013b3a66
:031b0700013b445b
:031b0800013b4e50
:031b0900013b5845
:031b0a00013b623a
:031b0b00013b6c2f
:031b0c00013b7624
:031b0d00013b8019
:031b0e00013b8a0e
:031b0f00013b9403
:031b1000013b9df9
:031b1100013ba7ee
:031b1200013bb1e3
:031b1300013bbbd8
:031b1400013bc5cd
:031b1500013bcfc2
:031b1600013bd9b7
:031b1700013be3ac
:031b1800013beda1
:031b1900013bf697
:031b1a00013c008b
:031b1b00013c0a80
:031b1c00013c1475
:031b1d00013c1e6a
:031b1e00013c285f
:031b1f00013c3254
:031b2000013c3c49
:031b2100013c463e
:031b2200013c4f34
:031b2300013c5929
:031b2400013c631e
:031b2500013c6d13
:031b2600013c7708
:031b2700013c81fd
:031b2800013c8bf2
:031b2900013c95e7
:031b2a00013c9edd
:031b2b00013ca8d2
:031b2c00013cb2c7
:031b2d00013cbcbc
:031b2e00013cc6b1
:031b2f00013cd0a6
:031b3000013cda9b
:031b3100013ce490
:031b3200013ced86
:031b3300013cf77b
:031b3400013d016f
:031b3500013d0b64
:031b3600013d1559
:031b3700013d1f4e
:031b3800013d2943
:031b3900013d3239
:031b3a00013d3c2e
:031b3b00013d4623
:031b3c00013d5018
:031b3d00013d5a0d
:031b3e00013d6402
:031b3f00013d6ef7
:031b4000013d78ec
:031b4100013d81e2
:031b4200013d8bd7
:031b4300013d95cc
:031b4400013d9fc1
:031b4500013da9b6
:031b4600013db3ab
:031b4700013dbda0
:031b4800013dc696
:031b4900013dd08b
:031b4a00013dda80
:031b4b00013de475
:031b4c00013dee6a
:031b4d00013df85f
:031b4e00013e0154
:031b4f00013e0b49
:031b5000013e153e
:031b5100013e1f33
:031b5200013e2928
:031b5300013e331d
:031b5400013e3d12
:031b5500013e4608
:031b5600013e50fd
:031b5700013e5af2
:031b5800013e64e7
:031b5900013e6edc
:031b5a00013e78d1
:031b5b00013e81c7
:031b5c00013e8bbc
:031b5d00013e95b1
:031b5e00013e9fa6
:031b5f00013ea99b
:031b6000013eb390
:031b6100013ebc86
:031b6200013ec67b
:031b6300013ed070
:031b6400013eda65
:031b6500013ee45a
:031b6600013eee4f
:031b6700013ef745
:031b6800013f0139
:031b6900013f0b2e
:031b6a00013f1523
:031b6b00013f1f18
:031b6c00013f290d
:031b6d00013f3203
:031b6e00013f3cf8
:031b6f00013f46ed
:031b7000013f50e2
:031b7100013f5ad7
:031b7200013f64cc
:031b7300013f6dc2
:031b7400013f77b7
:031b7500013f81ac
:031b7600013f8ba1
:031b7700013f9596
:031b7800013f9e8c
:031b7900013fa881
:031b7a00013fb276
:031b7b00013fbc6b
:031b7c00013fc660
:031b7d00013fd055
:031b7e00013fd94b
:031b7f00013fe340
:031b8000013fed35
:031b8100013ff72a
:031b82000140011e
:031b830001400a14
:031b840001401409
:031b850001401efe
:031b8600014028f3
:031b8700014032e8
:031b880001403bde
:031b8900014045d3
:031b8a0001404fc8
:031b8b00014059bd
:031b8c00014063b2
:031b8d0001406ca8
:031b8e000140769d
:031b8f0001408092
:031b900001408a87
:031b91000140947c
:031b920001409d72
:031b93000140a767
:031b94000140b15c
:031b95000140bb51
:031b96000140c546
:031b97000140ce3c
:031b98000140d831
:031b99000140e226
:031b9a000140ec1b
:031b9b000140f610
:031b9c000140ff06
:031b9d00014109fa
:031b9e00014113ef
:031b9f0001411de4
:031ba000014127d9
:031ba100014130cf
:031ba20001413ac4
:031ba300014144b9
:031ba40001414eae
:031ba500014157a4
:031ba60001416199
:031ba70001416b8e
:031ba80001417583
:031ba90001417f78
:031baa000141886e
:031bab0001419263
:031bac0001419c58
:031bad000141a64d
:031bae000141af43
:031baf000141b938
:031bb0000141c32d
:031bb1000141cd22
:031bb2000141d717
:031bb3000141e00d
:031bb4000141ea02
:031bb5000141f4f7
:031bb6000141feec
:031bb700014207e1
:031bb800014211d6
:031bb90001421bcb
:031bba00014225c0
:031bbb0001422eb6
:031bbc00014238ab
:031bbd00014242a0
:031bbe0001424c95
:031bbf000142568a
:031bc00001425f80
:031bc10001426975
:031bc2000142736a
:031bc30001427d5f
:031bc40001428655
:031bc5000142904a
:031bc60001429a3f
:031bc7000142a434
:031bc8000142ad2a
:031bc9000142b71f
:031bca000142c114
:031bcb000142cb09
:031bcc000142d4ff
:031bcd000142def4
:031bce000142e8e9
:031bcf000142f2de
:031bd0000142fbd4
:031bd100014305c8
:031bd20001430fbd
:031bd300014319b2
:031bd400014322a8
:031bd50001432c9d
:031bd60001433692
:031bd70001434087
:031bd8000143497d
:031bd90001435372
:031bda0001435d67
:031bdb000143675c
:031bdc0001437052
:031bdd0001437a47
:031bde000143843c
:031bdf0001438e31
:031be00001439727
:031be1000143a11c
:031be2000143ab11
:031be3000143b506
:031be4000143befc
:031be5000143c8f1
:031be6000143d2e6
:031be7000143dbdc
:031be8000143e5d1
:031be9000143efc6
:031bea000143f9bb
:031beb00014402b0
:031bec0001440ca5
:031bed000144169a
:031bee000144208f
:031bef0001442985
:031bf0000144337a
:031bf10001443d6f
:031bf20001444665
:031bf3000144505a
:031bf40001445a4f
:031bf50001446444
:031bf60001446d3a
:031bf7000144772f
:031bf80001448124
:031bf90001448b19
:031bfa000144940f
:031bfb0001449e04
:031bfc000144a8f9
:031bfd000144b1ef
:031bfe000144bbe4
:031bff000144c5d9
:031c00000144cfcd
:031c01000144d8c3
:031c02000144e2b8
:031c03000144ecad
:031c04000144f5a3
:031c05000144ff98
:031c06000145098c
:031c070001451381
:031c080001451c77
:031c09000145266c
:031c0a0001453061
:031c0b0001453957
:031c0c000145434c
:031c0d0001454d41
:031c0e0001455637
:031c0f000145602c
:031c100001456a21
:031c110001457416
:031c120001457d0c
:031c130001458701
:031c1400014591f6
:031c150001459aec
:031c16000145a4e1
:031c17000145aed6
:031c18000145b7cc
:031c19000145c1c1
:031c1a000145cbb6
:031c1b000145d5ab
:031c1c000145dea1
:031c1d000145e896
:031c1e000145f28b
:031c1f000145fb81
:031c200001460575
:031c210001460f6a
:031c220001461860
:031c230001462255
:031c240001462c4a
:031c250001463540
:031c260001463f35
:031c27000146492a
:031c28000146531f
:031c290001465c15
:031c2a000146660a
:031c2b00014670ff
:031c2c00014679f5
:031c2d00014683ea
:031c2e0001468ddf
:031c2f00014696d5
:031c30000146a0ca
:031c31000146aabf
:031c32000146b3b5
:031c33000146bdaa
:031c34000146c79f
:031c35000146d095
:031c36000146da8a
:031c37000146e47f
:031c38000146ed75
:031c39000146f76a
:031c3a000147015e
:031c3b0001470a54
:031c3c0001471449
:031c3d0001471e3e
:031c3e0001472734
:031c3f0001473129
:031c400001473b1e
:031c410001474414
:031c420001474e09
:031c4300014758fe
:031c4400014761f4
:031c450001476be9
:031c4600014775de
:031c470001477ed4
:031c4800014788c9
:031c4900014792be
:031c4a0001479bb4
:031c4b000147a5a9
:031c4c000147af9e
:031c4d000147b894
:031c4e000147c289
:031c4f000147cc7e
:031c50000147d574
:031c51000147df69
:031c52000147e95e
:031c53000147f254
:031c54000147fc49
:031c55000148053e
:031c560001480f33
:031c570001481928
:031c58000148221e
:031c590001482c13
:031c5a0001483608
:031c5b0001483ffe
:031c5c00014849f3
:031c5d00014853e8
:031c5e0001485cde
:031c5f00014866d3
:031c6000014870c8
:031c6100014879be
:031c6200014883b3
:031c630001488ca9
:031c64000148969e
:031c65000148a093
:031c66000148a989
:031c67000148b37e
:031c68000148bd73
:031c69000148c669
:031c6a000148d05e
:031c6b000148da53
:031c6c000148e349
:031c6d000148ed3e
:031c6e000148f634
:031c6f0001490028
:031c700001490a1d
:031c710001491313
:031c720001491d08
:031c7300014927fd
:031c7400014930f3
:031c750001493ae8
:031c7600014943de
:031c770001494dd3
:031c7800014957c8
:031c7900014960be
:031c7a0001496ab3
:031c7b00014974a8
:031c7c0001497d9e
:031c7d0001498793
:031c7e0001499089
:031c7f0001499a7e
:031c80000149a473
:031c81000149ad69
:031c82000149b75e
:031c83000149c054
:031c84000149ca49
:031c85000149d43e
:031c86000149dd34
:031c87000149e729
:031c88000149f11e
:031c89000149fa14
:031c8a00014a0408
:031c8b00014a0dfe
:031c8c00014a17f3
:031c8d00014a21e8
:031c8e00014a2ade
:031c8f00014a34d3
:031c9000014a3dc9
:031c9100014a47be
:031c9200014a51b3
:031c9300014a5aa9
:031c9400014a649e
:031c9500014a6d94
:031c9600014a7789
:031c9700014a817e
:031c9800014a8a74
:031c9900014a9469
:031c9a00014a9d5f
:031c9b00014aa754
:031c9c00014ab149
:031c9d00014aba3f
:031c9e00014ac434
:031c9f00014acd2a
:031ca000014ad71f
:031ca100014ae114
:031ca200014aea0a
:031ca300014af4ff
:031ca400014afdf5
:031ca500014b07e9
:031ca600014b10df
:031ca700014b1ad4
:031ca800014b24c9
:031ca900014b2dbf
:031caa00014b37b4
:031cab00014b40aa
:031cac00014b4a9f
:031cad00014b5494
:031cae00014b5d8a
:031caf00014b677f
:031cb000014b7075
:031cb100014b7a6a
:031cb200014b8360
:031cb300014b8d55
:031cb400014b974a
:031cb500014ba040
:031cb600014baa35
:031cb700014bb32b
:031cb800014bbd20
:031cb900014bc616
:031cba00014bd00b
:031cbb00014bda00
:031cbc00014be3f6
:031cbd00014bedeb
:031cbe00014bf6e1
:031cbf00014c00d5
:031cc000014c09cb
:031cc100014c13c0
:031cc200014c1db5
:031cc300014c26ab
:031cc400014c30a0
:031cc500014c3996
:031cc600014c438b
:031cc700014c4c81
:031cc800014c5676
:031cc900014c5f6c
:031cca00014c6961
:031ccb00014c7356
:031ccc00014c7c4c
:031ccd00014c8641
:031cce00014c8f37
:031ccf00014c992c
:031cd000014ca222
:031cd100014cac17
:031cd200014cb50d
:031cd300014cbf02
:031cd400014cc9f7
:031cd500014cd2ed
:031cd600014cdce2
:031cd700014ce5d8
:031cd800014cefcd
:031cd900014cf8c3
:031cda00014d02b7
:031cdb00014d0bad
:031cdc00014d15a2
:031cdd00014d1f97
:031cde00014d288d
:031cdf00014d3282
:031ce000014d3b78
:031ce100014d456d
:031ce200014d4e63
:031ce300014d5858
:031ce400014d614e
:031ce500014d6b43
:031ce600014d7439
:031ce700014d7e2e
:031ce800014d8724
:031ce900014d9119
:031cea00014d9a0f
:031ceb00014da404
:031cec00014daef9
:031ced00014db7ef
:031cee00014dc1e4
:031cef00014dcada
:031cf000014dd4cf
:031cf100014dddc5
:031cf200014de7ba
:031cf300014df0b0
:031cf400014dfaa5
:031cf500014e039a
:031cf600014e0d8f
:031cf700014e1685
:031cf800014e207a
:031cf900014e2970
:031cfa00014e3365
:031cfb00014e3c5b
:031cfc00014e4650
:031cfd00014e4f46
:031cfe00014e593b
:031cff00014e6330
:031d0000014e6c25
:031d0100014e761a
:031d0200014e7f10
:031d0300014e8905
:031d0400014e92fb
:031d0500014e9cf0
:031d0600014ea5e6
:031d0700014eafdb
:031d0800014eb8d1
:031d0900014ec2c6
:031d0a00014ecbbc
:031d0b00014ed5b1
:031d0c00014edea7
:031d0d00014ee89c
:031d0e00014ef192
:031d0f00014efb87
:031d1000014f047c
:031d1100014f0e71
:031d1200014f1767
:031d1300014f215c
:031d1400014f2a52
:031d1500014f3447
:031d1600014f3d3d
:031d1700014f4732
:031d1800014f5028
:031d1900014f5a1d
:031d1a00014f6313
:031d1b00014f6d08
:031d1c00014f76fe
:031d1d00014f80f3
:031d1e00014f89e9
:031d1f00014f93de
:031d2000014f9cd4
:031d2100014fa6c9
:031d2200014fafbf
:031d2300014fb9b4
:031d2400014fc2aa
:031d2500014fcc9f
:031d2600014fd595
:031d2700014fdf8a
:031d2800014fe880
:031d2900014ff176
:031d2a00014ffb6b
:031d2b0001500460
:031d2c0001500e55
:031d2d000150174b
:031d2e0001502140
:031d2f0001502a36
:031d30000150342b
:031d310001503d21
:031d320001504716
:031d33000150500c
:031d340001505a01
:031d3500015063f7
:031d360001506dec
:031d3700015076e2
:031d3800015080d7
:031d3900015089cd
:031d3a00015093c2
:031d3b0001509cb8
:031d3c000150a6ad
:031d3d000150afa3
:031d3e000150b899
:031d3f000150c28e
:031d40000150cb84
:031d41000150d579
:031d42000150de6f
:031d43000150e864
:031d44000150f15a
:031d45000150fb4f
:031d460001510444
:031d470001510e39
:031d48000151172f
:031d490001512124
:031d4a0001512a1a
:031d4b0001513310
:031d4c0001513d05
:031d4d00015146fb
:031d4e00015150f0
:031d4f00015159e6
:031d5000015163db
:031d510001516cd1
:031d5200015176c6
:031d530001517fbc
:031d5400015189b1
:031d5500015192a7
:031d560001519b9d
:031d57000151a592
:031d58000151ae88
:031d59000151b87d
:031d5a000151c173
:031d5b000151cb68
:031d5c000151d45e
:031d5d000151de53
:031d5e000151e749
:031d5f000151f03f
:031d60000151fa34
:031d610001520329
:031d620001520d1e
:031d630001521614
:031d640001522009
:031d6500015229ff
:031d6600015232f5
:031d670001523cea
:031d6800015245e0
:031d690001524fd5
:031d6a00015258cb
:031d6b00015262c0
:031d6c0001526bb6
:031d6d00015274ac
:031d6e0001527ea1
:031d6f0001528797
:031d70000152918c
:031d710001529a82
:031d72000152a477
:031d73000152ad6d
:031d74000152b663
:031d75000152c058
:031d76000152c94e
:031d77000152d343
:031d78000152dc39
:031d79000152e62e
:031d7a000152ef24
:031d7b000152f81a
:031d7c000153020e
:031d7d0001530b04
:031d7e00015315f9
:031d7f0001531eef
:031d8000015327e5
:031d8100015331da
:031d820001533ad0
:031d8300015344c5
:031d840001534dbb
:031d8500015357b0
:031d8600015360a6
:031d87000153699c
:031d880001537391
:031d890001537c87
:031d8a000153867c
:031d8b0001538f72
:031d8c0001539868
:031d8d000153a25d
:031d8e000153ab53
:031d8f000153b548
:031d90000153be3e
:031d91000153c734
:031d92000153d129
:031d93000153da1f
:031d94000153e414
:031d95000153ed0a
:031d96000153f600
:031d9700015400f4
:031d9800015409ea
:031d9900015413df
:031d9a0001541cd5
:031d9b00015425cb
:031d9c0001542fc0
:031d9d00015438b6
:031d9e00015442ab
:031d9f0001544ba1
:031da00001545497
:031da10001545e8c
:031da20001546782
:031da30001547078
:031da40001547a6d
:031da50001548363
:031da60001548d58
:031da7000154964e
:031da80001549f44
:031da9000154a939
:031daa000154b22f
:031dab000154bc24
:031dac000154c51a
:031dad000154ce10
:031dae000154d805
:031daf000154e1fb
:031db0000154eaf1
:031db1000154f4e6
:031db2000154fddc
:031db300015507d0
:031db400015510c6
:031db500015519bc
:031db600015523b1
:031db70001552ca7
:031db8000155359d
:031db90001553f92
:031dba0001554888
:031dbb000155527d
:031dbc0001555b73
:031dbd0001556469
:031dbe0001556e5e
:031dbf0001557754
:031dc0000155804a
:031dc10001558a3f
:031dc20001559335
:031dc30001559c2b
:031dc4000155a620
:031dc5000155af16
:031dc6000155b90b
:031dc7000155c201
:031dc8000155cbf7
:031dc9000155d5ec
:031dca000155dee2
:031dcb000155e7d8
:031dcc000155f1cd
:031dcd000155fac3
:031dce00015603b8
:031dcf0001560dad
:031dd000015616a3
:031dd10001561f99
:031dd2000156298e
:031dd30001563284
:031dd40001563b7a
:031dd5000156456f
:031dd60001564e65
:031dd7000156575b
:031dd80001566150
:031dd90001566a46
:031dda000156743b
:031ddb0001567d31
:031ddc0001568627
:031ddd000156901c
:031dde0001569912
:031ddf000156a208
:031de0000156acfd
:031de1000156b5f3
:031de2000156bee9
:031de3000156c8de
:031de4000156d1d4
:031de5000156daca
:031de6000156e4bf
:031de7000156edb5
:031de8000156f6ab
:031de9000157009f
:031dea0001570995
:031deb000157128b
:031dec0001571c80
:031ded0001572576
:031dee0001572e6c
:031def0001573861
:031df00001574157
:031df10001574a4d
:031df20001575343
:031df30001575d38
:031df4000157662e
:031df50001576f24
:031df60001577919
:031df7000157820f
:031df80001578b05
:031df900015795fa
:031dfa0001579ef0
:031dfb000157a7e6
:031dfc000157b1db
:031dfd000157bad1
:031dfe000157c3c7
:031dff000157cdbc
:031e00000157d6b1
:031e01000157dfa7
:031e02000157e99c
:031e03000157f292
:031e04000157fb88
:031e05000158047d
:031e060001580e72
:031e070001581768
:031e08000158205e
:031e090001582a53
:031e0a0001583349
:031e0b0001583c3f
:031e0c0001584634
:031e0d0001584f2a
:031e0e0001585820
:031e0f0001586116
:031e100001586b0b
:031e110001587401
:031e120001587df7
:031e1300015887ec
:031e1400015890e2
:031e1500015899d8
:031e16000158a3cd
:031e17000158acc3
:031e18000158b5b9
:031e19000158beaf
:031e1a000158c8a4
:031e1b000158d19a
:031e1c000158da90
:031e1d000158e485
:031e1e000158ed7b
:031e1f000158f671
:031e20000158ff67
:031e21000159095b
:031e220001591251
:031e230001591b47
:031e24000159253c
:031e250001592e32
:031e260001593728
:031e27000159401e
:031e280001594a13
:031e290001595309
:031e2a0001595cff
:031e2b00015966f4
:031e2c0001596fea
:031e2d00015978e0
:031e2e00015981d6
:031e2f0001598bcb
:031e3000015994c1
:031e310001599db7
:031e32000159a6ad
:031e33000159b0a2
:031e34000159b998
:031e35000159c28e
:031e36000159cc83
:031e37000159d579
:031e38000159de6f
:031e39000159e765
:031e3a000159f15a
:031e3b000159fa50
:031e3c00015a0345
:031e3d00015a0c3b
:031e3e00015a1630
:031e3f00015a1f26
:031e4000015a281c
:031e4100015a3112
:031e4200015a3b07
:031e4300015a44fd
:031e4400015a4df3
:031e4500015a56e9
:031e4600015a60de
:031e4700015a69d4
:031e4800015a72ca
:031e4900015a7bc0
:031e4a00015a85b5
:031e4b00015a8eab
:031e4c00015a97a1
:031e4d00015aa097
:031e4e00015aaa8c
:031e4f00015ab382
:031e5000015abc78
:031e5100015ac56e
:031e5200015acf63
:031e5300015ad859
:031e5400015ae14f
:031e5500015aea45
:031e5600015af43a
:031e5700015afd30
:031e5800015b0625
:031e5900015b0f1b
:031e5a00015b1910
:031e5b00015b2206
:031e5c00015b2bfc
:031e5d00015b34f2
:031e5e00015b3ee7
:031e5f00015b47dd
:031e6000015b50d3
:031e6100015b59c9
:031e6200015b62bf
:031e6300015b6cb4
:031e6400015b75aa
:031e6500015b7ea0
:031e6600015b8796
:031e6700015b918b
:031e6800015b9a81
:031e6900015ba377
:031e6a00015bac6d
:031e6b00015bb662
:031e6c00015bbf58
:031e6d00015bc84e
:031e6e00015bd144
:031e6f00015bda3a
:031e7000015be42f
:031e7100015bed25
:031e7200015bf61b
:031e7300015bff11
:031e7400015c0905
:031e7500015c12fb
:031e7600015c1bf1
:031e7700015c24e7
:031e7800015c2ddd
:031e7900015c37d2
:031e7a00015c40c8
:031e7b00015c49be
:031e7c00015c52b4
:031e7d00015c5baa
:031e7e00015c659f
:031e7f00015c6e95
:031e8000015c778b
:031e8100015c8081
:031e8200015c8977
:031e8300015c936c
:031e8400015c9c62
:031e8500015ca558
:031e8600015cae4e
:031e8700015cb744
:031e8800015cc139
:031e8900015cca2f
:031e8a00015cd325
:031e8b00015cdc1b
:031e8c00015ce511
:031e8d00015cef06
:031e8e00015cf8fc
:031e8f00015d01f1
:031e9000015d0ae7
:031e9100015d13dd
:031e9200015d1dd2
:031e9300015d26c8
:031e9400015d2fbe
:031e9500015d38b4
:031e9600015d41aa
:031e9700015d4b9f
:031e9800015d5495
:031e9900015d5d8b
:031e9a00015d6681
:031e9b00015d6f77
:031e9c00015d796c
:031e9d00015d8262
:031e9e00015d8b58
:031e9f00015d944e
:031ea000015d9d44
:031ea100015da63a
:031ea200015db02f
:031ea300015db925
:031ea400015dc21b
:031ea500015dcb11
:031ea600015dd407
:031ea700015dddfd
:031ea800015de7f2
:031ea900015df0e8
:031eaa00015df9de
:031eab00015e02d3
:031eac00015e0bc9
:031ead00015e15be
:031eae00015e1eb4
:031eaf00015e27aa
:031eb000015e30a0
:031eb100015e3996
:031eb200015e428c
:031eb300015e4c81
:031eb400015e5577
:031eb500015e5e6d
:031eb600015e6763
:031eb700015e7059
:031eb800015e794f
:031eb900015e8344
:031eba00015e8c3a
:031ebb00015e9530
:031ebc00015e9e26
:031ebd00015ea71c
:031ebe00015eb012
:031ebf00015eb908
:031ec000015ec3fd
:031ec100015eccf3
:031ec200015ed5e9
:031ec300015ededf
:031ec400015ee7d5
:031ec500015ef0cb
:031ec600015efac0
:031ec700015f03b5
:031ec800015f0cab
:031ec900015f15a1
:031eca00015f1e97
:031ecb00015f278d
:031ecc00015f3083
:031ecd00015f3a78
:031ece00015f436e
:031ecf00015f4c64
:031ed000015f555a
:031ed100015f5e50
:031ed200015f6746
:031ed300015f703c
:031ed400015f7a31
:031ed500015f8327
:031ed600015f8c1d
:031ed700015f9513
:031ed800015f9e09
:031ed900015fa7ff
:031eda00015fb0f5
:031edb00015fb9eb
:031edc00015fc3e0
:031edd00015fccd6
:031ede00015fd5cc
:031edf00015fdec2
:031ee000015fe7b8
:031ee100015ff0ae
:031ee200015ff9a4
:031ee30001600299
:031ee40001600c8e
:031ee50001601584
:031ee60001601e7a
:031ee70001602770
:031ee80001603066
:031ee9000160395c
:031eea0001604252
:031eeb0001604b48
:031eec000160553d
:031eed0001605e33
:031eee0001606729
:031eef000160701f
:031ef00001607915
:031ef1000160820b
:031ef20001608b01
:031ef300016094f7
:031ef40001609ded
:031ef5000160a7e2
:031ef6000160b0d8
:031ef7000160b9ce
:031ef8000160c2c4
:031ef9000160cbba
:031efa000160d4b0
:031efb000160dda6
:031efc000160e69c
:031efd000160ef92
:031efe000160f987
:031eff000161027c
:031f000001610b71
:031f010001611467
:031f020001611d5d
:031f030001612653
:031f040001612f49
:031f05000161383f
:031f060001614135
:031f070001614a2b
:031f080001615420
:031f090001615d16
:031f0a000161660c
:031f0b0001616f02
:031f0c00016178f8
:031f0d00016181ee
:031f0e0001618ae4
:031f0f00016193da
:031f100001619cd0
:031f11000161a5c6
:031f12000161aebc
:031f13000161b8b1
:031f14000161c1a7
:031f15000161ca9d
:031f16000161d393
:031f17000161dc89
:031f18000161e57f
:031f19000161ee75
:031f1a000161f76b
:031f1b0001620060
:031f1c0001620956
:031f1d000162124c
:031f1e0001621b42
:031f1f0001622537
:031f200001622e2d
:031f210001623723
:031f220001624019
:031f23000162490f
:031f240001625205
:031f250001625bfb
:031f2600016264f1
:031f270001626de7
:031f2800016276dd
:031f290001627fd3
:031f2a00016288c9
:031f2b00016291bf
:031f2c0001629ab5
:031f2d000162a3ab
:031f2e000162ada0
:031f2f000162b696
:031f30000162bf8c
:031f31000162c882
:031f32000162d178
:031f33000162da6e
:031f34000162e364
:031f35000162ec5a
:031f36000162f550
:031f37000162fe46
:031f38000163073b
:031f390001631031
:031f3a0001631927
:031f3b000163221d
:031f3c0001632b13
:031f3d0001633409
:031f3e0001633dff
:031f3f00016346f5
:031f4000016350ea
:031f4100016359e0
:031f4200016362d6
:031f430001636bcc
:031f4400016374c2
:031f450001637db8
:031f4600016386ae
:031f470001638fa4
:031f48000163989a
:031f49000163a190
:031f4a000163aa86
:031f4b000163b37c
:031f4c000163bc72
:031f4d000163c568
:031f4e000163ce5e
:031f4f000163d754
:031f50000163e04a
:031f51000163e940
:031f52000163f236
:031f53000163fb2c
:031f540001640421
:031f550001640d17
:031f56000164160d
:031f570001641f03
:031f5800016428f9
:031f5900016431ef
:031f5a0001643ae5
:031f5b00016444da
:031f5c0001644dd0
:031f5d00016456c6
:031f5e0001645fbc
:031f5f00016468b2
:031f6000016471a8
:031f610001647a9e
:031f620001648394
:031f630001648c8a
:031f640001649580
:031f650001649e76
:031f66000164a76c
:031f67000164b062
:031f68000164b958
:031f69000164c24e
:031f6a000164cb44
:031f6b000164d43a
:031f6c000164dd30
:031f6d000164e626
:031f6e000164ef1c
:031f6f000164f812
:031f700001650107
:031f710001650afd
:031f7200016513f3
:031f730001651ce9
:031f7400016525df
:031f750001652ed5
:031f7600016537cb
:031f7700016540c1
:031f7800016549b7
:031f7900016552ad
:031f7a0001655ba3
:031f7b0001656499
:031f7c0001656d8f
:031f7d0001657685
:031f7e0001657f7b
:031f7f0001658871
:031f800001659167
:031f810001659a5d
:031f82000165a353
:031f83000165ac49
:031f84000165b53f
:031f85000165be35
:031f86000165c72b
:031f87000165d021
:031f88000165d917
:031f89000165e20d
:031f8a000165eb03
:031f8b000165f4f9
:031f8c000165fdef
:031f8d00016606e4
:031f8e0001660fda
:031f8f00016618d0
:031f9000016621c6
:031f910001662abc
:031f9200016633b2
:031f930001663ca8
:031f94000166459e
:031f950001664e94
:031f96000166578a
:031f970001666080
:031f980001666877
:031f99000166716d
:031f9a0001667a63
:031f9b0001668359
:031f9c0001668c4f
:031f9d0001669545
:031f9e0001669e3b
:031f9f000166a731
:031fa0000166b027
:031fa1000166b91d
:031fa2000166c213
:031fa3000166cb09
:031fa4000166d4ff
:031fa5000166ddf5
:031fa6000166e6eb
:031fa7000166efe1
:031fa8000166f8d7
:031fa900016701cc
:031faa0001670ac2
:031fab00016713b8
:031fac0001671cae
:031fad00016725a4
:031fae0001672e9a
:031faf0001673790
:031fb00001674086
:031fb1000167497c
:031fb20001675272
:031fb30001675a69
:031fb4000167635f
:031fb50001676c55
:031fb6000167754b
:031fb70001677e41
:031fb80001678737
:031fb9000167902d
:031fba0001679923
:031fbb000167a219
:031fbc000167ab0f
:031fbd000167b405
:031fbe000167bdfb
:031fbf000167c6f1
:031fc0000167cfe7
:031fc1000167d8dd
:031fc2000167e1d3
:031fc3000167eac9
:031fc4000167f3bf
:031fc5000167fbb6
:031fc600016804ab
:031fc70001680da1
:031fc80001681697
:031fc90001681f8d
:031fca0001682883
:031fcb0001683179
:031fcc0001683a6f
:031fcd0001684365
:031fce0001684c5b
:031fcf0001685551
:031fd00001685e47
:031fd1000168673d
:031fd20001687033
:031fd3000168782a
:031fd40001688120
:031fd50001688a16
:031fd6000168930c
:031fd70001689c02
:031fd8000168a5f8
:031fd9000168aeee
:031fda000168b7e4
:031fdb000168c0da
:031fdc000168c9d0
:031fdd000168d2c6
:031fde000168dbbc
:031fdf000168e4b2
:031fe0000168eca9
:031fe1000168f59f
:031fe2000168fe95
:031fe3000169078a
:031fe40001691080
:031fe50001691976
:031fe6000169226c
:031fe70001692b62
:031fe80001693458
:031fe90001693d4e
:031fea0001694644
:031feb0001694e3b
:031fec0001695731
:031fed0001696027
:031fee000169691d
:031fef0001697213
:031ff00001697b09
:031ff100016984ff
:031ff20001698df5
:031ff300016996eb
:031ff40001699fe1
:031ff5000169a7d8
:031ff6000169b0ce
:031ff7000169b9c4
:031ff8000169c2ba
:031ff9000169cbb0
:031ffa000169d4a6
:031ffb000169dd9c
:031ffc000169e692
:031ffd000169ef88
:031ffe000169f77f
:031fff00016a0074
:00000001FF
