:020000040000FA
:0100000009F6
:0100010009F5
:0100020008F5
:0100030008F4
:0100040007F4
:0100050007F3
:0100060006F3
:0100070006F2
:0100080005F2
:0100090005F1
:01000A0005F0
:01000B0004F0
:01000C0004EF
:01000D0003EF
:01000E0003EE
:01000F0002EE
:0100100002ED
:0100110002EC
:0100120001EC
:0100130001EB
:0100140000EB
:0100150000EA
:0100160000E9
:010017000FD9
:010018000FD8
:010019000ED8
:01001A000ED7
:01001B000DD7
:01001C000DD6
:01001D000DD5
:01001E000CD5
:01001F000CD4
:010020000BD4
:010021000BD3
:010022000AD3
:010023000AD2
:010024000AD1
:0100250009D1
:0100260009D0
:0100270008D0
:0100280008CF
:0100290008CE
:01002A0007CE
:01002B0007CD
:01002C0006CD
:01002D0006CC
:01002E0006CB
:01002F0005CB
:0100300005CA
:0100310004CA
:0100320004C9
:0100330003C9
:0100340003C8
:0100350003C7
:0100360002C7
:0100370002C6
:0100380001C6
:0100390001C5
:01003A0001C4
:01003B0000C4
:01003C0000C3
:01003D000FB3
:01003E000FB2
:01003F000FB1
:010040000EB1
:010041000EB0
:010042000DB0
:010043000DAF
:010044000DAE
:010045000CAE
:010046000CAD
:010047000BAD
:010048000BAC
:010049000BAB
:01004A000AAB
:01004B000AAA
:01004C0009AA
:01004D0009A9
:01004E0009A8
:01004F0008A8
:0100500008A7
:0100510008A6
:0100520007A6
:0100530007A5
:0100540006A5
:0100550006A4
:0100560006A3
:0100570005A3
:0100580005A2
:0100590004A2
:01005A0004A1
:01005B0004A0
:01005C0003A0
:01005D00039F
:01005E00029F
:01005F00029E
:01006000029D
:01006100019D
:01006200019C
:01006300019B
:01006400009B
:01006500009A
:010066000F8A
:010067000F89
:010068000F88
:010069000E88
:01006A000E87
:01006B000D87
:01006C000D86
:01006D000D85
:01006E000C85
:01006F000C84
:010070000C83
:010071000B83
:010072000B82
:010073000A82
:010074000A81
:010075000A80
:010076000980
:01007700097F
:01007800097E
:01007900087E
:01007A00087D
:01007B00077D
:01007C00077C
:01007D00077B
:01007E00067B
:01007F00067A
:010080000679
:010081000579
:010082000578
:010083000478
:010084000477
:010085000476
:010086000376
:010087000375
:010088000374
:010089000274
:01008A000273
:01008B000272
:01008C000172
:01008D000171
:01008E000071
:01008F000070
:01009000006F
:010091000F5F
:010092000F5E
:010093000F5D
:010094000E5D
:010095000E5C
:010096000E5B
:010097000D5B
:010098000D5A
:010099000C5A
:01009A000C59
:01009B000C58
:01009C000B58
:01009D000B57
:01009E000B56
:01009F000A56
:0100A0000A55
:0100A1000A54
:0100A2000954
:0100A3000953
:0100A4000952
:0100A5000852
:0100A6000851
:0100A7000751
:0100A8000750
:0100A900074F
:0100AA00064F
:0100AB00064E
:0100AC00064D
:0100AD00054D
:0100AE00054C
:0100AF00054B
:0100B000044B
:0100B100044A
:0100B2000449
:0100B3000349
:0100B4000348
:0100B5000347
:0100B6000247
:0100B7000246
:0100B8000146
:0100B9000145
:0100BA000144
:0100BB000044
:0100BC000043
:0100BD000042
:0100BE000F32
:0100BF000F31
:0100C0000F30
:0100C1000E30
:0100C2000E2F
:0100C3000E2E
:0100C4000D2E
:0100C5000D2D
:0100C6000D2C
:0100C7000C2C
:0100C8000C2B
:0100C9000C2A
:0100CA000B2A
:0100CB000B29
:0100CC000B28
:0100CD000A28
:0100CE000A27
:0100CF000A26
:0100D0000926
:0100D1000925
:0100D2000924
:0100D3000824
:0100D4000823
:0100D5000822
:0100D6000722
:0100D7000721
:0100D8000720
:0100D9000620
:0100DA00061F
:0100DB00061E
:0100DC00051E
:0100DD00051D
:0100DE00051C
:0100DF00041C
:0100E000041B
:0100E100041A
:0100E200031A
:0100E3000319
:0100E4000318
:0100E5000218
:0100E6000217
:0100E7000216
:0100E8000116
:0100E9000115
:0100EA000114
:0100EB000014
:0100EC000013
:0100ED000012
:0100EE000F02
:0100EF000F01
:0100F0000F00
:0100F1000E00
:0100F2000EFF
:0100F3000EFE
:0100F4000DFE
:0100F5000DFD
:0100F6000DFC
:0100F7000CFC
:0100F8000CFB
:0100F9000CFA
:0100FA000BFA
:0100FB000BF9
:0100FC000BF8
:0100FD000AF8
:0100FE000AF7
:0100FF000AF6
:0101000009F5
:0101010009F4
:0101020009F3
:0101030008F3
:0101040008F2
:0101050008F1
:0101060007F1
:0101070007F0
:0101080007EF
:0101090007EE
:01010A0006EE
:01010B0006ED
:01010C0006EC
:01010D0005EC
:01010E0005EB
:01010F0005EA
:0101100004EA
:0101110004E9
:0101120004E8
:0101130003E8
:0101140003E7
:0101150003E6
:0101160002E6
:0101170002E5
:0101180002E4
:0101190001E4
:01011A0001E3
:01011B0001E2
:01011C0001E1
:01011D0000E1
:01011E0000E0
:01011F0000DF
:010120000FCF
:010121000FCE
:010122000FCD
:010123000ECD
:010124000ECC
:010125000ECB
:010126000DCB
:010127000DCA
:010128000DC9
:010129000CC9
:01012A000CC8
:01012B000CC7
:01012C000CC6
:01012D000BC6
:01012E000BC5
:01012F000BC4
:010130000AC4
:010131000AC3
:010132000AC2
:0101330009C2
:0101340009C1
:0101350009C0
:0101360009BF
:0101370008BF
:0101380008BE
:0101390008BD
:01013A0007BD
:01013B0007BC
:01013C0007BB
:01013D0006BB
:01013E0006BA
:01013F0006B9
:0101400005B9
:0101410005B8
:0101420005B7
:0101430005B6
:0101440004B6
:0101450004B5
:0101460004B4
:0101470003B4
:0101480003B3
:0101490003B2
:01014A0002B2
:01014B0002B1
:01014C0002B0
:01014D0002AF
:01014E0001AF
:01014F0001AE
:0101500001AD
:0101510000AD
:0101520000AC
:0101530000AB
:0101540000AA
:010155000F9A
:010156000F99
:010157000F98
:010158000E98
:010159000E97
:01015A000E96
:01015B000D96
:01015C000D95
:01015D000D94
:01015E000D93
:01015F000C93
:010160000C92
:010161000C91
:010162000B91
:010163000B90
:010164000B8F
:010165000B8E
:010166000A8E
:010167000A8D
:010168000A8C
:01016900098C
:01016A00098B
:01016B00098A
:01016C000989
:01016D000889
:01016E000888
:01016F000887
:010170000787
:010171000786
:010172000785
:010173000784
:010174000684
:010175000683
:010176000682
:010177000582
:010178000581
:010179000580
:01017A00057F
:01017B00047F
:01017C00047E
:01017D00047D
:01017E00037D
:01017F00037C
:01018000037B
:01018100037A
:01018200027A
:010183000279
:010184000278
:010185000178
:010186000177
:010187000176
:010188000175
:010189000075
:01018A000074
:01018B000073
:01018C000F63
:01018D000F62
:01018E000F61
:01018F000F60
:010190000E60
:010191000E5F
:010192000E5E
:010193000D5E
:010194000D5D
:010195000D5C
:010196000D5B
:010197000C5B
:010198000C5A
:010199000C59
:01019A000C58
:01019B000B58
:01019C000B57
:01019D000B56
:01019E000A56
:01019F000A55
:0101A0000A54
:0101A1000A53
:0101A2000953
:0101A3000952
:0101A4000951
:0101A5000950
:0101A6000850
:0101A700084F
:0101A800084E
:0101A900074E
:0101AA00074D
:0101AB00074C
:0101AC00074B
:0101AD00064B
:0101AE00064A
:0101AF000649
:0101B0000648
:0101B1000548
:0101B2000547
:0101B3000546
:0101B4000446
:0101B5000445
:0101B6000444
:0101B7000443
:0101B8000343
:0101B9000342
:0101BA000341
:0101BB000340
:0101BC000240
:0101BD00023F
:0101BE00023E
:0101BF00023D
:0101C000013D
:0101C100013C
:0101C200013B
:0101C300003B
:0101C400003A
:0101C5000039
:0101C6000038
:0101C7000F28
:0101C8000F27
:0101C9000F26
:0101CA000F25
:0101CB000E25
:0101CC000E24
:0101CD000E23
:0101CE000E22
:0101CF000D22
:0101D0000D21
:0101D1000D20
:0101D2000D1F
:0101D3000C1F
:0101D4000C1E
:0101D5000C1D
:0101D6000B1D
:0101D7000B1C
:0101D8000B1B
:0101D9000B1A
:0101DA000A1A
:0101DB000A19
:0101DC000A18
:0101DD000A17
:0101DE000917
:0101DF000916
:0101E0000915
:0101E1000914
:0101E2000814
:0101E3000813
:0101E4000812
:0101E5000811
:0101E6000711
:0101E7000710
:0101E800070F
:0101E900070E
:0101EA00060E
:0101EB00060D
:0101EC00060C
:0101ED00060B
:0101EE00050B
:0101EF00050A
:0101F0000509
:0101F1000508
:0101F2000408
:0101F3000407
:0101F4000406
:0101F5000405
:0101F6000305
:0101F7000304
:0101F8000303
:0101F9000302
:0101FA000202
:0101FB000201
:0101FC000200
:0101FD0002FF
:0101FE0001FF
:0101FF0001FE
:0102000001FC
:0102010001FB
:0102020000FB
:0102030000FA
:0102040000F9
:0102050000F8
:010206000FE8
:010207000FE7
:010208000FE6
:010209000FE5
:01020A000EE5
:01020B000EE4
:01020C000EE3
:01020D000EE2
:01020E000DE2
:01020F000DE1
:010210000DE0
:010211000DDF
:010212000CDF
:010213000CDE
:010214000CDD
:010215000CDC
:010216000BDC
:010217000BDB
:010218000BDA
:010219000BD9
:01021A000AD9
:01021B000AD8
:01021C000AD7
:01021D000AD6
:01021E0009D6
:01021F0009D5
:0102200009D4
:0102210009D3
:0102220008D3
:0102230008D2
:0102240008D1
:0102250008D0
:0102260007D0
:0102270007CF
:0102280007CE
:0102290007CD
:01022A0006CD
:01022B0006CC
:01022C0006CB
:01022D0006CA
:01022E0005CA
:01022F0005C9
:0102300005C8
:0102310005C7
:0102320005C6
:0102330004C6
:0102340004C5
:0102350004C4
:0102360004C3
:0102370003C3
:0102380003C2
:0102390003C1
:01023A0003C0
:01023B0002C0
:01023C0002BF
:01023D0002BE
:01023E0002BD
:01023F0001BD
:0102400001BC
:0102410001BB
:0102420001BA
:0102430000BA
:0102440000B9
:0102450000B8
:0102460000B7
:0102470000B6
:010248000FA6
:010249000FA5
:01024A000FA4
:01024B000FA3
:01024C000EA3
:01024D000EA2
:01024E000EA1
:01024F000EA0
:010250000DA0
:010251000D9F
:010252000D9E
:010253000D9D
:010254000C9D
:010255000C9C
:010256000C9B
:010257000C9A
:010258000C99
:010259000B99
:01025A000B98
:01025B000B97
:01025C000B96
:01025D000A96
:01025E000A95
:01025F000A94
:010260000A93
:010261000993
:010262000992
:010263000991
:010264000990
:01026500098F
:01026600088F
:01026700088E
:01026800088D
:01026900088C
:01026A00078C
:01026B00078B
:01026C00078A
:01026D000789
:01026E000689
:01026F000688
:010270000687
:010271000686
:010272000685
:010273000585
:010274000584
:010275000583
:010276000582
:010277000482
:010278000481
:010279000480
:01027A00047F
:01027B00047E
:01027C00037E
:01027D00037D
:01027E00037C
:01027F00037B
:01028000027B
:01028100027A
:010282000279
:010283000278
:010284000277
:010285000177
:010286000176
:010287000175
:010288000174
:010289000074
:01028A000073
:01028B000072
:01028C000071
:01028D000070
:01028E000F60
:01028F000F5F
:010290000F5E
:010291000F5D
:010292000E5D
:010293000E5C
:010294000E5B
:010295000E5A
:010296000E59
:010297000D59
:010298000D58
:010299000D57
:01029A000D56
:01029B000C56
:01029C000C55
:01029D000C54
:01029E000C53
:01029F000C52
:0102A0000B52
:0102A1000B51
:0102A2000B50
:0102A3000B4F
:0102A4000A4F
:0102A5000A4E
:0102A6000A4D
:0102A7000A4C
:0102A8000A4B
:0102A900094B
:0102AA00094A
:0102AB000949
:0102AC000948
:0102AD000947
:0102AE000847
:0102AF000846
:0102B0000845
:0102B1000844
:0102B2000744
:0102B3000743
:0102B4000742
:0102B5000741
:0102B6000740
:0102B7000640
:0102B800063F
:0102B900063E
:0102BA00063D
:0102BB00063C
:0102BC00053C
:0102BD00053B
:0102BE00053A
:0102BF000539
:0102C0000439
:0102C1000438
:0102C2000437
:0102C3000436
:0102C4000435
:0102C5000335
:0102C6000334
:0102C7000333
:0102C8000332
:0102C9000331
:0102CA000231
:0102CB000230
:0102CC00022F
:0102CD00022E
:0102CE00012E
:0102CF00012D
:0102D000012C
:0102D100012B
:0102D200012A
:0102D300002A
:0102D4000029
:0102D5000028
:0102D6000027
:0102D7000026
:0102D8000F16
:0102D9000F15
:0102DA000F14
:0102DB000F13
:0102DC000F12
:0102DD000E12
:0102DE000E11
:0102DF000E10
:0102E0000E0F
:0102E1000E0E
:0102E2000D0E
:0102E3000D0D
:0102E4000D0C
:0102E5000D0B
:0102E6000C0B
:0102E7000C0A
:0102E8000C09
:0102E9000C08
:0102EA000C07
:0102EB000B07
:0102EC000B06
:0102ED000B05
:0102EE000B04
:0102EF000B03
:0102F0000A03
:0102F1000A02
:0102F2000A01
:0102F3000A00
:0102F4000AFF
:0102F50009FF
:0102F60009FE
:0102F70009FD
:0102F80009FC
:0102F90009FB
:0102FA0008FB
:0102FB0008FA
:0102FC0008F9
:0102FD0008F8
:0102FE0008F7
:0102FF0007F7
:0103000007F5
:0103010007F4
:0103020007F3
:0103030007F2
:0103040006F2
:0103050006F1
:0103060006F0
:0103070006EF
:0103080006EE
:0103090005EE
:01030A0005ED
:01030B0005EC
:01030C0005EB
:01030D0005EA
:01030E0004EA
:01030F0004E9
:0103100004E8
:0103110004E7
:0103120004E6
:0103130003E6
:0103140003E5
:0103150003E4
:0103160003E3
:0103170003E2
:0103180002E2
:0103190002E1
:01031A0002E0
:01031B0002DF
:01031C0002DE
:01031D0001DE
:01031E0001DD
:01031F0001DC
:0103200001DB
:0103210001DA
:0103220000DA
:0103230000D9
:0103240000D8
:0103250000D7
:0103260000D6
:010327000FC6
:010328000FC5
:010329000FC4
:01032A000FC3
:01032B000FC2
:01032C000EC2
:01032D000EC1
:01032E000EC0
:01032F000EBF
:010330000EBE
:010331000DBE
:010332000DBD
:010333000DBC
:010334000DBB
:010335000DBA
:010336000CBA
:010337000CB9
:010338000CB8
:010339000CB7
:01033A000CB6
:01033B000BB6
:01033C000BB5
:01033D000BB4
:01033E000BB3
:01033F000BB2
:010340000BB1
:010341000AB1
:010342000AB0
:010343000AAF
:010344000AAE
:010345000AAD
:0103460009AD
:0103470009AC
:0103480009AB
:0103490009AA
:01034A0009A9
:01034B0008A9
:01034C0008A8
:01034D0008A7
:01034E0008A6
:01034F0008A5
:0103500007A5
:0103510007A4
:0103520007A3
:0103530007A2
:0103540007A1
:0103550007A0
:0103560006A0
:01035700069F
:01035800069E
:01035900069D
:01035A00069C
:01035B00059C
:01035C00059B
:01035D00059A
:01035E000599
:01035F000598
:010360000498
:010361000497
:010362000496
:010363000495
:010364000494
:010365000394
:010366000393
:010367000392
:010368000391
:010369000390
:01036A00038F
:01036B00028F
:01036C00028E
:01036D00028D
:01036E00028C
:01036F00028B
:01037000018B
:01037100018A
:010372000189
:010373000188
:010374000187
:010375000186
:010376000086
:010377000085
:010378000084
:010379000083
:01037A000082
:01037B000F72
:01037C000F71
:01037D000F70
:01037E000F6F
:01037F000F6E
:010380000E6E
:010381000E6D
:010382000E6C
:010383000E6B
:010384000E6A
:010385000E69
:010386000D69
:010387000D68
:010388000D67
:010389000D66
:01038A000D65
:01038B000C65
:01038C000C64
:01038D000C63
:01038E000C62
:01038F000C61
:010390000C60
:010391000B60
:010392000B5F
:010393000B5E
:010394000B5D
:010395000B5C
:010396000A5C
:010397000A5B
:010398000A5A
:010399000A59
:01039A000A58
:01039B000A57
:01039C000957
:01039D000956
:01039E000955
:01039F000954
:0103A0000953
:0103A1000853
:0103A2000852
:0103A3000851
:0103A4000850
:0103A500084F
:0103A600084E
:0103A700074E
:0103A800074D
:0103A900074C
:0103AA00074B
:0103AB00074A
:0103AC000749
:0103AD000649
:0103AE000648
:0103AF000647
:0103B0000646
:0103B1000645
:0103B2000545
:0103B3000544
:0103B4000543
:0103B5000542
:0103B6000541
:0103B7000540
:0103B8000440
:0103B900043F
:0103BA00043E
:0103BB00043D
:0103BC00043C
:0103BD00043B
:0103BE00033B
:0103BF00033A
:0103C0000339
:0103C1000338
:0103C2000337
:0103C3000237
:0103C4000236
:0103C5000235
:0103C6000234
:0103C7000233
:0103C8000232
:0103C9000132
:0103CA000131
:0103CB000130
:0103CC00012F
:0103CD00012E
:0103CE00012D
:0103CF00002D
:0103D000002C
:0103D100002B
:0103D200002A
:0103D3000029
:0103D4000028
:0103D5000F18
:0103D6000F17
:0103D7000F16
:0103D8000F15
:0103D9000F14
:0103DA000E14
:0103DB000E13
:0103DC000E12
:0103DD000E11
:0103DE000E10
:0103DF000E0F
:0103E0000D0F
:0103E1000D0E
:0103E2000D0D
:0103E3000D0C
:0103E4000D0B
:0103E5000D0A
:0103E6000C0A
:0103E7000C09
:0103E8000C08
:0103E9000C07
:0103EA000C06
:0103EB000C05
:0103EC000B05
:0103ED000B04
:0103EE000B03
:0103EF000B02
:0103F0000B01
:0103F1000B00
:0103F2000A00
:0103F3000AFF
:0103F4000AFE
:0103F5000AFD
:0103F6000AFC
:0103F7000AFB
:0103F80009FB
:0103F90009FA
:0103FA0009F9
:0103FB0009F8
:0103FC0009F7
:0103FD0009F6
:0103FE0008F6
:0103FF0008F5
:0104000008F3
:0104010008F2
:0104020007F2
:0104030007F1
:0104040007F0
:0104050007EF
:0104060006EF
:0104070006EE
:0104080006ED
:0104090006EC
:01040A0005EC
:01040B0005EB
:01040C0005EA
:01040D0005E9
:01040E0004E9
:01040F0004E8
:0104100004E7
:0104110004E6
:0104120003E6
:0104130003E5
:0104140003E4
:0104150002E4
:0104160002E3
:0104170002E2
:0104180002E1
:0104190001E1
:01041A0001E0
:01041B0001DF
:01041C0001DE
:01041D0000DE
:01041E0000DD
:01041F0000DC
:0104200000DB
:010421000FCB
:010422000FCA
:010423000FC9
:010424000FC8
:010425000EC8
:010426000EC7
:010427000EC6
:010428000EC5
:010429000DC5
:01042A000DC4
:01042B000DC3
:01042C000DC2
:01042D000CC2
:01042E000CC1
:01042F000CC0
:010430000CBF
:010431000BBF
:010432000BBE
:010433000BBD
:010434000BBC
:010435000ABC
:010436000ABB
:010437000ABA
:010438000AB9
:0104390009B9
:01043A0009B8
:01043B0009B7
:01043C0009B6
:01043D0008B6
:01043E0008B5
:01043F0008B4
:0104400008B3
:0104410007B3
:0104420007B2
:0104430007B1
:0104440007B0
:0104450006B0
:0104460006AF
:0104470006AE
:0104480006AD
:0104490005AD
:01044A0005AC
:01044B0005AB
:01044C0005AA
:01044D0004AA
:01044E0004A9
:01044F0004A8
:0104500004A7
:0104510003A7
:0104520003A6
:0104530003A5
:0104540003A4
:0104550002A4
:0104560002A3
:0104570002A2
:0104580002A1
:0104590002A0
:01045A0001A0
:01045B00019F
:01045C00019E
:01045D00019D
:01045E00009D
:01045F00009C
:01046000009B
:01046100009A
:010462000F8A
:010463000F89
:010464000F88
:010465000F87
:010466000E87
:010467000E86
:010468000E85
:010469000E84
:01046A000D84
:01046B000D83
:01046C000D82
:01046D000D81
:01046E000D80
:01046F000C80
:010470000C7F
:010471000C7E
:010472000C7D
:010473000B7D
:010474000B7C
:010475000B7B
:010476000B7A
:010477000A7A
:010478000A79
:010479000A78
:01047A000A77
:01047B000A76
:01047C000976
:01047D000975
:01047E000974
:01047F000973
:010480000873
:010481000872
:010482000871
:010483000870
:010484000770
:01048500076F
:01048600076E
:01048700076D
:01048800076C
:01048900066C
:01048A00066B
:01048B00066A
:01048C000669
:01048D000569
:01048E000568
:01048F000567
:010490000566
:010491000466
:010492000465
:010493000464
:010494000463
:010495000462
:010496000362
:010497000361
:010498000360
:01049900035F
:01049A00025F
:01049B00025E
:01049C00025D
:01049D00025C
:01049E00025B
:01049F00015B
:0104A000015A
:0104A1000159
:0104A2000158
:0104A3000058
:0104A4000057
:0104A5000056
:0104A6000055
:0104A7000054
:0104A8000F44
:0104A9000F43
:0104AA000F42
:0104AB000F41
:0104AC000E41
:0104AD000E40
:0104AE000E3F
:0104AF000E3E
:0104B0000E3D
:0104B1000D3D
:0104B2000D3C
:0104B3000D3B
:0104B4000D3A
:0104B5000D39
:0104B6000C39
:0104B7000C38
:0104B8000C37
:0104B9000C36
:0104BA000B36
:0104BB000B35
:0104BC000B34
:0104BD000B33
:0104BE000B32
:0104BF000A32
:0104C0000A31
:0104C1000A30
:0104C2000A2F
:0104C3000A2E
:0104C400092E
:0104C500092D
:0104C600092C
:0104C700092B
:0104C800082B
:0104C900082A
:0104CA000829
:0104CB000828
:0104CC000827
:0104CD000727
:0104CE000726
:0104CF000725
:0104D0000724
:0104D1000723
:0104D2000623
:0104D3000622
:0104D4000621
:0104D5000620
:0104D6000520
:0104D700051F
:0104D800051E
:0104D900051D
:0104DA00051C
:0104DB00041C
:0104DC00041B
:0104DD00041A
:0104DE000419
:0104DF000418
:0104E0000318
:0104E1000317
:0104E2000316
:0104E3000315
:0104E4000314
:0104E5000214
:0104E6000213
:0104E7000212
:0104E8000211
:0104E9000210
:0104EA000110
:0104EB00010F
:0104EC00010E
:0104ED00010D
:0104EE00010C
:0104EF00000C
:0104F000000B
:0104F100000A
:0104F2000009
:0104F3000008
:0104F4000FF8
:0104F5000FF7
:0104F6000FF6
:0104F7000FF5
:0104F8000EF5
:0104F9000EF4
:0104FA000EF3
:0104FB000EF2
:0104FC000EF1
:0104FD000DF1
:0104FE000DF0
:0104FF000DEF
:010500000DED
:010501000DEC
:010502000CEC
:010503000CEB
:010504000CEA
:010505000CE9
:010506000CE8
:010507000BE8
:010508000BE7
:010509000BE6
:01050A000BE5
:01050B000BE4
:01050C000AE4
:01050D000AE3
:01050E000AE2
:01050F000AE1
:010510000AE0
:0105110009E0
:0105120009DF
:0105130009DE
:0105140009DD
:0105150009DC
:0105160009DB
:0105170008DB
:0105180008DA
:0105190008D9
:01051A0008D8
:01051B0008D7
:01051C0007D7
:01051D0007D6
:01051E0007D5
:01051F0007D4
:0105200007D3
:0105210006D3
:0105220006D2
:0105230006D1
:0105240006D0
:0105250006CF
:0105260005CF
:0105270005CE
:0105280005CD
:0105290005CC
:01052A0005CB
:01052B0004CB
:01052C0004CA
:01052D0004C9
:01052E0004C8
:01052F0004C7
:0105300003C7
:0105310003C6
:0105320003C5
:0105330003C4
:0105340003C3
:0105350003C2
:0105360002C2
:0105370002C1
:0105380002C0
:0105390002BF
:01053A0002BE
:01053B0001BE
:01053C0001BD
:01053D0001BC
:01053E0001BB
:01053F0001BA
:0105400000BA
:0105410000B9
:0105420000B8
:0105430000B7
:0105440000B6
:010545000FA6
:010546000FA5
:010547000FA4
:010548000FA3
:010549000FA2
:01054A000FA1
:01054B000EA1
:01054C000EA0
:01054D000E9F
:01054E000E9E
:01054F000E9D
:010550000D9D
:010551000D9C
:010552000D9B
:010553000D9A
:010554000D99
:010555000D98
:010556000C98
:010557000C97
:010558000C96
:010559000C95
:01055A000C94
:01055B000B94
:01055C000B93
:01055D000B92
:01055E000B91
:01055F000B90
:010560000A90
:010561000A8F
:010562000A8E
:010563000A8D
:010564000A8C
:010565000A8B
:01056600098B
:01056700098A
:010568000989
:010569000988
:01056A000987
:01056B000887
:01056C000886
:01056D000885
:01056E000884
:01056F000883
:010570000882
:010571000782
:010572000781
:010573000780
:01057400077F
:01057500077E
:01057600077D
:01057700067D
:01057800067C
:01057900067B
:01057A00067A
:01057B000679
:01057C000579
:01057D000578
:01057E000577
:01057F000576
:010580000575
:010581000574
:010582000474
:010583000473
:010584000472
:010585000471
:010586000470
:010587000370
:01058800036F
:01058900036E
:01058A00036D
:01058B00036C
:01058C00036B
:01058D00026B
:01058E00026A
:01058F000269
:010590000268
:010591000267
:010592000266
:010593000166
:010594000165
:010595000164
:010596000163
:010597000162
:010598000161
:010599000061
:01059A000060
:01059B00005F
:01059C00005E
:01059D00005D
:01059E000F4D
:01059F000F4C
:0105A0000F4B
:0105A1000F4A
:0105A2000F49
:0105A3000F48
:0105A4000E48
:0105A5000E47
:0105A6000E46
:0105A7000E45
:0105A8000E44
:0105A9000E43
:0105AA000D43
:0105AB000D42
:0105AC000D41
:0105AD000D40
:0105AE000D3F
:0105AF000D3E
:0105B0000C3E
:0105B1000C3D
:0105B2000C3C
:0105B3000C3B
:0105B4000C3A
:0105B5000C39
:0105B6000B39
:0105B7000B38
:0105B8000B37
:0105B9000B36
:0105BA000B35
:0105BB000B34
:0105BC000A34
:0105BD000A33
:0105BE000A32
:0105BF000A31
:0105C0000A30
:0105C1000A2F
:0105C200092F
:0105C300092E
:0105C400092D
:0105C500092C
:0105C600092B
:0105C700092A
:0105C800082A
:0105C9000829
:0105CA000828
:0105CB000827
:0105CC000826
:0105CD000825
:0105CE000725
:0105CF000724
:0105D0000723
:0105D1000722
:0105D2000721
:0105D3000720
:0105D4000620
:0105D500061F
:0105D600061E
:0105D700061D
:0105D800061C
:0105D900061B
:0105DA00051B
:0105DB00051A
:0105DC000519
:0105DD000518
:0105DE000517
:0105DF000516
:0105E0000416
:0105E1000415
:0105E2000414
:0105E3000413
:0105E4000412
:0105E5000411
:0105E6000311
:0105E7000310
:0105E800030F
:0105E900030E
:0105EA00030D
:0105EB00030C
:0105EC00020C
:0105ED00020B
:0105EE00020A
:0105EF000209
:0105F0000208
:0105F1000207
:0105F2000107
:0105F3000106
:0105F4000105
:0105F5000104
:0105F6000103
:0105F7000102
:0105F8000101
:0105F9000001
:0105FA000000
:0105FB0000FF
:0105FC0000FE
:0105FD0000FD
:0105FE0000FC
:0105FF000FEC
:010600000FEA
:010601000FE9
:010602000FE8
:010603000FE7
:010604000FE6
:010605000EE6
:010606000EE5
:010607000EE4
:010608000EE3
:010609000EE2
:01060A000EE1
:01060B000EE0
:01060C000DE0
:01060D000DDF
:01060E000DDE
:01060F000DDD
:010610000DDC
:010611000DDB
:010612000CDB
:010613000CDA
:010614000CD9
:010615000CD8
:010616000CD7
:010617000CD6
:010618000BD6
:010619000BD5
:01061A000BD4
:01061B000BD3
:01061C000BD2
:01061D000BD1
:01061E000BD0
:01061F000AD0
:010620000ACF
:010621000ACE
:010622000ACD
:010623000ACC
:010624000ACB
:0106250009CB
:0106260009CA
:0106270009C9
:0106280009C8
:0106290009C7
:01062A0009C6
:01062B0009C5
:01062C0008C5
:01062D0008C4
:01062E0008C3
:01062F0008C2
:0106300008C1
:0106310008C0
:0106320007C0
:0106330007BF
:0106340007BE
:0106350007BD
:0106360007BC
:0106370007BB
:0106380007BA
:0106390006BA
:01063A0006B9
:01063B0006B8
:01063C0006B7
:01063D0006B6
:01063E0006B5
:01063F0006B4
:0106400005B4
:0106410005B3
:0106420005B2
:0106430005B1
:0106440005B0
:0106450005AF
:0106460004AF
:0106470004AE
:0106480004AD
:0106490004AC
:01064A0004AB
:01064B0004AA
:01064C0004A9
:01064D0003A9
:01064E0003A8
:01064F0003A7
:0106500003A6
:0106510003A5
:0106520003A4
:0106530003A3
:0106540002A3
:0106550002A2
:0106560002A1
:0106570002A0
:01065800029F
:01065900029E
:01065A00019E
:01065B00019D
:01065C00019C
:01065D00019B
:01065E00019A
:01065F000199
:010660000198
:010661000098
:010662000097
:010663000096
:010664000095
:010665000094
:010666000093
:010667000092
:010668000F82
:010669000F81
:01066A000F80
:01066B000F7F
:01066C000F7E
:01066D000F7D
:01066E000F7C
:01066F000E7C
:010670000E7B
:010671000E7A
:010672000E79
:010673000E78
:010674000E77
:010675000E76
:010676000D76
:010677000D75
:010678000D74
:010679000D73
:01067A000D72
:01067B000D71
:01067C000D70
:01067D000C70
:01067E000C6F
:01067F000C6E
:010680000C6D
:010681000C6C
:010682000C6B
:010683000C6A
:010684000B6A
:010685000B69
:010686000B68
:010687000B67
:010688000B66
:010689000B65
:01068A000B64
:01068B000A64
:01068C000A63
:01068D000A62
:01068E000A61
:01068F000A60
:010690000A5F
:010691000A5E
:01069200095E
:01069300095D
:01069400095C
:01069500095B
:01069600095A
:010697000959
:010698000958
:010699000858
:01069A000857
:01069B000856
:01069C000855
:01069D000854
:01069E000853
:01069F000852
:0106A0000752
:0106A1000751
:0106A2000750
:0106A300074F
:0106A400074E
:0106A500074D
:0106A600074C
:0106A700064C
:0106A800064B
:0106A900064A
:0106AA000649
:0106AB000648
:0106AC000647
:0106AD000646
:0106AE000645
:0106AF000545
:0106B0000544
:0106B1000543
:0106B2000542
:0106B3000541
:0106B4000540
:0106B500053F
:0106B600043F
:0106B700043E
:0106B800043D
:0106B900043C
:0106BA00043B
:0106BB00043A
:0106BC000439
:0106BD000339
:0106BE000338
:0106BF000337
:0106C0000336
:0106C1000335
:0106C2000334
:0106C3000333
:0106C4000332
:0106C5000232
:0106C6000231
:0106C7000230
:0106C800022F
:0106C900022E
:0106CA00022D
:0106CB00022C
:0106CC00012C
:0106CD00012B
:0106CE00012A
:0106CF000129
:0106D0000128
:0106D1000127
:0106D2000126
:0106D3000125
:0106D4000025
:0106D5000024
:0106D6000023
:0106D7000022
:0106D8000021
:0106D9000020
:0106DA00001F
:0106DB000F0F
:0106DC000F0E
:0106DD000F0D
:0106DE000F0C
:0106DF000F0B
:0106E0000F0A
:0106E1000F09
:0106E2000F08
:0106E3000E08
:0106E4000E07
:0106E5000E06
:0106E6000E05
:0106E7000E04
:0106E8000E03
:0106E9000E02
:0106EA000D02
:0106EB000D01
:0106EC000D00
:0106ED000DFF
:0106EE000DFE
:0106EF000DFD
:0106F0000DFC
:0106F1000DFB
:0106F2000CFB
:0106F3000CFA
:0106F4000CF9
:0106F5000CF8
:0106F6000CF7
:0106F7000CF6
:0106F8000CF5
:0106F9000BF5
:0106FA000BF4
:0106FB000BF3
:0106FC000BF2
:0106FD000BF1
:0106FE000BF0
:0106FF000BEF
:010700000BED
:010701000AED
:010702000AEC
:010703000AEB
:010704000AEA
:010705000AE9
:010706000AE8
:010707000AE7
:010708000AE6
:0107090009E6
:01070A0009E5
:01070B0009E4
:01070C0009E3
:01070D0009E2
:01070E0009E1
:01070F0009E0
:0107100009DF
:0107110008DF
:0107120008DE
:0107130008DD
:0107140008DC
:0107150008DB
:0107160008DA
:0107170008D9
:0107180007D9
:0107190007D8
:01071A0007D7
:01071B0007D6
:01071C0007D5
:01071D0007D4
:01071E0007D3
:01071F0007D2
:0107200006D2
:0107210006D1
:0107220006D0
:0107230006CF
:0107240006CE
:0107250006CD
:0107260006CC
:0107270006CB
:0107280005CB
:0107290005CA
:01072A0005C9
:01072B0005C8
:01072C0005C7
:01072D0005C6
:01072E0005C5
:01072F0005C4
:0107300004C4
:0107310004C3
:0107320004C2
:0107330004C1
:0107340004C0
:0107350004BF
:0107360004BE
:0107370004BD
:0107380003BD
:0107390003BC
:01073A0003BB
:01073B0003BA
:01073C0003B9
:01073D0003B8
:01073E0003B7
:01073F0003B6
:0107400002B6
:0107410002B5
:0107420002B4
:0107430002B3
:0107440002B2
:0107450002B1
:0107460002B0
:0107470002AF
:0107480001AF
:0107490001AE
:01074A0001AD
:01074B0001AC
:01074C0001AB
:01074D0001AA
:01074E0001A9
:01074F0001A8
:0107500000A8
:0107510000A7
:0107520000A6
:0107530000A5
:0107540000A4
:0107550000A3
:0107560000A2
:0107570000A1
:0107580000A0
:010759000F90
:01075A000F8F
:01075B000F8E
:01075C000F8D
:01075D000F8C
:01075E000F8B
:01075F000F8A
:010760000F89
:010761000E89
:010762000E88
:010763000E87
:010764000E86
:010765000E85
:010766000E84
:010767000E83
:010768000E82
:010769000D82
:01076A000D81
:01076B000D80
:01076C000D7F
:01076D000D7E
:01076E000D7D
:01076F000D7C
:010770000D7B
:010771000D7A
:010772000C7A
:010773000C79
:010774000C78
:010775000C77
:010776000C76
:010777000C75
:010778000C74
:010779000C73
:01077A000B73
:01077B000B72
:01077C000B71
:01077D000B70
:01077E000B6F
:01077F000B6E
:010780000B6D
:010781000B6C
:010782000A6C
:010783000A6B
:010784000A6A
:010785000A69
:010786000A68
:010787000A67
:010788000A66
:010789000A65
:01078A000A64
:01078B000964
:01078C000963
:01078D000962
:01078E000961
:01078F000960
:01079000095F
:01079100095E
:01079200095D
:01079300085D
:01079400085C
:01079500085B
:01079600085A
:010797000859
:010798000858
:010799000857
:01079A000856
:01079B000855
:01079C000755
:01079D000754
:01079E000753
:01079F000752
:0107A0000751
:0107A1000750
:0107A200074F
:0107A300074E
:0107A400074D
:0107A500064D
:0107A600064C
:0107A700064B
:0107A800064A
:0107A9000649
:0107AA000648
:0107AB000647
:0107AC000646
:0107AD000546
:0107AE000545
:0107AF000544
:0107B0000543
:0107B1000542
:0107B2000541
:0107B3000540
:0107B400053F
:0107B500053E
:0107B600043E
:0107B700043D
:0107B800043C
:0107B900043B
:0107BA00043A
:0107BB000439
:0107BC000438
:0107BD000437
:0107BE000436
:0107BF000336
:0107C0000335
:0107C1000334
:0107C2000333
:0107C3000332
:0107C4000331
:0107C5000330
:0107C600032F
:0107C700032E
:0107C800022E
:0107C900022D
:0107CA00022C
:0107CB00022B
:0107CC00022A
:0107CD000229
:0107CE000228
:0107CF000227
:0107D0000226
:0107D1000126
:0107D2000125
:0107D3000124
:0107D4000123
:0107D5000122
:0107D6000121
:0107D7000120
:0107D800011F
:0107D900011E
:0107DA00001E
:0107DB00001D
:0107DC00001C
:0107DD00001B
:0107DE00001A
:0107DF000019
:0107E0000018
:0107E1000017
:0107E2000016
:0107E3000F06
:0107E4000F05
:0107E5000F04
:0107E6000F03
:0107E7000F02
:0107E8000F01
:0107E9000F00
:0107EA000FFF
:0107EB000FFE
:0107EC000EFE
:0107ED000EFD
:0107EE000EFC
:0107EF000EFB
:0107F0000EFA
:0107F1000EF9
:0107F2000EF8
:0107F3000EF7
:0107F4000EF6
:0107F5000DF6
:0107F6000DF5
:0107F7000DF4
:0107F8000DF3
:0107F9000DF2
:0107FA000DF1
:0107FB000DF0
:0107FC000DEF
:0107FD000DEE
:0107FE000CEE
:0107FF000CED
:00000001ff
