:020000040000FA
:0100000009F6
:0100010009F5
:0100020009F4
:0100030009F3
:0100040009F2
:0100050009F1
:0100060009F0
:0100070009EF
:0100080009EE
:0100090009ED
:01000A0009EC
:01000B0009EB
:01000C0009EA
:01000D0009E9
:01000E0009E8
:01000F0009E7
:0100100009E6
:0100110009E5
:0100120009E4
:0100130009E3
:0100140009E2
:0100150009E1
:0100160009E0
:0100170009DF
:0100180009DE
:0100190009DD
:01001A0009DC
:01001B0009DB
:01001C0009DA
:01001D0009D9
:01001E0009D8
:01001F0009D7
:0100200009D6
:0100210009D5
:0100220009D4
:0100230009D3
:0100240009D2
:0100250009D1
:0100260009D0
:0100270009CF
:0100280009CE
:0100290009CD
:01002A0009CC
:01002B0009CB
:01002C0009CA
:01002D0009C9
:01002E0009C8
:01002F0009C7
:0100300009C6
:010031000AC4
:010032000AC3
:010033000AC2
:010034000AC1
:010035000AC0
:010036000ABF
:010037000ABE
:010038000ABD
:010039000ABC
:01003A000ABB
:01003B000ABA
:01003C000AB9
:01003D000AB8
:01003E000AB7
:01003F000AB6
:010040000AB5
:010041000AB4
:010042000AB3
:010043000AB2
:010044000AB1
:010045000AB0
:010046000AAF
:010047000AAE
:010048000AAD
:010049000AAC
:01004A000AAB
:01004B000AAA
:01004C000AA9
:01004D000AA8
:01004E000AA7
:01004F000AA6
:010050000AA5
:010051000AA4
:010052000AA3
:010053000AA2
:010054000AA1
:010055000AA0
:010056000A9F
:010057000A9E
:010058000A9D
:010059000A9C
:01005A000A9B
:01005B000A9A
:01005C000A99
:01005D000A98
:01005E000A97
:01005F000A96
:010060000A95
:010061000A94
:010062000A93
:010063000A92
:010064000A91
:010065000A90
:010066000A8F
:010067000A8E
:010068000A8D
:010069000A8C
:01006A000A8B
:01006B000A8A
:01006C000A89
:01006D000A88
:01006E000A87
:01006F000B85
:010070000B84
:010071000B83
:010072000B82
:010073000B81
:010074000B80
:010075000B7F
:010076000B7E
:010077000B7D
:010078000B7C
:010079000B7B
:01007A000B7A
:01007B000B79
:01007C000B78
:01007D000B77
:01007E000B76
:01007F000B75
:010080000B74
:010081000B73
:010082000B72
:010083000B71
:010084000B70
:010085000B6F
:010086000B6E
:010087000B6D
:010088000B6C
:010089000B6B
:01008A000B6A
:01008B000B69
:01008C000B68
:01008D000B67
:01008E000B66
:01008F000B65
:010090000B64
:010091000B63
:010092000B62
:010093000B61
:010094000B60
:010095000B5F
:010096000B5E
:010097000B5D
:010098000B5C
:010099000B5B
:01009A000B5A
:01009B000B59
:01009C000B58
:01009D000B57
:01009E000B56
:01009F000B55
:0100A0000B54
:0100A1000B53
:0100A2000B52
:0100A3000B51
:0100A4000B50
:0100A5000B4F
:0100A6000B4E
:0100A7000B4D
:0100A8000B4C
:0100A9000B4B
:0100AA000B4A
:0100AB000B49
:0100AC000B48
:0100AD000B47
:0100AE000B46
:0100AF000B45
:0100B0000B44
:0100B1000B43
:0100B2000B42
:0100B3000B41
:0100B4000B40
:0100B5000B3F
:0100B6000B3E
:0100B7000B3D
:0100B8000B3C
:0100B9000B3B
:0100BA000B3A
:0100BB000B39
:0100BC000B38
:0100BD000B37
:0100BE000B36
:0100BF000B35
:0100C0000B34
:0100C1000C32
:0100C2000C31
:0100C3000C30
:0100C4000C2F
:0100C5000C2E
:0100C6000C2D
:0100C7000C2C
:0100C8000C2B
:0100C9000C2A
:0100CA000C29
:0100CB000C28
:0100CC000C27
:0100CD000C26
:0100CE000C25
:0100CF000C24
:0100D0000C23
:0100D1000C22
:0100D2000C21
:0100D3000C20
:0100D4000C1F
:0100D5000C1E
:0100D6000C1D
:0100D7000C1C
:0100D8000C1B
:0100D9000C1A
:0100DA000C19
:0100DB000C18
:0100DC000C17
:0100DD000C16
:0100DE000C15
:0100DF000C14
:0100E0000C13
:0100E1000C12
:0100E2000C11
:0100E3000C10
:0100E4000C0F
:0100E5000C0E
:0100E6000C0D
:0100E7000C0C
:0100E8000C0B
:0100E9000C0A
:0100EA000C09
:0100EB000C08
:0100EC000C07
:0100ED000C06
:0100EE000C05
:0100EF000C04
:0100F0000C03
:0100F1000C02
:0100F2000C01
:0100F3000C00
:0100F4000CFF
:0100F5000CFE
:0100F6000CFD
:0100F7000CFC
:0100F8000CFB
:0100F9000CFA
:0100FA000CF9
:0100FB000CF8
:0100FC000CF7
:0100FD000CF6
:0100FE000CF5
:0100FF000CF4
:010100000CF2
:010101000CF1
:010102000CF0
:010103000CEF
:010104000CEE
:010105000CED
:010106000CEC
:010107000CEB
:010108000CEA
:010109000CE9
:01010A000CE8
:01010B000CE7
:01010C000CE6
:01010D000CE5
:01010E000CE4
:01010F000CE3
:010110000CE2
:010111000CE1
:010112000CE0
:010113000CDF
:010114000CDE
:010115000CDD
:010116000CDC
:010117000CDB
:010118000CDA
:010119000CD9
:01011A000CD8
:01011B000CD7
:01011C000CD6
:01011D000CD5
:01011E000CD4
:01011F000CD3
:010120000CD2
:010121000CD1
:010122000CD0
:010123000CCF
:010124000CCE
:010125000CCD
:010126000CCC
:010127000CCB
:010128000CCA
:010129000CC9
:01012A000CC8
:01012B000CC7
:01012C000CC6
:01012D000CC5
:01012E000CC4
:01012F000CC3
:010130000CC2
:010131000CC1
:010132000DBF
:010133000DBE
:010134000DBD
:010135000DBC
:010136000DBB
:010137000DBA
:010138000DB9
:010139000DB8
:01013A000DB7
:01013B000DB6
:01013C000DB5
:01013D000DB4
:01013E000DB3
:01013F000DB2
:010140000DB1
:010141000DB0
:010142000DAF
:010143000DAE
:010144000DAD
:010145000DAC
:010146000DAB
:010147000DAA
:010148000DA9
:010149000DA8
:01014A000DA7
:01014B000DA6
:01014C000DA5
:01014D000DA4
:01014E000DA3
:01014F000DA2
:010150000DA1
:010151000DA0
:010152000D9F
:010153000D9E
:010154000D9D
:010155000D9C
:010156000D9B
:010157000D9A
:010158000D99
:010159000D98
:01015A000D97
:01015B000D96
:01015C000D95
:01015D000D94
:01015E000D93
:01015F000D92
:010160000D91
:010161000D90
:010162000D8F
:010163000D8E
:010164000D8D
:010165000D8C
:010166000D8B
:010167000D8A
:010168000D89
:010169000D88
:01016A000D87
:01016B000D86
:01016C000D85
:01016D000D84
:01016E000D83
:01016F000D82
:010170000D81
:010171000D80
:010172000D7F
:010173000D7E
:010174000D7D
:010175000D7C
:010176000D7B
:010177000D7A
:010178000D79
:010179000D78
:01017A000D77
:01017B000D76
:01017C000D75
:01017D000D74
:01017E000D73
:01017F000D72
:010180000D71
:010181000D70
:010182000D6F
:010183000D6E
:010184000D6D
:010185000D6C
:010186000D6B
:010187000D6A
:010188000D69
:010189000D68
:01018A000D67
:01018B000D66
:01018C000D65
:01018D000D64
:01018E000D63
:01018F000D62
:010190000D61
:010191000D60
:010192000D5F
:010193000D5E
:010194000D5D
:010195000D5C
:010196000D5B
:010197000D5A
:010198000D59
:010199000D58
:01019A000D57
:01019B000D56
:01019C000D55
:01019D000D54
:01019E000D53
:01019F000D52
:0101A0000D51
:0101A1000D50
:0101A2000D4F
:0101A3000D4E
:0101A4000D4D
:0101A5000D4C
:0101A6000D4B
:0101A7000D4A
:0101A8000D49
:0101A9000D48
:0101AA000D47
:0101AB000D46
:0101AC000D45
:0101AD000D44
:0101AE000D43
:0101AF000D42
:0101B0000D41
:0101B1000D40
:0101B2000D3F
:0101B3000D3E
:0101B4000D3D
:0101B5000D3C
:0101B6000D3B
:0101B7000D3A
:0101B8000D39
:0101B9000D38
:0101BA000D37
:0101BB000D36
:0101BC000D35
:0101BD000D34
:0101BE000D33
:0101BF000D32
:0101C0000D31
:0101C1000D30
:0101C2000D2F
:0101C3000D2E
:0101C4000D2D
:0101C5000D2C
:0101C6000D2B
:0101C7000D2A
:0101C8000D29
:0101C9000D28
:0101CA000D27
:0101CB000D26
:0101CC000D25
:0101CD000D24
:0101CE000D23
:0101CF000D22
:0101D0000D21
:0101D1000D20
:0101D2000D1F
:0101D3000D1E
:0101D4000D1D
:0101D5000D1C
:0101D6000D1B
:0101D7000D1A
:0101D8000D19
:0101D9000D18
:0101DA000D17
:0101DB000D16
:0101DC000D15
:0101DD000D14
:0101DE000D13
:0101DF000D12
:0101E0000D11
:0101E1000D10
:0101E2000D0F
:0101E3000D0E
:0101E4000E0C
:0101E5000E0B
:0101E6000E0A
:0101E7000E09
:0101E8000E08
:0101E9000E07
:0101EA000E06
:0101EB000E05
:0101EC000E04
:0101ED000E03
:0101EE000E02
:0101EF000E01
:0101F0000E00
:0101F1000EFF
:0101F2000EFE
:0101F3000EFD
:0101F4000EFC
:0101F5000EFB
:0101F6000EFA
:0101F7000EF9
:0101F8000EF8
:0101F9000EF7
:0101FA000EF6
:0101FB000EF5
:0101FC000EF4
:0101FD000EF3
:0101FE000EF2
:0101FF000EF1
:010200000EEF
:010201000EEE
:010202000EED
:010203000EEC
:010204000EEB
:010205000EEA
:010206000EE9
:010207000EE8
:010208000EE7
:010209000EE6
:01020A000EE5
:01020B000EE4
:01020C000EE3
:01020D000EE2
:01020E000EE1
:01020F000EE0
:010210000EDF
:010211000EDE
:010212000EDD
:010213000EDC
:010214000EDB
:010215000EDA
:010216000ED9
:010217000ED8
:010218000ED7
:010219000ED6
:01021A000ED5
:01021B000ED4
:01021C000ED3
:01021D000ED2
:01021E000ED1
:01021F000ED0
:010220000ECF
:010221000ECE
:010222000ECD
:010223000ECC
:010224000ECB
:010225000ECA
:010226000EC9
:010227000EC8
:010228000EC7
:010229000EC6
:01022A000EC5
:01022B000EC4
:01022C000EC3
:01022D000EC2
:01022E000EC1
:01022F000EC0
:010230000EBF
:010231000EBE
:010232000EBD
:010233000EBC
:010234000EBB
:010235000EBA
:010236000EB9
:010237000EB8
:010238000EB7
:010239000EB6
:01023A000EB5
:01023B000EB4
:01023C000EB3
:01023D000EB2
:01023E000EB1
:01023F000EB0
:010240000EAF
:010241000EAE
:010242000EAD
:010243000EAC
:010244000EAB
:010245000EAA
:010246000EA9
:010247000EA8
:010248000EA7
:010249000EA6
:01024A000EA5
:01024B000EA4
:01024C000EA3
:01024D000EA2
:01024E000EA1
:01024F000EA0
:010250000E9F
:010251000E9E
:010252000E9D
:010253000E9C
:010254000E9B
:010255000E9A
:010256000E99
:010257000E98
:010258000E97
:010259000E96
:01025A000E95
:01025B000E94
:01025C000E93
:01025D000E92
:01025E000E91
:01025F000E90
:010260000E8F
:010261000E8E
:010262000E8D
:010263000E8C
:010264000E8B
:010265000E8A
:010266000E89
:010267000E88
:010268000E87
:010269000E86
:01026A000E85
:01026B000E84
:01026C000E83
:01026D000E82
:01026E000E81
:01026F000E80
:010270000E7F
:010271000E7E
:010272000E7D
:010273000E7C
:010274000E7B
:010275000E7A
:010276000E79
:010277000E78
:010278000E77
:010279000E76
:01027A000E75
:01027B000E74
:01027C000E73
:01027D000E72
:01027E000E71
:01027F000E70
:010280000E6F
:010281000E6E
:010282000E6D
:010283000E6C
:010284000E6B
:010285000E6A
:010286000E69
:010287000E68
:010288000E67
:010289000E66
:01028A000E65
:01028B000E64
:01028C000E63
:01028D000E62
:01028E000E61
:01028F000E60
:010290000E5F
:010291000E5E
:010292000E5D
:010293000E5C
:010294000E5B
:010295000E5A
:010296000E59
:010297000E58
:010298000E57
:010299000E56
:01029A000E55
:01029B000E54
:01029C000E53
:01029D000E52
:01029E000E51
:01029F000E50
:0102A0000E4F
:0102A1000E4E
:0102A2000E4D
:0102A3000E4C
:0102A4000E4B
:0102A5000E4A
:0102A6000E49
:0102A7000E48
:0102A8000E47
:0102A9000E46
:0102AA000E45
:0102AB000E44
:0102AC000E43
:0102AD000E42
:0102AE000E41
:0102AF000E40
:0102B0000E3F
:0102B1000E3E
:0102B2000E3D
:0102B3000E3C
:0102B4000E3B
:0102B5000E3A
:0102B6000E39
:0102B7000E38
:0102B8000E37
:0102B9000E36
:0102BA000E35
:0102BB000E34
:0102BC000E33
:0102BD000E32
:0102BE000E31
:0102BF000E30
:0102C0000E2F
:0102C1000E2E
:0102C2000E2D
:0102C3000E2C
:0102C4000E2B
:0102C5000E2A
:0102C6000E29
:0102C7000E28
:0102C8000E27
:0102C9000E26
:0102CA000E25
:0102CB000E24
:0102CC000E23
:0102CD000E22
:0102CE000E21
:0102CF000E20
:0102D0000E1F
:0102D1000E1E
:0102D2000E1D
:0102D3000E1C
:0102D4000E1B
:0102D5000E1A
:0102D6000E19
:0102D7000E18
:0102D8000E17
:0102D9000E16
:0102DA000E15
:0102DB000E14
:0102DC000E13
:0102DD000E12
:0102DE000E11
:0102DF000E10
:0102E0000E0F
:0102E1000E0E
:0102E2000E0D
:0102E3000E0C
:0102E4000E0B
:0102E5000E0A
:0102E6000E09
:0102E7000E08
:0102E8000E07
:0102E9000E06
:0102EA000E05
:0102EB000E04
:0102EC000E03
:0102ED000E02
:0102EE000E01
:0102EF000E00
:0102F0000EFF
:0102F1000EFE
:0102F2000EFD
:0102F3000EFC
:0102F4000EFB
:0102F5000EFA
:0102F6000EF9
:0102F7000EF8
:0102F8000EF7
:0102F9000EF6
:0102FA000EF5
:0102FB000EF4
:0102FC000EF3
:0102FD000EF2
:0102FE000EF1
:0102FF000EF0
:010300000EEE
:010301000EED
:010302000EEC
:010303000EEB
:010304000EEA
:010305000EE9
:010306000EE8
:010307000EE7
:010308000EE6
:010309000EE5
:01030A000EE4
:01030B000EE3
:01030C000EE2
:01030D000EE1
:01030E000EE0
:01030F000EDF
:010310000EDE
:010311000EDD
:010312000EDC
:010313000EDB
:010314000EDA
:010315000ED9
:010316000ED8
:010317000ED7
:010318000ED6
:010319000ED5
:01031A000ED4
:01031B000ED3
:01031C000ED2
:01031D000ED1
:01031E000ED0
:01031F000ECF
:010320000ECE
:010321000ECD
:010322000ECC
:010323000ECB
:010324000ECA
:010325000EC9
:010326000EC8
:010327000EC7
:010328000EC6
:010329000EC5
:01032A000EC4
:01032B000EC3
:01032C000EC2
:01032D000EC1
:01032E000EC0
:01032F000EBF
:010330000EBE
:010331000EBD
:010332000EBC
:010333000EBB
:010334000EBA
:010335000EB9
:010336000EB8
:010337000EB7
:010338000EB6
:010339000EB5
:01033A000EB4
:01033B000EB3
:01033C000EB2
:01033D000EB1
:01033E000EB0
:01033F000EAF
:010340000EAE
:010341000EAD
:010342000EAC
:010343000EAB
:010344000EAA
:010345000EA9
:010346000EA8
:010347000EA7
:010348000EA6
:010349000FA4
:01034A000FA3
:01034B000FA2
:01034C000FA1
:01034D000FA0
:01034E000F9F
:01034F000F9E
:010350000F9D
:010351000F9C
:010352000F9B
:010353000F9A
:010354000F99
:010355000F98
:010356000F97
:010357000F96
:010358000F95
:010359000F94
:01035A000F93
:01035B000F92
:01035C000F91
:01035D000F90
:01035E000F8F
:01035F000F8E
:010360000F8D
:010361000F8C
:010362000F8B
:010363000F8A
:010364000F89
:010365000F88
:010366000F87
:010367000F86
:010368000F85
:010369000F84
:01036A000F83
:01036B000F82
:01036C000F81
:01036D000F80
:01036E000F7F
:01036F000F7E
:010370000F7D
:010371000F7C
:010372000F7B
:010373000F7A
:010374000F79
:010375000F78
:010376000F77
:010377000F76
:010378000F75
:010379000F74
:01037A000F73
:01037B000F72
:01037C000F71
:01037D000F70
:01037E000F6F
:01037F000F6E
:010380000F6D
:010381000F6C
:010382000F6B
:010383000F6A
:010384000F69
:010385000F68
:010386000F67
:010387000F66
:010388000F65
:010389000F64
:01038A000F63
:01038B000F62
:01038C000F61
:01038D000F60
:01038E000F5F
:01038F000F5E
:010390000F5D
:010391000F5C
:010392000F5B
:010393000F5A
:010394000F59
:010395000F58
:010396000F57
:010397000F56
:010398000F55
:010399000F54
:01039A000F53
:01039B000F52
:01039C000F51
:01039D000F50
:01039E000F4F
:01039F000F4E
:0103A0000F4D
:0103A1000F4C
:0103A2000F4B
:0103A3000F4A
:0103A4000F49
:0103A5000F48
:0103A6000F47
:0103A7000F46
:0103A8000F45
:0103A9000F44
:0103AA000F43
:0103AB000F42
:0103AC000F41
:0103AD000F40
:0103AE000F3F
:0103AF000F3E
:0103B0000F3D
:0103B1000F3C
:0103B2000F3B
:0103B3000F3A
:0103B4000F39
:0103B5000F38
:0103B6000F37
:0103B7000F36
:0103B8000F35
:0103B9000F34
:0103BA000F33
:0103BB000F32
:0103BC000F31
:0103BD000F30
:0103BE000F2F
:0103BF000F2E
:0103C0000F2D
:0103C1000F2C
:0103C2000F2B
:0103C3000F2A
:0103C4000F29
:0103C5000F28
:0103C6000F27
:0103C7000F26
:0103C8000F25
:0103C9000F24
:0103CA000F23
:0103CB000F22
:0103CC000F21
:0103CD000F20
:0103CE000F1F
:0103CF000F1E
:0103D0000F1D
:0103D1000F1C
:0103D2000F1B
:0103D3000F1A
:0103D4000F19
:0103D5000F18
:0103D6000F17
:0103D7000F16
:0103D8000F15
:0103D9000F14
:0103DA000F13
:0103DB000F12
:0103DC000F11
:0103DD000F10
:0103DE000F0F
:0103DF000F0E
:0103E0000F0D
:0103E1000F0C
:0103E2000F0B
:0103E3000F0A
:0103E4000F09
:0103E5000F08
:0103E6000F07
:0103E7000F06
:0103E8000F05
:0103E9000F04
:0103EA000F03
:0103EB000F02
:0103EC000F01
:0103ED000F00
:0103EE000FFF
:0103EF000FFE
:0103F0000FFD
:0103F1000FFC
:0103F2000FFB
:0103F3000FFA
:0103F4000FF9
:0103F5000FF8
:0103F6000FF7
:0103F7000FF6
:0103F8000FF5
:0103F9000FF4
:0103FA000FF3
:0103FB000FF2
:0103FC000FF1
:0103FD000FF0
:0103FE000FEF
:0103FF000FEE
:010400000CEF
:010401000CEE
:010402000CED
:010403000CEC
:010404000CEB
:010405000CEA
:010406000CE9
:010407000CE8
:010408000CE7
:010409000CE6
:01040A000CE5
:01040B000CE4
:01040C000CE3
:01040D000CE2
:01040E000CE1
:01040F000CE0
:010410000CDF
:010411000CDE
:010412000CDD
:010413000CDC
:010414000CDB
:010415000CDA
:010416000CD9
:010417000CD8
:010418000CD7
:010419000CD6
:01041A000CD5
:01041B000CD4
:01041C000CD3
:01041D000CD2
:01041E000CD1
:01041F000CD0
:010420000CCF
:010421000CCE
:010422000CCD
:010423000CCC
:010424000CCB
:010425000CCA
:010426000CC9
:010427000CC8
:010428000CC7
:010429000CC6
:01042A000CC5
:01042B000CC4
:01042C000CC3
:01042D000CC2
:01042E000CC1
:01042F000CC0
:010430000CBF
:010431000CBE
:010432000CBD
:010433000CBC
:010434000CBB
:010435000CBA
:010436000CB9
:010437000CB8
:010438000CB7
:010439000CB6
:01043A000CB5
:01043B000CB4
:01043C000CB3
:01043D000CB2
:01043E000CB1
:01043F000CB0
:010440000CAF
:010441000CAE
:010442000CAD
:010443000CAC
:010444000CAB
:010445000CAA
:010446000CA9
:010447000CA8
:010448000CA7
:010449000CA6
:01044A000CA5
:01044B000CA4
:01044C000CA3
:01044D000CA2
:01044E000CA1
:01044F000CA0
:010450000C9F
:010451000C9E
:010452000C9D
:010453000C9C
:010454000C9B
:010455000C9A
:010456000C99
:010457000C98
:010458000C97
:010459000C96
:01045A000D94
:01045B000D93
:01045C000D92
:01045D000D91
:01045E000D90
:01045F000D8F
:010460000D8E
:010461000D8D
:010462000D8C
:010463000D8B
:010464000D8A
:010465000D89
:010466000D88
:010467000D87
:010468000D86
:010469000D85
:01046A000D84
:01046B000D83
:01046C000D82
:01046D000D81
:01046E000D80
:01046F000D7F
:010470000D7E
:010471000D7D
:010472000D7C
:010473000D7B
:010474000D7A
:010475000D79
:010476000D78
:010477000D77
:010478000D76
:010479000D75
:01047A000D74
:01047B000D73
:01047C000D72
:01047D000D71
:01047E000D70
:01047F000D6F
:010480000D6E
:010481000D6D
:010482000D6C
:010483000D6B
:010484000D6A
:010485000D69
:010486000D68
:010487000D67
:010488000D66
:010489000D65
:01048A000D64
:01048B000D63
:01048C000D62
:01048D000D61
:01048E000D60
:01048F000D5F
:010490000D5E
:010491000D5D
:010492000D5C
:010493000D5B
:010494000D5A
:010495000D59
:010496000D58
:010497000D57
:010498000D56
:010499000D55
:01049A000D54
:01049B000D53
:01049C000D52
:01049D000D51
:01049E000D50
:01049F000D4F
:0104A0000D4E
:0104A1000D4D
:0104A2000D4C
:0104A3000D4B
:0104A4000D4A
:0104A5000D49
:0104A6000D48
:0104A7000D47
:0104A8000D46
:0104A9000D45
:0104AA000D44
:0104AB000D43
:0104AC000D42
:0104AD000D41
:0104AE000D40
:0104AF000D3F
:0104B0000D3E
:0104B1000D3D
:0104B2000D3C
:0104B3000D3B
:0104B4000D3A
:0104B5000D39
:0104B6000D38
:0104B7000D37
:0104B8000D36
:0104B9000D35
:0104BA000D34
:0104BB000D33
:0104BC000D32
:0104BD000D31
:0104BE000D30
:0104BF000D2F
:0104C0000D2E
:0104C1000D2D
:0104C2000D2C
:0104C3000D2B
:0104C4000D2A
:0104C5000D29
:0104C6000D28
:0104C7000D27
:0104C8000D26
:0104C9000D25
:0104CA000D24
:0104CB000D23
:0104CC000D22
:0104CD000D21
:0104CE000D20
:0104CF000D1F
:0104D0000D1E
:0104D1000D1D
:0104D2000D1C
:0104D3000D1B
:0104D4000D1A
:0104D5000D19
:0104D6000D18
:0104D7000D17
:0104D8000D16
:0104D9000D15
:0104DA000D14
:0104DB000D13
:0104DC000D12
:0104DD000D11
:0104DE000D10
:0104DF000D0F
:0104E0000D0E
:0104E1000D0D
:0104E2000D0C
:0104E3000D0B
:0104E4000D0A
:0104E5000D09
:0104E6000D08
:0104E7000D07
:0104E8000D06
:0104E9000D05
:0104EA000D04
:0104EB000D03
:0104EC000D02
:0104ED000D01
:0104EE000D00
:0104EF000DFF
:0104F0000DFE
:0104F1000DFD
:0104F2000DFC
:0104F3000EFA
:0104F4000EF9
:0104F5000EF8
:0104F6000EF7
:0104F7000EF6
:0104F8000EF5
:0104F9000EF4
:0104FA000EF3
:0104FB000EF2
:0104FC000EF1
:0104FD000EF0
:0104FE000EEF
:0104FF000EEE
:010500000EEC
:010501000EEB
:010502000EEA
:010503000EE9
:010504000EE8
:010505000EE7
:010506000EE6
:010507000EE5
:010508000EE4
:010509000EE3
:01050A000EE2
:01050B000EE1
:01050C000EE0
:01050D000EDF
:01050E000EDE
:01050F000EDD
:010510000EDC
:010511000EDB
:010512000EDA
:010513000ED9
:010514000ED8
:010515000ED7
:010516000ED6
:010517000ED5
:010518000ED4
:010519000ED3
:01051A000ED2
:01051B000ED1
:01051C000ED0
:01051D000ECF
:01051E000ECE
:01051F000ECD
:010520000ECC
:010521000ECB
:010522000ECA
:010523000EC9
:010524000EC8
:010525000EC7
:010526000EC6
:010527000EC5
:010528000EC4
:010529000EC3
:01052A000EC2
:01052B000EC1
:01052C000EC0
:01052D000EBF
:01052E000EBE
:01052F000EBD
:010530000EBC
:010531000EBB
:010532000EBA
:010533000EB9
:010534000EB8
:010535000EB7
:010536000EB6
:010537000EB5
:010538000EB4
:010539000EB3
:01053A000EB2
:01053B000EB1
:01053C000EB0
:01053D000EAF
:01053E000EAE
:01053F000EAD
:010540000EAC
:010541000EAB
:010542000EAA
:010543000EA9
:010544000EA8
:010545000EA7
:010546000EA6
:010547000EA5
:010548000EA4
:010549000EA3
:01054A000EA2
:01054B000EA1
:01054C000EA0
:01054D000E9F
:01054E000E9E
:01054F000E9D
:010550000E9C
:010551000E9B
:010552000E9A
:010553000E99
:010554000E98
:010555000E97
:010556000E96
:010557000E95
:010558000E94
:010559000E93
:01055A000E92
:01055B000E91
:01055C000E90
:01055D000E8F
:01055E000E8E
:01055F000E8D
:010560000E8C
:010561000E8B
:010562000E8A
:010563000E89
:010564000E88
:010565000E87
:010566000E86
:010567000E85
:010568000E84
:010569000E83
:01056A000E82
:01056B000E81
:01056C000E80
:01056D000E7F
:01056E000E7E
:01056F000E7D
:010570000E7C
:010571000E7B
:010572000E7A
:010573000E79
:010574000E78
:010575000E77
:010576000E76
:010577000E75
:010578000E74
:010579000E73
:01057A000E72
:01057B000E71
:01057C000E70
:01057D000E6F
:01057E000E6E
:01057F000E6D
:010580000E6C
:010581000E6B
:010582000E6A
:010583000E69
:010584000E68
:010585000E67
:010586000E66
:010587000E65
:010588000E64
:010589000E63
:01058A000E62
:01058B000E61
:01058C000E60
:01058D000E5F
:01058E000E5E
:01058F000E5D
:010590000E5C
:010591000E5B
:010592000E5A
:010593000E59
:010594000E58
:010595000E57
:010596000E56
:010597000E55
:010598000E54
:010599000E53
:01059A000E52
:01059B000E51
:01059C000E50
:01059D000E4F
:01059E000E4E
:01059F000E4D
:0105A0000E4C
:0105A1000E4B
:0105A2000E4A
:0105A3000E49
:0105A4000E48
:0105A5000E47
:0105A6000E46
:0105A7000E45
:0105A8000E44
:0105A9000E43
:0105AA000E42
:0105AB000E41
:0105AC000E40
:0105AD000E3F
:0105AE000E3E
:0105AF000E3D
:0105B0000E3C
:0105B1000E3B
:0105B2000E3A
:0105B3000E39
:0105B4000E38
:0105B5000E37
:0105B6000E36
:0105B7000E35
:0105B8000E34
:0105B9000E33
:0105BA000E32
:0105BB000E31
:0105BC000E30
:0105BD000E2F
:0105BE000E2E
:0105BF000E2D
:0105C0000E2C
:0105C1000E2B
:0105C2000E2A
:0105C3000E29
:0105C4000E28
:0105C5000E27
:0105C6000E26
:0105C7000E25
:0105C8000E24
:0105C9000E23
:0105CA000E22
:0105CB000E21
:0105CC000E20
:0105CD000E1F
:0105CE000E1E
:0105CF000E1D
:0105D0000E1C
:0105D1000E1B
:0105D2000E1A
:0105D3000E19
:0105D4000E18
:0105D5000E17
:0105D6000E16
:0105D7000E15
:0105D8000E14
:0105D9000E13
:0105DA000E12
:0105DB000E11
:0105DC000E10
:0105DD000E0F
:0105DE000E0E
:0105DF000E0D
:0105E0000E0C
:0105E1000E0B
:0105E2000E0A
:0105E3000E09
:0105E4000E08
:0105E5000E07
:0105E6000E06
:0105E7000E05
:0105E8000E04
:0105E9000E03
:0105EA000E02
:0105EB000E01
:0105EC000E00
:0105ED000EFF
:0105EE000EFE
:0105EF000EFD
:0105F0000EFC
:0105F1000EFB
:0105F2000EFA
:0105F3000EF9
:0105F4000EF8
:0105F5000EF7
:0105F6000EF6
:0105F7000EF5
:0105F8000EF4
:0105F9000EF3
:0105FA000EF2
:0105FB000EF1
:0105FC000EF0
:0105FD000EEF
:0105FE000EEE
:0105FF000EED
:010600000EEB
:010601000EEA
:010602000EE9
:010603000EE8
:010604000EE7
:010605000EE6
:010606000EE5
:010607000EE4
:010608000EE3
:010609000EE2
:01060A000EE1
:01060B000EE0
:01060C000EDF
:01060D000EDE
:01060E000EDD
:01060F000EDC
:010610000EDB
:010611000EDA
:010612000ED9
:010613000ED8
:010614000ED7
:010615000ED6
:010616000ED5
:010617000ED4
:010618000ED3
:010619000ED2
:01061A000ED1
:01061B000ED0
:01061C000ECF
:01061D000ECE
:01061E000ECD
:01061F000ECC
:010620000ECB
:010621000ECA
:010622000EC9
:010623000EC8
:010624000EC7
:010625000EC6
:010626000EC5
:010627000EC4
:010628000EC3
:010629000FC1
:01062A000FC0
:01062B000FBF
:01062C000FBE
:01062D000FBD
:01062E000FBC
:01062F000FBB
:010630000FBA
:010631000FB9
:010632000FB8
:010633000FB7
:010634000FB6
:010635000FB5
:010636000FB4
:010637000FB3
:010638000FB2
:010639000FB1
:01063A000FB0
:01063B000FAF
:01063C000FAE
:01063D000FAD
:01063E000FAC
:01063F000FAB
:010640000FAA
:010641000FA9
:010642000FA8
:010643000FA7
:010644000FA6
:010645000FA5
:010646000FA4
:010647000FA3
:010648000FA2
:010649000FA1
:01064A000FA0
:01064B000F9F
:01064C000F9E
:01064D000F9D
:01064E000F9C
:01064F000F9B
:010650000F9A
:010651000F99
:010652000F98
:010653000F97
:010654000F96
:010655000F95
:010656000F94
:010657000F93
:010658000F92
:010659000F91
:01065A000F90
:01065B000F8F
:01065C000F8E
:01065D000F8D
:01065E000F8C
:01065F000F8B
:010660000F8A
:010661000F89
:010662000F88
:010663000F87
:010664000F86
:010665000F85
:010666000F84
:010667000F83
:010668000F82
:010669000F81
:01066A000F80
:01066B000F7F
:01066C000F7E
:01066D000F7D
:01066E000F7C
:01066F000F7B
:010670000F7A
:010671000F79
:010672000F78
:010673000F77
:010674000F76
:010675000F75
:010676000F74
:010677000F73
:010678000F72
:010679000F71
:01067A000F70
:01067B000F6F
:01067C000F6E
:01067D000F6D
:01067E000F6C
:01067F000F6B
:010680000F6A
:010681000F69
:010682000F68
:010683000F67
:010684000F66
:010685000F65
:010686000F64
:010687000F63
:010688000F62
:010689000F61
:01068A000F60
:01068B000F5F
:01068C000F5E
:01068D000F5D
:01068E000F5C
:01068F000F5B
:010690000F5A
:010691000F59
:010692000F58
:010693000F57
:010694000F56
:010695000F55
:010696000F54
:010697000F53
:010698000F52
:010699000F51
:01069A000F50
:01069B000F4F
:01069C000F4E
:01069D000F4D
:01069E000F4C
:01069F000F4B
:0106A0000F4A
:0106A1000F49
:0106A2000F48
:0106A3000F47
:0106A4000F46
:0106A5000F45
:0106A6000F44
:0106A7000F43
:0106A8000F42
:0106A9000F41
:0106AA000F40
:0106AB000F3F
:0106AC000F3E
:0106AD000F3D
:0106AE000F3C
:0106AF000F3B
:0106B0000F3A
:0106B1000F39
:0106B2000F38
:0106B3000F37
:0106B4000F36
:0106B5000F35
:0106B6000F34
:0106B7000F33
:0106B8000F32
:0106B9000F31
:0106BA000F30
:0106BB000F2F
:0106BC000F2E
:0106BD000F2D
:0106BE000F2C
:0106BF000F2B
:0106C0000F2A
:0106C1000F29
:0106C2000F28
:0106C3000F27
:0106C4000F26
:0106C5000F25
:0106C6000F24
:0106C7000F23
:0106C8000F22
:0106C9000F21
:0106CA000F20
:0106CB000F1F
:0106CC000F1E
:0106CD000F1D
:0106CE000F1C
:0106CF000F1B
:0106D0000F1A
:0106D1000F19
:0106D2000F18
:0106D3000F17
:0106D4000F16
:0106D5000F15
:0106D6000F14
:0106D7000F13
:0106D8000F12
:0106D9000F11
:0106DA000F10
:0106DB000F0F
:0106DC000F0E
:0106DD000F0D
:0106DE000F0C
:0106DF000F0B
:0106E0000F0A
:0106E1000F09
:0106E2000F08
:0106E3000F07
:0106E4000F06
:0106E5000F05
:0106E6000F04
:0106E7000F03
:0106E8000F02
:0106E9000F01
:0106EA000F00
:0106EB000FFF
:0106EC000FFE
:0106ED000FFD
:0106EE000FFC
:0106EF000FFB
:0106F0000FFA
:0106F1000FF9
:0106F2000FF8
:0106F3000FF7
:0106F4000FF6
:0106F5000FF5
:0106F6000FF4
:0106F7000FF3
:0106F8000FF2
:0106F9000FF1
:0106FA000FF0
:0106FB000FEF
:0106FC000FEE
:0106FD000FED
:0106FE000FEC
:0106FF000FEB
:010700000FE9
:010701000FE8
:010702000FE7
:010703000FE6
:010704000FE5
:010705000FE4
:010706000FE3
:010707000FE2
:010708000FE1
:010709000FE0
:01070A000FDF
:01070B000FDE
:01070C000FDD
:01070D000FDC
:01070E000FDB
:01070F000FDA
:010710000FD9
:010711000FD8
:010712000FD7
:010713000FD6
:010714000FD5
:010715000FD4
:010716000FD3
:010717000FD2
:010718000FD1
:010719000FD0
:01071A000FCF
:01071B000FCE
:01071C000FCD
:01071D000FCC
:01071E000FCB
:01071F000FCA
:010720000FC9
:010721000FC8
:010722000FC7
:010723000FC6
:010724000FC5
:010725000FC4
:010726000FC3
:010727000FC2
:010728000FC1
:010729000FC0
:01072A000FBF
:01072B000FBE
:01072C000FBD
:01072D000FBC
:01072E000FBB
:01072F000FBA
:010730000FB9
:010731000FB8
:010732000FB7
:010733000FB6
:010734000FB5
:010735000FB4
:010736000FB3
:010737000FB2
:010738000FB1
:010739000FB0
:01073A000FAF
:01073B000FAE
:01073C000FAD
:01073D000FAC
:01073E000FAB
:01073F000FAA
:010740000FA9
:010741000FA8
:010742000FA7
:010743000FA6
:010744000FA5
:010745000FA4
:010746000FA3
:010747000FA2
:010748000FA1
:010749000FA0
:01074A000F9F
:01074B000F9E
:01074C000F9D
:01074D000F9C
:01074E000F9B
:01074F000F9A
:010750000F99
:010751000F98
:010752000F97
:010753000F96
:010754000F95
:010755000F94
:010756000F93
:010757000F92
:010758000F91
:010759000F90
:01075A000F8F
:01075B000F8E
:01075C000F8D
:01075D000F8C
:01075E000F8B
:01075F000F8A
:010760000F89
:010761000F88
:010762000F87
:010763000F86
:010764000F85
:010765000F84
:010766000F83
:010767000F82
:010768000F81
:010769000F80
:01076A000F7F
:01076B000F7E
:01076C000F7D
:01076D000F7C
:01076E000F7B
:01076F000F7A
:010770000F79
:010771000F78
:010772000F77
:010773000F76
:010774000F75
:010775000F74
:010776000F73
:010777000F72
:010778000F71
:010779000F70
:01077A000F6F
:01077B000F6E
:01077C000F6D
:01077D000F6C
:01077E000F6B
:01077F000F6A
:010780000F69
:010781000F68
:010782000F67
:010783000F66
:010784000F65
:010785000F64
:010786000F63
:010787000F62
:010788000F61
:010789000F60
:01078A000F5F
:01078B000F5E
:01078C000F5D
:01078D000F5C
:01078E000F5B
:01078F000F5A
:010790000F59
:010791000F58
:010792000F57
:010793000F56
:010794000F55
:010795000F54
:010796000F53
:010797000F52
:010798000F51
:010799000F50
:01079A000F4F
:01079B000F4E
:01079C000F4D
:01079D000F4C
:01079E000F4B
:01079F000F4A
:0107A0000F49
:0107A1000F48
:0107A2000F47
:0107A3000F46
:0107A4000F45
:0107A5000F44
:0107A6000F43
:0107A7000F42
:0107A8000F41
:0107A9000F40
:0107AA000F3F
:0107AB000F3E
:0107AC000F3D
:0107AD000F3C
:0107AE000F3B
:0107AF000F3A
:0107B0000F39
:0107B1000F38
:0107B2000F37
:0107B3000F36
:0107B4000F35
:0107B5000F34
:0107B6000F33
:0107B7000F32
:0107B8000F31
:0107B9000F30
:0107BA000F2F
:0107BB000F2E
:0107BC000F2D
:0107BD000F2C
:0107BE000F2B
:0107BF000F2A
:0107C0000F29
:0107C1000F28
:0107C2000F27
:0107C3000F26
:0107C4000F25
:0107C5000F24
:0107C6000F23
:0107C7000F22
:0107C8000F21
:0107C9000F20
:0107CA000F1F
:0107CB000F1E
:0107CC000F1D
:0107CD000F1C
:0107CE000F1B
:0107CF000F1A
:0107D0000F19
:0107D1000F18
:0107D2000F17
:0107D3000F16
:0107D4000F15
:0107D5000F14
:0107D6000F13
:0107D7000F12
:0107D8000F11
:0107D9000F10
:0107DA000F0F
:0107DB000F0E
:0107DC000F0D
:0107DD000F0C
:0107DE000F0B
:0107DF000F0A
:0107E0000F09
:0107E1000F08
:0107E2000F07
:0107E3000F06
:0107E4000F05
:0107E5000F04
:0107E6000F03
:0107E7000F02
:0107E8000F01
:0107E9000F00
:0107EA000FFF
:0107EB000FFE
:0107EC000FFD
:0107ED000FFC
:0107EE000FFB
:0107EF000FFA
:0107F0000FF9
:0107F1000FF8
:0107F2000FF7
:0107F3000FF6
:0107F4000FF5
:0107F5000FF4
:0107F6000FF3
:0107F7000FF2
:0107F8000FF1
:0107F9000FF0
:0107FA000FEF
:0107FB000FEE
:0107FC000FED
:0107FD000FEC
:0107FE000FEB
:0107FF000FEA
:00000001ff
