:020000040000FA
:0100000001FE
:010001000CF2
:0100020006F7
:0100030004F8
:0100040001FA
:0100050003F7
:010006000AEF
:010007000BED
:0100080004F3
:0100090008EE
:01000A000EE7
:01000B0002F2
:01000C0004EF
:01000D0009E9
:01000E0006EB
:01000F0005EB
:0100100001EE
:0100110008E6
:010012000AE3
:0100130009E3
:010014000AE1
:0100150002E8
:010016000CDD
:0100170005E3
:010018000BDC
:0100190002E4
:01001A0003E2
:01001B0009DB
:01001C0009DA
:01001D000AD8
:01001E000CD5
:01001F0009D7
:0100200002DD
:0100210002DC
:0100220001DC
:0100230002DA
:0100240008D3
:0100250003D7
:0100260005D4
:0100270001D7
:010028000EC9
:0100290009CD
:01002A0007CE
:01002B0002D2
:01002C0003D0
:01002D000DC5
:01002E0002CF
:01002F0004CC
:010030000AC5
:010031000DC1
:010032000FBE
:010033000BC1
:0100340006C5
:0100350005C5
:010036000FBA
:010037000ABE
:0100380008BF
:010039000DB9
:01003A000DB8
:01003B0009BB
:01003C0003C0
:01003D0000C2
:01003E000DB4
:01003F0001BF
:0100400001BE
:0100410002BC
:010042000BB2
:010043000BB1
:010044000EAD
:010045000AB0
:0100460007B2
:0100470005B3
:0100480008AF
:0100490004B2
:01004A000AAB
:01004B000FA5
:01004C0002B1
:01004D000BA7
:01004E0002AF
:01004F0001AF
:010050000CA3
:0100510001AD
:010052000E9F
:0100530004A8
:010054000D9E
:0100550001A9
:0100560006A3
:01005700099F
:0100580002A5
:0100590005A1
:01005A000B9A
:01005B0004A0
:01005C000D96
:01005D00039F
:01005E000A97
:01005F00019F
:010060000699
:010061000C92
:01006200019C
:01006300009C
:010064000A91
:010065000793
:010066000F8A
:010067000D8B
:010068000691
:010069000C8A
:01006A000590
:01006B000094
:01006C000D86
:01006D000D85
:01006E000E83
:01006F000B85
:01007000058A
:010071000A84
:010072000687
:010073000D7F
:01007400008B
:010075000189
:010076000D7C
:010077000C7C
:010078000E79
:010079000B7B
:01007A000E77
:01007B00077D
:01007C00057E
:01007D000A78
:01007E000180
:01007F00067A
:010080000D72
:01008100047A
:01008200017C
:010083000F6D
:010084000F6C
:010085000674
:010086000871
:010087000E6A
:010088000D6A
:010089000C6A
:01008A000B6A
:01008B000A6A
:01008C000172
:01008D00046E
:01008E000F62
:01008F000769
:01009000056A
:010091000E60
:010092000766
:010093000C60
:010094000C5F
:010095000B5F
:010096000B5E
:010097000563
:010098000F58
:010099000363
:01009A00075E
:01009B00065E
:01009C000360
:01009D00085A
:01009E00045D
:01009F000C54
:0100A0000E51
:0100A1000658
:0100A2000E4F
:0100A3000E4E
:0100A4000655
:0100A5000951
:0100A6000059
:0100A7000553
:0100A8000C4B
:0100A900084E
:0100AA000451
:0100AB000C48
:0100AC00044F
:0100AD000250
:0100AE00044D
:0100AF000A46
:0100B0000B44
:0100B100014D
:0100B200024B
:0100B300024A
:0100B4000447
:0100B5000A40
:0100B6000544
:0100B7000741
:0100B8000146
:0100B900073F
:0100BA000C39
:0100BB00083C
:0100BC000241
:0100BD000A38
:0100BE000D34
:0100BF00053B
:0100C0000936
:0100C1000E30
:0100C2000B32
:0100C300023A
:0100C4000D2E
:0100C500003A
:0100C6000831
:0100C7000137
:0100C8000235
:0100C9000F27
:0100CA000D28
:0100CB000F25
:0100CC00082B
:0100CD00032F
:0100CE00052C
:0100CF00022E
:0100D0000A25
:0100D1000C22
:0100D2000924
:0100D300012B
:0100D4000A21
:0100D5000B1F
:0100D6000524
:0100D7000C1C
:0100D8000F18
:0100D9000521
:0100DA000520
:0100DB000D17
:0100DC000F14
:0100DD000A18
:0100DE000120
:0100DF000719
:0100E0000A15
:0100E1000A14
:0100E200021B
:0100E3000517
:0100E4000615
:0100E5000119
:0100E6000613
:0100E7000513
:0100E8000116
:0100E9000214
:0100EA000A0B
:0100EB000F05
:0100EC00090A
:0100ED00080A
:0100EE000C05
:0100EF000808
:0100F000020D
:0100F100030B
:0100F200000D
:0100F300020A
:0100F4000308
:0100F5000703
:0100F6000702
:0100F70009FF
:0100F8000CFB
:0100F9000204
:0100FA000CF9
:0100FB000103
:0100FC000AF9
:0100FD000DF5
:0100FE0007FA
:0100FF0005FB
:0101000001FD
:010101000AF3
:0101020001FB
:0101030001FA
:010104000AF0
:010105000FEA
:010106000AEE
:010107000DEA
:010108000AEC
:010109000CE9
:01010A0005EF
:01010B0005EE
:01010C0009E9
:01010D0002EF
:01010E0002EE
:01010F0004EB
:010110000CE2
:010111000BE2
:0101120000EC
:0101130000EB
:010114000EDC
:010115000DDC
:0101160005E3
:0101170000E7
:0101180005E1
:0101190002E3
:01011A0008DC
:01011B0007DC
:01011C0007DB
:01011D0002DF
:01011E0004DC
:01011F0002DD
:0101200004DA
:0101210005D8
:010122000AD2
:010123000FCC
:0101240002D8
:010125000DCC
:0101260002D6
:0101270009CE
:0101280005D1
:0101290006CF
:01012A000FC5
:01012B0005CE
:01012C0008CA
:01012D0001D0
:01012E0009C7
:01012F000AC5
:0101300003CB
:010131000EBF
:010132000FBD
:010133000BC0
:010134000AC0
:010135000ABF
:0101360005C3
:0101370001C6
:0101380006C0
:0101390000C5
:01013A0007BD
:01013B0009BA
:01013C000AB8
:01013D000CB5
:01013E000DB3
:01013F0000BF
:010140000CB2
:0101410005B8
:0101420009B3
:010143000CAF
:0101440003B7
:010145000EAB
:010146000AAE
:0101470004B3
:010148000CAA
:010149000EA7
:01014A000EA6
:01014B0002B1
:01014C0003AF
:01014D0004AD
:01014E000FA1
:01014F0002AD
:010150000BA3
:0101510003AA
:010152000BA1
:0101530007A4
:0101540009A1
:0101550000A9
:0101560002A6
:01015700099E
:010158000D99
:0101590004A1
:01015A00099B
:01015B000D96
:01015C000F93
:01015D000D94
:01015E000997
:01015F000D92
:01016000029C
:010161000E8F
:01016200009C
:010163000C8F
:010164000793
:010165000594
:010166000395
:010167000493
:010168000D89
:010169000491
:01016A00088C
:01016B000192
:01016C00088A
:01016D000B86
:01016E000F81
:01016F000689
:010170000589
:010171000489
:010172000A82
:010173000685
:01017400008A
:010175000386
:01017600097F
:010177000C7B
:010178000A7C
:010179000A7B
:01017A000480
:01017B000F74
:01017C000C76
:01017D00067B
:01017E000A76
:01017F000778
:010180000975
:010181000776
:010182000F6D
:010183000F6C
:010184000B6F
:010185000E6B
:010186000078
:010187000E69
:01018800076F
:010189000C69
:01018A00076D
:01018B000E65
:01018C000B67
:01018D000A67
:01018E000967
:01018F000F60
:010190000E60
:010191000D60
:010192000666
:01019300006B
:010194000268
:010195000A5F
:010196000C5C
:010197000F58
:01019800095D
:010199000F56
:01019A000C58
:01019B00055E
:01019C000F53
:01019D00035E
:01019E00055B
:01019F00035C
:0101A000035B
:0101A100005D
:0101A2000656
:0101A3000D4E
:0101A4000B4F
:0101A5000E4B
:0101A6000850
:0101A7000E49
:0101A8000650
:0101A9000055
:0101AA00084C
:0101AB000E45
:0101AC000A48
:0101AD000150
:0101AE000749
:0101AF000E41
:0101B0000D41
:0101B100024B
:0101B2000E3E
:0101B3000249
:0101B4000A40
:0101B5000049
:0101B6000246
:0101B7000542
:0101B8000F37
:0101B9000540
:0101BA00093B
:0101BB00063D
:0101BC000042
:0101BD000C35
:0101BE00033D
:0101BF000D32
:0101C0000B33
:0101C1000C31
:0101C200023A
:0101C3000536
:0101C4000E2C
:0101C5000633
:0101C6000F29
:0101C700082F
:0101C8000432
:0101C9000E27
:0101CA000F25
:0101CB000132
:0101CC000B27
:0101CD000C25
:0101CE000B25
:0101CF000629
:0101D0000C22
:0101D1000A23
:0101D2000C20
:0101D3000922
:0101D4000F1B
:0101D5000326
:0101D6000C1C
:0101D7000225
:0101D8000D19
:0101D9000D18
:0101DA000024
:0101DB00061D
:0101DC00081A
:0101DD000D14
:0101DE000F11
:0101DF00031C
:0101E0000816
:0101E1000815
:0101E200021A
:0101E3000714
:0101E4000A10
:0101E5000E0B
:0101E6000117
:0101E7000C0B
:0101E8000F07
:0101E9000015
:0101EA00070D
:0101EB000F04
:0101EC000012
:0101ED000D04
:0101EE00050B
:0101EF000D02
:0101F000010D
:0101F1000FFE
:0101F2000408
:0101F3000FFC
:0101F4000901
:0101F5000504
:0101F6000EFA
:0101F7000601
:0101F8000006
:0101F9000104
:0101FA000EF6
:0101FB0007FC
:0101FC0008FA
:0101FD0004FD
:0101FE0005FB
:0101FF0009F6
:010200000FEE
:0102010007F5
:010202000EED
:010203000BEF
:0102040001F8
:0102050007F1
:010206000CEB
:0102070000F6
:0102080005F0
:010209000AEA
:01020A000DE6
:01020B0004EE
:01020C0000F1
:01020D0006EA
:01020E0001EE
:01020F000EE0
:010210000AE3
:0102110000EC
:0102120007E4
:0102130002E8
:0102140009E0
:010215000CDC
:0102160000E7
:010217000BDB
:0102180002E3
:0102190009DB
:01021A0002E1
:01021B0006DC
:01021C0009D8
:01021D0003DD
:01021E0001DE
:01021F0005D9
:010220000CD1
:0102210007D5
:010222000FCC
:010223000CCE
:010224000ACF
:0102250000D8
:0102260007D0
:010227000DC9
:010228000FC6
:010229000CC8
:01022A000DC6
:01022B000AC8
:01022C0001D0
:01022D000CC4
:01022E0006C9
:01022F0002CC
:0102300003CA
:010231000EBE
:0102320006C5
:0102330009C1
:0102340002C7
:0102350005C3
:010236000BBC
:0102370006C0
:010238000ABB
:010239000BB9
:01023A0001C2
:01023B000EB4
:01023C0005BC
:01023D0001BF
:01023E0006B9
:01023F0001BD
:0102400003BA
:0102410001BB
:0102420004B7
:0102430003B7
:0102440004B5
:010245000BAD
:0102460007B0
:010247000FA7
:0102480003B2
:010249000AAA
:01024A000DA6
:01024B000AA8
:01024C000EA3
:01024D0008A8
:01024E0001AE
:01024F0002AC
:010250000BA2
:0102510007A5
:0102520007A4
:0102530002A8
:0102540002A7
:0102550003A5
:0102560003A4
:010257000D99
:010258000B9A
:0102590002A2
:01025A0000A3
:01025B000C96
:01025C00069B
:01025D00019F
:01025E00029D
:01025F000599
:01026000039A
:010261000399
:010262000E8D
:010263000397
:010264000099
:010265000A8E
:010266000C8B
:01026700088E
:010268000491
:01026900088C
:01026A000D86
:01026B000D85
:01026C000E83
:01026D00038D
:01026E000B84
:01026F000D81
:010270000A83
:010271000686
:010272000E7D
:01027300008A
:010274000C7D
:010275000484
:01027600087F
:010277000680
:01027800077E
:010279000282
:01027A000281
:01027B000F73
:01027C00037E
:01027D00017F
:01027E000C73
:01027F000C72
:010280000677
:01028100027A
:010282000279
:010283000971
:010284000178
:010285000F69
:010286000077
:01028700086E
:010288000075
:01028900056F
:01028A00086B
:01028B000969
:01028C000A67
:01028D000967
:01028E00036C
:01028F00006E
:010290000469
:010291000963
:010292000467
:010293000E5C
:010294000564
:010295000D5B
:010296000B5C
:010297000462
:010298000D58
:010299000C58
:01029A000063
:01029B00085A
:01029C000958
:01029D00065A
:01029E00055A
:01029F000658
:0102A0000D50
:0102A1000359
:0102A200015A
:0102A3000555
:0102A4000A4F
:0102A5000D4B
:0102A6000552
:0102A700094D
:0102A800094C
:0102A9000E46
:0102AA000B48
:0102AB000B47
:0102AC000E43
:0102AD000947
:0102AE00044B
:0102AF000B43
:0102B0000944
:0102B1000A42
:0102B2000A41
:0102B3000149
:0102B4000346
:0102B5000048
:0102B6000047
:0102B700073F
:0102B8000E37
:0102B900053F
:0102BA000043
:0102BB00083A
:0102BC000839
:0102BD000E32
:0102BE000639
:0102BF000E30
:0102C0000F2E
:0102C100003C
:0102C2000437
:0102C3000A30
:0102C4000633
:0102C5000830
:0102C6000631
:0102C7000B2B
:0102C800092C
:0102C9000232
:0102CA000E25
:0102CB00042E
:0102CC000C25
:0102CD000D23
:0102CE000D22
:0102CF000D21
:0102D0000B22
:0102D1000E1E
:0102D2000922
:0102D3000624
:0102D4000623
:0102D5000F19
:0102D6000027
:0102D700081E
:0102D8000C19
:0102D9000F15
:0102DA00081B
:0102DB000E14
:0102DC00031E
:0102DD000A16
:0102DE00011E
:0102DF00011D
:0102E0000F0E
:0102E1000715
:0102E2000E0D
:0102E300001A
:0102E4000118
:0102E5000810
:0102E6000F08
:0102E7000511
:0102E8000B0A
:0102E9000113
:0102EA00090A
:0102EB000210
:0102EC000809
:0102ED000808
:0102EE000609
:0102EF00030B
:0102F0000904
:0102F1000B01
:0102F2000506
:0102F3000604
:0102F4000603
:0102F5000107
:0102F6000502
:0102F7000501
:0102F8000401
:0102F90007FD
:0102FA000003
:0102FB0003FF
:0102FC000100
:0102FD0005FB
:0102FE0009F6
:0102FF0001FD
:010300000AF2
:010301000BF0
:0103020001F9
:0103030002F7
:0103040009EF
:0103050006F1
:010306000DE9
:0103070007EE
:010308000BE9
:0103090007EC
:01030A0003EF
:01030B000BE6
:01030C0008E8
:01030D0000EF
:01030E0006E8
:01030F0008E5
:0103100000EC
:0103110001EA
:0103120006E4
:0103130004E5
:0103140005E3
:010315000ADD
:010316000ADC
:010317000FD6
:0103180006DE
:0103190000E3
:01031A0000E2
:01031B0007DA
:01031C0008D8
:01031D0005DA
:01031E000DD1
:01031F000BD2
:010320000AD2
:010321000ECD
:0103220004D6
:0103230005D4
:0103240002D6
:0103250004D3
:010326000BCB
:010327000DC8
:0103280005CF
:0103290002D1
:01032A0008CA
:01032B000DC4
:01032C0009C7
:01032D0004CB
:01032E0007C7
:01032F000AC3
:0103300005C7
:010331000BC0
:010332000CBE
:0103330007C2
:0103340003C5
:0103350003C4
:0103360001C5
:0103370003C2
:0103380004C0
:0103390008BB
:01033A0008BA
:01033B0001C0
:01033C0008B8
:01033D0002BD
:01033E000AB4
:01033F000BB2
:0103400001BB
:010341000BB0
:0103420004B6
:010343000AAF
:0103440004B4
:010345000CAB
:0103460004B2
:010347000BAA
:010348000CA8
:010349000AA9
:01034A0004AE
:01034B000FA2
:01034C0008A8
:01034D0006A9
:01034E0002AC
:01034F000DA0
:010350000BA1
:0103510007A4
:010352000B9F
:0103530006A3
:0103540007A1
:0103550000A7
:0103560001A5
:010357000A9B
:01035800099B
:010359000B98
:01035A000A98
:01035B000A97
:01035C000E92
:01035D00019E
:01035E000995
:01035F000598
:010360000E8E
:010361000497
:010362000C8E
:010363000594
:010364000197
:01036500098E
:01036600088E
:010367000D88
:010368000B89
:01036900068D
:01036A00048E
:01036B000B86
:01036C000090
:01036D000A85
:01036E000B83
:01036F000588
:010370000686
:010371000982
:010372000486
:010373000980
:010374000385
:010375000780
:010376000284
:010377000C79
:010378000183
:01037900067D
:01037A00047E
:01037B000C75
:01037C00017F
:01037D000D72
:01037E000A74
:01037F000875
:010380000775
:010381000774
:010382000C6E
:010383000871
:010384000D6B
:010385000A6D
:010386000E68
:010387000471
:01038800056F
:01038900046F
:01038A000072
:01038B00056C
:01038C00066A
:01038D00006F
:01038E000965
:01038F00016C
:010390000B61
:010391000566
:010392000268
:010393000861
:010394000563
:010395000A5D
:010396000C5A
:010397000164
:010398000460
:010399000F54
:01039A000062
:01039B00025F
:01039C00045C
:01039D000F50
:01039E000F4F
:01039F000C51
:0103A0000B51
:0103A1000E4D
:0103A2000357
:0103A3000356
:0103A4000454
:0103A5000354
:0103A600084E
:0103A7000550
:0103A8000351
:0103A9000350
:0103AA000E44
:0103AB00024F
:0103AC00054B
:0103AD000F40
:0103AE00024C
:0103AF000E3F
:0103B0000D3F
:0103B1000645
:0103B2000545
:0103B3000A3F
:0103B4000345
:0103B5000F38
:0103B6000E38
:0103B7000F36
:0103B8000044
:0103B9000E35
:0103BA00033F
:0103BB00053C
:0103BC000838
:0103BD000C33
:0103BE000C32
:0103BF000D30
:0103C000003C
:0103C1000F2C
:0103C2000C2E
:0103C3000336
:0103C4000830
:0103C5000433
:0103C6000B2B
:0103C7000431
:0103C8000D27
:0103C9000A29
:0103CA000032
:0103CB000D24
:0103CC000030
:0103CD000B24
:0103CE00032B
:0103CF000D20
:0103D0000329
:0103D1000D1E
:0103D2000426
:0103D3000029
:0103D400091F
:0103D5000720
:0103D6000C1A
:0103D7000C19
:0103D800051F
:0103D900041F
:0103DA000F13
:0103DB000918
:0103DC00011F
:0103DD000F10
:0103DE00031B
:0103DF000B12
:0103E0000A12
:0103E1000C0F
:0103E2000614
:0103E3000217
:0103E4000315
:0103E5000017
:0103E600090D
:0103E7000F06
:0103E8000B09
:0103E900070C
:0103EA00040E
:0103EB00040D
:0103EC000B05
:0103ED00020D
:0103EE00000E
:0103EF000FFE
:0103F0000A02
:0103F1000CFF
:0103F2000DFD
:0103F3000801
:0103F4000305
:0103F5000502
:0103F6000006
:0103F7000500
:0103F8000202
:0103F9000EF5
:0103FA000EF4
:0103FB0003FE
:0103FC0007F9
:0103FD000DF2
:0103FE0005F9
:0103FF0006F7
:010400000FEC
:0104010003F7
:010402000AEF
:010403000BED
:0104040002F5
:0104050008EE
:0104060008ED
:0104070007ED
:010408000BE8
:010409000FE3
:01040A0001F0
:01040B0000F0
:01040C000AE5
:01040D000FDF
:01040E000BE2
:01040F000BE1
:0104100006E5
:0104110001E9
:010412000ADF
:010413000FD9
:0104140002E5
:0104150004E2
:010416000BDA
:0104170009DB
:0104180004DF
:0104190001E1
:01041A0003DE
:01041B000BD5
:01041C000FD0
:01041D000AD4
:01041E000ECF
:01041F0005D7
:010420000BD0
:0104210007D3
:0104220001D8
:010423000ACE
:0104240007D0
:0104250004D2
:0104260002D3
:0104270009CB
:0104280007CC
:0104290001D1
:01042A0001D0
:01042B000AC6
:01042C0005CA
:01042D0003CB
:01042E000EBF
:01042F0008C4
:010430000BC0
:010431000DBD
:0104320009C0
:010433000CBC
:0104340006C1
:010435000BBB
:0104360005C0
:010437000FB5
:010438000FB4
:010439000EB4
:01043A000FB2
:01043B000CB4
:01043C000AB5
:01043D0005B9
:01043E0009B4
:01043F0008B4
:0104400008B3
:0104410007B3
:0104420006B3
:0104430006B2
:0104440009AE
:0104450002B4
:010446000DA8
:0104470004B0
:010448000FA4
:0104490007AB
:01044A0003AE
:01044B0002AE
:01044C000FA0
:01044D0003AB
:01044E0006A7
:01044F000E9E
:0104500006A5
:010451000AA0
:010452000C9D
:0104530002A6
:010454000E99
:01045500089E
:01045600079E
:010457000C98
:010458000A99
:010459000F93
:01045A00049D
:01045B000F91
:01045C00009F
:01045D000D91
:01045E000994
:01045F000F8D
:010460000B90
:010461000793
:010462000198
:01046300098F
:010464000790
:01046500098D
:01046600098C
:010467000D87
:010468000B88
:01046900078B
:01046A000B86
:01046B00048C
:01046C000A85
:01046D000B83
:01046E000687
:01046F000389
:01047000018A
:010471000F7B
:010472000485
:010473000D7B
:010474000681
:010475000383
:010476000D78
:010477000D77
:010478000380
:01047900047E
:01047A00047D
:01047B000F71
:01047C00057A
:01047D000579
:01047E000776
:01047F000874
:010480000279
:010481000A70
:010482000A6F
:01048300096F
:010484000B6C
:010485000670
:010486000471
:01048700056F
:01048800046F
:010489000969
:01048A000968
:01048B00026E
:01048C00016E
:01048D00016D
:01048E000766
:01048F000963
:010490000B60
:010491000D5D
:010492000267
:010493000E5A
:010494000F58
:010495000A5C
:01049600065F
:01049700065E
:01049800065D
:01049900065C
:01049A00035E
:01049B000858
:01049C00015E
:01049D000E50
:01049E000C51
:01049F000E4E
:0104A0000B50
:0104A1000A50
:0104A2000A4F
:0104A3000454
:0104A4000D4A
:0104A5000D49
:0104A6000F46
:0104A700064E
:0104A8000350
:0104A900044E
:0104AA000D44
:0104AB00044C
:0104AC000F40
:0104AD000D41
:0104AE000548
:0104AF000C40
:0104B0000942
:0104B1000842
:0104B2000C3D
:0104B300093F
:0104B4000047
:0104B500083E
:0104B6000045
:0104B700053F
:0104B8000F34
:0104B9000240
:0104BA00023F
:0104BB00063A
:0104BC000F30
:0104BD000737
:0104BE000B32
:0104BF000A32
:0104C0000D2E
:0104C1000634
:0104C2000A2F
:0104C3000137
:0104C4000C2B
:0104C500072F
:0104C6000233
:0104C7000D27
:0104C800052E
:0104C9000131
:0104CA000E23
:0104CB000927
:0104CC000D22
:0104CD00002E
:0104CE000D20
:0104CF000428
:0104D000002B
:0104D1000C1E
:0104D2000623
:0104D3000325
:0104D4000720
:0104D5000422
:0104D6000223
:0104D7000123
:0104D8000221
:0104D900051D
:0104DA00041D
:0104DB000020
:0104DC000E11
:0104DD00021C
:0104DE00001D
:0104DF00011B
:0104E0000615
:0104E1000218
:0104E2000712
:0104E3000117
:0104E4000710
:0104E5000016
:0104E600090C
:0104E700090B
:0104E800050E
:0104E900050D
:0104EA000908
:0104EB000E02
:0104EC00010E
:0104ED000608
:0104EE000C01
:0104EF00000C
:0104F0000209
:0104F1000109
:0104F2000108
:0104F3000FF9
:0104F4000CFB
:0104F50008FE
:0104F6000005
:0104F7000AFA
:0104F80004FF
:0104F9000FF3
:0104FA000BF6
:0104FB0009F7
:0104FC000FF0
:0104FD000FEF
:0104FE000BF2
:0104FF0008F4
:0105000009F1
:010501000CED
:0105020005F3
:010503000FE8
:0105040005F1
:0105050003F2
:010506000FE5
:0105070009EA
:0105080006EC
:0105090000F1
:01050A000EE2
:01050B0007E8
:01050C000AE4
:01050D0000ED
:01050E0005E7
:01050F0006E5
:0105100001E9
:010511000CDD
:010512000BDD
:0105130005E2
:0105140005E1
:0105150007DE
:0105160006DE
:0105170006DD
:0105180005DD
:0105190005DC
:01051A000CD4
:01051B0000DF
:01051C0005D9
:01051D0007D6
:01051E000DCF
:01051F0002D9
:0105200003D7
:010521000ECB
:010522000DCB
:0105230005D2
:0105240004D2
:010525000CC9
:0105260001D3
:010527000BC8
:010528000AC8
:010529000CC5
:01052A0008C8
:01052B0008C7
:01052C000BC3
:01052D0001CC
:01052E0006C6
:01052F0004C7
:010530000CBE
:0105310007C2
:0105320001C7
:0105330007C0
:0105340007BF
:0105350009BC
:0105360001C3
:010537000BB8
:0105380006BC
:0105390004BD
:01053A000AB6
:01053B0009B6
:01053C000CB2
:01053D000AB3
:01053E000EAE
:01053F000AB1
:010540000FAB
:0105410001B8
:010542000EAA
:0105430000B7
:010544000AAC
:0105450005B0
:010546000DA7
:0105470002B1
:0105480000B2
:0105490003AE
:01054A000FA1
:01054B0002AD
:01054C000F9F
:01054D0000AD
:01054E000CA0
:01054F000D9E
:0105500009A1
:0105510000A9
:010552000C9C
:010553000D9A
:01055400079F
:0105550001A4
:0105560002A2
:010557000D96
:01055800039F
:010559000C95
:01055A000A96
:01055B00019E
:01055C000B93
:01055D00019C
:01055E000B91
:01055F000F8C
:010560000B8F
:010561000891
:010562000494
:010563000295
:01056400078F
:01056500078E
:01056600058F
:010567000192
:01056800048E
:010569000E83
:01056A000789
:01056B000A85
:01056C00038B
:01056D000F7E
:01056E000884
:01056F000685
:010570000882
:010571000881
:010572000286
:010573000A7D
:010574000482
:010575000580
:010576000084
:010577000380
:01057800077B
:010579000081
:01057A00047C
:01057B00017E
:01057C000579
:01057D00037A
:01057E000874
:01057F00017A
:010580000674
:010581000772
:010582000D6B
:010583000572
:010584000175
:010585000570
:010586000470
:010587000073
:01058800076B
:01058900036E
:01058A00056B
:01058B000669
:01058C000569
:01058D00026B
:01058E00026A
:01058F000764
:010590000367
:010591000465
:010592000167
:010593000D5A
:010594000066
:01059500085D
:01059600065E
:010597000E55
:01059800045E
:010599000B56
:01059A00015F
:01059B00015E
:01059C000F4F
:01059D000756
:01059E000A52
:01059F000E4D
:0105A0000E4C
:0105A1000158
:0105A2000454
:0105A3000B4C
:0105A4000C4A
:0105A5000352
:0105A600094B
:0105A7000A49
:0105A8000B47
:0105A900044D
:0105AA000F41
:0105AB000649
:0105AC000549
:0105AD00034A
:0105AE000349
:0105AF000546
:0105B0000F3B
:0105B1000148
:0105B2000E3A
:0105B3000F38
:0105B4000F37
:0105B5000B3A
:0105B6000E36
:0105B7000241
:0105B8000D35
:0105B9000140
:0105BA000838
:0105BB00053A
:0105BC00003E
:0105BD000934
:0105BE00003C
:0105BF000833
:0105C0000436
:0105C1000930
:0105C2000533
:0105C3000532
:0105C4000E28
:0105C5000233
:0105C600072D
:0105C700092A
:0105C8000C26
:0105C900052C
:0105CA000A26
:0105CB00042B
:0105CC000727
:0105CD000924
:0105CE000A22
:0105CF000427
:0105D0000A20
:0105D1000A1F
:0105D2000523
:0105D3000324
:0105D4000E18
:0105D5000520
:0105D600061E
:0105D7000E15
:0105D8000B17
:0105D900031E
:0105DA000D13
:0105DB000619
:0105DC000618
:0105DD000B12
:0105DE000B11
:0105DF000D0E
:0105E000001A
:0105E1000217
:0105E2000216
:0105E3000017
:0105E400090D
:0105E500060F
:0105E6000C08
:0105E7000C07
:0105E8000E04
:0105E9000110
:0105EA000B05
:0105EB000906
:0105EC000905
:0105ED000C01
:0105EE000507
:0105EF000704
:0105F0000208
:0105F1000504
:0105F2000CFC
:0105F3000AFD
:0105F4000006
:0105F50006FF
:0105F60009FB
:0105F7000FF4
:0105F8000002
:0105F9000BF6
:0105FA000DF3
:0105FB0007F8
:0105FC0008F6
:0105FD0000FD
:0105FE000AF2
:0105FF000EED
:0106000000F9
:010601000BED
:0106020006F1
:010603000EE8
:0106040006EF
:0106050005EF
:0106060009EA
:0106070000F2
:010608000AE7
:0106090008E8
:01060A000BE4
:01060B0001ED
:01060C0004E9
:01060D000CE0
:01060E0009E2
:01060F0008E2
:010610000CDD
:010611000EDA
:0106120001E6
:0106130009DD
:0106140001E4
:0106150004E0
:0106160001E2
:0106170007DB
:0106180002DF
:0106190000E0
:01061A000AD5
:01061B0006D8
:01061C0004D9
:01061D000ECE
:01061E0009D2
:01061F0000DA
:0106200004D5
:010621000DCB
:0106220008CF
:0106230003D3
:0106240001D4
:0106250006CE
:0106260005CE
:0106270001D1
:010628000BC6
:0106290002CE
:01062A0000CF
:01062B000BC3
:01062C0002CB
:01062D000FBD
:01062E0001CA
:01062F0000CA
:010630000ABF
:0106310001C7
:010632000CBB
:0106330004C2
:0106340004C1
:0106350008BC
:010636000BB8
:0106370009B9
:010638000AB7
:0106390003BD
:01063A0007B8
:01063B0000BE
:01063C0006B7
:01063D0007B5
:01063E000BB0
:01063F0000BA
:0106400009B0
:0106410000B8
:0106420002B5
:010643000FA7
:010644000AAB
:0106450007AD
:010646000AA9
:0106470005AD
:010648000AA7
:0106490009A7
:01064A000CA3
:01064B000CA2
:01064C0009A4
:01064D000F9D
:01064E0001AA
:01064F000C9E
:0106500003A6
:010651000E9A
:010652000A9D
:010653000B9B
:0106540004A1
:010655000D97
:0106560000A3
:01065700059D
:01065800059C
:010659000997
:01065A00059A
:01065B000C92
:01065C000D90
:01065D00019B
:01065E000C8F
:01065F000B8F
:010660000495
:010661000593
:010662000295
:010663000591
:010664000C89
:010665000C88
:010666000B88
:010667000191
:010668000A87
:01066900028E
:01066A00028D
:01066B000688
:01066C000687
:01066D000785
:01066E000D7E
:01066F000585
:010670000980
:010671000A7E
:010672000681
:010673000086
:010674000580
:01067500077D
:010676000F74
:010677000A78
:010678000A77
:01067900057B
:01067A00037C
:01067B000D71
:01067C000E6F
:01067D00017B
:01067E00017A
:01067F000773
:010680000A6F
:010681000D6B
:010682000176
:010683000274
:01068400066F
:010685000E66
:010686000271
:01068700046E
:010688000E63
:010689000070
:01068A00016E
:01068B000A64
:01068C000D60
:01068D000C60
:01068E000F5C
:01068F000F5B
:010690000465
:010691000C5C
:010692000F58
:01069300095D
:010694000263
:010695000064
:01069600065D
:01069700055D
:01069800055C
:010699000F51
:01069A00005F
:01069B00035B
:01069C000855
:01069D000953
:01069E000754
:01069F000753
:0106A0000851
:0106A1000A4E
:0106A2000354
:0106A3000C4A
:0106A4000154
:0106A5000054
:0106A6000A49
:0106A7000D45
:0106A8000A47
:0106A9000050
:0106AA000F40
:0106AB00004E
:0106AC000E3F
:0106AD000E3E
:0106AE00014A
:0106AF000545
:0106B0000F3A
:0106B1000048
:0106B2000344
:0106B300093D
:0106B4000C39
:0106B5000E36
:0106B600043F
:0106B7000C36
:0106B8000938
:0106B9000F31
:0106BA000A35
:0106BB000638
:0106BC00023B
:0106BD000F2D
:0106BE00003B
:0106BF000634
:0106C0000435
:0106C1000B2D
:0106C2000B2C
:0106C3000135
:0106C400072E
:0106C5000430
:0106C6000C27
:0106C7000C26
:0106C8000C25
:0106C9000030
:0106CA00042B
:0106CB000A24
:0106CC00002D
:0106CD000B21
:0106CE000328
:0106CF000B1F
:0106D0000821
:0106D1000523
:0106D2000225
:0106D3000323
:0106D4000C19
:0106D500071D
:0106D6000D16
:0106D7000B17
:0106D8000D14
:0106D9000E12
:0106DA000A15
:0106DB000B13
:0106DC000A13
:0106DD000C10
:0106DE000516
:0106DF000317
:0106E0000217
:0106E100090F
:0106E2000710
:0106E300080E
:0106E4000F06
:0106E5000B09
:0106E6000013
:0106E7000A08
:0106E8000F02
:0106E9000907
:0106EA000807
:0106EB00010D
:0106EC00000D
:0106ED000309
:0106EE000CFF
:0106EF000109
:0106F0000900
:0106F1000EFA
:0106F2000CFB
:0106F3000DF9
:0106F4000FF6
:0106F5000DF7
:0106F6000201
:0106F70007FB
:0106F80003FE
:0106F9000CF4
:0106FA0003FC
:0106FB0006F8
:0106FC000FEE
:0106FD0002FA
:0106FE0001FA
:0106FF0004F6
:010700000FE9
:010701000EE9
:0107020007EF
:0107030007EE
:0107040002F2
:0107050003F0
:010706000CE6
:0107070006EB
:010708000CE4
:0107090000EF
:01070A0009E5
:01070B0000ED
:01070C0002EA
:01070D000FDC
:01070E0008E2
:01070F0001E8
:010710000FD9
:0107110006E1
:010712000BDB
:0107130004E1
:0107140004E0
:010715000ED5
:0107160002E0
:010717000ED3
:010718000DD3
:0107190007D8
:01071A000FCF
:01071B0004D9
:01071C0001DB
:01071D000AD1
:01071E000DCD
:01071F0003D6
:010720000DCB
:0107210004D3
:010722000BCB
:010723000ACB
:0107240002D2
:0107250009CA
:010726000DC5
:0107270001D0
:010728000BC5
:0107290009C6
:01072A0009C5
:01072B0002CB
:01072C000AC2
:01072D000AC1
:01072E000FBB
:01072F0008C1
:0107300003C5
:0107310000C7
:010732000FB7
:0107330002C3
:0107340007BD
:010735000DB6
:0107360001C1
:010737000FB2
:010738000EB2
:0107390004BB
:01073A0004BA
:01073B000CB1
:01073C0006B6
:01073D0007B4
:01073E0000BA
:01073F000BAE
:010740000CAC
:0107410001B6
:0107420001B5
:010743000AAB
:0107440005AF
:0107450000B3
:0107460001B1
:0107470005AC
:010748000FA1
:0107490008A7
:01074A000F9F
:01074B0007A6
:01074C0007A5
:01074D000D9E
:01074E0006A4
:01074F0007A2
:0107500005A3
:01075100089F
:010752000A9C
:0107530005A0
:01075400089C
:010755000F94
:01075600069C
:010757000D94
:010758000E92
:01075900059A
:01075A000D91
:01075B000D90
:01075C000A92
:01075D000992
:01075E000991
:01075F000693
:010760000890
:010761000394
:010762000690
:010763000C89
:01076400078D
:01076500078C
:01076600038F
:010767000B86
:010768000987
:01076900008F
:01076A000886
:01076B000489
:01076C000A82
:01076D000C7F
:01076E000D7D
:01076F000A7F
:010770000385
:010771000E79
:010772000581
:01077300097C
:010774000B79
:010775000380
:010776000A78
:010777000C75
:010778000977
:01077900007F
:01077A000579
:01077B000B72
:01077C000775
:01077D000D6E
:01077E000278
:01077F000C6D
:010780000D6B
:010781000A6D
:010782000274
:01078300066F
:010784000470
:01078500066D
:01078600036F
:010787000170
:010788000F61
:010789000C63
:01078A000E60
:01078B000A63
:01078C000E5E
:01078D000269
:01078E000961
:01078F000F5A
:010790000B5D
:010791000B5C
:01079200075F
:010793000E57
:01079400085C
:010795000360
:01079600075B
:010797000061
:01079800035D
:010799000758
:01079A000E50
:01079B000B52
:01079C000953
:01079D000655
:01079E000654
:01079F000E4B
:0107A0000A4E
:0107A1000750
:0107A2000650
:0107A3000A4B
:0107A400094B
:0107A5000B48
:0107A600084A
:0107A7000B46
:0107A8000F41
:0107A900004F
:0107AA000945
:0107AB000647
:0107AC00024A
:0107AD000942
:0107AE000248
:0107AF000643
:0107B0000B3D
:0107B1000443
:0107B2000244
:0107B3000540
:0107B400073D
:0107B5000142
:0107B600053D
:0107B700033E
:0107B8000838
:0107B9000936
:0107BA000836
:0107BB00013C
:0107BC000933
:0107BD00013A
:0107BE000238
:0107BF000F2A
:0107C0000434
:0107C1000433
:0107C2000C2A
:0107C3000233
:0107C4000034
:0107C5000B28
:0107C6000D25
:0107C700072A
:0107C800012F
:0107C9000827
:0107CA000F1F
:0107CB00002D
:0107CC000824
:0107CD000A21
:0107CE000D1D
:0107CF000D1C
:0107D000091F
:0107D1000324
:0107D2000323
:0107D3000025
:0107D400071D
:0107D500061D
:0107D6000C16
:0107D7000D14
:0107D8000B15
:0107D9000A15
:0107DA00011D
:0107DB000419
:0107DC000B11
:0107DD000A11
:0107DE000911
:0107DF000B0E
:0107E0000513
:0107E100090E
:0107E2000A0C
:0107E300060F
:0107E4000B09
:0107E500040F
:0107E6000909
:0107E7000F02
:0107E8000907
:0107E900030C
:0107EA000A04
:0107EB000409
:0107EC00010B
:0107ED00000B
:0107EE000802
:0107EF000DFC
:0107F0000CFC
:0107F1000BFC
:0107F2000DF9
:0107F3000BFA
:0107F4000BF9
:0107F50009FA
:0107F6000BF7
:0107F7000FF2
:0107F8000BF5
:0107F9000FF0
:0107FA000FEF
:0107FB0009F4
:0107FC0002FA
:0107FD0004F7
:0107FE0001F9
:0107FF0000F9
:00000001ff
