:020000040000FA
:0200000006F206
:0200010006EF08
:0200020006EB0B
:0200030006E80D
:0200040006E50F
:0200050006E112
:0200060006DE14
:0200070006DA17
:0200080006D719
:0200090006D41B
:02000A0006D11D
:02000B0006CD20
:02000C0006CA22
:02000D0006C724
:02000E0006C327
:02000F0006C029
:0200100006BD2B
:0200110006BA2D
:0200120006B72F
:0200130006B332
:0200140006B034
:0200150006AD36
:0200160006AA38
:0200170006A73A
:0200180006A43C
:0200190006A13E
:02001A00069E40
:02001B00069B42
:02001C00069844
:02001D00069546
:02001E00069248
:02001F00068F4A
:02002000068C4C
:0200210006894E
:02002200068650
:02002300068352
:02002400068054
:02002500067D56
:02002600067A58
:0200270006775A
:0200280006745C
:0200290006725D
:02002A00066F5F
:02002B00066C61
:02002C00066963
:02002D00066665
:02002E00066367
:02002F00066168
:02003000065E6A
:02003100065B6C
:0200320006586E
:0200330006566F
:02003400065371
:02003500065073
:02003600064E74
:02003700064B76
:02003800064878
:02003900064679
:02003A0006437B
:02003B0006407D
:02003C00063E7E
:02003D00063B80
:02003E00063882
:02003F00063683
:02004000063385
:02004100063186
:02004200062E88
:02004300062C89
:0200440006298B
:0200450006278C
:0200460006248E
:0200470006228F
:02004800061F91
:02004900061D92
:02004A00061A94
:02004B00061895
:02004C00061597
:02004D00061398
:02004E0006109A
:02004F00060E9B
:02005000060B9D
:0200510006099E
:0200520006079F
:020053000604A1
:020054000602A2
:020055000600A3
:0200560005FDA6
:0200570005FBA7
:0200580005F8A9
:0200590005F6AA
:02005A0005F4AB
:02005B0005F2AC
:02005C0005EFAE
:02005D0005EDAF
:02005E0005EBB0
:02005F0005E8B2
:0200600005E6B3
:0200610005E4B4
:0200620005E2B5
:0200630005DFB7
:0200640005DDB8
:0200650005DBB9
:0200660005D9BA
:0200670005D7BB
:0200680005D4BD
:0200690005D2BE
:02006A0005D0BF
:02006B0005CEC0
:02006C0005CCC1
:02006D0005C9C3
:02006E0005C7C4
:02006F0005C5C5
:0200700005C3C6
:0200710005C1C7
:0200720005BFC8
:0200730005BDC9
:0200740005BBCA
:0200750005B9CB
:0200760005B6CD
:0200770005B4CE
:0200780005B2CF
:0200790005B0D0
:02007A0005AED1
:02007B0005ACD2
:02007C0005AAD3
:02007D0005A8D4
:02007E0005A6D5
:02007F0005A4D6
:0200800005A2D7
:0200810005A0D8
:02008200059ED9
:02008300059CDA
:02008400059ADB
:020085000598DC
:020086000596DD
:020087000594DE
:020088000592DF
:020089000590E0
:02008A00058EE1
:02008B00058CE2
:02008C00058AE3
:02008D000589E3
:02008E000587E4
:02008F000585E5
:020090000583E6
:020091000581E7
:02009200057FE8
:02009300057DE9
:02009400057BEA
:020095000579EB
:020096000578EB
:020097000576EC
:020098000574ED
:020099000572EE
:02009A000570EF
:02009B00056EF0
:02009C00056DF0
:02009D00056BF1
:02009E000569F2
:02009F000567F3
:0200A0000565F4
:0200A1000564F4
:0200A2000562F5
:0200A3000560F6
:0200A400055EF7
:0200A500055CF8
:0200A600055BF8
:0200A7000559F9
:0200A8000557FA
:0200A9000555FB
:0200AA000554FB
:0200AB000552FC
:0200AC000550FD
:0200AD00054FFD
:0200AE00054DFE
:0200AF00054BFF
:0200B000054900
:0200B100054800
:0200B200054601
:0200B300054402
:0200B400054302
:0200B500054103
:0200B600053F04
:0200B700053E04
:0200B800053C05
:0200B900053A06
:0200BA00053906
:0200BB00053707
:0200BC00053508
:0200BD00053408
:0200BE00053209
:0200BF0005300A
:0200C000052F0A
:0200C100052D0B
:0200C200052C0B
:0200C300052A0C
:0200C40005280D
:0200C50005270D
:0200C60005250E
:0200C70005240E
:0200C80005220F
:0200C900052010
:0200CA00051F10
:0200CB00051D11
:0200CC00051C11
:0200CD00051A12
:0200CE00051912
:0200CF00051713
:0200D000051613
:0200D100051414
:0200D200051215
:0200D300051115
:0200D400050F16
:0200D500050E16
:0200D600050C17
:0200D700050B17
:0200D800050918
:0200D900050818
:0200DA00050619
:0200DB00050519
:0200DC0005031A
:0200DD0005021A
:0200DE0005001B
:0200DF0004FF1C
:0200E00004FD1D
:0200E10004FC1D
:0200E20004FB1D
:0200E30004F91E
:0200E40004F81E
:0200E50004F61F
:0200E60004F51F
:0200E70004F320
:0200E80004F220
:0200E90004F021
:0200EA0004EF21
:0200EB0004EE21
:0200EC0004EC22
:0200ED0004EB22
:0200EE0004E923
:0200EF0004E823
:0200F00004E624
:0200F10004E524
:0200F20004E424
:0200F30004E225
:0200F40004E125
:0200F50004E025
:0200F60004DE26
:0200F70004DD26
:0200F80004DB27
:0200F90004DA27
:0200FA0004D927
:0200FB0004D728
:0200FC0004D628
:0200FD0004D528
:0200FE0004D329
:0200FF0004D229
:0201000004D128
:0201010004CE2A
:0201020004CC2B
:0201030004CA2C
:0201040004C82D
:0201050004C62E
:0201060004C42F
:0201070004C230
:0201080004C031
:0201090004BE32
:02010A0004BC33
:02010B0004BA34
:02010C0004B835
:02010D0004B636
:02010E0004B437
:02010F0004B238
:0201100004B039
:0201110004AE3A
:0201120004AC3B
:0201130004AA3C
:0201140004A83D
:0201150004A63E
:0201160004A43F
:0201170004A240
:0201180004A041
:02011900049E42
:02011A00049C43
:02011B00049B43
:02011C00049944
:02011D00049745
:02011E00049546
:02011F00049347
:02012000049148
:02012100048F49
:02012200048E49
:02012300048C4A
:02012400048A4B
:0201250004884C
:0201260004864D
:0201270004854D
:0201280004834E
:0201290004814F
:02012A00047F50
:02012B00047D51
:02012C00047C51
:02012D00047A52
:02012E00047853
:02012F00047753
:02013000047554
:02013100047355
:02013200047156
:02013300047056
:02013400046E57
:02013500046C58
:02013600046B58
:02013700046959
:0201380004675A
:0201390004665A
:02013A0004645B
:02013B0004625C
:02013C0004615C
:02013D00045F5D
:02013E00045D5E
:02013F00045C5E
:02014000045A5F
:0201410004595F
:02014200045760
:02014300045561
:02014400045461
:02014500045262
:02014600045162
:02014700044F63
:02014800044E63
:02014900044C64
:02014A00044B64
:02014B00044965
:02014C00044766
:02014D00044666
:02014E00044467
:02014F00044367
:02015000044168
:02015100044068
:02015200043E69
:02015300043D69
:02015400043B6A
:02015500043A6A
:0201560004386B
:0201570004376B
:0201580004356C
:0201590004346C
:02015A0004336C
:02015B0004316D
:02015C0004306D
:02015D00042E6E
:02015E00042D6E
:02015F00042B6F
:02016000042A6F
:0201610004296F
:02016200042770
:02016300042670
:02016400042471
:02016500042371
:02016600042271
:02016700042072
:02016800041F72
:02016900041D73
:02016A00041C73
:02016B00041B73
:02016C00041974
:02016D00041874
:02016E00041774
:02016F00041575
:02017000041475
:02017100041375
:02017200041176
:02017300041076
:02017400040F76
:02017500040D77
:02017600040C77
:02017700040B77
:02017800040978
:02017900040878
:02017A00040778
:02017B00040579
:02017C00040479
:02017D00040379
:02017E00040279
:02017F0004007A
:0201800003FF7B
:0201810003FE7B
:0201820003FC7C
:0201830003FB7C
:0201840003FA7C
:0201850003F97C
:0201860003F77D
:0201870003F67D
:0201880003F57D
:0201890003F47D
:02018A0003F37D
:02018B0003F17E
:02018C0003F07E
:02018D0003EF7E
:02018E0003EE7E
:02018F0003EC7F
:0201900003EB7F
:0201910003EA7F
:0201920003E97F
:0201930003E87F
:0201940003E680
:0201950003E580
:0201960003E480
:0201970003E380
:0201980003E280
:0201990003E180
:02019A0003DF81
:02019B0003DE81
:02019C0003DD81
:02019D0003DC81
:02019E0003DB81
:02019F0003DA81
:0201A00003D882
:0201A10003D782
:0201A20003D682
:0201A30003D582
:0201A40003D482
:0201A50003D382
:0201A60003D282
:0201A70003D182
:0201A80003CF83
:0201A90003CE83
:0201AA0003CD83
:0201AB0003CC83
:0201AC0003CB83
:0201AD0003CA83
:0201AE0003C983
:0201AF0003C883
:0201B00003C783
:0201B10003C683
:0201B20003C484
:0201B30003C384
:0201B40003C284
:0201B50003C184
:0201B60003C084
:0201B70003BF84
:0201B80003BE84
:0201B90003BD84
:0201BA0003BC84
:0201BB0003BB84
:0201BC0003BA84
:0201BD0003B984
:0201BE0003B884
:0201BF0003B784
:0201C00003B684
:0201C10003B584
:0201C20003B484
:0201C30003B384
:0201C40003B284
:0201C50003B085
:0201C60003AF85
:0201C70003AE85
:0201C80003AD85
:0201C90003AC85
:0201CA0003AB85
:0201CB0003AA85
:0201CC0003A985
:0201CD0003A885
:0201CE0003A785
:0201CF0003A685
:0201D00003A585
:0201D10003A485
:0201D20003A385
:0201D30003A285
:0201D40003A185
:0201D50003A184
:0201D60003A084
:0201D700039F84
:0201D800039E84
:0201D900039D84
:0201DA00039C84
:0201DB00039B84
:0201DC00039A84
:0201DD00039984
:0201DE00039884
:0201DF00039784
:0201E000039684
:0201E100039584
:0201E200039484
:0201E300039384
:0201E400039284
:0201E500039184
:0201E600039084
:0201E700038F84
:0201E800038E84
:0201E900038E83
:0201EA00038D83
:0201EB00038C83
:0201EC00038B83
:0201ED00038A83
:0201EE00038983
:0201EF00038883
:0201F000038783
:0201F100038683
:0201F200038583
:0201F300038483
:0201F400038482
:0201F500038382
:0201F600038282
:0201F700038182
:0201F800038082
:0201F900037F82
:0201FA00037E82
:0201FB00037D82
:0201FC00037C82
:0201FD00037C81
:0201FE00037B81
:0201FF00037A81
:00000001ff
