:020000040000FA
:010000000CF3
:0100010006F8
:0100020000FD
:010003000AF2
:0100040005F6
:0100050003F7
:0100060005F4
:010007000DEB
:010008000DEA
:0100090009ED
:01000A0002F3
:01000B000DE7
:01000C000AE9
:01000D000EE4
:01000E000BE6
:01000F0004EC
:010010000AE5
:010011000FDF
:0100120006E7
:010013000EDE
:010014000AE1
:0100150009E1
:010016000ADF
:010017000CDC
:010018000ED9
:010019000CDA
:01001A0003E2
:01001B000FD5
:01001C000AD9
:01001D000DD5
:01001E0001E0
:01001F000CD4
:0100200006D9
:0100210003DB
:0100220006D7
:0100230001DB
:0100240005D6
:0100250001D9
:0100260002D7
:0100270004D4
:0100280002D5
:0100290004D2
:01002A0000D5
:01002B000CC8
:01002C000AC9
:01002D000CC6
:01002E0000D1
:01002F0004CC
:0100300001CE
:0100310002CC
:010032000CC1
:0100330004C8
:010034000BC0
:0100350001C9
:0100360003C6
:010037000BBD
:0100380002C5
:010039000CBA
:01003A000DB8
:01003B0004C0
:01003C0000C3
:01003D000AB8
:01003E000AB7
:01003F0005BB
:010040000CB3
:010041000FAF
:010042000AB3
:0100430005B7
:0100440005B6
:010045000DAD
:010046000CAD
:010047000EAA
:010048000BAC
:0100490008AE
:01004A0008AD
:01004B0007AD
:01004C0002B1
:01004D000EA4
:01004E000FA2
:01004F0005AB
:010050000CA3
:010051000DA1
:010052000AA3
:0100530006A6
:010054000D9E
:0100550008A2
:010056000A9F
:0100570006A2
:0100580007A0
:0100590006A0
:01005A00079E
:01005B000B99
:01005C000D96
:01005D00049E
:01005E00049D
:01005F000C94
:010060000699
:010061000797
:01006200019C
:01006300009C
:010064000E8D
:010065000D8D
:010066000B8E
:010067000494
:010068000C8B
:010069000492
:01006A00088D
:01006B000D87
:01006C00078C
:01006D000092
:01006E00038E
:01006F000090
:010070000689
:010071000C82
:010072000786
:010073000488
:010074000D7E
:010075000387
:010076000683
:010077000F79
:010078000F78
:01007900077F
:01007A000D78
:01007B00057F
:01007C000B78
:01007D00087A
:01007E000E73
:01007F000878
:010080000D72
:010081000F6F
:010082000875
:010083000D6F
:010084000E6D
:010085000476
:010086000277
:010087000672
:01008800086F
:01008900086E
:01008A000372
:01008B000D67
:01008C00056E
:01008D00046E
:01008E000D64
:01008F000D63
:010090000867
:010091000F5F
:010092000C61
:01009300006C
:010094000A61
:010095000D5D
:010096000B5E
:010097000C5C
:010098000364
:010099000B5B
:01009A00095C
:01009B000C58
:01009C000C57
:01009D000A58
:01009E000F52
:01009F000060
:0100A0000956
:0100A100005E
:0100A200035A
:0100A3000B51
:0100A4000952
:0100A5000555
:0100A6000554
:0100A7000256
:0100A8000255
:0100A9000353
:0100AA000B4A
:0100AB00094B
:0100AC00064D
:0100AD000250
:0100AE00074A
:0100AF000749
:0100B0000D42
:0100B1000C42
:0100B200014C
:0100B300014B
:0100B4000843
:0100B5000C3E
:0100B6000C3D
:0100B7000F39
:0100B8000344
:0100B9000F37
:0100BA000540
:0100BB000C38
:0100BC00053E
:0100BD00073B
:0100BE00063B
:0100BF000937
:0100C000023D
:0100C1000C32
:0100C2000736
:0100C3000D2F
:0100C400013A
:0100C5000D2D
:0100C6000237
:0100C7000A2E
:0100C800092E
:0100C900072F
:0100CA00062F
:0100CB000133
:0100CC00092A
:0100CD00072B
:0100CE000C25
:0100CF00032D
:0100D0000B24
:0100D1000D21
:0100D2000924
:0100D3000824
:0100D4000922
:0100D5000228
:0100D6000425
:0100D7000424
:0100D8000027
:0100D9000E18
:0100DA000A1B
:0100DB000A1A
:0100DC00081B
:0100DD000919
:0100DE00071A
:0100DF00041C
:0100E0000916
:0100E1000816
:0100E2000815
:0100E3000814
:0100E400001B
:0100E5000D0D
:0100E6000316
:0100E7000018
:0100E8000710
:0100E9000115
:0100EA000114
:0100EB000E06
:0100EC000A09
:0100ED000B07
:0100EE000E03
:0100EF000808
:0100F000050A
:0100F1000707
:0100F2000904
:0100F3000A02
:0100F4000209
:0100F5000FFB
:0100F6000603
:0100F7000404
:0100F8000AFD
:0100F9000204
:0100FA000CF9
:0100FB000FF5
:0100FC0009FA
:0100FD000DF5
:0100FE0007FA
:0100FF0008F8
:0101000009F5
:0101010007F6
:0101020008F4
:0101030008F3
:0101040009F1
:0101050005F4
:0101060009EF
:010107000DEA
:010108000CEA
:0101090009EC
:01010A000DE7
:01010B0007EC
:01010C000EE4
:01010D000CE5
:01010E0005EB
:01010F0001EE
:010110000FDF
:0101110004E9
:010112000CE0
:0101130008E3
:0101140001E9
:0101150003E6
:0101160004E4
:010117000ED9
:0101180001E5
:0101190003E2
:01011A0001E3
:01011B000ED5
:01011C0003DF
:01011D000DD4
:01011E0002DE
:01011F000DD2
:010120000DD1
:010121000AD3
:0101220000DC
:0101230002D9
:0101240007D3
:010125000DCC
:0101260009CF
:0101270005D2
:010128000FC7
:010129000EC7
:01012A000CC8
:01012B000BC8
:01012C0000D2
:01012D0009C8
:01012E0007C9
:01012F0003CC
:0101300009C5
:010131000CC1
:0101320005C7
:0101330003C8
:0101340009C1
:0101350001C8
:010136000ABE
:0101370008BF
:0101380005C1
:0101390000C5
:01013A0000C4
:01013B000EB5
:01013C000AB8
:01013D0009B8
:01013E0008B8
:01013F0004BB
:0101400005B9
:0101410005B8
:0101420005B7
:010143000AB1
:010144000FAB
:0101450004B5
:010146000FA9
:010147000BAC
:0101480007AF
:010149000AAB
:01014A000DA7
:01014B0000B3
:01014C0009A9
:01014D0000B1
:01014E0006AA
:01014F0000AF
:0101500005A9
:0101510005A8
:0101520004A8
:010153000BA0
:0101540006A4
:010155000A9F
:010156000E9A
:010157000E99
:010158000D99
:0101590002A3
:01015A00099B
:01015B0002A1
:01015C00039F
:01015D00079A
:01015E000D93
:01015F000A95
:010160000797
:01016100039A
:01016200009C
:010163000794
:010164000397
:010165000792
:01016600098F
:010167000493
:01016800088E
:01016900098C
:01016A000193
:01016B000D86
:01016C000191
:01016D00048D
:01016E00028E
:01016F000B84
:010170000688
:010171000B82
:010172000B81
:010173000784
:010174000882
:010175000B7E
:010176000088
:010177000C7B
:010178000B7B
:010179000A7B
:01017A000C78
:01017B000A79
:01017C000F73
:01017D000B76
:01017E00057B
:01017F00047B
:010180000777
:01018100017C
:010182000874
:010183000774
:010184000D6D
:010185000E6B
:010186000375
:01018700086F
:010188000E68
:01018900096C
:01018A000470
:01018B000C67
:01018C000270
:01018D000E63
:01018E000A66
:01018F00046B
:010190000F5F
:01019100036A
:010192000B61
:010193000665
:010194000862
:010195000960
:010196000563
:010197000C5B
:010198000363
:010199000164
:01019A000460
:01019B000B58
:01019C000C56
:01019D000061
:01019E00025E
:01019F00045B
:0101A0000B53
:0101A1000F4E
:0101A2000D4F
:0101A3000754
:0101A4000159
:0101A5000356
:0101A6000B4D
:0101A7000A4D
:0101A8000353
:0101A9000055
:0101AA000D47
:0101AB000A49
:0101AC000C46
:0101AD000B46
:0101AE00034D
:0101AF00034C
:0101B0000F3F
:0101B100004D
:0101B200004C
:0101B3000E3D
:0101B4000E3C
:0101B5000742
:0101B6000246
:0101B7000E39
:0101B8000E38
:0101B900063F
:0101BA000242
:0101BB000D36
:0101BC000A38
:0101BD000C35
:0101BE000C34
:0101BF000639
:0101C0000A34
:0101C1000C31
:0101C200023A
:0101C3000833
:0101C4000A30
:0101C5000D2C
:0101C6000434
:0101C7000A2D
:0101C8000A2C
:0101C900062F
:0101CA000232
:0101CB00042F
:0101CC00082A
:0101CD000C25
:0101CE00032D
:0101CF00012E
:0101D000012D
:0101D1000F1E
:0101D2000A22
:0101D3000724
:0101D4000D1D
:0101D5000524
:0101D6000F19
:0101D7000B1C
:0101D8000E18
:0101D9000124
:0101DA000F15
:0101DB00071C
:0101DC000C16
:0101DD00041D
:0101DE000719
:0101DF00031C
:0101E0000717
:0101E1000716
:0101E2000913
:0101E3000714
:0101E4000E0C
:0101E5000019
:0101E6000F09
:0101E7000413
:0101E800070F
:0101E900090C
:0101EA00080C
:0101EB00090A
:0101EC00050D
:0101ED00050C
:0101EE000709
:0101EF000D02
:0101F0000B03
:0101F1000904
:0101F200010B
:0101F300010A
:0101F4000A00
:0101F5000108
:0101F6000DFB
:0101F70009FE
:0101F8000204
:0101F90009FC
:0101FA000202
:0101FB0004FF
:0101FC0009F9
:0101FD000FF2
:0101FE0006FA
:0101FF0001FE
:0102000006F7
:0102010001FB
:010202000CEF
:0102030008F2
:0102040007F2
:0102050000F8
:010206000AED
:0102070001F5
:0102080005F0
:0102090008EC
:01020A000CE7
:01020B000CE6
:01020C0000F1
:01020D0008E8
:01020E0003EC
:01020F0005E9
:0102100004E9
:010211000BE1
:0102120004E7
:0102130000EA
:0102140001E8
:010215000BDD
:0102160008DF
:0102170000E6
:0102180003E2
:0102190001E3
:01021A000DD6
:01021B000ED4
:01021C000CD5
:01021D0004DC
:01021E0004DB
:01021F000FCF
:0102200008D5
:0102210006D6
:0102220005D6
:0102230000DA
:0102240008D1
:010225000ECA
:0102260008CF
:010227000DC9
:0102280009CC
:0102290009CB
:01022A000DC6
:01022B0008CA
:01022C000FC2
:01022D000CC4
:01022E0008C7
:01022F0002CC
:010230000AC3
:0102310003C9
:0102320004C7
:0102330004C6
:010234000FBA
:0102350002C6
:010236000FB8
:0102370007BF
:0102380002C3
:0102390007BD
:01023A0002C1
:01023B000FB3
:01023C0000C1
:01023D0007B9
:01023E0009B6
:01023F0000BE
:0102400004B9
:0102410004B8
:010242000FAC
:0102430008B2
:0102440003B6
:0102450008B0
:0102460002B5
:010247000BAB
:0102480005B0
:010249000FA5
:01024A000FA4
:01024B000AA8
:01024C000BA6
:01024D000CA4
:01024E000BA4
:01024F000AA4
:010250000CA1
:0102510005A7
:010252000E9D
:0102530002A8
:010254000C9D
:010255000E9A
:01025600089F
:010257000E98
:01025800089D
:010259000E96
:01025A000C97
:01025B0000A2
:01025C000A97
:01025D000D93
:01025E000E91
:01025F00049A
:010260000994
:010261000A92
:010262000596
:010263000B8F
:010264000F8A
:010265000791
:010266000B8C
:010267000591
:010268000293
:010269000193
:01026A000390
:01026B000C86
:01026C000190
:01026D000B85
:01026E00058A
:01026F000A84
:010270000B82
:010271000983
:010272000685
:010273000981
:010274000B7E
:010275000583
:010276000483
:01027700077F
:010278000F76
:010279000084
:01027A000E75
:01027B000280
:01027C00067B
:01027D00067A
:01027E00007F
:01027F000579
:010280000875
:010281000E6E
:010282000D6E
:010283000F6B
:010284000079
:010285000D6B
:010286000671
:010287000D69
:01028800066F
:01028900076D
:01028A00096A
:01028B00066C
:01028C000B66
:01028D000769
:01028E000A65
:01028F000767
:010290000469
:010291000765
:010292000B60
:010293000961
:010294000168
:010295000068
:01029600095E
:010297000066
:010298000A5B
:010299000E56
:01029A00085B
:01029B000260
:01029C000A57
:01029D00015F
:01029E000857
:01029F00045A
:0102A0000A53
:0102A100025A
:0102A2000754
:0102A3000555
:0102A4000950
:0102A5000355
:0102A6000750
:0102A700074F
:0102A800094C
:0102A900074D
:0102AA00084B
:0102AB000B47
:0102AC000C45
:0102AD000B45
:0102AE000A45
:0102AF000C42
:0102B0000845
:0102B1000646
:0102B2000D3E
:0102B3000B3F
:0102B4000C3D
:0102B5000048
:0102B600083F
:0102B700073F
:0102B8000243
:0102B9000044
:0102BA000A39
:0102BB000A38
:0102BC000E33
:0102BD00043C
:0102BE000B34
:0102BF000737
:0102C0000B32
:0102C1000E2E
:0102C2000734
:0102C300003A
:0102C4000435
:0102C5000137
:0102C6000631
:0102C7000432
:0102C8000E27
:0102C900082C
:0102CA000A29
:0102CB000B27
:0102CC00062B
:0102CD00062A
:0102CE000A25
:0102CF00002E
:0102D0000B22
:0102D1000E1E
:0102D2000C1F
:0102D3000E1C
:0102D4000C1D
:0102D5000F19
:0102D6000522
:0102D7000A1C
:0102D8000F16
:0102D9000420
:0102DA000D16
:0102DB000E14
:0102DC000F12
:0102DD000818
:0102DE00021D
:0102DF000915
:0102E0000B12
:0102E1000715
:0102E2000E0D
:0102E3000317
:0102E4000B0E
:0102E5000A0E
:0102E600090E
:0102E7000214
:0102E8000015
:0102E9000F05
:0102EA000E05
:0102EB000E04
:0102EC000F02
:0102ED000709
:0102EE000A05
:0102EF000FFF
:0102F0000FFE
:0102F1000408
:0102F2000A01
:0102F3000EFC
:0102F4000009
:0102F5000008
:0102F6000205
:0102F70008FE
:0102F8000AFB
:0102F9000EF6
:0102FA000DF6
:0102FB000200
:0102FC000AF7
:0102FD0001FF
:0102FE0008F7
:0102FF0000FE
:010300000BF1
:010301000EED
:010302000EEC
:0103030003F6
:0103040006F2
:0103050001F6
:0103060001F5
:0103070004F1
:0103080009EB
:0103090001F2
:01030A000EE4
:01030B0004ED
:01030C000AE6
:01030D0005EA
:01030E000FDF
:01030F0002EB
:010310000BE1
:0103110005E6
:0103120000EA
:010313000DDC
:010314000DDB
:0103150003E4
:0103160006E0
:010317000BDA
:010318000ADA
:010319000CD7
:01031A000ED4
:01031B000AD7
:01031C0000E0
:01031D000ED1
:01031E0006D8
:01031F000BD2
:0103200000DC
:010321000AD1
:0103220001D9
:010323000CCD
:0103240007D1
:010325000CCB
:0103260008CE
:0103270009CC
:010328000FC5
:010329000CC7
:01032A0001D1
:01032B0003CE
:01032C0008C8
:01032D0006C9
:01032E0006C8
:01032F0002CB
:0103300004C8
:010331000AC1
:0103320003C7
:010333000CBD
:0103340008C0
:0103350008BF
:0103360001C5
:0103370008BD
:0103380003C1
:010339000AB9
:01033A0007BB
:01033B0004BD
:01033C000FB1
:01033D0003BC
:01033E0001BD
:01033F0009B4
:010340000CB0
:010341000DAE
:0103420002B8
:010343000FAA
:010344000CAC
:0103450003B4
:010346000BAB
:0103470002B3
:0103480003B1
:010349000DA6
:01034A000FA3
:01034B0009A8
:01034C000FA1
:01034D0002AD
:01034E0008A6
:01034F0008A5
:0103500007A5
:0103510000AB
:010352000C9E
:0103530006A3
:010354000B9D
:010355000A9D
:0103560000A6
:0103570000A5
:010358000C98
:01035900059E
:01035A0001A1
:01035B00069B
:01035C000A96
:01035D000798
:01035E000698
:01035F00019C
:010360000696
:01036100019A
:010362000298
:010363000990
:010364000692
:010365000E89
:010366000393
:010367000B8A
:010368000C88
:010369000E85
:01036A000B87
:01036B000B86
:01036C000B85
:01036D000788
:01036E000E80
:01036F000E7F
:010370000884
:010371000D7E
:010372000189
:010373000881
:010374000682
:010375000384
:01037600077F
:010377000A7B
:01037800067E
:01037900087B
:01037A000B77
:01037B000D74
:01037C000F71
:01037D000F70
:01037E00007E
:01037F000479
:010380000F6D
:010381000675
:01038200007A
:010383000376
:010384000870
:010385000A6D
:010386000373
:010387000075
:010388000D67
:01038900096A
:01038A00046E
:01038B000071
:01038C000C64
:01038D000E61
:01038E000965
:01038F00036A
:010390000369
:010391000F5C
:010392000268
:010393000564
:010394000464
:010395000B5C
:01039600075F
:01039700075E
:010398000B59
:010399000360
:01039A00035F
:01039B000D54
:01039C00055B
:01039D00005F
:01039E000658
:01039F000E4F
:0103A000005C
:0103A1000754
:0103A2000E4C
:0103A3000059
:0103A4000C4C
:0103A5000E49
:0103A600074F
:0103A700074E
:0103A8000054
:0103A900044F
:0103AA00074B
:0103AB000E43
:0103AC000050
:0103AD00024D
:0103AE000E40
:0103AF000B42
:0103B0000646
:0103B1000843
:0103B2000F3B
:0103B3000841
:0103B4000147
:0103B5000B3C
:0103B6000541
:0103B7000144
:0103B8000341
:0103B9000E35
:0103BA00073B
:0103BB00043D
:0103BC000D33
:0103BD000837
:0103BE00003E
:0103BF000E2F
:0103C0000D2F
:0103C1000B30
:0103C2000337
:0103C3000534
:0103C4000F29
:0103C5000334
:0103C6000135
:0103C7000B2A
:0103C800062E
:0103C900062D
:0103CA000032
:0103CB000A27
:0103CC000D23
:0103CD00002F
:0103CE000E20
:0103CF00002D
:0103D000022A
:0103D1000229
:0103D2000B1F
:0103D3000D1C
:0103D4000820
:0103D5000C1B
:0103D600091D
:0103D7000421
:0103D8000024
:0103D9000023
:0103DA000A18
:0103DB00061B
:0103DC000917
:0103DD000E11
:0103DE000C12
:0103DF000E0F
:0103E000011B
:0103E1000F0C
:0103E2000713
:0103E3000613
:0103E4000C0C
:0103E500090E
:0103E6000D09
:0103E7000C09
:0103E800080C
:0103E900050E
:0103EA00080A
:0103EB00070A
:0103EC000808
:0103ED00040B
:0103EE00040A
:0103EF00000D
:0103F0000309
:0103F1000A01
:0103F200000A
:0103F3000306
:0103F4000107
:0103F5000AFD
:0103F6000EF8
:0103F7000DF8
:0103F8000AFA
:0103F90009FA
:0103FA000BF7
:0103FB0008F9
:0103FC0004FC
:0103FD0006F9
:0103FE0005F9
:0103FF000AF3
:010400000FEC
:0104010004F6
:0104020005F4
:010403000FE9
:0104040008EF
:0104050001F5
:0104060000F5
:0104070008EC
:0104080003F0
:0104090003EF
:01040A0006EB
:01040B0000F0
:01040C000EE1
:01040D0007E7
:01040E000AE3
:01040F000FDD
:0104100007E4
:010411000BDF
:010412000CDD
:0104130004E4
:0104140007E0
:0104150001E5
:0104160003E2
:010417000CD8
:010418000FD4
:0104190009D9
:01041A0000E1
:01041B0001DF
:01041C0003DC
:01041D0002DC
:01041E0006D7
:01041F000CD0
:010420000CCF
:0104210004D6
:010422000ACF
:010423000ECA
:0104240006D1
:0104250001D5
:0104260006CF
:0104270002D2
:010428000EC5
:0104290007CB
:01042A0002CF
:01042B000FC1
:01042C0003CC
:01042D000BC3
:01042E000DC0
:01042F0005C7
:0104300008C3
:0104310001C9
:0104320006C3
:0104330000C8
:0104340002C5
:0104350007BF
:0104360001C4
:0104370009BB
:010438000EB5
:010439000AB8
:01043A000CB5
:01043B000AB6
:01043C0002BD
:01043D0009B5
:01043E000CB1
:01043F000FAD
:010440000DAE
:0104410007B3
:0104420007B2
:010443000CAC
:0104440000B7
:010445000FA7
:010446000FA6
:010447000EA6
:010448000DA6
:0104490009A9
:01044A0001B0
:01044B000FA1
:01044C0002AD
:01044D000EA0
:01044E0002AB
:01044F0001AB
:0104500005A6
:010451000F9B
:0104520007A2
:010453000B9D
:0104540002A5
:0104550006A0
:010456000A9B
:01045700079D
:010458000D96
:0104590002A0
:01045A00039E
:01045B00039D
:01045C000B94
:01045D000C92
:01045E000C91
:01045F000894
:010460000596
:010461000A90
:010462000990
:010463000890
:010464000394
:010465000E88
:010466000194
:010467000C88
:01046800058E
:01046900078B
:01046A00048D
:01046B00058B
:01046C000689
:01046D000E80
:01046E000687
:01046F000D7F
:010470000C7F
:010471000E7C
:010472000584
:01047300097F
:010474000A7D
:010475000B7B
:01047600067F
:010477000A7A
:010478000F74
:010479000F73
:01047A000C75
:01047B000C74
:01047C000E71
:01047D00037B
:01047E000479
:01047F000F6D
:010480000873
:010481000872
:010482000F6A
:010483000177
:01048400086F
:010485000472
:010486000C69
:01048700096B
:010488000D66
:010489000C66
:01048A00046D
:01048B00056B
:01048C00056A
:01048D00016D
:01048E000865
:01048F000369
:010490000D5E
:010491000862
:010492000960
:010493000E5A
:01049400085F
:010495000C5A
:01049600085D
:010497000B59
:010498000D56
:010499000959
:01049A000F52
:01049B00055B
:01049C000758
:01049D00045A
:01049E00025B
:01049F000B51
:0104A0000F4C
:0104A1000159
:0104A2000B4E
:0104A3000D4B
:0104A400094E
:0104A500084E
:0104A600074E
:0104A7000A4A
:0104A800064D
:0104A9000949
:0104AA00044D
:0104AB000D43
:0104AC000F40
:0104AD000945
:0104AE00004D
:0104AF000F3D
:0104B0000249
:0104B1000D3D
:0104B2000940
:0104B3000048
:0104B4000641
:0104B5000F37
:0104B600073E
:0104B7000D37
:0104B800053E
:0104B900083A
:0104BA00033E
:0104BB000838
:0104BC000E31
:0104BD00013D
:0104BE000F2E
:0104BF000E2E
:0104C0000536
:0104C1000436
:0104C2000B2E
:0104C3000137
:0104C4000136
:0104C5000A2C
:0104C6000134
:0104C7000E26
:0104C8000D26
:0104C9000F23
:0104CA000A27
:0104CB000927
:0104CC000926
:0104CD000C22
:0104CE000B22
:0104CF00002C
:0104D0000A21
:0104D1000E1C
:0104D2000524
:0104D300091F
:0104D4000D1A
:0104D5000521
:0104D6000A1B
:0104D7000A1A
:0104D800051E
:0104D900031F
:0104DA000C15
:0104DB000F11
:0104DC000F10
:0104DD00001E
:0104DE000F0E
:0104DF000913
:0104E000011A
:0104E1000E0C
:0104E2000A0F
:0104E3000414
:0104E4000017
:0104E5000313
:0104E600090C
:0104E7000113
:0104E8000E05
:0104E900050D
:0104EA00030E
:0104EB00060A
:0104EC000F00
:0104ED000707
:0104EE000706
:0104EF000DFF
:0104F0000CFF
:0104F1000A00
:0104F2000009
:0104F3000DFB
:0104F4000205
:0104F5000501
:0104F6000EF7
:0104F7000AFA
:0104F8000BF8
:0104F90004FE
:0104FA000FF2
:0104FB0006FA
:0104FC000AF5
:0104FD000EF0
:0104FE000AF3
:0104FF0008F4
:0105000006F4
:0105010007F2
:0105020001F7
:010503000DEA
:0105040008EE
:0105050004F1
:0105060003F1
:010507000FE4
:0105080002F0
:010509000DE4
:01050A0000F0
:01050B0004EB
:01050C0001ED
:01050D0005E8
:01050E0000EC
:01050F0008E3
:0105100003E7
:010511000CDD
:0105120004E4
:010513000BDC
:0105140009DD
:0105150004E1
:010516000BD9
:010517000DD6
:010518000ED4
:0105190004DD
:01051A000AD6
:01051B000CD3
:01051C000DD1
:01051D000FCE
:01051E000BD1
:01051F000CCF
:0105200000DA
:0105210008D1
:0105220009CF
:010523000CCB
:010524000CCA
:0105250007CE
:0105260000D4
:010527000BC8
:0105280001D1
:010529000FC2
:01052A0002CE
:01052B000DC2
:01052C0005C9
:01052D0002CB
:01052E0001CB
:01052F0000CB
:0105300002C8
:010531000ABF
:0105320003C5
:0105330006C1
:0105340003C3
:010535000BBA
:0105360003C1
:0105370003C0
:0105380006BC
:010539000AB7
:01053A000FB1
:01053B000BB4
:01053C0004BA
:01053D0004B9
:01053E0009B3
:01053F0003B8
:0105400004B6
:0105410005B4
:010542000DAB
:0105430009AE
:0105440008AE
:010545000CA9
:010546000BA9
:010547000CA7
:010548000AA8
:0105490004AD
:01054A000AA6
:01054B0000AF
:01054C000DA1
:01054D0009A4
:01054E0002AA
:01054F0007A4
:0105500009A1
:010551000F9A
:010552000F99
:0105530005A2
:010554000E98
:010555000A9B
:010556000D97
:010557000C97
:0105580000A2
:01055900059C
:01055A000997
:01055B000D92
:01055C00049A
:01055D000796
:01055E000D8F
:01055F000497
:010560000991
:010561000E8B
:010562000890
:010563000E89
:01056400088E
:010565000491
:010566000193
:010567000093
:01056800058D
:010569000889
:01056A00028E
:01056B000F80
:01056C000F7F
:01056D00038A
:01056E000F7D
:01056F000A81
:010570000D7D
:010571000584
:010572000F79
:010573000D7A
:010574000383
:01057500067F
:010576000183
:010577000D76
:010578000979
:01057900067B
:01057A000779
:01057B00007F
:01057C000A74
:01057D00007D
:01057E000E6E
:01057F000378
:010580000377
:010581000178
:010582000474
:010583000671
:010584000274
:01058500076E
:01058600056F
:010587000073
:010588000D65
:01058900036E
:01058A000F61
:01058B000B64
:01058C000866
:01058D000667
:01058E000B61
:01058F000B60
:010590000169
:010591000762
:010592000A5E
:010593000A5D
:01059400095D
:010595000C59
:01059600095B
:010597000A59
:010598000959
:01059900065B
:01059A000E52
:01059B000659
:01059C00015D
:01059D000657
:01059E000F4D
:01059F000754
:0105A0000B4F
:0105A1000B4E
:0105A2000A4E
:0105A3000C4B
:0105A400084E
:0105A500064F
:0105A6000153
:0105A700084B
:0105A8000949
:0105A900064B
:0105AA00034D
:0105AB000649
:0105AC000747
:0105AD00014C
:0105AE00014B
:0105AF000546
:0105B0000F3B
:0105B1000148
:0105B2000048
:0105B3000542
:0105B400083E
:0105B5000540
:0105B6000B39
:0105B700083B
:0105B8000042
:0105B900063B
:0105BA000040
:0105BB000738
:0105BC000539
:0105BD000637
:0105BE000A32
:0105BF00013A
:0105C0000D2D
:0105C1000336
:0105C2000B2D
:0105C3000C2B
:0105C4000234
:0105C5000B2A
:0105C6000331
:0105C7000E25
:0105C8000D25
:0105C900062B
:0105CA000030
:0105CB00042B
:0105CC000D21
:0105CD000726
:0105CE00022A
:0105CF000F1C
:0105D0000129
:0105D1000D1C
:0105D200091F
:0105D3000F18
:0105D400091D
:0105D5000421
:0105D6000F15
:0105D7000A19
:0105D800071B
:0105D9000C15
:0105DA000F11
:0105DB000817
:0105DC00011D
:0105DD000617
:0105DE000616
:0105DF00001B
:0105E0000614
:0105E1000B0E
:0105E2000612
:0105E3000E09
:0105E4000C0A
:0105E5000B0A
:0105E600080C
:0105E7000211
:0105E8000A08
:0105E900030E
:0105EA000010
:0105EB000807
:0105EC00040A
:0105ED000C01
:0105EE000DFF
:0105EF000407
:0105F0000109
:0105F1000405
:0105F2000107
:0105F3000CFB
:0105F4000BFB
:0105F50008FD
:0105F6000CF8
:0105F7000201
:0105F80009F9
:0105F9000001
:0105FA0008F8
:0105FB0004FB
:0105FC0008F6
:0105FD000BF2
:0105FE0005F7
:0105FF0000FB
:0106000007F2
:0106010008F0
:0106020001F6
:0106030004F2
:0106040003F2
:0106050002F2
:0106060006ED
:0106070009E9
:0106080001F0
:010609000CE4
:01060A0005EA
:01060B000AE4
:01060C000CE1
:01060D000CE0
:01060E000EDD
:01060F0006E4
:010610000BDE
:0106110006E2
:0106120000E7
:0106130005E1
:0106140002E3
:0106150006DE
:0106160002E1
:0106170008DA
:010618000AD7
:0106190000E0
:01061A000FD0
:01061B0001DD
:01061C000FCE
:01061D0006D6
:01061E0002D9
:01061F0003D7
:0106200009D0
:0106210006D2
:010622000FC8
:0106230008CE
:0106240008CD
:0106250008CC
:0106260002D1
:0106270002D0
:0106280003CE
:0106290006CA
:01062A000BC4
:01062B0002CC
:01062C0000CD
:01062D000AC2
:01062E0005C6
:01062F000AC0
:0106300001C8
:0106310007C1
:0106320007C0
:0106330000C6
:0106340000C5
:010635000ABA
:010636000EB5
:0106370002C0
:010638000BB6
:0106390000C0
:01063A0009B6
:01063B0000BE
:01063C0001BC
:01063D0008B4
:01063E0004B7
:01063F0004B6
:010640000AAF
:0106410009AF
:0106420005B2
:0106430002B4
:010644000AAB
:0106450003B1
:0106460008AB
:0106470005AD
:0106480005AC
:0106490008A8
:01064A000DA2
:01064B0005A9
:01064C0002AB
:01064D000AA2
:01064E0000AB
:01064F000B9F
:0106500005A4
:0106510005A3
:01065200089F
:01065300099D
:01065400079E
:0106550000A4
:01065600049F
:01065700079B
:010658000A97
:01065900029E
:01065A000699
:01065B000D91
:01065C000F8E
:01065D000795
:01065E000F8C
:01065F000595
:010660000792
:010661000494
:010662000C8B
:010663000393
:010664000B8A
:01066500098B
:010666000390
:010667000191
:010668000C85
:010669000C84
:01066A000F80
:01066B00008E
:01066C000E7F
:01066D000785
:01066E000C7F
:01066F00008A
:010670000584
:010671000F79
:010672000681
:010673000E78
:010674000283
:01067500097B
:010676000083
:01067700037F
:010678000E73
:010679000080
:01067A000A75
:01067B000C72
:01067C000875
:01067D000478
:01067E000378
:01067F000B6F
:010680000475
:010681000771
:010682000E69
:010683000373
:010684000372
:010685000C68
:010686000C67
:01068700036F
:01068800036E
:010689000D63
:01068A000768
:01068B00036B
:01068C000A63
:01068D00016B
:01068E00016A
:01068F000466
:010690000663
:010691000068
:010692000265
:010693000A5C
:01069400065F
:01069500095B
:010696000360
:01069700085A
:010698000C55
:01069900055B
:01069A000956
:01069B00005E
:01069C00035A
:01069D000D4F
:01069E000754
:01069F00005A
:0106A0000356
:0106A1000157
:0106A200094E
:0106A3000B4B
:0106A4000B4A
:0106A5000A4A
:0106A6000E45
:0106A7000C46
:0106A8000B46
:0106A900024E
:0106AA000A45
:0106AB000E40
:0106AC000845
:0106AD000547
:0106AE00014A
:0106AF000C3E
:0106B0000544
:0106B1000C3C
:0106B2000344
:0106B3000E38
:0106B4000F36
:0106B5000C38
:0106B6000B38
:0106B700043E
:0106B8000E33
:0106B900023E
:0106BA000C33
:0106BB000737
:0106BC000E2F
:0106BD00013B
:0106BE000D2E
:0106BF000337
:0106C0000336
:0106C1000E2A
:0106C200092E
:0106C300072F
:0106C4000D28
:0106C5000034
:0106C600092A
:0106C7000032
:0106C8000D24
:0106C9000B25
:0106CA00052A
:0106CB000826
:0106CC00002D
:0106CD000D1F
:0106CE000E1D
:0106CF000228
:0106D0000C1D
:0106D1000F19
:0106D2000C1B
:0106D3000A1C
:0106D4000E17
:0106D5000D17
:0106D6000122
:0106D7000022
:0106D800051C
:0106D9000B15
:0106DA000C13
:0106DB000618
:0106DC000617
:0106DD000A12
:0106DE000219
:0106DF000F0B
:0106E0000118
:0106E1000C0C
:0106E2000314
:0106E3000A0C
:0106E400070E
:0106E5000014
:0106E6000C07
:0106E700030F
:0106E8000011
:0106E9000C04
:0106EA00020D
:0106EB000FFF
:0106EC000FFE
:0106ED00010B
:0106EE000308
:0106EF000604
:0106F0000BFE
:0106F1000305
:0106F2000106
:0106F30009FD
:0106F4000FF6
:0106F5000AFA
:0106F6000003
:0106F70007FB
:0106F8000AF7
:0106F9000000
:0106FA0004FB
:0106FB0002FC
:0106FC0005F8
:0106FD000BF1
:0106FE0001FA
:0106FF0006F4
:010700000AEE
:010701000EE9
:0107020004F2
:010703000DE8
:010704000DE7
:0107050009EA
:0107060005ED
:0107070008E9
:0107080009E7
:0107090000EF
:01070A0005E9
:01070B0002EB
:01070C0001EB
:01070D000FDC
:01070E0007E3
:01070F0006E3
:010710000CDC
:0107110005E2
:0107120004E2
:0107130007DE
:0107140001E3
:0107150004DF
:0107160004DE
:0107170004DD
:010718000AD6
:010719000CD3
:01071A0000DE
:01071B000ECF
:01071C000FCD
:01071D000BD0
:01071E000DCD
:01071F0000D9
:0107200000D8
:010721000ACD
:010722000BCB
:0107230002D3
:010724000DC7
:010725000EC5
:0107260004CE
:0107270002CF
:010728000AC6
:010729000FC0
:01072A0007C7
:01072B0005C8
:01072C0001CB
:01072D0000CB
:01072E000AC0
:01072F0008C1
:0107300002C6
:0107310003C4
:0107320006C0
:0107330005C0
:010734000FB5
:010735000FB4
:0107360004BE
:010737000CB5
:0107380008B8
:0107390008B7
:01073A000DB1
:01073B0009B4
:01073C0000BC
:01073D0003B8
:01073E0009B1
:01073F0006B3
:0107400001B7
:0107410000B7
:010742000AAC
:0107430009AC
:0107440005AF
:0107450008AB
:010746000CA6
:010747000FA2
:010748000BA5
:010749000DA2
:01074A0004AA
:01074B000E9F
:01074C000BA1
:01074D000AA1
:01074E000D9D
:01074F0004A5
:0107500003A5
:010751000C9B
:0107520004A2
:0107530000A5
:0107540003A1
:01075500069D
:010756000E94
:01075700049D
:010758000F91
:010759000996
:01075A000D91
:01075B00039A
:01075C000993
:01075D000A91
:01075E000397
:01075F000198
:010760000395
:01076100088F
:010762000096
:010763000B8A
:010764000B89
:010765000192
:010766000191
:010767000D84
:010768000B85
:010769000E81
:01076A000C82
:01076B000C81
:01076C000587
:01076D000F7C
:01076E000189
:01076F000584
:010770000682
:010771000D7A
:010772000680
:010773000C79
:010774000E76
:01077500077C
:01077600067C
:010777000A77
:01077800037D
:01077900007F
:01077A00027C
:01077B000C71
:01077C000E6E
:01077D000D6E
:01077E000C6E
:01077F000F6A
:010780000B6D
:010781000770
:01078200076F
:010783000471
:01078400056F
:010785000271
:01078600056D
:010787000869
:01078800046C
:01078900056A
:01078A000767
:01078B000667
:01078C000F5D
:01078D00016A
:01078E000961
:01078F000663
:01079000095F
:010791000265
:010792000264
:010793000A5B
:010794000D57
:010795000F54
:010796000260
:010797000C55
:01079800015F
:010799000659
:01079A00035B
:01079B000E4F
:01079C000F4D
:01079D000E4D
:01079E000456
:01079F000A4F
:0107A0000A4E
:0107A1000156
:0107A200074F
:0107A3000B4A
:0107A400094B
:0107A5000D46
:0107A600064C
:0107A700034E
:0107A800024E
:0107A900054A
:0107AA000A44
:0107AB00034A
:0107AC000349
:0107AD000A41
:0107AE000D3D
:0107AF000F3A
:0107B0000444
:0107B1000047
:0107B2000A3C
:0107B300083D
:0107B4000F35
:0107B500083B
:0107B6000A38
:0107B7000E33
:0107B8000D33
:0107B900003F
:0107BA00023C
:0107BB000E2F
:0107BC000F2D
:0107BD000239
:0107BE000238
:0107BF000F2A
:0107C0000434
:0107C1000235
:0107C2000630
:0107C3000233
:0107C4000430
:0107C5000E25
:0107C6000230
:0107C7000130
:0107C8000F21
:0107C9000D22
:0107CA00012D
:0107CB000F1E
:0107CC000B21
:0107CD000B20
:0107CE000525
:0107CF000128
:0107D0000523
:0107D100091E
:0107D2000620
:0107D3000421
:0107D4000E16
:0107D5000E15
:0107D6000E14
:0107D7000918
:0107D8000C14
:0107D900031C
:0107DA000A14
:0107DB00011C
:0107DC000418
:0107DD000219
:0107DE000B0F
:0107DF000F0A
:0107E0000E0A
:0107E100080F
:0107E2000016
:0107E300070E
:0107E4000014
:0107E5000E05
:0107E600060C
:0107E7000A07
:0107E800010F
:0107E9000F00
:0107EA000A04
:0107EB000904
:0107EC000309
:0107ED000FFC
:0107EE000505
:0107EF000FFA
:0107F0000404
:0107F1000007
:0107F2000CFA
:0107F3000302
:0107F4000004
:0107F5000FF4
:0107F6000DF5
:0107F70007FA
:0107F80009F7
:0107F90003FC
:0107FA0002FC
:0107FB0005F8
:0107FC000DEF
:0107FD0008F3
:0107FE0009F1
:0107FF0000F9
:00000001ff
