:020000040000FA
:010000000AF5
:010001000AF4
:0100020009F4
:010003000BF1
:010004000EED
:0100050007F3
:0100060002F7
:0100070001F7
:010008000AED
:0100090005F1
:01000A000EE7
:01000B0003F1
:01000C000FE4
:01000D000FE3
:01000E000EE3
:01000F0003ED
:0100100002ED
:0100110009E5
:0100120002EB
:010013000FDD
:010014000AE1
:0100150005E5
:0100160006E3
:010017000CDC
:0100180006E1
:010019000ADC
:01001A000DD8
:01001B0007DD
:01001C0001E2
:01001D0002E0
:01001E0000E1
:01001F000FD1
:010020000FD0
:010021000BD3
:010022000AD3
:010023000CD0
:010024000AD1
:0100250006D4
:0100260007D2
:010027000CCC
:0100280007D0
:0100290002D4
:01002A0007CE
:01002B0004D0
:01002C0008CB
:01002D0003CF
:01002E0007CA
:01002F0001CF
:010030000FC0
:010031000CC2
:010032000FBE
:010033000BC1
:010034000DBE
:010035000CBE
:0100360008C1
:010037000BBD
:0100380004C3
:0100390009BD
:01003A0007BE
:01003B000FB5
:01003C0006BD
:01003D0004BE
:01003E0003BE
:01003F0002BE
:010040000CB3
:010041000FAF
:0100420007B6
:0100430000BC
:0100440002B9
:0100450003B7
:0100460004B5
:0100470002B6
:0100480004B3
:010049000CAA
:01004A0003B2
:01004B000CA8
:01004C0002B1
:01004D0003AF
:01004E0008A9
:01004F000BA5
:010050000CA3
:0100510001AD
:010052000E9F
:010053000F9D
:010054000C9F
:0100550003A7
:010056000D9C
:0100570006A2
:01005800089F
:01005900099D
:01005A000E97
:01005B00099B
:01005C00059E
:01005D000C96
:01005E000E93
:01005F000997
:01006000009F
:01006100019D
:01006200029B
:010063000D8F
:010064000497
:01006500009A
:010066000C8D
:010067000A8E
:010068000E89
:010069000E88
:01006A000590
:01006B000D87
:01006C000192
:01006D000F83
:01006E00028F
:01006F00058B
:01007000018E
:010071000C82
:010072000B82
:010073000D7F
:01007400008B
:010075000981
:010076000A7F
:010077000088
:010078000F78
:010079000581
:01007A00077E
:01007B000381
:01007C000C77
:01007D000C76
:01007E00047D
:01007F000779
:010080000F70
:010081000A74
:010082000776
:010083000874
:010084000477
:010085000179
:010086000574
:010087000870
:010088000275
:01008900096D
:01008A000273
:01008B000074
:01008C00046F
:01008D000A68
:01008E000C65
:01008F00016F
:010090000867
:010091000C62
:010092000469
:010093000D5F
:01009400006B
:010095000D5D
:010096000C5D
:010097000D5B
:010098000562
:010099000363
:01009A00075E
:01009B000A5A
:01009C00085B
:01009D000161
:01009E000A57
:01009F000957
:0100A0000956
:0100A1000658
:0100A2000C51
:0100A3000B51
:0100A4000259
:0100A5000F4B
:0100A6000257
:0100A7000751
:0100A8000B4C
:0100A900094D
:0100AA00084D
:0100AB000C48
:0100AC00084B
:0100AD00084A
:0100AE00054C
:0100AF00034D
:0100B000014E
:0100B1000846
:0100B2000944
:0100B300004C
:0100B400014A
:0100B5000842
:0100B6000A3F
:0100B7000147
:0100B8000047
:0100B9000E38
:0100BA000A3B
:0100BB00083C
:0100BC000043
:0100BD000E34
:0100BE00043D
:0100BF000739
:0100C0000D32
:0100C100013D
:0100C200003D
:0100C3000834
:0100C4000734
:0100C500003A
:0100C6000138
:0100C7000D2B
:0100C8000334
:0100C9000234
:0100CA000A2B
:0100CB00062E
:0100CC000132
:0100CD000230
:0100CE000D24
:0100CF00042C
:0100D000032C
:0100D100042A
:0100D2000B22
:0100D3000725
:0100D400002B
:0100D5000B1F
:0100D6000524
:0100D7000325
:0100D8000522
:0100D9000323
:0100DA000B1A
:0100DB000420
:0100DC000D16
:0100DD000B17
:0100DE000918
:0100DF000719
:0100E0000D12
:0100E1000717
:0100E2000617
:0100E3000E0E
:0100E4000912
:0100E5000416
:0100E6000E0B
:0100E7000B0D
:0100E8000017
:0100E9000412
:0100EA000015
:0100EB000F05
:0100EC000D06
:0100ED00050D
:0100EE00030E
:0100EF00040C
:0100F000030C
:0100F1000A04
:0100F200030A
:0100F3000507
:0100F4000605
:0100F5000901
:0100F6000FFA
:0100F7000503
:0100F8000502
:0100F9000600
:0100FA0008FD
:0100FB000BF9
:0100FC0005FE
:0100FD000BF7
:0100FE000BF6
:0100FF000CF4
:0101000000FE
:0101010001FC
:0101020005F7
:0101030007F4
:010104000CEE
:0101050002F7
:010106000EEA
:010107000BEC
:010108000DE9
:010109000DE8
:01010A000CE8
:01010B000FE4
:01010C0002F0
:01010D0007EA
:01010E0003ED
:01010F0001EE
:0101100000EE
:0101110004E9
:0101120004E8
:0101130009E2
:0101140000EA
:010115000BDE
:010116000CDC
:0101170007E0
:0101180002E4
:0101190006DF
:01011A000BD9
:01011B000CD7
:01011C0003DF
:01011D000BD6
:01011E000ED2
:01011F0007D8
:010120000FCF
:010121000FCE
:010122000ECE
:0101230002D9
:0101240000DA
:0101250007D2
:0101260009CF
:0101270000D7
:0101280007CF
:0101290003D2
:01012A0006CE
:01012B0000D3
:01012C0009C9
:01012D0008C9
:01012E000CC4
:01012F0002CD
:0101300000CE
:0101310005C8
:010132000DBF
:010133000CBF
:010134000FBB
:010135000DBC
:0101360006C2
:0101370002C5
:0101380001C5
:010139000DB8
:01013A0005BF
:01013B0002C1
:01013C0003BF
:01013D000EB3
:01013E0000C0
:01013F000DB2
:010140000CB2
:010141000FAE
:0101420009B3
:0101430005B6
:0101440003B7
:0101450005B4
:0101460006B2
:0101470002B5
:0101480009AD
:0101490001B4
:01014A0002B2
:01014B0008AB
:01014C0000B2
:01014D000CA5
:01014E000FA1
:01014F0001AE
:0101500007A7
:010151000DA0
:010152000CA0
:0101530002A9
:010154000B9F
:0101550006A3
:0101560000A8
:01015700089F
:010158000D99
:010159000E97
:01015A00079D
:01015B00069D
:01015C00079B
:01015D00059C
:01015E000997
:01015F000A95
:010160000F8F
:010161000994
:010162000C90
:010163000398
:010164000C8E
:010165000E8B
:010166000E8A
:010167000D8A
:01016800088E
:010169000A8B
:01016A00068E
:01016B000E85
:01016C000C86
:01016D000889
:01016E00038D
:01016F000A85
:01017000028C
:010171000C81
:01017200028A
:010173000982
:010174000E7C
:010175000782
:010176000484
:010177000E79
:010178000680
:010179000580
:01017A000D77
:01017B00067D
:01017C00037F
:01017D000C75
:01017E000080
:01017F000778
:010180000E70
:010181000A73
:010182000577
:01018300017A
:010184000575
:010185000D6C
:010186000D6B
:010187000A6D
:010188000472
:010189000B6A
:01018A00076D
:01018B000271
:01018C000D65
:01018D000B66
:01018E00046C
:01018F00036C
:010190000866
:010191000568
:01019200006C
:01019300016A
:010194000367
:010195000465
:010196000563
:01019700085F
:010198000264
:01019900085D
:01019A000361
:01019B000C57
:01019C000C56
:01019D000160
:01019E00055B
:01019F000659
:0101A000015D
:0101A1000459
:0101A2000C50
:0101A3000754
:0101A4000357
:0101A5000C4D
:0101A6000F49
:0101A7000651
:0101A8000D49
:0101A9000C49
:0101AA000A4A
:0101AB000E45
:0101AC000D45
:0101AD000948
:0101AE00014F
:0101AF00044B
:0101B0000E40
:0101B1000845
:0101B2000646
:0101B3000E3D
:0101B4000D3D
:0101B5000247
:0101B6000444
:0101B700093E
:0101B8000244
:0101B9000E37
:0101BA000440
:0101BB000A39
:0101BC000042
:0101BD000041
:0101BE00033D
:0101BF000837
:0101C0000D31
:0101C1000835
:0101C2000B31
:0101C300003B
:0101C4000D2D
:0101C5000336
:0101C600092F
:0101C7000433
:0101C8000F27
:0101C9000F26
:0101CA000430
:0101CB00062D
:0101CC00032F
:0101CD00062B
:0101CE000030
:0101CF000B24
:0101D0000826
:0101D100022B
:0101D2000A22
:0101D3000A21
:0101D4000228
:0101D5000C1D
:0101D6000523
:0101D7000621
:0101D8000A1C
:0101D900071E
:0101DA00081C
:0101DB000C17
:0101DC000C16
:0101DD00051C
:0101DE000B15
:0101DF000817
:0101E0000915
:0101E1000419
:0101E2000319
:0101E3000417
:0101E4000C0E
:0101E5000415
:0101E6000B0D
:0101E7000116
:0101E8000F07
:0101E9000114
:0101EA000410
:0101EB000D06
:0101EC00050D
:0101ED00040D
:0101EE000C04
:0101EF000D02
:0101F0000FFF
:0101F1000805
:0101F2000705
:0101F3000803
:0101F4000FFB
:0101F5000FFA
:0101F6000EFA
:0101F7000700
:0101F8000402
:0101F9000203
:0101FA000004
:0101FB000102
:0101FC0006FC
:0101FD0004FD
:0101FE000000
:0101FF0001FE
:010200000FEE
:0102010004F8
:0102020008F3
:0102030007F3
:010204000CED
:0102050001F7
:0102060003F4
:010207000FE7
:010208000FE6
:0102090000F4
:01020A000EE5
:01020B0005ED
:01020C000FE2
:01020D0006EA
:01020E0005EA
:01020F0003EB
:010210000AE3
:0102110000EC
:0102120009E2
:010213000BDF
:0102140007E2
:010215000FD9
:0102160003E4
:010217000ED8
:010218000ED7
:010219000ADA
:01021A000BD8
:01021B0004DE
:01021C0008D9
:01021D0007D9
:01021E000DD2
:01021F0004DA
:0102200003DA
:010221000FCD
:0102220007D4
:010223000AD0
:0102240001D8
:0102250003D5
:0102260001D6
:010227000BCB
:010228000CC9
:010229000BC9
:01022A000AC9
:01022B0008CA
:01022C000FC2
:01022D0003CD
:01022E0007C8
:01022F0006C8
:0102300007C6
:010231000CC0
:0102320004C7
:0102330005C5
:0102340003C6
:010235000ABE
:0102360002C5
:010237000EB8
:0102380009BC
:010239000ABA
:01023A0002C1
:01023B0009B9
:01023C0006BB
:01023D0005BB
:01023E000DB2
:01023F0000BE
:0102400007B6
:0102410006B6
:0102420009B2
:0102430006B4
:010244000BAE
:010245000FA9
:0102460003B4
:010247000EA8
:0102480003B2
:0102490009AB
:01024A0003B0
:01024B000BA7
:01024C0002AF
:01024D0003AD
:01024E000FA0
:01024F000F9F
:0102500004A9
:0102510008A4
:010252000AA1
:0102530002A8
:010254000E9B
:0102550004A4
:0102560001A6
:01025700089E
:0102580005A0
:01025900099B
:01025A000B98
:01025B000999
:01025C000A97
:01025D000898
:01025E00049B
:01025F000698
:010260000C91
:010261000993
:010262000695
:010263000496
:010264000693
:010265000692
:010266000592
:01026700088E
:01026800098C
:01026900078D
:01026A00078C
:01026B00038F
:01026C000988
:01026D000D83
:01026E00058A
:01026F000F7F
:010270000C81
:01027100018B
:010272000784
:010273000E7C
:010274000584
:010275000583
:010276000681
:01027700077F
:01027800097C
:010279000282
:01027A000A79
:01027B000D75
:01027C000D74
:01027D000B75
:01027E000D72
:01027F000E70
:010280000A73
:01028100007C
:010282000279
:010283000575
:010284000277
:010285000177
:010286000275
:010287000175
:010288000273
:01028900076D
:01028A00076C
:01028B000A68
:01028C000A67
:01028D00036D
:01028E00036C
:01028F000965
:010290000667
:010291000D5F
:010292000368
:010293000C5E
:010294000168
:010295000860
:010296000C5B
:01029700075F
:010298000362
:010299000E56
:01029A00055E
:01029B00045E
:01029C000B56
:01029D000957
:01029E000D52
:01029F000757
:0102A0000756
:0102A1000F4D
:0102A2000E4D
:0102A3000555
:0102A4000554
:0102A5000F49
:0102A6000453
:0102A7000353
:0102A8000D48
:0102A9000153
:0102AA000F44
:0102AB00054D
:0102AC000150
:0102AD00014F
:0102AE00014E
:0102AF000C42
:0102B0000E3F
:0102B100004C
:0102B2000B40
:0102B3000743
:0102B4000940
:0102B5000741
:0102B6000443
:0102B7000244
:0102B8000243
:0102B9000440
:0102BA00043F
:0102BB000D35
:0102BC000A37
:0102BD00023E
:0102BE000C33
:0102BF000A34
:0102C0000F2E
:0102C1000B31
:0102C2000932
:0102C3000535
:0102C4000831
:0102C5000731
:0102C6000631
:0102C7000531
:0102C8000332
:0102C9000B29
:0102CA00042F
:0102CB00062C
:0102CC000130
:0102CD00062A
:0102CE00012E
:0102CF000B23
:0102D0000A23
:0102D100002C
:0102D2000D1E
:0102D3000C1E
:0102D4000524
:0102D5000C1C
:0102D6000423
:0102D700071F
:0102D8000025
:0102D9000420
:0102DA00051E
:0102DB000F13
:0102DC000D14
:0102DD00021E
:0102DE00011E
:0102DF000519
:0102E0000617
:0102E1000A12
:0102E2000E0D
:0102E3000F0B
:0102E4000118
:0102E5000612
:0102E6000B0C
:0102E700090D
:0102E8000114
:0102E9000311
:0102EA00060D
:0102EB000012
:0102EC000E03
:0102ED000B05
:0102EE000B04
:0102EF000D01
:0102F0000A03
:0102F1000705
:0102F2000308
:0102F3000604
:0102F4000405
:0102F5000BFD
:0102F6000205
:0102F7000CFA
:0102F8000500
:0102F9000301
:0102FA0007FC
:0102FB000AF8
:0102FC000100
:0102FD0009F7
:0102FE000AF5
:0102FF0006F8
:0103000006F6
:0103010000FB
:0103020002F8
:0103030002F7
:0103040001F7
:010305000AED
:010306000FE7
:010307000EE7
:010308000BE9
:0103090006ED
:01030A0006EC
:01030B000BE6
:01030C0000F0
:01030D0007E8
:01030E000AE4
:01030F000EDF
:0103100000EC
:0103110004E7
:0103120008E2
:0103130003E6
:0103140003E5
:010315000FD8
:0103160007DF
:0103170002E3
:0103180001E3
:010319000BD8
:01031A0000E2
:01031B0008D9
:01031C0004DC
:01031D000CD3
:01031E000FCF
:01031F0006D7
:0103200000DC
:0103210004D7
:0103220002D8
:010323000FCA
:010324000ACE
:0103250008CF
:0103260006D0
:0103270009CC
:010328000DC7
:0103290004CF
:01032A0008CA
:01032B000BC6
:01032C0006CA
:01032D0008C7
:01032E0007C7
:01032F0001CC
:010330000BC1
:010331000FBC
:0103320000CA
:0103330007C2
:0103340003C5
:010335000ABD
:0103360009BD
:0103370003C2
:0103380002C2
:0103390006BD
:01033A0006BC
:01033B000FB2
:01033C0003BD
:01033D000DB2
:01033E000BB3
:01033F0004B9
:0103400004B8
:010341000BB0
:0103420003B7
:0103430008B1
:010344000FA9
:0103450000B7
:010346000CAA
:0103470006AF
:010348000AAA
:0103490008AB
:01034A0006AC
:01034B000EA3
:01034C0003AD
:01034D000AA5
:01034E000F9F
:01034F0002AB
:010350000BA1
:0103510005A6
:0103520000AA
:0103530003A6
:0103540008A0
:0103550000A7
:010356000F97
:010357000F96
:0103580000A4
:01035900059E
:01035A00079B
:01035B00039E
:01035C000B95
:01035D000798
:01035E00009E
:01035F000895
:01036000029A
:010361000992
:010362000892
:010363000396
:010364000F89
:010365000691
:01036600088E
:01036700078E
:010368000B89
:010369000F84
:01036A000290
:01036B00078A
:01036C000789
:01036D000B84
:01036E00048A
:01036F000588
:010370000488
:010371000C7F
:010372000C7E
:010373000584
:010374000E7A
:010375000F78
:010376000680
:010377000283
:01037800097B
:010379000083
:01037A00037F
:01037B000F72
:01037C000779
:01037D000D72
:01037E000B73
:01037F000B72
:010380000B71
:010381000C6F
:010382000278
:010383000574
:010384000E6A
:010385000B6C
:010386000B6B
:010387000273
:010388000470
:010389000A69
:01038A000F63
:01038B000071
:01038C000E62
:01038D000C63
:01038E000E60
:01038F000E5F
:010390000468
:010391000F5C
:010392000D5D
:010393000F5A
:010394000A5E
:010395000364
:010396000363
:010397000560
:010398000460
:010399000F54
:01039A000959
:01039B00025F
:01039C000060
:01039D000956
:01039E000757
:01039F000459
:0103A0000C50
:0103A1000D4E
:0103A2000852
:0103A3000D4C
:0103A4000058
:0103A5000651
:0103A6000551
:0103A700064F
:0103A8000252
:0103A900044F
:0103AA00084A
:0103AB000E43
:0103AC00034D
:0103AD000847
:0103AE00014D
:0103AF000E3F
:0103B0000646
:0103B1000E3D
:0103B2000C3E
:0103B3000841
:0103B4000C3C
:0103B5000047
:0103B6000145
:0103B7000A3B
:0103B800093B
:0103B900093A
:0103BA000C36
:0103BB000F32
:0103BC00033D
:0103BD000936
:0103BE00033B
:0103BF00033A
:0103C0000D2F
:0103C1000239
:0103C2000931
:0103C3000633
:0103C4000D2B
:0103C5000532
:0103C6000333
:0103C7000F26
:0103C8000E26
:0103C900092A
:0103CA00072B
:0103CB000E23
:0103CC000927
:0103CD000D22
:0103CE000529
:0103CF000726
:0103D0000E1E
:0103D100002B
:0103D2000822
:0103D3000D1C
:0103D4000721
:0103D5000027
:0103D6000F17
:0103D7000D18
:0103D8000222
:0103D900051E
:0103DA000D15
:0103DB00031E
:0103DC000D13
:0103DD00001F
:0103DE000519
:0103DF000F0E
:0103E0000517
:0103E1000B10
:0103E2000614
:0103E3000910
:0103E4000711
:0103E5000314
:0103E6000E08
:0103E7000A0B
:0103E800080C
:0103E900070C
:0103EA00060C
:0103EB00030E
:0103EC000B05
:0103ED000C03
:0103EE00000E
:0103EF00010C
:0103F0000B01
:0103F1000506
:0103F2000703
:0103F3000801
:0103F4000DFB
:0103F5000AFD
:0103F6000303
:0103F70009FC
:0103F8000EF6
:0103F9000003
:0103FA000FF3
:0103FB0008F9
:0103FC0005FB
:0103FD0001FE
:0103FE0006F8
:0103FF000AF3
:0104000003F8
:0104010003F7
:0104020001F8
:0104030002F6
:010404000BEC
:0104050000F6
:0104060008ED
:0104070008EC
:0104080004EF
:010409000FE3
:01040A000BE6
:01040B0004EC
:01040C0005EA
:01040D0006E8
:01040E000AE3
:01040F000EDE
:010410000BE0
:0104110003E7
:0104120001E8
:010413000BDD
:010414000FD8
:0104150000E6
:010416000BDA
:0104170004E0
:0104180004DF
:010419000AD8
:01041A000AD7
:01041B000DD3
:01041C0001DE
:01041D0007D7
:01041E0002DB
:01041F000AD2
:0104200006D5
:0104210002D8
:0104220009D0
:0104230006D2
:0104240007D0
:0104250007CF
:0104260001D4
:010427000EC6
:0104280007CC
:0104290001D1
:01042A000EC3
:01042B000DC3
:01042C000BC4
:01042D000EC0
:01042E0008C5
:01042F0008C4
:0104300004C7
:010431000EBC
:0104320001C8
:0104330000C8
:0104340008BF
:010435000CBA
:0104360009BC
:0104370000C4
:010438000CB7
:010439000CB6
:01043A0005BC
:01043B0002BE
:01043C0002BD
:01043D0009B5
:01043E000EAF
:01043F000DAF
:0104400004B7
:0104410004B6
:0104420000B9
:010443000DAB
:0104440001B6
:0104450004B2
:010446000CA9
:0104470003B1
:010448000EA5
:0104490006AC
:01044A000FA2
:01044B000DA3
:01044C0001AE
:01044D000DA1
:01044E000BA2
:01044F0005A7
:0104500002A9
:0104510002A8
:0104520003A6
:010453000E9A
:0104540004A3
:0104550005A1
:01045600079E
:010457000B99
:010458000C97
:010459000C96
:01045A000899
:01045B00019F
:01045C00059A
:01045D00039B
:01045E000796
:01045F000F8D
:010460000299
:010461000B8F
:010462000B8E
:010463000791
:010464000B8C
:010465000591
:01046600088D
:010467000A8A
:01046800058E
:01046900058D
:01046A000889
:01046B000090
:01046C000E81
:01046D000787
:01046E00008D
:01046F000E7E
:010470000784
:01047100008A
:010472000188
:010473000C7C
:010474000780
:010475000383
:010476000085
:010477000E76
:01047800097A
:010479000979
:01047A00057C
:01047B000F71
:01047C000877
:01047D000975
:01047E000974
:01047F000A72
:010480000972
:010481000C6E
:010482000673
:010483000276
:010484000572
:010485000E68
:010486000471
:01048700076D
:010488000073
:010489000F63
:01048A000D64
:01048B000A66
:01048C000C63
:01048D00016D
:01048E000D60
:01048F000B61
:010490000B60
:010491000367
:010492000F5A
:010493000D5B
:010494000463
:010495000D59
:010496000560
:010497000D57
:010498000A59
:01049900045E
:01049A00065B
:01049B000D53
:01049C000A55
:01049D000D51
:01049E000C51
:01049F000B51
:0104A000015A
:0104A1000555
:0104A2000F4A
:0104A3000850
:0104A4000750
:0104A5000650
:0104A6000C49
:0104A7000153
:0104A8000A49
:0104A9000C46
:0104AA000A47
:0104AB000749
:0104AC00004F
:0104AD00044A
:0104AE000D40
:0104AF00014B
:0104B0000645
:0104B1000C3E
:0104B2000049
:0104B3000C3C
:0104B4000542
:0104B5000A3C
:0104B600093C
:0104B700073D
:0104B800063D
:0104B900043E
:0104BA00053C
:0104BB000A36
:0104BC000D32
:0104BD00033B
:0104BE000736
:0104BF00003C
:0104C0000C2F
:0104C1000337
:0104C2000336
:0104C3000533
:0104C4000631
:0104C5000F27
:0104C6000D28
:0104C7000430
:0104C8000231
:0104C900082A
:0104CA000E23
:0104CB00052B
:0104CC00002F
:0104CD000B23
:0104CE00032A
:0104CF00002C
:0104D0000A21
:0104D1000F1B
:0104D2000425
:0104D3000F19
:0104D4000B1C
:0104D500081E
:0104D600081D
:0104D7000123
:0104D8000C17
:0104D900051D
:0104DA000B16
:0104DB000F11
:0104DC00031C
:0104DD000F0F
:0104DE000815
:0104DF000715
:0104E0000615
:0104E1000119
:0104E2000316
:0104E3000A0E
:0104E4000215
:0104E5000A0C
:0104E6000E07
:0104E7000D07
:0104E800040F
:0104E9000F03
:0104EA000A07
:0104EB000010
:0104EC000C03
:0104ED00040A
:0104EE00000D
:0104EF000606
:0104F0000704
:0104F1000505
:0104F2000EFB
:0104F3000DFB
:0104F4000DFA
:0104F5000303
:0104F6000203
:0104F70008FC
:0104F8000300
:0104F90009F9
:0104FA000001
:0104FB0007F9
:0104FC0009F6
:0104FD000EF0
:0104FE0008F5
:0104FF0004F8
:010500000AF0
:010501000DEC
:010502000BED
:010503000AED
:010504000EE8
:0105050001F4
:0105060008EC
:0105070004EF
:010508000CE6
:0105090002EF
:01050A000FE1
:01050B0009E6
:01050C000AE4
:01050D0008E5
:01050E000EDE
:01050F0002E9
:0105100001E9
:010511000EDB
:0105120007E1
:010513000FD8
:0105140000E6
:010515000CD9
:010516000CD8
:010517000FD4
:010518000BD7
:010519000CD5
:01051A0004DC
:01051B000DD2
:01051C0003DB
:01051D000BD2
:01051E000ECE
:01051F000CCF
:0105200007D3
:0105210008D1
:010522000ECA
:010523000BCC
:0105240005D1
:0105250007CE
:0105260002D2
:0105270007CC
:010528000FC3
:0105290004CD
:01052A0005CB
:01052B0003CC
:01052C0003CB
:01052D000EBF
:01052E000DBF
:01052F000FBC
:0105300003C7
:010531000DBC
:0105320001C7
:0105330005C2
:0105340003C3
:0105350005C0
:0105360008BC
:0105370008BB
:0105380006BC
:0105390001C0
:01053A000AB6
:01053B0004BB
:01053C0001BD
:01053D0005B8
:01053E0003B9
:01053F0000BB
:010540000FAB
:0105410006B3
:0105420006B2
:0105430006B1
:0105440006B0
:010545000BAA
:0105460005AF
:0105470007AC
:010548000FA3
:010549000CA5
:01054A000BA5
:01054B000AA5
:01054C0000AE
:01054D0009A4
:01054E0008A4
:01054F0004A7
:010550000F9B
:0105510009A0
:010552000E9A
:010553000B9C
:01055400089E
:010555000A9B
:0105560003A1
:0105570002A1
:01055800059D
:01055900029F
:01055A0000A0
:01055B00009F
:01055C000E90
:01055D000697
:01055E000B91
:01055F00009B
:010560000298
:010561000990
:01056200098F
:010563000196
:010564000B8B
:010565000D88
:01056600078D
:01056700048F
:010568000989
:01056900068B
:01056A000789
:01056B000F80
:01056C000E80
:01056D000B82
:01056E000B81
:01056F000982
:010570000B7F
:010571000188
:010572000484
:010573000582
:010574000185
:010575000B7A
:010576000183
:01057700087B
:010578000F73
:010579000E73
:01057A00037D
:01057B000778
:01057C000975
:01057D00027B
:01057E00017B
:01057F000F6C
:010580000A70
:010581000A6F
:010582000D6B
:010583000A6D
:010584000D69
:010585000A6B
:010586000D67
:01058700086B
:01058800036F
:010589000F62
:01058A00016F
:01058B000669
:01058C00016D
:01058D000B62
:01058E000369
:01058F000E5D
:010590000862
:010591000168
:010592000068
:010593000067
:010594000561
:010595000362
:01059600085C
:01059700045F
:010598000F53
:01059900025F
:01059A000F51
:01059B000956
:01059C000955
:01059D000F4E
:01059E000B51
:01059F000457
:0105A0000555
:0105A1000D4C
:0105A2000D4B
:0105A3000C4B
:0105A4000551
:0105A500064F
:0105A6000F45
:0105A700064D
:0105A800034F
:0105A900024F
:0105AA000050
:0105AB00014E
:0105AC000846
:0105AD000D40
:0105AE000A42
:0105AF000C3F
:0105B0000248
:0105B1000049
:0105B2000741
:0105B3000047
:0105B4000343
:0105B5000B3A
:0105B6000440
:0105B7000E35
:0105B800073B
:0105B900043D
:0105BA00063A
:0105BB00043B
:0105BC00043A
:0105BD000D30
:0105BE000A32
:0105BF000338
:0105C0000535
:0105C1000B2E
:0105C2000335
:0105C3000A2D
:0105C4000E28
:0105C5000035
:0105C6000D27
:0105C700062D
:0105C8000B27
:0105C9000D24
:0105CA000B25
:0105CB000728
:0105CC00002E
:0105CD000726
:0105CE000C20
:0105CF000F1C
:0105D0000E1C
:0105D1000920
:0105D2000E1A
:0105D3000A1D
:0105D400091D
:0105D500091C
:0105D6000321
:0105D7000122
:0105D8000D15
:0105D9000E13
:0105DA000917
:0105DB00051A
:0105DC00041A
:0105DD000815
:0105DE00021A
:0105DF00001B
:0105E000001A
:0105E1000B0E
:0105E2000B0D
:0105E3000710
:0105E4000313
:0105E5000312
:0105E600060E
:0105E7000B08
:0105E8000D05
:0105E900060B
:0105EA000A06
:0105EB000F00
:0105EC000509
:0105ED000A03
:0105EE000A02
:0105EF000CFF
:0105F0000604
:0105F1000900
:0105F2000404
:0105F3000304
:0105F4000EF8
:0105F50008FD
:0105F6000301
:0105F7000CF7
:0105F8000EF4
:0105F9000CF5
:0105FA000AF6
:0105FB0006F9
:0105FC0009F5
:0105FD000AF3
:0105FE0009F3
:0105FF0005F6
:0106000008F1
:0106010004F4
:010602000CEB
:010603000AEC
:0106040007EE
:0106050004F0
:010606000FE4
:0106070002F0
:010608000FE2
:0106090007E9
:01060A0003EC
:01060B0009E5
:01060C0007E6
:01060D0008E4
:01060E0002E9
:01060F0004E6
:0106100008E1
:0106110003E5
:0106120005E2
:0106130005E1
:0106140009DC
:010615000DD7
:010616000AD9
:0106170001E1
:010618000FD2
:0106190009D7
:01061A000ED1
:01061B0009D5
:01061C000CD1
:01061D0003D9
:01061E0006D5
:01061F0004D6
:0106200005D4
:010621000CCC
:0106220006D1
:0106230007CF
:010624000DC8
:010625000FC5
:010626000EC5
:0106270003CF
:010628000FC2
:010629000FC1
:01062A0005CA
:01062B000DC1
:01062C000EBF
:01062D0003C9
:01062E0005C6
:01062F0000CA
:010630000BBE
:0106310007C1
:0106320009BE
:0106330003C3
:010634000BBA
:0106350001C3
:010636000DB6
:010637000FB3
:010638000EB3
:010639000AB6
:01063A0009B6
:01063B000BB3
:01063C0005B8
:01063D0006B6
:01063E0003B8
:01063F000AB0
:010640000DAC
:010641000AAE
:0106420002B5
:010643000FA7
:0106440004B1
:0106450008AC
:010646000AA9
:0106470001B1
:0106480009A8
:0106490007A9
:01064A0005AA
:01064B0005A9
:01064C000F9E
:01064D0001AB
:01064E0002A9
:01064F000B9F
:0106500001A8
:010651000A9E
:0106520007A0
:010653000C9A
:0106540005A0
:0106550002A2
:010656000D96
:0106570001A1
:01065800039E
:010659000C94
:01065A000C93
:01065B000797
:01065C000994
:01065D000399
:01065E000992
:01065F000991
:010660000495
:010661000098
:010662000A8D
:010663000393
:010664000293
:010665000490
:010666000A89
:010667000B87
:010668000190
:010669000F81
:01066A000986
:01066B000A84
:01066C00028B
:01066D000587
:01066E000C7F
:01066F000684
:010670000485
:010671000E7A
:010672000087
:010673000A7C
:010674000085
:010675000C78
:010676000B78
:010677000082
:010678000081
:01067900067A
:01067A00007F
:01067B00007E
:01067C000E6F
:01067D000577
:01067E000279
:01067F000872
:010680000E6B
:010681000E6A
:010682000770
:01068300096D
:010684000A6B
:010685000371
:010686000271
:01068700056D
:010688000071
:010689000C64
:01068A00016E
:01068B000D61
:01068C00026B
:01068D000468
:01068E000A61
:01068F000F5B
:010690000168
:010691000F59
:010692000E59
:010693000561
:010694000D58
:010695000262
:010696000360
:01069700035F
:01069800065B
:01069900035D
:01069A000659
:01069B000955
:01069C000C51
:01069D00015B
:01069E000C4F
:01069F000357
:0106A0000F4A
:0106A1000B4D
:0106A2000552
:0106A3000B4B
:0106A4000154
:0106A500094B
:0106A600094A
:0106A7000A48
:0106A800064B
:0106A9000947
:0106AA000F40
:0106AB000B43
:0106AC000B42
:0106AD000547
:0106AE000E3D
:0106AF000B3F
:0106B0000544
:0106B1000840
:0106B2000D3A
:0106B3000244
:0106B400063F
:0106B500093B
:0106B6000D36
:0106B700033F
:0106B8000140
:0106B9000B35
:0106BA000936
:0106BB00023C
:0106BC000F2E
:0106BD000933
:0106BE000E2D
:0106BF000733
:0106C0000336
:0106C1000F29
:0106C2000B2C
:0106C300072F
:0106C4000233
:0106C5000F25
:0106C6000F24
:0106C700062C
:0106C800072A
:0106C9000729
:0106CA000926
:0106CB00032B
:0106CC000C21
:0106CD000824
:0106CE00002B
:0106CF000921
:0106D0000C1D
:0106D1000028
:0106D2000D1A
:0106D3000B1B
:0106D4000223
:0106D5000C18
:0106D6000023
:0106D700081A
:0106D8000C15
:0106D900051B
:0106DA000C13
:0106DB000915
:0106DC000518
:0106DD000814
:0106DE000B10
:0106DF000515
:0106E0000E0B
:0106E1000D0B
:0106E2000A0D
:0106E3000B0B
:0106E400060F
:0106E5000212
:0106E600040F
:0106E7000F03
:0106E8000908
:0106E900060A
:0106EA000807
:0106EB00020C
:0106EC000508
:0106ED00020A
:0106EE000902
:0106EF000BFF
:0106F0000405
:0106F1000305
:0106F2000502
:0106F3000501
:0106F4000EF7
:0106F5000AFA
:0106F6000201
:0106F7000CF6
:0106F8000001
:0106F90002FE
:0106FA0008F7
:0106FB0003FB
:0106FC0005F8
:0106FD0000FC
:0106FE0001FA
:0106FF0006F4
:010700000BED
:010701000CEB
:0107020002F4
:0107030004F1
:0107040009EB
:0107050005EE
:010706000BE7
:010707000EE3
:010708000CE4
:0107090005EA
:01070A0003EB
:01070B0003EA
:01070C000CE0
:01070D0005E6
:01070E0005E5
:01070F000EDB
:0107100000E8
:010711000DDA
:0107120000E6
:0107130006DF
:0107140007DD
:010715000AD9
:0107160006DC
:010717000BD6
:010718000CD4
:0107190007D8
:01071A0007D7
:01071B0008D5
:01071C0000DC
:01071D0004D7
:01071E0008D2
:01071F000DCC
:010720000FC9
:010721000CCB
:010722000BCB
:0107230004D1
:010724000BC9
:0107250000D3
:0107260003CF
:0107270001D0
:0107280001CF
:010729000CC3
:01072A0005C9
:01072B000EBF
:01072C0004C8
:01072D0004C7
:01072E0006C4
:01072F0001C8
:0107300007C1
:0107310008BF
:0107320000C6
:010733000CB9
:0107340000C4
:0107350001C2
:0107360001C1
:010737000BB6
:010738000CB4
:010739000BB4
:01073A000BB3
:01073B000DB0
:01073C0000BC
:01073D000DAE
:01073E000CAE
:01073F000FAA
:0107400008B0
:0107410004B3
:010742000BAB
:0107430003B2
:0107440000B4
:0107450000B3
:010746000EA4
:0107470002AF
:0107480000B0
:010749000AA5
:01074A000BA3
:01074B000E9F
:01074C0007A5
:01074D0008A3
:01074E0000AA
:01074F0008A1
:0107500007A1
:010751000F98
:010752000F97
:0107530002A3
:010754000E96
:01075500069D
:010756000A98
:01075700039E
:010758000997
:010759000F90
:01075A00029C
:01075B000E8F
:01075C000993
:01075D000596
:01075E00009A
:01075F000495
:010760000692
:01076100088F
:010762000690
:01076300098C
:01076400068E
:010765000C87
:01076600078B
:010767000D84
:01076800028E
:01076900048B
:01076A000B83
:01076B000E7F
:01076C000C80
:01076D000289
:01076E000783
:01076F000E7B
:010770000583
:010771000483
:010772000284
:010773000D78
:010774000183
:01077500057E
:010776000979
:010777000B76
:01077800037D
:01077900047B
:01077A000B73
:01077B00027B
:01077C000E6E
:01077D000D6E
:01077E000B6F
:01077F000B6E
:010780000F69
:010781000275
:010782000A6C
:01078300076E
:01078400066E
:010785000D66
:010786000E64
:01078700056C
:010788000868
:010789000B64
:01078A000965
:01078B000A63
:01078C000F5D
:01078D000665
:01078E000466
:01078F000C5D
:010790000B5D
:010791000760
:010792000264
:01079300075E
:010794000E56
:01079500075C
:010796000D55
:01079700075A
:01079800045C
:010799000F50
:01079A000D51
:01079B000E4F
:01079C000B51
:01079D000853
:01079E000357
:01079F000455
:0107A0000F49
:0107A1000057
:0107A2000E48
:0107A3000A4B
:0107A4000054
:0107A500054E
:0107A6000949
:0107A700054C
:0107A8000D43
:0107A900004F
:0107AA00034B
:0107AB000A43
:0107AC00004C
:0107AD000A41
:0107AE000941
:0107AF000544
:0107B0000246
:0107B1000E39
:0107B2000F37
:0107B300063F
:0107B4000E36
:0107B5000C37
:0107B6000D35
:0107B7000A37
:0107B800043C
:0107B9000738
:0107BA000836
:0107BB000637
:0107BC000834
:0107BD000239
:0107BE000E2C
:0107BF000138
:0107C0000C2C
:0107C1000532
:0107C2000E28
:0107C3000431
:0107C4000A2A
:0107C5000E25
:0107C6000929
:0107C7000C25
:0107C800012F
:0107C9000B24
:0107CA000826
:0107CB00002D
:0107CC00002C
:0107CD000328
:0107CE000B1F
:0107CF000425
:0107D0000325
:0107D1000621
:0107D2000422
:0107D3000E17
:0107D4000D17
:0107D500051E
:0107D6000121
:0107D700071A
:0107D800051B
:0107D900021D
:0107DA000F0F
:0107DB000419
:0107DC000418
:0107DD000B10
:0107DE000D0D
:0107DF000712
:0107E0000018
:0107E1000611
:0107E2000214
:0107E3000510
:0107E400080C
:0107E5000F04
:0107E600040E
:0107E7000C05
:0107E800050B
:0107E900040B
:0107EA000707
:0107EB000706
:0107EC000309
:0107ED000407
:0107EE000BFF
:0107EF000306
:0107F0000FF9
:0107F1000AFD
:0107F20008FE
:0107F30006FF
:0107F40009FB
:0107F5000FF4
:0107F6000EF4
:0107F70005FC
:0107F8000CF4
:0107F90002FD
:0107FA0000FE
:0107FB0007F6
:0107FC0000FC
:0107FD000CEF
:0107FE0006F4
:0107FF0000F9
:00000001ff
