:020000040000FA
:010000000EF1
:0100010006F8
:0100020001FC
:010003000FED
:0100040001FA
:010005000BEF
:0100060003F6
:0100070002F6
:0100080001F6
:0100090008EE
:01000A000DE8
:01000B000BE9
:01000C0004EF
:01000D000CE6
:01000E000AE7
:01000F000DE3
:010010000DE2
:0100110004EA
:010012000BE2
:010013000CE0
:010014000AE1
:0100150000EA
:0100160003E6
:0100170007E1
:0100180009DE
:0100190006E0
:01001A0000E5
:01001B0009DB
:01001C0002E1
:01001D000BD7
:01001E0001E0
:01001F000AD6
:010020000AD5
:0100210000DE
:010022000FCE
:010023000DCF
:010024000AD1
:0100250007D3
:0100260005D4
:010027000DCB
:0100280005D2
:010029000EC8
:01002A0004D1
:01002B000DC7
:01002C0003D0
:01002D0001D1
:01002E000AC7
:01002F0005CB
:010030000DC2
:0100310009C5
:010032000CC1
:0100330007C5
:0100340001CA
:010035000EBC
:0100360009C0
:010037000DBB
:0100380007C0
:0100390002C4
:01003A0004C1
:01003B000ABA
:01003C0004BF
:01003D000CB6
:01003E0008B9
:01003F0007B9
:0100400002BD
:0100410008B6
:010042000FAE
:010043000EAE
:010044000AB1
:010045000FAB
:0100460007B2
:0100470004B4
:010048000FA8
:0100490002B4
:01004A0009AC
:01004B0004B0
:01004C000BA8
:01004D0001B1
:01004E000BA6
:01004F0008A8
:010050000DA2
:0100510006A8
:0100520005A8
:0100530000AC
:0100540005A6
:0100550007A3
:0100560006A3
:0100570004A4
:0100580006A1
:0100590005A1
:01005A000A9B
:01005B0002A2
:01005C00069D
:01005D000D95
:01005E00069B
:01005F000C94
:01006000009F
:01006100049A
:010062000598
:010063000696
:010064000E8D
:010065000F8B
:010066000297
:010067000494
:010068000A8D
:01006900078F
:01006A000E87
:01006B000E86
:01006C00068D
:01006D000191
:01006E00028F
:01006F000B85
:010070000986
:010071000A84
:010072000E7F
:010073000B81
:010074000E7D
:010075000D7D
:010076000485
:010077000187
:01007800097E
:010079000383
:01007A000481
:01007B000E76
:01007C000D76
:01007D00087A
:01007E000180
:01007F00067A
:010080000A75
:010081000E70
:010082000A73
:01008300027A
:010084000D6E
:010085000575
:010086000673
:010087000771
:010088000572
:010089000274
:01008A00086D
:01008B000173
:01008C00076C
:01008D000E64
:01008E00046D
:01008F000D63
:010090000966
:01009100016D
:010092000964
:01009300016B
:01009400006B
:010095000B5F
:010096000366
:010097000662
:010098000D5A
:01009900075F
:01009A000B5A
:01009B000460
:01009C000D56
:01009D00085A
:01009E00045D
:01009F000759
:0100A000035C
:0100A1000C52
:0100A200005D
:0100A300015B
:0100A4000655
:0100A5000159
:0100A6000C4D
:0100A7000058
:0100A8000D4A
:0100A9000155
:0100AA000F46
:0100AB000A4A
:0100AC000E45
:0100AD000949
:0100AE000E43
:0100AF000848
:0100B000004F
:0100B100004E
:0100B2000449
:0100B3000547
:0100B4000645
:0100B5000C3E
:0100B6000C3D
:0100B700093F
:0100B8000641
:0100B900093D
:0100BA000441
:0100BB00093B
:0100BC000C37
:0100BD00043E
:0100BE000041
:0100BF000A36
:0100C000023D
:0100C1000F2F
:0100C2000637
:0100C3000D2F
:0100C4000B30
:0100C5000E2C
:0100C6000C2D
:0100C7000F29
:0100C8000037
:0100C900082E
:0100CA00082D
:0100CB000331
:0100CC000C27
:0100CD000D25
:0100CE000F22
:0100CF000A26
:0100D000032C
:0100D100022C
:0100D2000E1F
:0100D3000E1E
:0100D4000823
:0100D500002A
:0100D6000623
:0100D7000127
:0100D8000720
:0100D900071F
:0100DA00061F
:0100DB000222
:0100DC000122
:0100DD000A18
:0100DE000D14
:0100DF000A16
:0100E0000C13
:0100E1000C12
:0100E2000E0F
:0100E3000616
:0100E4000F0C
:0100E5000D0D
:0100E6000316
:0100E7000B0D
:0100E8000E09
:0100E900080E
:0100EA000114
:0100EB00070D
:0100EC000211
:0100ED000B07
:0100EE000B06
:0100EF00010F
:0100F000040B
:0100F1000A04
:0100F200030A
:0100F3000309
:0100F4000803
:0100F5000505
:0100F6000207
:0100F7000503
:0100F8000BFC
:0100F9000105
:0100FA000EF7
:0100FB000103
:0100FC000CF7
:0100FD000FF3
:0100FE0002FF
:0100FF0009F7
:010100000CF2
:010101000CF1
:010102000AF2
:0101030003F8
:0101040004F6
:0101050004F5
:0101060008F0
:0101070003F4
:010108000BEB
:010109000EE7
:01010A000AEA
:01010B0005EE
:01010C0000F2
:01010D0009E8
:01010E0005EB
:01010F000AE5
:0101100005E9
:010111000AE3
:0101120004E8
:0101130003E8
:0101140002E8
:0101150007E2
:010116000CDC
:010117000BDC
:010118000FD7
:0101190007DE
:01011A000BD9
:01011B0009DA
:01011C0002E0
:01011D000ED3
:01011E0006DA
:01011F0006D9
:0101200003DB
:0101210006D7
:0101220009D3
:0101230000DB
:0101240008D2
:010125000ECB
:010126000ACE
:0101270008CF
:010128000FC7
:0101290003D2
:01012A0006CE
:01012B0005CE
:01012C0006CC
:01012D0001D0
:01012E000AC6
:01012F0006C9
:0101300005C9
:0101310008C5
:010132000BC1
:0101330003C8
:0101340004C6
:010135000CBD
:010136000CBC
:010137000EB9
:0101380007BF
:010139000EB7
:01013A000BB9
:01013B000FB4
:01013C0004BE
:01013D000DB4
:01013E0000C0
:01013F0006B9
:010140000EB0
:0101410008B5
:0101420007B5
:0101430005B6
:010144000DAD
:010145000DAC
:0101460007B1
:0101470003B4
:0101480004B2
:010149000CA9
:01014A000AAA
:01014B0001B2
:01014C000CA6
:01014D000BA6
:01014E000BA5
:01014F000BA4
:010150000AA4
:010151000E9F
:010152000AA2
:010153000D9E
:010154000AA0
:010155000F9A
:0101560000A8
:0101570000A7
:01015800089E
:0101590002A3
:01015A000F95
:01015B000A99
:01015C00069C
:01015D000F92
:01015E00029E
:01015F00009F
:01016000029C
:010161000E8F
:010162000993
:010163000596
:010164000991
:010165000198
:01016600098F
:01016700098E
:010168000C8A
:010169000392
:01016A00088C
:01016B000F84
:01016C000989
:01016D000988
:01016E00048C
:01016F000986
:010170000688
:010171000489
:010172000A82
:010173000883
:010174000F7B
:010175000E7B
:010176000F79
:010177000582
:010178000F77
:010179000184
:01017A00067E
:01017B000F74
:01017C00057D
:01017D000081
:01017E000080
:01017F00037C
:010180000777
:010181000875
:010182000478
:010183000675
:010184000575
:010185000A6F
:010186000771
:010187000572
:01018800096D
:01018900086D
:01018A000C68
:01018B000E65
:01018C000A68
:01018D000968
:01018E000A66
:01018F00026D
:010190000866
:01019100016C
:01019200026A
:010193000368
:010194000F5B
:010195000564
:010196000563
:010197000067
:01019800075F
:010199000B5A
:01019A000064
:01019B00085B
:01019C00045E
:01019D00065B
:01019E000E52
:01019F000F50
:0101A0000559
:0101A1000C51
:0101A2000854
:0101A3000556
:0101A4000258
:0101A5000653
:0101A6000850
:0101A7000750
:0101A8000155
:0101A900074E
:0101AA000450
:0101AB000F44
:0101AC00034F
:0101AD000F42
:0101AE000B45
:0101AF00044B
:0101B0000F3F
:0101B1000548
:0101B200024A
:0101B3000348
:0101B4000C3E
:0101B5000F3A
:0101B600093F
:0101B7000B3C
:0101B800083E
:0101B9000045
:0101BA00053F
:0101BB000241
:0101BC000141
:0101BD00053C
:0101BE000C34
:0101BF00043B
:0101C000003E
:0101C1000439
:0101C2000C30
:0101C3000F2C
:0101C4000B2F
:0101C5000336
:0101C6000236
:0101C7000B2C
:0101C8000B2B
:0101C9000431
:0101CA000C28
:0101CB000F24
:0101CC000131
:0101CD000130
:0101CE00062A
:0101CF00032C
:0101D000042A
:0101D1000A23
:0101D2000F1D
:0101D3000625
:0101D400002A
:0101D5000623
:0101D6000127
:0101D7000720
:0101D800091D
:0101D900071E
:0101DA000024
:0101DB00091A
:0101DC00051D
:0101DD000918
:0101DE00031D
:0101DF00031C
:0101E0000B13
:0101E1000914
:0101E2000616
:0101E3000219
:0101E4000218
:0101E5000613
:0101E6000414
:0101E7000B0C
:0101E8000412
:0101E9000312
:0101EA00080C
:0101EB000C07
:0101EC00050D
:0101ED000908
:0101EE000C04
:0101EF000E01
:0101F0000FFF
:0101F1000508
:0101F200000C
:0101F300000B
:0101F4000307
:0101F5000504
:0101F6000800
:0101F7000FF8
:0101F8000105
:0101F9000500
:0101FA000CF8
:0101FB0009FA
:0101FC0003FF
:0101FD000CF5
:0101FE000AF6
:0101FF0003FC
:0102000009F4
:0102010007F5
:010202000EED
:010203000CEE
:0102040001F8
:0102050007F1
:0102060001F6
:0102070001F5
:0102080008ED
:0102090008EC
:01020A0006ED
:01020B0000F2
:01020C0003EE
:01020D0002EE
:01020E0000EF
:01020F000BE3
:0102100005E8
:0102110001EB
:0102120005E6
:010213000CDE
:010214000EDB
:0102150008E0
:0102160005E2
:010217000ADC
:0102180005E0
:0102190008DC
:01021A0004DF
:01021B000AD8
:01021C000CD5
:01021D0004DC
:01021E000ED1
:01021F000DD1
:010220000ECF
:0102210003D9
:0102220007D4
:010223000ECC
:0102240000D9
:0102250007D1
:0102260000D7
:010227000CCA
:010228000CC9
:010229000CC8
:01022A000DC6
:01022B000CC6
:01022C000EC3
:01022D0006CA
:01022E0003CC
:01022F0001CD
:0102300009C4
:010231000CC0
:010232000BC0
:0102330003C7
:0102340009C0
:010235000DBB
:010236000DBA
:010237000BBB
:0102380008BD
:0102390007BD
:01023A0005BE
:01023B000EB4
:01023C000BB6
:01023D000BB5
:01023E0001BE
:01023F0008B6
:0102400003BA
:010241000FAD
:010242000EAD
:0102430007B3
:010244000DAC
:010245000DAB
:0102460004B3
:010247000EA8
:0102480000B5
:010249000EA6
:01024A0006AD
:01024B000AA8
:01024C000FA2
:01024D0004AC
:01024E0004AB
:01024F000F9F
:0102500005A8
:010251000AA2
:0102520005A6
:0102530006A4
:0102540009A0
:0102550004A4
:0102560002A5
:0102570005A1
:010258000A9B
:01025900089C
:01025A0000A3
:01025B00089A
:01025C00079A
:01025D00019F
:01025E00029D
:01025F000797
:010260000E8F
:010261000F8D
:010262000D8E
:010263000D8D
:010264000891
:010265000E8A
:010266000493
:010267000591
:01026800068F
:01026900098B
:01026A00048F
:01026B00058D
:01026C000988
:01026D00028E
:01026E00018E
:01026F000B83
:01027000028B
:010271000C80
:010272000F7C
:010273000B7F
:010274000683
:010275000A7E
:010276000780
:010277000D79
:01027800067F
:010279000A7A
:01027A00057E
:01027B00077B
:01027C00047D
:01027D00047C
:01027E000A75
:01027F000A74
:01028000017C
:010281000B71
:010282000F6C
:010283000278
:010284000178
:010285000C6C
:010286000176
:010287000571
:010288000570
:010289000272
:01028A000B68
:01028B00046E
:01028C000968
:01028D000B65
:01028E000D62
:01028F000767
:01029000006D
:010291000A62
:010292000B60
:010293000F5B
:010294000F5A
:010295000860
:010296000364
:010297000264
:010298000E57
:010299000262
:01029A000E55
:01029B00055D
:01029C000F52
:01029D000D53
:01029E000D52
:01029F00035B
:0102A0000558
:0102A100025A
:0102A2000655
:0102A3000C4E
:0102A4000851
:0102A5000058
:0102A6000E49
:0102A7000155
:0102A8000253
:0102A900094B
:0102AA000A49
:0102AB00034F
:0102AC00034E
:0102AD000C44
:0102AE000F40
:0102AF000E40
:0102B0000845
:0102B1000B41
:0102B2000249
:0102B3000B3F
:0102B4000049
:0102B5000E3A
:0102B6000C3B
:0102B7000F37
:0102B8000A3B
:0102B9000143
:0102BA00073C
:0102BB000D35
:0102BC000D34
:0102BD000739
:0102BE000F30
:0102BF000539
:0102C0000835
:0102C1000D2F
:0102C200003B
:0102C3000A30
:0102C4000E2B
:0102C5000830
:0102C6000532
:0102C7000B2B
:0102C800092C
:0102C900062E
:0102CA00082B
:0102CB000032
:0102CC000031
:0102CD00022E
:0102CE00032C
:0102CF000E20
:0102D0000429
:0102D1000C20
:0102D2000328
:0102D3000723
:0102D4000D1C
:0102D5000226
:0102D6000D1A
:0102D7000422
:0102D800071E
:0102D900061E
:0102DA00051E
:0102DB000919
:0102DC000918
:0102DD000E12
:0102DE000C13
:0102DF00021C
:0102E0000815
:0102E1000319
:0102E2000B10
:0102E3000713
:0102E4000811
:0102E5000711
:0102E6000215
:0102E7000B0B
:0102E800090C
:0102E9000212
:0102EA000013
:0102EB00050D
:0102EC000011
:0102ED00010F
:0102EE00000F
:0102EF00030B
:0102F0000C01
:0102F1000DFF
:0102F2000506
:0102F300000A
:0102F4000108
:0102F5000701
:0102F6000502
:0102F7000EF8
:0102F8000104
:0102F9000004
:0102FA0008FB
:0102FB000002
:0102FC000DF4
:0102FD000EF2
:0102FE0000FF
:0102FF000CF2
:010300000EEE
:0103010005F6
:0103020007F3
:010303000BEE
:0103040003F5
:0103050003F4
:0103060006F0
:0103070001F4
:0103080004F0
:010309000CE7
:01030A000BE7
:01030B0005EC
:01030C0000F0
:01030D0009E6
:01030E0001ED
:01030F0000ED
:0103100007E5
:010311000FDC
:0103120000EA
:0103130009E0
:0103140003E5
:0103150003E4
:010316000DD9
:010317000BDA
:0103180005DF
:0103190009DA
:01031A0001E1
:01031B0009D8
:01031C0006DA
:01031D0005DA
:01031E0002DC
:01031F0001DC
:010320000BD1
:0103210005D6
:0103220005D5
:0103230007D2
:0103240009CF
:0103250003D4
:0103260001D5
:010327000CC9
:0103280002D2
:0103290007CC
:01032A000CC6
:01032B0005CC
:01032C000BC5
:01032D0001CE
:01032E0008C6
:01032F000AC3
:0103300006C6
:0103310009C2
:0103320004C6
:0103330006C3
:010334000FB9
:010335000BBC
:0103360005C1
:0103370008BD
:0103380008BC
:010339000CB7
:01033A0000C2
:01033B0009B8
:01033C000BB5
:01033D0000BF
:01033E000DB1
:01033F0000BD
:010340000AB2
:0103410003B8
:010342000DAD
:0103430006B3
:010344000AAE
:0103450009AE
:010346000AAC
:010347000BAA
:0103480006AE
:0103490006AD
:01034A000FA3
:01034B000FA2
:01034C000DA3
:01034D0008A7
:01034E0006A8
:01034F0003AA
:010350000E9E
:0103510008A3
:0103520004A6
:010353000E9B
:0103540001A7
:010355000D9A
:010356000B9B
:0103570001A4
:0103580002A2
:01035900089B
:01035A00069C
:01035B00039E
:01035C000A96
:01035D000798
:01035E000D91
:01035F000A93
:010360000A92
:010361000A91
:010362000991
:010363000990
:010364000791
:010365000D8A
:010366000492
:010367000B8A
:01036800078D
:010369000093
:01036A000D85
:01036B000D84
:01036C000B85
:01036D00018E
:01036E000886
:01036F00038A
:010370000C80
:010371000388
:010372000A80
:010373000683
:010374000A7E
:01037500087F
:010376000482
:01037700067F
:01037800077D
:010379000D76
:01037A00047E
:01037B000B76
:01037C00057B
:01037D00057A
:01037E00047A
:01037F00037A
:01038000007C
:010381000477
:010382000F6B
:010383000673
:010384000A6E
:010385000176
:010386000670
:010387000174
:010388000272
:010389000C67
:01038A00056D
:01038B000B66
:01038C00046C
:01038D000867
:01038E000668
:01038F000E5F
:010390000963
:010391000665
:010392000763
:010393000A5F
:010394000F59
:010395000661
:010396000C5A
:010397000F56
:01039800085C
:010399000360
:01039A000D55
:01039B000B56
:01039C000A56
:01039D00025D
:01039E000B53
:01039F00035A
:0103A0000F4D
:0103A1000853
:0103A2000F4B
:0103A3000356
:0103A4000751
:0103A500084F
:0103A6000254
:0103A700084D
:0103A8000252
:0103A9000053
:0103AA000250
:0103AB000948
:0103AC000947
:0103AD00044B
:0103AE00004E
:0103AF000D40
:0103B000024A
:0103B100004B
:0103B2000446
:0103B3000C3D
:0103B4000741
:0103B5000C3B
:0103B600083E
:0103B7000342
:0103B8000341
:0103B900053E
:0103BA00083A
:0103BB000938
:0103BC000D33
:0103BD00023D
:0103BE000E30
:0103BF00013C
:0103C0000834
:0103C1000932
:0103C2000A30
:0103C3000D2C
:0103C4000434
:0103C5000B2C
:0103C6000135
:0103C7000B2A
:0103C8000A2A
:0103C900082B
:0103CA00042E
:0103CB000A27
:0103CC00062A
:0103CD000E21
:0103CE00032B
:0103CF000B22
:0103D0000C20
:0103D1000724
:0103D2000A20
:0103D3000128
:0103D4000424
:0103D5000F18
:0103D6000A1C
:0103D7000F16
:0103D8000A1A
:0103D900071C
:0103DA000022
:0103DB000120
:0103DC00011F
:0103DD000718
:0103DE000717
:0103DF000914
:0103E0000715
:0103E1000813
:0103E2000A10
:0103E3000415
:0103E4000414
:0103E5000710
:0103E6000313
:0103E7000E07
:0103E800060E
:0103E9000C07
:0103EA000C06
:0103EB000110
:0103EC000D03
:0103ED000B04
:0103EE000C02
:0103EF000A03
:0103F0000EFE
:0103F1000704
:0103F2000A00
:0103F3000BFE
:0103F4000AFE
:0103F5000007
:0103F6000AFC
:0103F7000104
:0103F80008FC
:0103F9000DF6
:0103FA0005FD
:0103FB0005FC
:0103FC0007F9
:0103FD0005FA
:0103FE0008F6
:0103FF000CF1
:010400000AF1
:0104010004F6
:010402000FEA
:0104030004F4
:0104040000F7
:0104050007EF
:0104060001F4
:0104070000F4
:0104080007EC
:010409000FE3
:01040A000DE4
:01040B0008E8
:01040C000CE3
:01040D0001ED
:01040E0006E7
:01040F000FDD
:0104100009E2
:0104110004E6
:0104120009E0
:0104130003E5
:0104140007E0
:010415000ED8
:0104160001E4
:0104170000E4
:010418000DD6
:010419000FD3
:01041A000DD4
:01041B000AD6
:01041C0007D8
:01041D0007D7
:01041E000FCE
:01041F0001DB
:0104200002D9
:010421000BCF
:0104220005D4
:0104230004D4
:0104240008CF
:0104250001D5
:010426000FC6
:010427000DC7
:0104280009CA
:010429000BC7
:01042A0007CA
:01042B000EC2
:01042C0008C7
:01042D0008C6
:01042E0003CA
:01042F0000CC
:010430000EBD
:010431000DBD
:0104320005C4
:0104330009BF
:0104340001C6
:010435000BBB
:0104360009BC
:0104370000C4
:010438000EB5
:010439000CB6
:01043A000BB6
:01043B000BB5
:01043C0004BB
:01043D000AB4
:01043E0007B6
:01043F000DAF
:0104400007B4
:0104410004B6
:010442000EAB
:0104430004B4
:0104440005B2
:0104450005B1
:010446000BAA
:0104470006AE
:0104480005AE
:0104490007AB
:01044A0002AF
:01044B000BA5
:01044C000DA2
:01044D000CA2
:01044E0000AD
:01044F000E9E
:0104500005A6
:010451000C9E
:0104520003A6
:010453000C9C
:010454000E99
:010455000D99
:0104560000A5
:0104570001A3
:01045800089B
:010459000A98
:01045A00079A
:01045B00049C
:01045C000798
:01045D000599
:01045E000D90
:01045F000696
:010460000299
:010461000199
:010462000E8B
:010463000395
:010464000295
:010465000492
:010466000E87
:010467000D87
:01046800098A
:010469000D85
:01046A000E83
:01046B00038D
:01046C000B84
:01046D000589
:01046E000F7E
:01046F000D7F
:010470000784
:010471000C7E
:010472000485
:010473000583
:010474000D7A
:010475000F77
:010476000C79
:010477000B79
:010478000380
:010479000F73
:01047A00077A
:01047B000F71
:01047C00017E
:01047D000A74
:01047E000974
:01047F000B71
:01048000017A
:010481000476
:010482000574
:010483000C6C
:010484000374
:010485000E68
:010486000570
:010487000B69
:01048800076C
:01048900046E
:01048A000F62
:01048B000C64
:01048C00046B
:01048D000965
:01048E000A63
:01048F000F5D
:010490000962
:010491000E5C
:010492000663
:010493000266
:010494000B5C
:010495000660
:010496000461
:01049700055F
:010498000360
:010499000D55
:01049A000958
:01049B00035D
:01049C00015E
:01049D000658
:01049E000954
:01049F000E4E
:0104A0000B50
:0104A1000357
:0104A2000C4D
:0104A3000454
:0104A4000552
:0104A5000C4A
:0104A600094C
:0104A7000153
:0104A8000152
:0104A9000E44
:0104AA00034E
:0104AB000E42
:0104AC00044B
:0104AD000846
:0104AE000C41
:0104AF00004C
:0104B0000843
:0104B1000E3C
:0104B2000C3D
:0104B3000840
:0104B400083F
:0104B500083E
:0104B6000C39
:0104B700073D
:0104B800053E
:0104B9000939
:0104BA000A37
:0104BB000838
:0104BC000D32
:0104BD000E30
:0104BE000637
:0104BF000F2D
:0104C0000E2D
:0104C1000436
:0104C2000039
:0104C3000335
:0104C4000D2A
:0104C500072F
:0104C6000A2B
:0104C700092B
:0104C800082B
:0104C900042E
:0104CA00022F
:0104CB00042C
:0104CC00012E
:0104CD000727
:0104CE000C21
:0104CF000C20
:0104D0000724
:0104D1000426
:0104D2000425
:0104D3000D1B
:0104D400081F
:0104D5000521
:0104D6000025
:0104D7000024
:0104D8000320
:0104D900061C
:0104DA000E13
:0104DB000A16
:0104DC00031C
:0104DD000915
:0104DE000914
:0104DF000913
:0104E0000219
:0104E1000218
:0104E2000910
:0104E3000117
:0104E400080F
:0104E5000D09
:0104E600090C
:0104E700060E
:0104E800080B
:0104E9000012
:0104EA000B06
:0104EB00030D
:0104EC000D02
:0104ED000E00
:0104EE00030A
:0104EF000903
:0104F0000902
:0104F1000703
:0104F2000801
:0104F3000206
:0104F4000700
:0104F5000EF8
:0104F60007FE
:0104F7000400
:0104F8000FF4
:0104F9000CF6
:0104FA0002FF
:0104FB0008F8
:0104FC0003FC
:0104FD000FEF
:0104FE000EEF
:0104FF000CF0
:0105000004F6
:0105010007F2
:010502000FE9
:0105030002F5
:0105040000F6
:0105050004F1
:010506000BE9
:0105070005EE
:010508000DE5
:010509000AE7
:01050A0000F0
:01050B000AE5
:01050C0008E6
:01050D0001EC
:01050E0007E5
:01050F000CDF
:0105100002E8
:0105110003E6
:0105120003E5
:0105130001E6
:0105140003E3
:0105150008DD
:010516000BD9
:0105170001E2
:0105180008DA
:010519000BD6
:01051A000BD5
:01051B0005DA
:01051C000ED0
:01051D0009D4
:01051E000BD1
:01051F000CCF
:010520000FCB
:0105210007D2
:010522000DCB
:0105230006D1
:0105240000D6
:010525000EC7
:0105260007CD
:0105270007CC
:010528000DC5
:010529000FC2
:01052A000CC4
:01052B0005CA
:01052C0004CA
:01052D000FBE
:01052E0004C8
:01052F0005C6
:0105300009C1
:0105310000C9
:0105320000C8
:010533000ABD
:0105340004C2
:0105350003C2
:010536000FB5
:0105370008BB
:0105380001C1
:0105390005BC
:01053A0009B7
:01053B0002BD
:01053C0008B6
:01053D000AB3
:01053E000CB0
:01053F000DAE
:010540000EAC
:010541000AAF
:010542000EAA
:010543000FA8
:0105440000B6
:010545000FA6
:0105460007AD
:0105470007AC
:010548000EA4
:0105490004AD
:01054A000FA1
:01054B0001AE
:01054C0007A7
:01054D0001AC
:01054E000E9E
:01054F0000AB
:0105500002A8
:0105510008A1
:0105520007A1
:010553000B9C
:010554000C9A
:01055500069F
:0105560004A0
:01055700049F
:01055800039F
:010559000D94
:01055A000B95
:01055B000C93
:01055C000995
:01055D000598
:01055E000894
:01055F000596
:01056000009A
:010561000099
:010562000494
:010563000295
:010564000F87
:010565000D88
:01056600058F
:01056700048F
:010568000C86
:010569000091
:01056A00028E
:01056B000B84
:01056C00048A
:01056D00028B
:01056E000983
:01056F00008B
:010570000E7C
:010571000485
:010572000385
:010573000483
:010574000482
:010575000580
:01057600077D
:01057700087B
:010578000C76
:010579000C75
:01057A00067A
:01057B00047B
:01057C000678
:01057D00027B
:01057E00027A
:01057F000873
:010580000971
:010581000C6D
:010582000375
:010583000374
:010584000472
:010585000570
:01058600086C
:01058700096A
:010588000969
:010589000F62
:01058A000F61
:01058B000C63
:01058C00046A
:01058D00036A
:01058E000E5E
:01058F000467
:010590000B5F
:010591000069
:010592000167
:01059300085F
:010594000660
:010595000B5A
:01059600085C
:01059700075C
:010598000260
:010599000061
:01059A000957
:01059B00045B
:01059C000F4F
:01059D000558
:01059E000D4F
:01059F000754
:0105A0000951
:0105A1000D4C
:0105A2000B4D
:0105A3000A4D
:0105A4000155
:0105A5000A4B
:0105A6000C48
:0105A7000D46
:0105A800084A
:0105A9000948
:0105AA000749
:0105AB000748
:0105AC00004E
:0105AD000647
:0105AE000B41
:0105AF000A41
:0105B0000743
:0105B1000247
:0105B2000048
:0105B300083F
:0105B400083E
:0105B5000243
:0105B600073D
:0105B700063D
:0105B8000042
:0105B9000D34
:0105BA00013F
:0105BB00023D
:0105BC000935
:0105BD000439
:0105BE000933
:0105BF000932
:0105C000003A
:0105C1000D2C
:0105C2000830
:0105C3000F28
:0105C4000D29
:0105C5000530
:0105C6000232
:0105C7000E25
:0105C800062C
:0105C900072A
:0105CA00022E
:0105CB00042B
:0105CC000B23
:0105CD000E1F
:0105CE000B21
:0105CF000F1C
:0105D0000B1F
:0105D1000821
:0105D2000820
:0105D3000D1A
:0105D400091D
:0105D5000124
:0105D6000321
:0105D7000B18
:0105D8000919
:0105D900041D
:0105DA00041C
:0105DB00011E
:0105DC00031B
:0105DD000518
:0105DE000814
:0105DF000615
:0105E0000F0B
:0105E1000C0D
:0105E2000810
:0105E3000A0D
:0105E4000610
:0105E5000B0A
:0105E6000311
:0105E7000B08
:0105E8000012
:0105E900030E
:0105EA000709
:0105EB00010E
:0105EC000806
:0105ED000607
:0105EE000B01
:0105EF000803
:0105F0000406
:0105F1000CFD
:0105F2000503
:0105F3000AFD
:0105F40007FF
:0105F5000DF8
:0105F6000FF5
:0105F7000FF4
:0105F80003FF
:0105F9000EF3
:0105FA0009F7
:0105FB0008F7
:0105FC0001FD
:0105FD0005F8
:0105FE0005F7
:0105FF000BF0
:0106000000F9
:0106010007F1
:010602000AED
:010603000FE7
:010604000FE6
:0106050006EE
:0106060002F1
:0106070000F2
:0106080005EC
:0106090001EF
:01060A0002ED
:01060B0009E5
:01060C0006E7
:01060D0003E9
:01060E0001EA
:01060F000FDB
:0106100003E6
:010611000ADE
:010612000DDA
:0106130003E3
:010614000FD6
:010615000BD9
:0106160007DC
:0106170008DA
:010618000AD7
:0106190009D7
:01061A0006D9
:01061B0004DA
:01061C000DD0
:01061D000ECE
:01061E0007D4
:01061F0002D8
:0106200000D9
:010621000FC9
:0106220003D4
:0106230001D5
:0106240008CD
:010625000DC7
:010626000DC6
:0106270006CC
:010628000BC6
:010629000AC6
:01062A000FC0
:01062B0003CB
:01062C000DC0
:01062D0006C6
:01062E000CBF
:01062F0009C1
:0106300000C9
:0106310002C6
:010632000FB8
:0106330006C0
:0106340007BE
:0106350004C0
:0106360008BB
:010637000EB4
:010638000AB7
:0106390000C0
:01063A0002BD
:01063B000CB2
:01063C0009B4
:01063D000DAF
:01063E0008B3
:01063F000CAE
:0106400003B6
:0106410001B7
:010642000CAB
:010643000CAA
:0106440009AC
:0106450004B0
:010646000CA7
:0106470008AA
:0106480000B1
:0106490005AB
:01064A000AA5
:01064B0005A9
:01064C0007A6
:01064D000BA1
:01064E0009A2
:01064F000D9D
:0106500003A6
:0106510001A7
:0106520007A0
:010653000C9A
:010654000C99
:01065500099B
:010656000C97
:010657000F93
:01065800079A
:01065900049C
:01065A000699
:01065B000E90
:01065C000A93
:01065D000F8D
:01065E00009B
:01065F000793
:010660000495
:010661000494
:010662000B8C
:010663000A8C
:010664000C89
:010665000F85
:01066600088B
:010667000989
:010668000A87
:010669000B85
:01066A00038C
:01066B000688
:01066C000687
:01066D00008C
:01066E000685
:01066F000783
:010670000782
:010671000286
:010672000483
:01067300087E
:010674000580
:010675000E76
:010676000D76
:010677000A78
:010678000E73
:010679000E72
:01067A000F70
:01067B00037B
:01067C000974
:01067D000C70
:01067E000F6C
:01067F000D6D
:010680000A6F
:010681000A6E
:010682000F68
:010683000B6B
:010684000570
:010685000173
:010686000172
:010687000270
:01068800076A
:010689000967
:01068A000D62
:01068B00036B
:01068C000964
:01068D000C60
:01068E000368
:01068F000763
:010690000069
:010691000464
:010692000067
:010693000F57
:010694000560
:01069500055F
:01069600065D
:01069700055D
:010698000958
:01069900015F
:01069A000E51
:01069B000C52
:01069C000F4E
:01069D00025A
:01069E000853
:01069F000D4D
:0106A0000851
:0106A1000E4A
:0106A2000C4B
:0106A3000B4B
:0106A4000A4B
:0106A5000D47
:0106A6000B48
:0106A700084A
:0106A800034E
:0106A9000B45
:0106AA000F40
:0106AB00004E
:0106AC000A43
:0106AD000F3D
:0106AE000546
:0106AF000941
:0106B0000148
:0106B100093F
:0106B2000D3A
:0106B3000244
:0106B4000342
:0106B500083C
:0106B6000241
:0106B7000A38
:0106B800063B
:0106B900033D
:0106BA000936
:0106BB000F2F
:0106BC00013C
:0106BD00023A
:0106BE000F2C
:0106BF000535
:0106C0000B2E
:0106C1000533
:0106C2000334
:0106C3000036
:0106C4000134
:0106C5000C28
:0106C6000B28
:0106C700042E
:0106C8000B26
:0106C9000F21
:0106CA00042B
:0106CB00012D
:0106CC000D20
:0106CD000329
:0106CE000922
:0106CF000525
:0106D0000920
:0106D1000226
:0106D2000720
:0106D3000A1C
:0106D4000F16
:0106D500081C
:0106D6000320
:0106D7000F13
:0106D8000C15
:0106D9000F11
:0106DA000D12
:0106DB000717
:0106DC00011C
:0106DD00011B
:0106DE000E0D
:0106DF000C0E
:0106E0000613
:0106E1000D0B
:0106E2000116
:0106E300070F
:0106E4000E07
:0106E5000D07
:0106E6000310
:0106E700040E
:0106E8000809
:0106E9000A06
:0106EA00010E
:0106EB000707
:0106EC000D00
:0106ED000FFD
:0106EE00010A
:0106EF000703
:0106F0000702
:0106F1000503
:0106F2000DFA
:0106F3000FF7
:0106F40008FD
:0106F5000400
:0106F60008FB
:0106F7000002
:0106F8000AF7
:0106F9000EF2
:0106FA0006F9
:0106FB000CF2
:0106FC0000FD
:0106FD0004F8
:0106FE0004F7
:0106FF0001F9
:010700000DEB
:010701000EE9
:0107020009ED
:0107030007EE
:0107040006EE
:0107050009EA
:0107060005ED
:010707000DE4
:0107080001EF
:010709000FE0
:01070A0001ED
:01070B0005E8
:01070C0000EC
:01070D0001EA
:01070E0009E1
:01070F000ADF
:0107100001E7
:010711000CDB
:0107120005E1
:0107130005E0
:010714000BD9
:0107150009DA
:0107160001E1
:010717000AD7
:0107180006DA
:0107190007D8
:01071A000BD3
:01071B0005D8
:01071C000ECE
:01071D000AD1
:01071E0007D3
:01071F0006D3
:0107200006D2
:010721000BCC
:0107220006D0
:0107230001D4
:0107240009CB
:010725000DC6
:010726000AC8
:010727000DC4
:0107280006CA
:010729000FC0
:01072A000DC1
:01072B0000CD
:01072C0002CA
:01072D0004C7
:01072E0000CA
:01072F000ABF
:0107300000C8
:0107310007C0
:010732000ABC
:010733000BBA
:010734000BB9
:0107350008BB
:010736000CB6
:0107370003BE
:010738000BB5
:010739000AB5
:01073A000CB2
:01073B0006B7
:01073C0003B9
:01073D000BB0
:01073E0003B7
:01073F0007B2
:0107400007B1
:0107410005B2
:0107420006B0
:010743000FA6
:0107440002B2
:0107450004AF
:0107460009A9
:010747000BA6
:010748000EA2
:0107490007A8
:01074A000F9F
:01074B0003AA
:01074C0009A3
:01074D000D9E
:01074E000F9B
:01074F0007A2
:0107500002A6
:010751000E99
:0107520003A3
:010753000D98
:010754000E96
:01075500099A
:010756000E94
:01075700069B
:0107580000A0
:01075900049B
:01075A000D91
:01075B000F8E
:01075C000A92
:01075D000D8E
:01075E000793
:01075F000495
:010760000692
:010761000A8D
:010762000B8B
:010763000194
:010764000490
:01076500098A
:010766000989
:010767000190
:010768000789
:010769000788
:01076A000886
:01076B000984
:01076C000587
:01076D000388
:01076E000981
:01076F000683
:010770000880
:010771000A7D
:010772000E78
:010773000580
:01077400057F
:010775000083
:010776000C76
:01077700027F
:01077800067A
:01077900027D
:01077A00037B
:01077B00017C
:01077C000379
:01077D000A71
:01077E000674
:01077F000673
:01078000096F
:010781000E69
:010782000076
:010783000A6B
:010784000B69
:010785000F64
:01078600066C
:010787000F62
:010788000F61
:01078900036C
:01078A000569
:01078B000469
:01078C00026A
:01078D000665
:01078E000169
:01078F000465
:010790000C5C
:010791000C5B
:010792000E58
:010793000C59
:010794000D57
:01079500045F
:010796000F53
:01079700045D
:010798000957
:010799000E51
:01079A000E50
:01079B000B52
:01079C000C50
:01079D000457
:01079E00005A
:01079F000455
:0107A000094F
:0107A1000453
:0107A2000155
:0107A3000550
:0107A4000153
:0107A5000152
:0107A600074B
:0107A700064B
:0107A8000B45
:0107A9000F40
:0107AA000E40
:0107AB00014C
:0107AC000646
:0107AD000645
:0107AE000A40
:0107AF000B3E
:0107B0000147
:0107B100093E
:0107B2000E38
:0107B3000F36
:0107B400063E
:0107B500093A
:0107B6000042
:0107B700043D
:0107B8000D33
:0107B9000639
:0107BA000B33
:0107BB000538
:0107BC000735
:0107BD000437
:0107BE000436
:0107BF000534
:0107C0000038
:0107C1000B2C
:0107C2000C2A
:0107C3000134
:0107C4000232
:0107C500062D
:0107C6000B27
:0107C7000C25
:0107C8000030
:0107C9000C23
:0107CA000C22
:0107CB00022B
:0107CC000A22
:0107CD000E1D
:0107CE000C1E
:0107CF000821
:0107D0000D1B
:0107D1000027
:0107D2000C1A
:0107D3000D18
:0107D400091B
:0107D5000E15
:0107D600081A
:0107D700031E
:0107D8000719
:0107D9000619
:0107DA000E10
:0107DB000C11
:0107DC000913
:0107DD000B10
:0107DE000218
:0107DF000C0D
:0107E0000810
:0107E1000A0D
:0107E2000313
:0107E3000312
:0107E4000D07
:0107E500090A
:0107E600040E
:0107E700040D
:0107E8000709
:0107E9000807
:0107EA000806
:0107EB000904
:0107EC00020A
:0107ED000902
:0107EE000CFE
:0107EF000801
:0107F0000BFD
:0107F1000700
:0107F2000AFC
:0107F3000104
:0107F4000CF8
:0107F50006FD
:0107F60009F9
:0107F7000100
:0107F80003FD
:0107F9000CF3
:0107FA0006F8
:0107FB000BF2
:0107FC0009F3
:0107FD0000FB
:0107FE0001F9
:0107FF0009F0
:00000001ff
