:020000040000FA
:0100000007F8
:0100010000FE
:0100020005F8
:010003000FED
:010004000EED
:0100050004F6
:010006000FEA
:0100070001F7
:010008000EE9
:010009000BEB
:01000A0005F0
:01000B000EE6
:01000C0000F3
:01000D000DE5
:01000E0002EF
:01000F0008E8
:0100100002ED
:0100110007E7
:0100120005E8
:0100130003E9
:0100140005E6
:0100150002E8
:0100160006E3
:0100170006E2
:010018000ADD
:0100190000E6
:01001A0008DD
:01001B0003E1
:01001C0002E1
:01001D0002E0
:01001E0000E1
:01001F0007D9
:010020000FD0
:0100210008D6
:0100220000DD
:010023000BD1
:0100240001DA
:0100250001D9
:010026000FCA
:010027000BCD
:010028000DCA
:0100290008CE
:01002A000ACB
:01002B000EC6
:01002C000CC7
:01002D000DC5
:01002E000AC7
:01002F000DC3
:0100300002CD
:0100310006C8
:0100320000CD
:0100330007C5
:010034000AC1
:0100350003C7
:010036000EBB
:010037000ABE
:0100380005C2
:0100390002C4
:01003A000DB8
:01003B0001C3
:01003C0003C0
:01003D000FB3
:01003E000DB4
:01003F0007B9
:010040000BB4
:0100410007B7
:0100420005B8
:010043000CB0
:010044000FAC
:0100450007B3
:0100460004B5
:0100470000B8
:0100480001B6
:0100490003B3
:01004A0006AF
:01004B0003B1
:01004C000CA7
:01004D000AA8
:01004E0002AF
:01004F0008A8
:0100500004AB
:0100510001AD
:0100520009A4
:010053000E9E
:0100540008A3
:0100550001A9
:010056000D9C
:0100570005A3
:010058000C9B
:0100590000A6
:01005A0004A1
:01005B000C98
:01005C0002A1
:01005D00049E
:01005E00069B
:01005F0000A0
:01006000029D
:010061000698
:010062000F8E
:010063000498
:010064000E8D
:010065000B8F
:010066000A8F
:010067000098
:010068000691
:010069000294
:01006A00068F
:01006B00068E
:01006C00098A
:01006D000092
:01006E000988
:01006F000888
:01007000018E
:01007100028C
:010072000885
:010073000C80
:010074000388
:010075000A80
:010076000683
:010077000F79
:010078000F78
:010079000185
:01007A000580
:01007B000F75
:01007C000380
:01007D000D75
:01007E000081
:01007F00027E
:01008000027D
:010081000777
:01008200027B
:010083000874
:010084000B70
:010085000B6F
:010086000B6E
:010087000177
:010088000C6B
:01008900076F
:01008A000075
:01008B000C68
:01008C00066D
:01008D00056D
:01008E000071
:01008F000F61
:010090000F60
:010091000B63
:01009200026B
:010093000864
:010094000269
:010095000F5B
:010096000E5B
:010097000662
:010098000562
:010099000E58
:01009A000065
:01009B000D57
:01009C000261
:01009D00085A
:01009E000061
:01009F00035D
:0100A0000A55
:0100A1000856
:0100A2000D50
:0100A300015B
:0100A4000259
:0100A5000555
:0100A6000257
:0100A7000D4B
:0100A8000E49
:0100A900084E
:0100AA000352
:0100AB00064E
:0100AC000E45
:0100AD00034F
:0100AE000849
:0100AF000F41
:0100B000014E
:0100B1000846
:0100B2000548
:0100B300004C
:0100B4000645
:0100B5000B3F
:0100B6000A3F
:0100B7000840
:0100B8000D3A
:0100B9000046
:0100BA000C39
:0100BB000C38
:0100BC000E35
:0100BD000042
:0100BE000B36
:0100BF000040
:0100C000023D
:0100C1000E30
:0100C2000B32
:0100C3000438
:0100C4000D2E
:0100C5000E2C
:0100C6000831
:0100C7000137
:0100C8000D2A
:0100C9000036
:0100CA000035
:0100CB00052F
:0100CC000A29
:0100CD00082A
:0100CE000031
:0100CF00062A
:0100D0000B24
:0100D100002E
:0100D200012C
:0100D3000329
:0100D4000229
:0100D5000D1D
:0100D6000C1D
:0100D7000D1B
:0100D8000423
:0100D9000125
:0100DA00091C
:0100DB00081C
:0100DC000A19
:0100DD000C16
:0100DE000C15
:0100DF000020
:0100E0000718
:0100E1000E10
:0100E2000D10
:0100E3000517
:0100E4000912
:0100E5000515
:0100E6000316
:0100E7000C0C
:0100E8000611
:0100E900070F
:0100EA000213
:0100EB00080C
:0100EC000013
:0100ED000B07
:0100EE000E03
:0100EF000A06
:0100F0000906
:0100F100000E
:0100F2000A03
:0100F3000309
:0100F4000902
:0100F5000EFC
:0100F6000900
:0100F7000404
:0100F8000DFA
:0100F9000402
:0100FA000302
:0100FB0008FC
:0100FC0006FD
:0100FD0006FC
:0100FE0007FA
:0100FF0001FF
:0101000001FD
:010101000FEE
:0101020007F5
:010103000DEE
:0101040004F6
:0101050002F7
:0101060007F1
:0101070000F7
:0101080001F5
:010109000AEB
:01010A0003F1
:01010B0005EE
:01010C000EE4
:01010D000BE6
:01010E0005EB
:01010F0002ED
:0101100003EB
:0101110008E5
:010112000EDE
:010113000CDF
:010114000EDC
:0101150009E0
:0101160004E4
:0101170003E4
:010118000ADC
:010119000CD9
:01011A000FD5
:01011B0006DD
:01011C0007DB
:01011D0006DB
:01011E000CD4
:01011F000FD0
:010120000FCF
:0101210003DA
:010122000DCF
:0101230001DA
:0101240002D8
:0101250009D0
:0101260004D4
:0101270003D4
:010128000BCB
:0101290004D1
:01012A0000D4
:01012B000EC5
:01012C000DC5
:01012D0007CA
:01012E0003CD
:01012F000DC2
:0101300007C7
:0101310009C4
:0101320005C7
:0101330001CA
:010134000EBC
:0101350002C7
:010136000FB9
:010137000DBA
:010138000FB7
:010139000CB9
:01013A000CB8
:01013B000BB8
:01013C0002C0
:01013D0002BF
:01013E0009B7
:01013F000CB3
:0101400002BC
:0101410005B8
:0101420002BA
:010143000BB0
:0101440003B7
:0101450008B1
:0101460004B4
:0101470001B6
:0101480000B6
:0101490005B0
:01014A0000B4
:01014B000CA7
:01014C0008AA
:01014D000CA5
:01014E0003AD
:01014F0003AC
:0101500003AB
:010151000AA3
:010152000E9E
:0101530005A6
:0101540004A6
:0101550003A6
:0101560007A1
:010157000B9C
:0101580005A1
:0101590002A3
:01015A000B99
:01015B0001A2
:01015C0000A2
:01015D000F92
:01015E000E92
:01015F000897
:010160000698
:010161000499
:010162000498
:010163000C8F
:010164000397
:010165000594
:010166000692
:01016700088F
:01016800078F
:010169000392
:01016A000F85
:01016B00068D
:01016C00088A
:01016D000B86
:01016E000888
:01016F00048B
:01017000038B
:010171000A83
:010172000B81
:010173000487
:010174000B7F
:010175000B7E
:010176000A7E
:010177000186
:010178000680
:01017900077E
:01017A00057F
:01017B000281
:01017C00057D
:01017D000C75
:01017E00017F
:01017F000976
:01018000017D
:01018100007D
:010182000676
:010183000279
:010184000773
:010185000871
:010186000078
:010187000A6D
:010188000670
:010189000372
:01018A000B69
:01018B00056E
:01018C00036F
:01018D00046D
:01018E00036D
:01018F000768
:010190000767
:010191000568
:010192000E5E
:01019300016A
:010194000565
:010195000861
:010196000B5D
:010197000463
:01019800075F
:010199000461
:01019A000B59
:01019B000C57
:01019C00045E
:01019D000160
:01019E000060
:01019F000C53
:0101A000035B
:0101A100005D
:0101A2000E4E
:0101A3000D4E
:0101A4000654
:0101A5000950
:0101A6000553
:0101A7000750
:0101A8000155
:0101A9000550
:0101AA00064E
:0101AB00094A
:0101AC00054D
:0101AD00044D
:0101AE000F41
:0101AF00034C
:0101B000024C
:0101B1000D40
:0101B2000745
:0101B3000C3F
:0101B4000644
:0101B5000346
:0101B6000345
:0101B7000E39
:0101B8000D39
:0101B9000B3A
:0101BA000D37
:0101BB00043F
:0101BC000D35
:0101BD00053C
:0101BE000040
:0101BF00033C
:0101C0000E30
:0101C100003D
:0101C200023A
:0101C300013A
:0101C4000D2D
:0101C5000F2A
:0101C6000632
:0101C7000334
:0101C8000432
:0101C9000431
:0101CA000E26
:0101CB000C27
:0101CC00062C
:0101CD00022F
:0101CE000729
:0101CF000B24
:0101D0000F1F
:0101D1000B22
:0101D2000F1D
:0101D3000229
:0101D4000426
:0101D5000B1E
:0101D6000622
:0101D7000027
:0101D8000422
:0101D9000E17
:0101DA000E16
:0101DB000023
:0101DC00051D
:0101DD000A17
:0101DE00061A
:0101DF000619
:0101E000041A
:0101E100011C
:0101E2000A12
:0101E3000318
:0101E4000E0C
:0101E5000118
:0101E6000711
:0101E7000A0D
:0101E8000313
:0101E900090C
:0101EA00080C
:0101EB000C07
:0101EC00080A
:0101ED000E03
:0101EE000808
:0101EF000C03
:0101F0000FFF
:0101F1000C01
:0101F2000FFD
:0101F3000DFE
:0101F4000901
:0101F5000EFB
:0101F6000AFE
:0101F7000304
:0101F8000CFA
:0101F9000302
:0101FA0009FB
:0101FB0005FE
:0101FC000DF5
:0101FD0007FA
:0101FE0004FC
:0101FF0001FE
:010200000AF3
:010201000DEF
:010202000CEF
:010203000DED
:0102040007F2
:0102050008F0
:0102060001F6
:010207000EE8
:010208000EE7
:0102090009EB
:01020A000BE8
:01020B0009E9
:01020C000CE5
:01020D000AE6
:01020E0008E7
:01020F000AE4
:0102100003EA
:0102110007E5
:0102120008E3
:0102130009E1
:010214000ADF
:010215000DDB
:0102160005E2
:0102170004E2
:010218000BDA
:010219000BD9
:01021A000AD9
:01021B0005DD
:01021C0006DB
:01021D0000E0
:01021E0005DA
:01021F000CD2
:010220000FCE
:0102210002DA
:0102220000DB
:0102230005D5
:010224000DCC
:0102250002D6
:0102260006D1
:010227000ACC
:0102280000D5
:010229000DC7
:01022A0006CD
:01022B0006CC
:01022C0006CB
:01022D0003CD
:01022E000FC0
:01022F000BC3
:010230000AC3
:0102310005C7
:0102320005C6
:0102330009C1
:010234000EBB
:010235000ABE
:0102360003C4
:0102370000C6
:010238000FB6
:0102390002C2
:01023A000AB9
:01023B0001C1
:01023C0001C0
:01023D000AB6
:01023E000CB3
:01023F0001BD
:0102400003BA
:0102410002BA
:010242000EAD
:0102430003B7
:0102440009B0
:0102450005B3
:010246000BAC
:0102470005B1
:0102480001B4
:0102490002B2
:01024A0004AF
:01024B0002B0
:01024C0002AF
:01024D0009A7
:01024E0004AB
:01024F000BA3
:0102500000AD
:0102510007A5
:0102520000AB
:0102530005A5
:0102540005A4
:0102550006A2
:0102560004A3
:010257000E98
:010258000E97
:010259000F95
:01025A00089B
:01025B0001A1
:01025C000B96
:01025D0000A0
:01025E000B94
:01025F00029C
:01026000029B
:010261000D8F
:010262000B90
:010263000D8D
:010264000E8B
:010265000890
:010266000493
:010267000096
:010268000095
:010269000391
:01026A000A89
:01026B000191
:01026C000F82
:01026D000C84
:01026E000D82
:01026F000B83
:010270000F7E
:010271000F7D
:01027200018A
:010273000288
:010274000485
:010275000781
:010276000E79
:01027700077F
:01027800097C
:010279000381
:01027A000083
:01027B000D75
:01027C00067B
:01027D000E72
:01027E00017E
:01027F00037B
:010280000578
:010281000C70
:010282000B70
:010283000D6D
:010284000475
:010285000E6A
:010286000473
:01028700086E
:010288000174
:01028900086C
:01028A00076C
:01028B000B67
:01028C00046D
:01028D000070
:01028E000867
:01028F000965
:01029000036A
:010291000864
:010292000B60
:010293000763
:010294000267
:010295000E5A
:010296000166
:010297000561
:01029800095C
:010299000A5A
:01029A000E55
:01029B00085A
:01029C00025F
:01029D000759
:01029E000956
:01029F000658
:0102A0000A53
:0102A1000953
:0102A2000556
:0102A3000951
:0102A4000059
:0102A5000B4D
:0102A6000A4D
:0102A7000A4C
:0102A8000154
:0102A9000450
:0102AA000F44
:0102AB000151
:0102AC000051
:0102AD000D43
:0102AE000C43
:0102AF000945
:0102B0000845
:0102B1000448
:0102B2000843
:0102B3000941
:0102B4000C3D
:0102B5000B3D
:0102B6000A3D
:0102B700083E
:0102B8000342
:0102B900073D
:0102BA000B38
:0102BB00033F
:0102BC000F32
:0102BD000040
:0102BE00003F
:0102BF000A34
:0102C000013C
:0102C1000C30
:0102C2000C2F
:0102C3000D2D
:0102C4000C2D
:0102C5000335
:0102C6000B2C
:0102C7000432
:0102C800062F
:0102C9000F25
:0102CA000C27
:0102CB000C26
:0102CC00072A
:0102CD00042C
:0102CE000E21
:0102CF00042A
:0102D0000B22
:0102D1000428
:0102D2000E1D
:0102D3000426
:0102D4000524
:0102D5000820
:0102D6000621
:0102D700091D
:0102D8000421
:0102D9000B19
:0102DA000320
:0102DB000D15
:0102DC000819
:0102DD00041C
:0102DE00021D
:0102DF000D11
:0102E000011C
:0102E1000913
:0102E2000F0C
:0102E3000F0B
:0102E4000019
:0102E5000A0E
:0102E6000413
:0102E7000511
:0102E8000213
:0102E9000113
:0102EA00090A
:0102EB000B07
:0102EC000D04
:0102ED00010F
:0102EE000C03
:0102EF00020C
:0102F000010C
:0102F100020A
:0102F2000308
:0102F3000703
:0102F4000306
:0102F5000701
:0102F6000502
:0102F7000204
:0102F8000EF7
:0102F9000FF5
:0102FA0005FE
:0102FB0007FB
:0102FC0004FD
:0102FD0004FC
:0102FE000BF4
:0102FF000DF1
:0103000000FC
:0103010009F2
:0103020001F9
:010303000EEB
:010304000AEE
:010305000AED
:010306000AEC
:0103070007EE
:0103080007ED
:0103090008EB
:01030A000AE8
:01030B0009E8
:01030C0003ED
:01030D000BE4
:01030E0000EE
:01030F0006E7
:0103100001EB
:0103110005E6
:010312000AE0
:0103130006E3
:0103140004E4
:010315000CDB
:010316000CDA
:0103170001E4
:010318000ADA
:0103190008DB
:01031A000ED4
:01031B000DD4
:01031C000ED2
:01031D0006D9
:01031E0000DE
:01031F0008D5
:0103200008D4
:0103210000DB
:0103220002D8
:0103230000D9
:010324000ECA
:0103250005D2
:010326000DC9
:0103270000D5
:010328000EC6
:0103290005CE
:01032A0008CA
:01032B0009C8
:01032C0002CE
:01032D0009C6
:01032E000BC3
:01032F0006C7
:010330000AC2
:0103310008C3
:0103320009C1
:0103330003C6
:0103340002C6
:0103350004C3
:0103360007BF
:0103370000C5
:0103380002C2
:010339000AB9
:01033A0001C1
:01033B0005BC
:01033C000AB6
:01033D0000BF
:01033E0002BC
:01033F000BB2
:0103400007B5
:0103410006B5
:010342000DAD
:0103430003B6
:0103440003B5
:010345000AAD
:010346000AAC
:0103470005B0
:0103480006AE
:0103490006AD
:01034A0003AF
:01034B0002AF
:01034C0005AB
:01034D0007A8
:01034E0005A9
:01034F0000AD
:010350000AA2
:010351000C9F
:0103520002A8
:010353000B9E
:010354000A9E
:0103550006A1
:01035600099D
:0103570003A2
:01035800069E
:01035900079C
:01035A00049E
:01035B000A97
:01035C000A96
:01035D000F90
:01035E000F8F
:01035F000B92
:010360000A92
:010361000D8E
:010362000595
:010363000198
:010364000395
:010365000592
:01036600088E
:01036700088D
:010368000D87
:01036900048F
:01036A00088A
:01036B000190
:01036C00048C
:01036D00008F
:01036E000688
:01036F000984
:010370000983
:010371000289
:010372000A80
:010373000A7F
:010374000F79
:010375000D7A
:010376000D79
:01037700087D
:010378000480
:010379000380
:01037A00057D
:01037B000978
:01037C00037D
:01037D00017E
:01037E00017D
:01037F000974
:01038000027A
:010381000D6E
:010382000E6C
:010383000178
:010384000474
:010385000A6D
:010386000175
:010387000471
:010388000C68
:010389000172
:01038A00036F
:01038B000869
:01038C000B65
:01038D000C63
:01038E00006E
:01038F000667
:010390000D5F
:010391000C5F
:01039200006A
:010393000B5E
:010394000563
:010395000D5A
:01039600075F
:010397000B5A
:010398000A5A
:010399000A59
:01039A00035F
:01039B000A57
:01039C00055B
:01039D00005F
:01039E000F4F
:01039F000D50
:0103A0000755
:0103A1000457
:0103A2000F4B
:0103A3000A4F
:0103A4000C4C
:0103A5000651
:0103A6000A4C
:0103A7000451
:0103A8000351
:0103A9000251
:0103AA000B47
:0103AB00044D
:0103AC000848
:0103AD00054A
:0103AE000747
:0103AF000647
:0103B0000C40
:0103B1000F3C
:0103B2000347
:0103B3000F3A
:0103B4000543
:0103B5000443
:0103B6000B3B
:0103B7000D38
:0103B8000341
:0103B9000C37
:0103BA000F33
:0103BB000938
:0103BC000F31
:0103BD000B34
:0103BE00003E
:0103BF000736
:0103C0000D2F
:0103C1000B30
:0103C2000D2D
:0103C3000930
:0103C400092F
:0103C5000037
:0103C600072F
:0103C7000035
:0103C8000F25
:0103C900062D
:0103CA000A28
:0103CB000829
:0103CC00042C
:0103CD000926
:0103CE000925
:0103CF000F1E
:0103D0000C20
:0103D1000526
:0103D2000F1B
:0103D3000E1B
:0103D4000028
:0103D5000C1B
:0103D6000E18
:0103D7000B1A
:0103D8000E16
:0103D9000C17
:0103DA000022
:0103DB000B16
:0103DC00061A
:0103DD00051A
:0103DE00001E
:0103DF000914
:0103E0000616
:0103E1000714
:0103E2000515
:0103E3000019
:0103E4000D0B
:0103E5000A0D
:0103E6000016
:0103E7000D08
:0103E800060E
:0103E900070C
:0103EA000A08
:0103EB000908
:0103EC000A06
:0103ED000B04
:0103EE00020C
:0103EF000A03
:0103F0000804
:0103F1000DFE
:0103F2000901
:0103F3000DFC
:0103F4000CFC
:0103F5000304
:0103F60008FE
:0103F70008FD
:0103F8000BF9
:0103F9000AF9
:0103FA000DF5
:0103FB0005FC
:0103FC0002FE
:0103FD0008F7
:0103FE000BF3
:0103FF0009F4
:010400000AF1
:0104010004F6
:010402000CED
:0104030004F4
:0104040008EF
:0104050002F4
:0104060005F0
:0104070004F0
:0104080000F3
:0104090006EC
:01040A0006EB
:01040B000FE1
:01040C000EE1
:01040D0006E8
:01040E000AE3
:01040F000FDD
:0104100000EB
:010411000AE0
:0104120002E7
:010413000EDA
:0104140000E7
:010415000CDA
:0104160000E5
:0104170004E0
:0104180006DD
:010419000FD3
:01041A0001E0
:01041B000ED2
:01041C000CD3
:01041D0002DC
:01041E0005D8
:01041F0002DA
:010420000BD0
:010421000CCE
:0104220001D8
:0104230008D0
:010424000EC9
:0104250002D4
:0104260005D0
:0104270009CB
:0104280005CE
:0104290001D1
:01042A000DC4
:01042B000CC4
:01042C0004CB
:01042D0005C9
:01042E0003CA
:01042F000AC2
:010430000FBC
:010431000CBE
:0104320008C1
:0104330000C8
:010434000CBB
:0104350001C5
:010436000BBA
:0104370004C0
:0104380002C1
:0104390009B9
:01043A0007BA
:01043B000BB5
:01043C0001BE
:01043D0004BA
:01043E000EAF
:01043F000AB2
:0104400004B7
:0104410006B4
:010442000EAB
:010443000DAB
:0104440004B3
:0104450009AD
:0104460004B1
:0104470002B2
:0104480004AF
:0104490002B0
:01044A0007AA
:01044B0006AA
:01044C0006A9
:01044D0008A6
:01044E0005A8
:01044F0009A3
:010450000E9D
:0104510004A6
:0104520006A3
:0104530007A1
:0104540007A0
:010455000E98
:0104560003A2
:0104570004A0
:010458000E95
:010459000C96
:01045A00039E
:01045B000997
:01045C000E91
:01045D000599
:01045E000C91
:01045F000399
:010460000992
:010461000D8D
:010462000E8B
:010463000D8B
:010464000F88
:010465000690
:01046600098C
:010467000292
:010468000F84
:010469000191
:01046A000A87
:01046B000789
:01046C00048B
:01046D00048A
:01046E00018C
:01046F000C80
:010470000784
:010471000387
:010472000386
:010473000187
:010474000384
:010475000680
:010476000D78
:01047700097B
:010478000281
:010479000B77
:01047A000F72
:01047B000977
:01047C000976
:01047D00007E
:01047E000776
:01047F000676
:01048000007B
:010481000575
:010482000574
:010483000C6C
:010484000275
:010485000076
:010486000075
:01048700066E
:010488000A69
:010489000171
:01048A00036E
:01048B000769
:01048C00056A
:01048D000668
:01048E000667
:01048F00026A
:010490000962
:010491000F5B
:010492000960
:010493000E5A
:010494000D5A
:010495000561
:010496000B5A
:010497000B59
:010498000063
:010499000062
:01049A00035E
:01049B000C54
:01049C000E51
:01049D000757
:01049E000B52
:01049F000359
:0104A0000259
:0104A1000456
:0104A2000950
:0104A3000E4A
:0104A4000750
:0104A5000F47
:0104A6000E47
:0104A7000351
:0104A800094A
:0104A900044E
:0104AA00044D
:0104AB00014F
:0104AC00024D
:0104AD000747
:0104AE000D40
:0104AF000B41
:0104B0000843
:0104B1000545
:0104B2000049
:0104B3000543
:0104B4000E39
:0104B5000244
:0104B6000540
:0104B7000B39
:0104B800073C
:0104B9000A38
:0104BA00043D
:0104BB00053B
:0104BC000C33
:0104BD000935
:0104BE000A33
:0104BF00023A
:0104C000003B
:0104C1000733
:0104C2000B2E
:0104C3000F29
:0104C4000C2B
:0104C5000A2C
:0104C6000530
:0104C7000A2A
:0104C8000C27
:0104C9000D25
:0104CA00042D
:0104CB000D23
:0104CC000827
:0104CD000628
:0104CE00012C
:0104CF00022A
:0104D0000D1E
:0104D1000624
:0104D2000920
:0104D3000820
:0104D400091E
:0104D5000A1C
:0104D6000D18
:0104D7000D17
:0104D8000A19
:0104D9000E14
:0104DA00041D
:0104DB000719
:0104DC00031C
:0104DD000E10
:0104DE000716
:0104DF000517
:0104E0000714
:0104E1000713
:0104E2000613
:0104E3000E0A
:0104E4000413
:0104E500070F
:0104E6000D08
:0104E7000A0A
:0104E8000B08
:0104E900070B
:0104EA000110
:0104EB00060A
:0104EC000F00
:0104ED000FFF
:0104EE000805
:0104EF000507
:0104F0000DFE
:0104F1000604
:0104F2000108
:0104F3000AFE
:0104F4000FF8
:0104F5000303
:0104F6000005
:0104F70006FE
:0104F80007FC
:0104F9000101
:0104FA000100
:0104FB0002FE
:0104FC000FF0
:0104FD000FEF
:0104FE000AF3
:0104FF0008F4
:010500000DED
:0105010000F9
:0105020007F1
:0105030006F1
:0105040004F2
:0105050005F0
:0105060001F3
:010507000FE4
:0105080006EC
:0105090001F0
:01050A0007E9
:01050B0007E8
:01050C000EE0
:01050D0009E4
:01050E000BE1
:01050F0009E2
:0105100005E5
:010511000ADF
:0105120003E5
:010513000DDA
:010514000ADC
:010515000ED7
:0105160001E3
:010517000DD6
:0105180003DF
:0105190004DD
:01051A000AD6
:01051B000ED1
:01051C0001DD
:01051D0006D7
:01051E000AD2
:01051F0008D3
:0105200005D5
:010521000ACF
:0105220004D4
:0105230008CF
:010524000FC7
:010525000ACB
:010526000DC7
:0105270005CE
:0105280006CC
:0105290006CB
:01052A0008C8
:01052B0002CD
:01052C0001CD
:01052D000AC3
:01052E000BC1
:01052F0007C4
:010530000AC0
:0105310009C0
:010532000FB9
:0105330000C7
:0105340009BD
:010535000CB9
:010536000ABA
:0105370007BC
:0105380002C0
:0105390005BC
:01053A000FB1
:01053B000EB1
:01053C0003BB
:01053D000EAF
:01053E0006B6
:01053F000DAE
:010540000FAB
:0105410003B6
:0105420009AF
:010543000BAC
:010544000FA7
:0105450008AD
:010546000FA5
:010547000BA8
:010548000FA3
:0105490007AA
:01054A000CA4
:01054B0004AB
:01054C000EA0
:01054D0007A6
:01054E0006A6
:01054F0000AB
:0105500005A5
:0105510004A5
:0105520005A3
:0105530001A6
:01055400099D
:010555000E97
:010556000F95
:01055700059E
:010558000A98
:01055900029F
:01055A00029E
:01055B000A95
:01055C000995
:01055D000D90
:01055E00019B
:01055F000E8D
:010560000D8D
:010561000396
:010562000692
:010563000A8D
:010564000195
:010565000F86
:010566000292
:010567000C87
:010568000D85
:01056900028F
:01056A000C84
:01056B000A85
:01056C000787
:01056D000588
:01056E00008C
:01056F000883
:010570000C7E
:010571000B7E
:010572000583
:010573000B7C
:010574000E78
:010575000283
:01057600097B
:01057700077C
:01057800047E
:01057900057C
:01057A00057B
:01057B000C73
:01057C000777
:01057D000479
:01057E000379
:01057F000477
:010580000D6D
:010581000376
:010582000E6A
:010583000A6D
:010584000472
:010585000C69
:01058600056F
:01058700046F
:01058800046E
:010589000F62
:01058A00056B
:01058B000768
:01058C000D61
:01058D000E5F
:01058E000A62
:01058F000D5E
:01059000006A
:010591000861
:010592000464
:010593000364
:010594000A5C
:010595000263
:01059600085C
:010597000E55
:010598000B57
:010599000B56
:01059A000D53
:01059B00055A
:01059C00005E
:01059D000954
:01059E000854
:01059F000457
:0105A0000E4C
:0105A1000851
:0105A2000D4B
:0105A3000E49
:0105A4000E48
:0105A5000A4B
:0105A6000351
:0105A7000F44
:0105A8000C46
:0105A9000E43
:0105AA000E42
:0105AB000D42
:0105AC00014D
:0105AD000845
:0105AE000547
:0105AF000447
:0105B0000644
:0105B1000346
:0105B2000B3D
:0105B3000443
:0105B4000E38
:0105B5000C39
:0105B6000A3A
:0105B7000E35
:0105B8000240
:0105B9000938
:0105BA000F31
:0105BB000639
:0105BC000836
:0105BD000736
:0105BE000F2D
:0105BF000338
:0105C0000C2E
:0105C1000E2B
:0105C2000434
:0105C3000235
:0105C400072F
:0105C5000431
:0105C6000A2A
:0105C7000F24
:0105C8000131
:0105C9000A27
:0105CA000B25
:0105CB000F20
:0105CC000826
:0105CD000528
:0105CE000C20
:0105CF000D1E
:0105D0000F1B
:0105D1000722
:0105D2000226
:0105D3000423
:0105D4000F17
:0105D5000C19
:0105D6000F15
:0105D700061D
:0105D800081A
:0105D9000918
:0105DA00041C
:0105DB00001F
:0105DC000E10
:0105DD000B12
:0105DE000B11
:0105DF00011A
:0105E0000614
:0105E1000217
:0105E2000711
:0105E3000E09
:0105E4000115
:0105E5000015
:0105E600080C
:0105E7000310
:0105E800050D
:0105E9000A07
:0105EA000010
:0105EB000A05
:0105EC000B03
:0105ED000FFE
:0105EE000FFD
:0105EF00000B
:0105F0000208
:0105F1000108
:0105F2000503
:0105F3000205
:0105F40008FE
:0105F5000401
:0105F6000FF5
:0105F7000DF6
:0105F8000002
:0105F90004FD
:0105FA0005FB
:0105FB0008F7
:0105FC0002FC
:0105FD0002FB
:0105FE0006F6
:0105FF0005F6
:0106000008F1
:0106010001F7
:0106020001F6
:0106030005F1
:0106040006EF
:0106050000F4
:0106060003F0
:0106070004EE
:0106080004ED
:010609000DE3
:01060A000BE4
:01060B0006E8
:01060C0005E8
:01060D000AE2
:01060E0006E5
:01060F0009E1
:0106100001E8
:0106110005E3
:0106120002E5
:010613000BDB
:0106140009DC
:010615000CD8
:0106160007DC
:0106170008DA
:010618000ED3
:0106190006DA
:01061A0008D7
:01061B0001DD
:01061C0006D7
:01061D000FCD
:01061E0000DB
:01061F000ECC
:010620000ACF
:0106210008D0
:0106220007D0
:0106230005D1
:0106240002D3
:010625000CC8
:010626000EC5
:0106270005CD
:010628000CC5
:010629000CC4
:01062A0000CF
:01062B0000CE
:01062C0005C8
:01062D0007C5
:01062E000EBD
:01062F0001C9
:0106300005C4
:0106310003C5
:0106320000C7
:0106330002C4
:010634000FB6
:010635000FB5
:0106360004BF
:0106370008BA
:010638000EB3
:010639000EB2
:01063A000DB2
:01063B0003BB
:01063C0006B7
:01063D000DAF
:01063E000FAC
:01063F0005B5
:0106400008B1
:0106410000B8
:0106420007B0
:0106430006B0
:010644000AAB
:010645000EA6
:010646000EA5
:0106470007AB
:0106480007AA
:010649000EA2
:01064A000CA3
:01064B0002AC
:01064C0000AD
:01064D000D9F
:01064E000AA1
:01064F000F9B
:0106500001A8
:010651000A9E
:0106520001A6
:0106530004A2
:010654000D98
:010655000C98
:010656000D96
:01065700049E
:01065800039E
:010659000E92
:01065A000A95
:01065B000F8F
:01065C000895
:01065D000F8D
:01065E000299
:01065F00009A
:010660000B8E
:010661000494
:010662000295
:010663000D89
:010664000D88
:010665000F85
:010666000F84
:010667000092
:01066800038E
:010669000E82
:01066A000788
:01066B000985
:01066C00008D
:01066D000C80
:01066E000C7F
:01066F000783
:010670000287
:010671000781
:010672000384
:010673000482
:010674000B7A
:010675000F75
:01067600067D
:010677000C76
:010678000E73
:010679000C74
:01067A000A75
:01067B00007E
:01067C000677
:01067D000B71
:01067E000E6D
:01067F000476
:010680000475
:010681000771
:010682000C6B
:010683000373
:010684000273
:010685000074
:01068600096A
:010687000E64
:010688000F62
:01068900046C
:01068A000768
:01068B000767
:01068C000469
:01068D000567
:01068E000467
:01068F000B5F
:010690000F5A
:010691000464
:010692000166
:01069300075F
:010694000461
:010695000E56
:010696000162
:01069700085A
:01069800055C
:010699000060
:01069A00015E
:01069B000955
:01069C000954
:01069D000B51
:01069E000952
:01069F000357
:0106A0000F4A
:0106A1000751
:0106A2000750
:0106A3000353
:0106A4000253
:0106A5000F45
:0106A6000B48
:0106A7000C46
:0106A8000B46
:0106A9000848
:0106AA000649
:0106AB000D41
:0106AC000B42
:0106AD00024A
:0106AE000B40
:0106AF00004A
:0106B0000445
:0106B1000C3C
:0106B2000641
:0106B3000145
:0106B4000243
:0106B500063E
:0106B6000C37
:0106B7000B37
:0106B8000C35
:0106B9000040
:0106BA000C33
:0106BB000D31
:0106BC00013C
:0106BD000E2E
:0106BE00013A
:0106BF000931
:0106C0000E2B
:0106C100092F
:0106C2000F28
:0106C3000531
:0106C400092C
:0106C5000D27
:0106C600092A
:0106C7000B27
:0106C800072A
:0106C9000729
:0106CA000B24
:0106CB000628
:0106CC000726
:0106CD000B21
:0106CE000D1E
:0106CF000723
:0106D0000F1A
:0106D1000C1C
:0106D2000F18
:0106D3000C1A
:0106D4000124
:0106D5000D17
:0106D600091A
:0106D700051D
:0106D800031E
:0106D9000F11
:0106DA000A15
:0106DB000C12
:0106DC00021B
:0106DD000F0D
:0106DE00001B
:0106DF000614
:0106E0000712
:0106E1000315
:0106E2000D0A
:0106E3000115
:0106E4000015
:0106E5000410
:0106E6000B08
:0106E7000B07
:0106E8000110
:0106E9000010
:0106EA00010E
:0106EB000509
:0106EC000508
:0106ED000EFE
:0106EE000605
:0106EF000802
:0106F0000AFF
:0106F1000206
:0106F2000403
:0106F30008FE
:0106F4000BFA
:0106F5000400
:0106F6000003
:0106F70005FD
:0106F8000BF6
:0106F90008F8
:0106FA0004FB
:0106FB000FEF
:0106FC0003FA
:0106FD000FED
:0106FE0009F2
:0106FF000EEC
:0107000006F2
:010701000BEC
:0107020003F3
:0107030008ED
:010704000DE7
:010705000DE6
:0107060009E9
:010707000CE5
:0107080005EB
:010709000CE3
:01070A0002EC
:01070B000EDF
:01070C0000EC
:01070D000EDD
:01070E0007E3
:01070F0000E9
:0107100007E1
:0107110003E4
:0107120000E6
:0107130003E2
:010714000BD9
:010715000AD9
:010716000ED4
:010717000BD6
:010718000ED2
:010719000BD4
:01071A000FCF
:01071B000CD1
:01071C0001DB
:01071D0001DA
:01071E0008D2
:01071F000ACF
:0107200004D4
:010721000BCC
:010722000BCB
:0107230009CC
:0107240001D3
:010725000AC9
:010726000FC3
:0107270008C9
:0107280001CF
:0107290001CE
:01072A0008C6
:01072B0009C4
:01072C0006C6
:01072D0006C5
:01072E0008C2
:01072F0004C5
:010730000CBC
:0107310009BE
:010732000BBB
:010733000EB7
:0107340004C0
:0107350008BB
:010736000DB5
:0107370000C1
:0107380006BA
:010739000CB3
:01073A0008B6
:01073B000AB3
:01073C0008B4
:01073D0003B8
:01073E0003B7
:01073F000BAE
:0107400004B4
:0107410002B5
:0107420000B6
:0107430004B1
:010744000AAA
:0107450009AA
:0107460002B0
:010747000CA5
:0107480008A8
:010749000FA0
:01074A0005A9
:01074B0007A6
:01074C0009A3
:01074D0009A2
:01074E000F9B
:01074F0008A1
:0107500001A7
:010751000B9C
:0107520001A5
:01075300079E
:010754000B99
:01075500049F
:01075600039F
:010757000F92
:010758000C94
:01075900049B
:01075A000F8F
:01075B000895
:01075C000795
:01075D000F8C
:01075E000892
:01075F000693
:010760000593
:010761000D8A
:010762000D89
:010763000E87
:010764000292
:01076500048F
:010766000C86
:01076700078A
:010768000E82
:01076900028D
:01076A00008E
:01076B000C81
:01076C000587
:01076D000487
:01076E000A80
:01076F000287
:010770000286
:01077100087F
:010772000D79
:010773000382
:01077400067E
:010775000B78
:01077600037F
:01077700067B
:01077800067A
:01077900007F
:01077A000D71
:01077B000B72
:01077C000577
:01077D000E6D
:01077E000674
:01077F000376
:010780000771
:010781000077
:010782000175
:010783000A6B
:01078400066E
:01078500066D
:010786000B67
:010787000B66
:010788000769
:010789000D62
:01078A00006E
:01078B00026B
:01078C000C60
:01078D000269
:01078E000367
:01078F000762
:010790000266
:010791000E59
:010792000561
:01079300075E
:010794000F55
:010795000261
:010796000260
:010797000859
:010798000957
:01079900045B
:01079A00015D
:01079B000558
:01079C000D4F
:01079D00015A
:01079E000555
:01079F000455
:0107A0000751
:0107A1000057
:0107A200094D
:0107A3000C49
:0107A400074D
:0107A500094A
:0107A600054D
:0107A7000E43
:0107A8000E42
:0107A9000B44
:0107AA000648
:0107AB000944
:0107AC000B41
:0107AD000A41
:0107AE000248
:0107AF000841
:0107B0000C3C
:0107B1000A3D
:0107B2000541
:0107B3000D38
:0107B4000044
:0107B5000043
:0107B6000D35
:0107B700053C
:0107B8000B35
:0107B900003F
:0107BA000F2F
:0107BB000F2E
:0107BC000F2D
:0107BD000B30
:0107BE000B2F
:0107BF000039
:0107C0000434
:0107C1000037
:0107C2000531
:0107C3000035
:0107C400082C
:0107C5000132
:0107C600082A
:0107C700062B
:0107C8000D23
:0107C9000D22
:0107CA000E20
:0107CB000627
:0107CC000329
:0107CD00002B
:0107CE000426
:0107CF000D1C
:0107D000091F
:0107D1000E19
:0107D2000D19
:0107D3000421
:0107D4000B19
:0107D500041F
:0107D6000E14
:0107D700041D
:0107D8000917
:0107D9000C13
:0107DA000B13
:0107DB000A13
:0107DC000A12
:0107DD000A11
:0107DE00001A
:0107DF000019
:0107E000090F
:0107E1000314
:0107E2000511
:0107E3000E07
:0107E4000B09
:0107E5000112
:0107E600030F
:0107E7000011
:0107E8000010
:0107E9000708
:0107EA000608
:0107EB000706
:0107EC00010B
:0107ED000605
:0107EE000406
:0107EF000306
:0107F0000800
:0107F1000205
:0107F2000EF8
:0107F3000005
:0107F4000DF7
:0107F5000201
:0107F60007FB
:0107F70003FE
:0107F80004FC
:0107F90009F6
:0107FA0006F8
:0107FB0002FB
:0107FC0008F4
:0107FD0004F7
:0107FE000CEE
:0107FF0001F8
:00000001ff
