:020000040000FA
:0100000008F7
:010001000BF3
:0100020002FB
:0100030007F5
:010004000AF1
:010005000EEC
:0100060004F5
:0100070009EF
:010008000CEB
:0100090003F3
:01000A0008ED
:01000B000DE7
:01000C0001F2
:01000D0008EA
:01000E000CE5
:01000F0001EF
:0100100009E6
:010011000AE4
:0100120002EB
:0100130006E6
:010014000BE0
:0100150000EA
:0100160008E1
:010017000DDB
:0100180001E6
:0100190009DD
:01001A000FD6
:01001B0003E1
:01001C0008DB
:01001D0001E1
:01001E0006DB
:01001F000BD5
:0100200002DD
:0100210008D6
:0100220000DD
:0100230005D7
:010024000BD0
:0100250001D9
:0100260007D2
:0100270000D8
:0100280007D0
:010029000DC9
:01002A0002D3
:01002B0007CD
:01002C000EC5
:01002D0005CD
:01002E000EC3
:01002F0005CB
:0100300009C6
:0100310002CC
:0100320009C4
:010033000EBE
:0100340006C5
:010035000BBF
:0100360006C3
:010037000BBD
:0100380003C4
:010039000ABC
:01003A0001C4
:01003B0007BD
:01003C0001C2
:01003D0008BA
:01003E0000C1
:01003F0006BA
:010040000CB3
:0100410006B8
:010042000CB1
:0100430006B6
:010044000DAE
:0100450005B5
:010046000CAD
:0100470005B3
:010048000AAD
:0100490004B2
:01004A000EA7
:01004B0002B2
:01004C000BA8
:01004D0005AD
:01004E000AA7
:01004F0002AE
:010050000CA3
:0100510002AC
:010052000BA2
:0100530005A7
:010054000C9F
:0100550006A4
:010056000D9C
:0100570004A4
:0100580000A7
:0100590005A1
:01005A000E97
:01005B00079D
:01005C0002A1
:01005D000999
:01005E00029F
:01005F000898
:01006000039C
:010061000D91
:010062000598
:010063000E8E
:010064000794
:01006500009A
:010066000693
:010067000E8A
:010068000B8C
:010069000096
:01006A000C89
:01006B00058F
:01006C000D86
:01006D00078B
:01006E000E83
:01006F000987
:01007000028D
:010071000C82
:010072000489
:010073000B81
:010074000982
:010075000288
:010076000B7E
:010077000286
:010078000D7A
:01007900077F
:01007A000184
:01007B00097B
:01007C000380
:01007D000C76
:01007E00067B
:01007F000F71
:010080000877
:010081000579
:010082000B72
:010083000676
:010084000378
:010085000971
:010086000475
:010087000F69
:010088000770
:010089000274
:01008A000B6A
:01008B00076D
:01008C000172
:01008D000969
:01008E00036E
:01008F000070
:010090000867
:01009100016D
:010092000B62
:010093000567
:010094000269
:010095000C5E
:010096000762
:010097000167
:010098000A5D
:01009900075F
:01009A000E57
:01009B00085C
:01009C00045F
:01009D000F53
:01009E000859
:01009F00045C
:0100A0000E51
:0100A1000A54
:0100A200015C
:0100A3000D4F
:0100A4000655
:0100A5000258
:0100A6000C4D
:0100A700094F
:0100A8000156
:0100A9000C4A
:0100AA00074E
:0100AB000450
:0100AC000C47
:0100AD00084A
:0100AE00034E
:0100AF000F41
:0100B0000946
:0100B100024C
:0100B2000D40
:0100B3000A42
:0100B4000546
:0100B500004A
:0100B6000C3D
:0100B7000642
:0100B8000245
:0100B9000B3B
:0100BA00083D
:0100BB000143
:0100BC000C37
:0100BD000939
:0100BE00023F
:0100BF000F31
:0100C0000A35
:0100C100043A
:0100C200003D
:0100C3000C30
:0100C4000833
:0100C5000238
:0100C6000F2A
:0100C7000A2E
:0100C8000433
:0100C9000F27
:0100CA000C29
:0100CB00072D
:0100CC000330
:0100CD000032
:0100CE000B26
:0100CF00032D
:0100D000022D
:0100D1000B23
:0100D2000825
:0100D3000329
:0100D4000F1C
:0100D5000B1F
:0100D6000623
:0100D7000028
:0100D8000D1A
:0100D900081E
:0100DA000322
:0100DB000123
:0100DC000B18
:0100DD000919
:0100DE00051C
:0100DF00011F
:0100E0000C13
:0100E1000816
:0100E200021B
:0100E3000E0E
:0100E4000A11
:0100E5000515
:0100E6000118
:0100E7000D0B
:0100E8000A0D
:0100E9000610
:0100EA000114
:0100EB000113
:0100EC000C07
:0100ED00070B
:0100EE000110
:0100EF00010F
:0100F0000B04
:0100F1000707
:0100F2000409
:0100F3000EFE
:0100F4000CFF
:0100F5000802
:0100F6000405
:0100F7000008
:0100F8000BFC
:0100F9000600
:0100FA000401
:0100FB000103
:0100FC000DF6
:0100FD0007FB
:0100FE0006FB
:0100FF000000
:0101000000FE
:010101000AF3
:0101020004F8
:0101030005F6
:0101040000FA
:010105000DEC
:0101060009EF
:0101070005F2
:0101080002F4
:010109000DE8
:01010A000BE9
:01010B0006ED
:01010C0003EF
:01010D0000F1
:01010E000EE2
:01010F000AE5
:0101100007E7
:0101110002EB
:010112000DDF
:010113000CDF
:0101140008E2
:0101150004E5
:0101160001E7
:010117000DDA
:0101180009DD
:0101190009DC
:01011A0004E0
:01011B0001E2
:01011C000ED4
:01011D000BD6
:01011E0006DA
:01011F0005DA
:010120000ED0
:010121000CD1
:010122000AD2
:0101230006D5
:0101240003D7
:0101250002D7
:010126000DCB
:010127000ACD
:0101280006D0
:0101290004D1
:01012A0000D4
:01012B0000D3
:01012C0008CA
:01012D0008C9
:01012E0006CA
:01012F0002CD
:010130000FBF
:010131000CC1
:0101320008C4
:0101330004C7
:0101340000CA
:0101350000C9
:010136000DBB
:010137000BBC
:0101380006C0
:0101390002C3
:01013A0000C4
:01013B000EB5
:01013C000AB8
:01013D0008B9
:01013E0005BB
:01013F0003BC
:010140000FAF
:010141000DB0
:0101420009B3
:0101430006B5
:0101440004B6
:0101450002B7
:0101460000B8
:010147000CAB
:0101480009AD
:0101490007AE
:01014A0002B2
:01014B0001B2
:01014C000EA4
:01014D000CA5
:01014E0009A7
:01014F0004AB
:0101500002AC
:0101510001AC
:010152000E9E
:010153000BA0
:0101540008A2
:0101550006A3
:0101560004A4
:0101570001A6
:010158000F97
:010159000B9A
:01015A00089C
:01015B00069D
:01015C00059D
:01015D0001A0
:01015E00019F
:01015F000D92
:010160000896
:010161000697
:010162000498
:01016300019A
:010164000E8C
:010165000D8C
:010166000890
:01016700088F
:010168000690
:010169000293
:01016A000292
:01016B000093
:01016C000D85
:01016D000889
:01016E000789
:01016F00038C
:01017000038B
:010171000F7E
:010172000D7F
:010173000B80
:010174000B7F
:010175000881
:010176000484
:010177000186
:010178000284
:010179000B7A
:01017A000B79
:01017B000A79
:01017C00057D
:01017D00027F
:01017E00027E
:01017F00007F
:010180000D71
:010181000B72
:010182000973
:010183000675
:010184000377
:010185000277
:010186000276
:010187000E69
:010188000C6A
:010189000B6A
:01018A00086C
:01018B00066D
:01018C00046E
:01018D00026F
:01018E000F61
:01018F000E61
:010190000D61
:010191000865
:010192000864
:010193000467
:010194000466
:010195000F5A
:010196000E5A
:010197000B5C
:01019800095D
:01019900075E
:01019A00055F
:01019B000261
:01019C000260
:01019D000061
:01019E000E52
:01019F000D52
:0101A0000A54
:0101A1000756
:0101A2000755
:0101A3000358
:0101A4000357
:0101A5000158
:0101A6000C4C
:0101A7000C4B
:0101A800094D
:0101A900074E
:0101AA00084C
:0101AB00054E
:0101AC00044E
:0101AD000150
:0101AE000F41
:0101AF000D42
:0101B0000C42
:0101B1000845
:0101B2000943
:0101B3000744
:0101B4000347
:0101B5000049
:0101B6000048
:0101B7000F38
:0101B8000B3B
:0101B9000C39
:0101BA00073D
:0101BB00083B
:0101BC00053D
:0101BD00053C
:0101BE00013F
:0101BF00013E
:0101C0000C32
:0101C1000E2F
:0101C2000B31
:0101C3000734
:0101C4000832
:0101C5000633
:0101C6000434
:0101C7000334
:0101C8000E28
:0101C9000F26
:0101CA000C28
:0101CB000B28
:0101CC00072B
:0101CD000829
:0101CE00052B
:0101CF00042B
:0101D000032B
:0101D100002D
:0101D2000F1D
:0101D3000E1D
:0101D4000E1C
:0101D5000B1E
:0101D6000B1D
:0101D7000522
:0101D8000521
:0101D9000322
:0101DA000222
:0101DB000F14
:0101DC000F13
:0101DD000E13
:0101DE000D13
:0101DF000B14
:0101E0000717
:0101E1000716
:0101E2000418
:0101E3000219
:0101E400001A
:0101E5000217
:0101E6000E0A
:0101E7000D0A
:0101E8000C0A
:0101E9000B0A
:0101EA00080C
:0101EB00070C
:0101EC00070B
:0101ED00040D
:0101EE00020E
:0101EF00020D
:0101F0000FFF
:0101F1000FFE
:0101F2000B01
:0101F3000B00
:0101F4000802
:0101F5000900
:0101F6000701
:0101F7000502
:0101F8000204
:0101F9000302
:0101FA000103
:0101FB000FF4
:0101FC000DF5
:0101FD000EF3
:0101FE000AF6
:0101FF0009F6
:0102000009F4
:0102010005F7
:0102020004F7
:0102030005F5
:0102040003F6
:0102050001F7
:0102060000F7
:010207000EE8
:010208000CE9
:010209000DE7
:01020A0007EC
:01020B0008EA
:01020C0008E9
:01020D0005EB
:01020E0005EA
:01020F0003EB
:0102100002EB
:0102110001EB
:0102120001EA
:010213000DDD
:010214000BDE
:010215000CDC
:010216000BDC
:0102170008DE
:0102180006DF
:0102190006DE
:01021A0003E0
:01021B0005DD
:01021C0002DF
:01021D0000E0
:01021E000ED1
:01021F0000DE
:010220000BD2
:010221000AD2
:010222000CCF
:010223000AD0
:0102240007D2
:0102250008D0
:0102260005D2
:0102270004D2
:0102280003D2
:0102290000D4
:01022A0002D1
:01022B000EC4
:01022C000EC3
:01022D000FC1
:01022E000CC3
:01022F000BC3
:0102300008C5
:0102310008C4
:0102320007C4
:0102330005C5
:0102340005C4
:0102350003C5
:0102360000C7
:0102370000C6
:0102380000C5
:010239000EB6
:01023A000EB5
:01023B000DB5
:01023C000CB5
:01023D0009B7
:01023E0009B6
:01023F0008B6
:0102400006B7
:0102410003B9
:0102420003B8
:0102430000BA
:0102440003B6
:0102450000B8
:010246000FA8
:010247000DA9
:010248000CA9
:010249000EA6
:01024A000AA9
:01024B0009A9
:01024C0007AA
:01024D0006AA
:01024E0007A8
:01024F0004AA
:0102500004A9
:0102510002AA
:0102520001AA
:010253000F9B
:010254000F9A
:010255000F99
:010256000B9C
:010257000D99
:010258000C99
:010259000A9A
:01025A00089B
:01025B00089A
:01025C00079A
:01025D000799
:01025E00059A
:01025F000599
:01026000039A
:01026100009C
:01026200009B
:01026300009A
:010264000C8D
:010265000C8C
:010266000D8A
:010267000D89
:010268000C89
:01026900088C
:01026A00088B
:01026B00088A
:01026C00068B
:01026D00048C
:01026E00038C
:01026F000589
:01027000028B
:01027100008C
:010272000289
:01027300008A
:010274000089
:010275000C7C
:010276000B7C
:010277000B7B
:010278000B7A
:010279000B79
:01027A00087B
:01027B00087A
:01027C000978
:01027D00067A
:01027E00047B
:01027F000579
:010280000479
:010281000379
:010282000279
:010283000F6B
:010284000F6A
:010285000F69
:010286000E69
:010287000C6A
:010288000D68
:01028900096B
:01028A000B68
:01028B00086A
:01028C000968
:01028D000868
:01028E00056A
:01028F000767
:01029000036A
:010291000567
:010292000368
:010293000367
:010294000267
:010295000E5A
:010296000E59
:010297000D59
:010298000E57
:010299000B59
:01029A000D56
:01029B000A58
:01029C000859
:01029D000858
:01029E000659
:01029F000856
:0102A0000657
:0102A1000755
:0102A2000556
:0102A3000555
:0102A4000257
:0102A5000157
:0102A6000255
:0102A7000056
:0102A8000055
:0102A9000E46
:0102AA000F44
:0102AB000C46
:0102AC000A47
:0102AD000C44
:0102AE000B44
:0102AF000846
:0102B0000944
:0102B1000745
:0102B2000942
:0102B3000644
:0102B4000544
:0102B5000543
:0102B6000443
:0102B7000343
:0102B8000342
:0102B9000341
:0102BA000142
:0102BB000E34
:0102BC000E33
:0102BD000E32
:0102BE000E31
:0102BF000C32
:0102C0000D30
:0102C1000D2F
:0102C2000B30
:0102C3000A30
:0102C4000930
:0102C500092F
:0102C6000730
:0102C700092D
:0102C800072E
:0102C900052F
:0102CA00072C
:0102CB000230
:0102CC00022F
:0102CD00042C
:0102CE00012E
:0102CF00012D
:0102D000022B
:0102D100002C
:0102D2000E1D
:0102D3000E1C
:0102D4000D1C
:0102D5000B1D
:0102D6000D1A
:0102D7000B1B
:0102D800091C
:0102D9000A1A
:0102DA00091A
:0102DB00071B
:0102DC00071A
:0102DD000917
:0102DE000718
:0102DF000618
:0102E0000419
:0102E100021A
:0102E2000417
:0102E3000317
:0102E4000118
:0102E5000117
:0102E6000116
:0102E7000016
:0102E8000015
:0102E9000014
:0102EA000D06
:0102EB000C06
:0102EC000B06
:0102ED000C04
:0102EE000C03
:0102EF000905
:0102F0000C01
:0102F1000705
:0102F2000704
:0102F3000A00
:0102F4000900
:0102F5000602
:0102F6000700
:0102F7000402
:0102F80006FF
:0102F9000301
:0102FA0005FE
:0102FB000101
:0102FC0003FE
:0102FD0002FE
:0102FE0000FF
:0102FF000FEF
:010300000EEE
:010301000EED
:010302000FEB
:010303000EEB
:010304000BED
:010305000DEA
:010306000CEA
:0103070008ED
:010308000AEA
:010309000CE7
:01030A0007EB
:01030B0007EA
:01030C0009E7
:01030D0006E9
:01030E0006E8
:01030F0008E5
:0103100005E7
:0103110006E5
:0103120003E7
:0103130005E4
:0103140002E6
:0103150003E4
:0103160002E4
:0103170001E4
:0103180001E3
:0103190001E2
:01031A000FD3
:01031B000FD2
:01031C000DD3
:01031D000DD2
:01031E000DD1
:01031F000CD1
:010320000AD2
:010321000BD0
:0103220009D1
:010323000ACF
:0103240009CF
:0103250009CE
:0103260008CE
:0103270009CC
:0103280007CD
:0103290008CB
:01032A0004CE
:01032B0006CB
:01032C0003CD
:01032D0004CB
:01032E0003CB
:01032F0002CB
:0103300001CB
:0103310001CA
:0103320003C7
:0103330001C8
:0103340001C7
:010335000FB8
:0103360000C6
:010337000EB7
:010338000FB5
:010339000EB5
:01033A000DB5
:01033B000DB4
:01033C000AB6
:01033D000CB3
:01033E000CB2
:01033F0009B4
:0103400008B4
:0103410009B2
:010342000AB0
:0103430009B0
:0103440008B0
:0103450008AF
:0103460007AF
:0103470008AD
:0103480005AF
:0103490005AE
:01034A0005AD
:01034B0002AF
:01034C0003AD
:01034D0003AC
:01034E0002AC
:01034F0000AD
:0103500001AB
:0103510002A9
:0103520001A9
:010353000F9A
:010354000F99
:010355000F98
:010356000E98
:010357000D98
:010358000D97
:010359000E95
:01035A000D95
:01035B000B96
:01035C000D93
:01035D000996
:01035E000A94
:01035F000B92
:010360000894
:010361000B90
:010362000991
:010363000792
:010364000791
:01036500098E
:010366000690
:010367000590
:01036800068E
:01036900048F
:01036A00078B
:01036B00048D
:01036C00058B
:01036D00048B
:01036E00018D
:01036F000489
:01037000028A
:01037100008B
:010372000189
:010373000188
:010374000187
:010375000186
:010376000E78
:010377000085
:010378000D77
:010379000083
:01037A000E74
:01037B000B76
:01037C000E72
:01037D000B74
:01037E000B73
:01037F000B72
:010380000A72
:010381000A71
:010382000B6F
:010383000970
:010384000771
:010385000B6C
:010386000670
:01038700076E
:01038800066E
:01038900066D
:01038A00056D
:01038B00046D
:01038C00056B
:01038D00036C
:01038E000569
:01038F000568
:01039000026A
:010391000269
:01039200006A
:010393000168
:010394000068
:010395000265
:010396000066
:010397000263
:010398000163
:010399000F54
:01039A000062
:01039B000F52
:01039C000E52
:01039D000D52
:01039E000E50
:01039F000C51
:0103A0000C50
:0103A1000C4F
:0103A2000B4F
:0103A3000A4F
:0103A4000C4C
:0103A5000B4C
:0103A6000A4C
:0103A7000A4B
:0103A8000B49
:0103A900084B
:0103AA000A48
:0103AB000948
:0103AC000749
:0103AD000847
:0103AE000549
:0103AF000845
:0103B0000547
:0103B1000645
:0103B2000545
:0103B3000643
:0103B4000345
:0103B5000344
:0103B6000541
:0103B7000342
:0103B8000341
:0103B9000142
:0103BA00033F
:0103BB00033E
:0103BC00033D
:0103BD00013E
:0103BE00023C
:0103BF000F2E
:0103C0000F2D
:0103C1000F2C
:0103C2000F2B
:0103C3000D2C
:0103C4000E2A
:0103C5000E29
:0103C6000E28
:0103C7000C29
:0103C8000F25
:0103C9000F24
:0103CA000D25
:0103CB000D24
:0103CC000B25
:0103CD000926
:0103CE000B23
:0103CF000B22
:0103D0000923
:0103D1000A21
:0103D2000A20
:0103D3000821
:0103D4000A1E
:0103D500091E
:0103D600081E
:0103D700071E
:0103D800081C
:0103D900081B
:0103DA00051D
:0103DB00061B
:0103DC000719
:0103DD000619
:0103DE000618
:0103DF000518
:0103E0000418
:0103E1000417
:0103E2000515
:0103E3000316
:0103E4000216
:0103E5000413
:0103E6000412
:0103E7000213
:0103E8000113
:0103E9000310
:0103EA000012
:0103EB000110
:0103EC000010
:0103ED00020D
:0103EE000E00
:0103EF000FFE
:0103F000010B
:0103F1000EFD
:0103F2000FFB
:0103F3000CFD
:0103F4000DFB
:0103F5000CFB
:0103F6000DF9
:0103F7000EF7
:0103F8000AFA
:0103F9000BF8
:0103FA000DF5
:0103FB000AF7
:0103FC000DF3
:0103FD000CF3
:0103FE000AF4
:0103FF000AF3
:0104000006F5
:0104010001F9
:010402000BEE
:0104030005F3
:010404000EE9
:0104050008EE
:0104060001F4
:010407000DE7
:0104080006ED
:010409000FE3
:01040A000BE6
:01040B0004EC
:01040C000EE1
:01040D0009E5
:01040E0003EA
:01040F000DDF
:0104100007E4
:0104110002E8
:010412000BDE
:0104130006E2
:0104140000E7
:010415000ADC
:0104160005E0
:010417000FD5
:0104180009DA
:0104190003DF
:01041A000FD2
:01041B0009D7
:01041C0003DC
:01041D000ED0
:01041E0008D5
:01041F0005D7
:010420000FCC
:0104210008D2
:0104220003D6
:010423000ECA
:0104240009CE
:0104250004D2
:010426000FC6
:0104270009CB
:0104280004CF
:010429000FC3
:01042A000AC7
:01042B0004CC
:01042C000FC0
:01042D000AC4
:01042E0005C8
:01042F0001CB
:010430000BC0
:0104310006C4
:0104320002C7
:010433000DBB
:0104340009BE
:0104350003C3
:010436000EB7
:0104370009BB
:0104380005BE
:010439000FB3
:01043A000CB5
:01043B0007B9
:01043C0002BD
:01043D000DB1
:01043E0009B4
:01043F0005B7
:010440000FAC
:010441000BAF
:0104420006B3
:0104430002B6
:010444000DAA
:0104450008AE
:0104460005B0
:010447000FA5
:010448000BA8
:0104490006AC
:01044A0002AF
:01044B000DA3
:01044C000AA5
:01044D0006A8
:01044E0001AC
:01044F000CA0
:0104500009A2
:0104510005A5
:0104520001A8
:010453000C9C
:01045400089F
:0104550004A2
:010456000F96
:010457000B99
:01045800089B
:01045900039F
:01045A000F92
:01045B000A96
:01045C000897
:01045D00039B
:01045E000F8E
:01045F000C90
:010460000794
:010461000397
:010462000E8B
:010463000C8C
:010464000790
:010465000294
:010466000F86
:010467000B89
:01046800098A
:01046900048E
:01046A000190
:01046B000D83
:01046C000986
:01046D000589
:01046E00018C
:01046F000D7F
:010470000A81
:010471000684
:010472000188
:010473000F79
:010474000C7B
:01047500077F
:010476000481
:010477000183
:010478000D76
:010479000979
:01047A00077A
:01047B00027E
:01047C000F70
:01047D000B73
:01047E000776
:01047F000478
:01048000007B
:010481000E6C
:010482000A6F
:010483000672
:010484000374
:010485000076
:010486000C69
:01048700096B
:01048800066D
:01048900036F
:01048A000F62
:01048B000C64
:01048C000867
:01048D000668
:01048E00026B
:01048F000F5D
:010490000C5F
:010491000862
:010492000564
:010493000266
:010494000E59
:010495000B5B
:010496000A5B
:01049700055F
:010498000360
:010499000F53
:01049A000D54
:01049B000957
:01049C000659
:01049D00045A
:01049E000F4E
:01049F000D4F
:0104A0000A51
:0104A1000753
:0104A2000554
:0104A3000256
:0104A4000E49
:0104A5000B4B
:0104A600094C
:0104A700064E
:0104A800044F
:0104A9000052
:0104AA000D44
:0104AB000B45
:0104AC000847
:0104AD00044A
:0104AE00024B
:0104AF000F3D
:0104B0000C3F
:0104B1000941
:0104B2000742
:0104B3000345
:0104B4000146
:0104B5000D39
:0104B6000B3A
:0104B7000A3A
:0104B800063D
:0104B900043E
:0104BA000140
:0104BB000E32
:0104BC000B34
:0104BD000836
:0104BE000637
:0104BF000339
:0104C000013A
:0104C1000F2B
:0104C2000C2D
:0104C300092F
:0104C4000730
:0104C5000432
:0104C6000233
:0104C7000034
:0104C8000D26
:0104C9000929
:0104CA000829
:0104CB00052B
:0104CC00022D
:0104CD00002E
:0104CE000D20
:0104CF000B21
:0104D0000922
:0104D1000624
:0104D2000425
:0104D3000127
:0104D4000F18
:0104D5000D19
:0104D6000A1B
:0104D700081C
:0104D800061D
:0104D900031F
:0104DA00021F
:0104DB000F11
:0104DC000C13
:0104DD000A14
:0104DE000815
:0104DF000517
:0104E0000417
:0104E1000119
:0104E2000F0A
:0104E3000C0C
:0104E4000A0D
:0104E500070F
:0104E600060F
:0104E7000410
:0104E8000112
:0104E9000F03
:0104EA000D04
:0104EB000B05
:0104EC000807
:0104ED000707
:0104EE000409
:0104EF00010B
:0104F000000B
:0104F1000EFC
:0104F2000BFE
:0104F3000AFE
:0104F4000601
:0104F5000501
:0104F6000401
:0104F7000103
:0104F8000FF4
:0104F9000CF6
:0104FA000BF6
:0104FB0009F7
:0104FC0007F8
:0104FD0004FA
:0104FE0004F9
:0104FF0000FC
:010500000EEC
:010501000DEC
:010502000BED
:010503000AED
:0105040006F0
:0105050005F0
:0105060003F1
:0105070001F2
:010508000FE3
:010509000CE5
:01050A000BE5
:01050B0009E6
:01050C0006E8
:01050D0005E8
:01050E0004E8
:01050F0000EB
:0105100000EA
:010511000EDB
:010512000CDC
:010513000ADD
:0105140008DE
:0105150006DF
:0105160004E0
:0105170002E1
:0105180000E2
:010519000FD2
:01051A000CD4
:01051B000AD5
:01051C0009D5
:01051D0008D5
:01051E0006D6
:01051F0004D7
:0105200002D8
:0105210000D9
:010522000ECA
:010523000CCB
:010524000BCB
:0105250009CC
:0105260008CC
:0105270007CC
:0105280004CE
:0105290003CE
:01052A0000D0
:01052B000FC0
:01052C000DC1
:01052D000CC1
:01052E0009C3
:01052F0008C3
:0105300007C3
:0105310006C3
:0105320003C5
:0105330003C4
:010534000FB7
:010535000FB6
:010536000CB8
:010537000BB8
:010538000AB8
:0105390008B9
:01053A0006BA
:01053B0004BB
:01053C0003BB
:01053D0001BC
:01053E000FAD
:01053F000EAD
:010540000EAC
:010541000CAD
:0105420009AF
:0105430008AF
:0105440007AF
:0105450005B0
:0105460004B0
:0105470003B0
:0105480001B1
:010549000FA2
:01054A000EA2
:01054B000CA3
:01054C000AA4
:01054D0009A4
:01054E0007A5
:01054F0005A6
:0105500004A6
:0105510003A6
:0105520001A7
:010553000F98
:010554000F97
:010555000D98
:010556000C98
:010557000B98
:01055800089A
:01055900079A
:01055A00069A
:01055B00059A
:01055C00039B
:01055D00039A
:01055E00019B
:01055F000E8D
:010560000E8C
:010561000D8C
:010562000C8C
:010563000A8D
:01056400098D
:01056500068F
:01056600058F
:01056700048F
:010568000290
:01056900028F
:01056A000090
:01056B000E81
:01056C000D81
:01056D000C81
:01056E000A82
:01056F000982
:010570000981
:010571000782
:010572000583
:010573000384
:010574000383
:010575000184
:010576000084
:010577000083
:010578000D75
:010579000C75
:01057A000B75
:01057B000A75
:01057C000975
:01057D000875
:01057E000775
:01057F000576
:010580000377
:010581000277
:010582000177
:010583000077
:010584000076
:010585000D68
:010586000C68
:010587000C67
:010588000B67
:010589000968
:01058A000769
:01058B000768
:01058C000668
:01058D000469
:01058E00026A
:01058F000269
:01059000006A
:010591000069
:010592000F59
:010593000E59
:010594000C5A
:010595000B5A
:010596000A5A
:01059700095A
:01059800085A
:01059900075A
:01059A00055B
:01059B00055A
:01059C00025C
:01059D00035A
:01059E00015B
:01059F000F4C
:0105A0000E4C
:0105A1000E4B
:0105A2000D4B
:0105A3000B4C
:0105A4000B4B
:0105A500094C
:0105A600074D
:0105A700074C
:0105A800064C
:0105A900054C
:0105AA00044C
:0105AB00034C
:0105AC00024C
:0105AD00004D
:0105AE00004C
:0105AF000F3C
:0105B0000D3D
:0105B1000D3C
:0105B2000B3D
:0105B3000B3C
:0105B400083E
:0105B500083D
:0105B600073D
:0105B700063D
:0105B800053D
:0105B900043D
:0105BA00033D
:0105BB00023D
:0105BC00013D
:0105BD00003D
:0105BE00003C
:0105BF000E2D
:0105C0000D2D
:0105C1000C2D
:0105C2000A2E
:0105C3000B2C
:0105C400092D
:0105C500092C
:0105C600072D
:0105C700072C
:0105C800062C
:0105C900052C
:0105CA00042C
:0105CB00032C
:0105CC00022C
:0105CD00012C
:0105CE00002C
:0105CF000E1D
:0105D0000D1D
:0105D1000E1B
:0105D2000D1B
:0105D3000C1B
:0105D4000B1B
:0105D5000A1B
:0105D600081C
:0105D700071C
:0105D800071B
:0105D900061B
:0105DA00051B
:0105DB00041B
:0105DC00041A
:0105DD00021B
:0105DE00011B
:0105DF00001B
:0105E0000F0B
:0105E1000F0A
:0105E2000E0A
:0105E3000D0A
:0105E4000C0A
:0105E5000B0A
:0105E6000B09
:0105E7000A09
:0105E800080A
:0105E9000908
:0105EA000709
:0105EB000708
:0105EC000509
:0105ED000409
:0105EE000408
:0105EF000407
:0105F0000208
:0105F1000009
:0105F2000008
:0105F3000FF8
:0105F4000FF7
:0105F5000EF7
:0105F6000EF6
:0105F7000CF7
:0105F8000BF7
:0105F9000BF6
:0105FA0009F7
:0105FB0009F6
:0105FC0009F5
:0105FD0008F5
:0105FE0006F6
:0105FF0006F5
:0106000004F5
:0106010005F3
:0106020004F3
:0106030002F4
:0106040003F2
:0106050001F3
:0106060000F3
:0106070001F1
:010608000EE3
:010609000DE3
:01060A000CE3
:01060B000DE1
:01060C000BE2
:01060D000BE1
:01060E0009E2
:01060F000AE0
:0106100008E1
:0106110008E0
:0106120007E0
:0106130007DF
:0106140005E0
:0106150006DE
:0106160004DF
:0106170005DD
:0106180003DE
:0106190001DF
:01061A0001DE
:01061B0001DD
:01061C0000DD
:01061D000FCD
:01061E000FCC
:01061F000DCD
:010620000DCC
:010621000CCC
:010622000BCC
:010623000BCB
:010624000BCA
:010625000ACA
:0106260009CA
:0106270008CA
:0106280007CA
:0106290006CA
:01062A0006C9
:01062B0005C9
:01062C0005C8
:01062D0004C8
:01062E0003C8
:01062F0002C8
:0106300001C8
:0106310001C7
:0106320000C7
:010633000FB7
:010634000FB6
:010635000EB6
:010636000EB5
:010637000DB5
:010638000CB5
:010639000CB4
:01063A000BB4
:01063B000BB3
:01063C000AB3
:01063D0009B3
:01063E0008B3
:01063F0009B1
:0106400007B2
:0106410006B2
:0106420005B2
:0106430005B1
:0106440005B0
:0106450004B0
:0106460003B0
:0106470003AF
:0106480003AE
:0106490002AE
:01064A0001AE
:01064B0000AE
:01064C0000AD
:01064D000F9D
:01064E000E9D
:01064F000E9C
:010650000D9C
:010651000C9C
:010652000D9A
:010653000C9A
:010654000B9A
:010655000A9A
:010656000A99
:010657000999
:010658000998
:010659000799
:01065A000798
:01065B000797
:01065C000697
:01065D000597
:01065E000596
:01065F000595
:010660000396
:010661000395
:010662000394
:010663000294
:010664000194
:010665000094
:010666000093
:010667000092
:010668000091
:010669000E82
:01066A000E81
:01066B000E80
:01066C000D80
:01066D000D7F
:01066E000C7F
:01066F000C7E
:010670000B7E
:010671000A7E
:010672000A7D
:01067300097D
:01067400087D
:01067500087C
:01067600087B
:01067700087A
:01067800057C
:01067900067A
:01067A000679
:01067B00047A
:01067C000479
:01067D000577
:01067E000477
:01067F000377
:010680000277
:010681000276
:010682000077
:010683000076
:010684000F66
:010685000074
:010686000073
:010687000E64
:010688000E63
:010689000E62
:01068A000C63
:01068B000D61
:01068C000D60
:01068D000C60
:01068E000A61
:01068F000B5F
:010690000A5F
:01069100095F
:010692000A5D
:01069300085E
:01069400085D
:01069500085C
:01069600075C
:01069700065C
:01069800065B
:01069900055B
:01069A00055A
:01069B00045A
:01069C000459
:01069D000458
:01069E000259
:01069F000357
:0106A0000257
:0106A1000256
:0106A2000255
:0106A3000155
:0106A4000F46
:0106A5000F45
:0106A6000053
:0106A7000F43
:0106A8000F42
:0106A9000E42
:0106AA000D42
:0106AB000C42
:0106AC000C41
:0106AD000C40
:0106AE000C3F
:0106AF000A40
:0106B0000B3E
:0106B1000B3D
:0106B2000A3D
:0106B3000A3C
:0106B400093C
:0106B500093B
:0106B600083B
:0106B700073B
:0106B800073A
:0106B9000739
:0106BA000738
:0106BB000638
:0106BC000637
:0106BD000537
:0106BE000437
:0106BF000436
:0106C0000336
:0106C1000434
:0106C2000334
:0106C3000234
:0106C4000332
:0106C5000133
:0106C6000033
:0106C7000032
:0106C8000130
:0106C9000030
:0106CA000F20
:0106CB000F1F
:0106CC000E1F
:0106CD000E1E
:0106CE000E1D
:0106CF000E1C
:0106D0000D1C
:0106D1000C1C
:0106D2000D1A
:0106D3000C1A
:0106D4000B1A
:0106D5000B19
:0106D6000B18
:0106D7000919
:0106D8000A17
:0106D9000917
:0106DA000916
:0106DB000816
:0106DC000716
:0106DD000715
:0106DE000813
:0106DF000713
:0106E0000712
:0106E1000711
:0106E2000611
:0106E3000511
:0106E400060F
:0106E5000410
:0106E600040F
:0106E700040E
:0106E800030E
:0106E900020E
:0106EA00030C
:0106EB00030B
:0106EC00020B
:0106ED00020A
:0106EE00000B
:0106EF000109
:0106F0000FFA
:0106F1000107
:0106F2000FF8
:0106F3000EF8
:0106F4000FF6
:0106F5000EF6
:0106F6000EF5
:0106F7000DF5
:0106F8000EF3
:0106F9000CF4
:0106FA000CF3
:0106FB000DF1
:0106FC000CF1
:0106FD000CF0
:0106FE000BF0
:0106FF000BEF
:010700000AEE
:010701000BEC
:0107020009ED
:0107030009EC
:0107040008EC
:010705000AE9
:0107060009E9
:0107070008E9
:0107080007E9
:0107090007E8
:01070A0006E8
:01070B0007E6
:01070C0006E6
:01070D0006E5
:01070E0005E5
:01070F0004E5
:0107100005E3
:0107110004E3
:0107120004E2
:0107130004E1
:0107140003E1
:0107150003E0
:0107160003DF
:0107170003DE
:0107180001DF
:0107190002DD
:01071A0001DD
:01071B0002DB
:01071C0002DA
:01071D0001DA
:01071E000FCB
:01071F0000D9
:0107200000D8
:010721000EC9
:010722000FC7
:010723000EC7
:010724000DC7
:010725000DC6
:010726000EC4
:010727000DC4
:010728000DC3
:010729000DC2
:01072A000BC3
:01072B000BC2
:01072C000BC1
:01072D000AC1
:01072E000AC0
:01072F000ABF
:010730000BBD
:010731000ABD
:010732000ABC
:010733000ABB
:0107340009BB
:0107350008BB
:0107360009B9
:0107370009B8
:0107380008B8
:0107390008B7
:01073A0007B7
:01073B0008B5
:01073C0007B5
:01073D0007B4
:01073E0006B4
:01073F0005B4
:0107400005B3
:0107410005B2
:0107420004B2
:0107430004B1
:0107440004B0
:0107450005AE
:0107460004AE
:0107470003AE
:0107480002AE
:0107490002AD
:01074A0002AC
:01074B0003AA
:01074C0002AA
:01074D0001AA
:01074E0001A9
:01074F0002A7
:0107500001A7
:0107510001A6
:0107520001A5
:010753000F96
:010754000F95
:0107550000A3
:010756000E94
:010757000F92
:010758000E92
:010759000E91
:01075A000D91
:01075B000D90
:01075C000E8E
:01075D000D8E
:01075E000D8D
:01075F000C8D
:010760000C8C
:010761000C8B
:010762000D89
:010763000B8A
:010764000A8A
:010765000B88
:010766000A88
:010767000A87
:010768000987
:010769000A85
:01076A000A84
:01076B000984
:01076C000983
:01076D000883
:01076E000981
:01076F000782
:010770000880
:01077100087F
:01077200077F
:01077300087D
:01077400077D
:01077500077C
:01077600057D
:01077700057C
:01077800057B
:010779000679
:01077A000678
:01077B000677
:01077C000478
:01077D000477
:01077E000377
:01077F000475
:010780000474
:010781000374
:010782000373
:010783000372
:010784000272
:010785000370
:01078600036F
:01078700026F
:01078800036D
:01078900026D
:01078A00016D
:01078B00016C
:01078C00006C
:01078D00016A
:01078E00006A
:01078F000168
:010790000068
:010791000067
:010792000F57
:010793000F56
:010794000E56
:010795000F54
:010796000E54
:010797000E53
:010798000E52
:010799000D52
:01079A000D51
:01079B000D50
:01079C000D4F
:01079D000D4E
:01079E000C4E
:01079F000D4C
:0107A0000D4B
:0107A1000B4C
:0107A2000C4A
:0107A3000B4A
:0107A4000B49
:0107A5000A49
:0107A6000B47
:0107A7000A47
:0107A8000A46
:0107A9000A45
:0107AA000B43
:0107AB000A43
:0107AC000943
:0107AD000843
:0107AE000A40
:0107AF000940
:0107B000093F
:0107B100093E
:0107B200083E
:0107B300093C
:0107B400073D
:0107B500063D
:0107B600083A
:0107B700063B
:0107B800063A
:0107B9000639
:0107BA000638
:0107BB000538
:0107BC000537
:0107BD000635
:0107BE000634
:0107BF000534
:0107C0000632
:0107C1000532
:0107C2000333
:0107C3000431
:0107C400052F
:0107C500052E
:0107C600042E
:0107C700042D
:0107C800032D
:0107C900032C
:0107CA00022C
:0107CB00032A
:0107CC00022A
:0107CD000328
:0107CE000129
:0107CF000227
:0107D0000226
:0107D1000126
:0107D2000125
:0107D3000025
:0107D4000024
:0107D5000122
:0107D6000121
:0107D7000F12
:0107D8000020
:0107D900001F
:0107DA000F0F
:0107DB000F0E
:0107DC00001C
:0107DD000E0D
:0107DE000F0B
:0107DF000F0A
:0107E0000E0A
:0107E1000F08
:0107E2000E08
:0107E3000E07
:0107E4000D07
:0107E5000D06
:0107E6000E04
:0107E7000D04
:0107E8000C04
:0107E9000E01
:0107EA000C02
:0107EB000D00
:0107EC000C00
:0107ED000CFF
:0107EE000BFF
:0107EF000CFD
:0107F0000CFC
:0107F1000CFB
:0107F2000AFC
:0107F3000BFA
:0107F4000BF9
:0107F5000AF9
:0107F6000BF7
:0107F7000AF7
:0107F8000BF5
:0107F90009F6
:0107FA000AF4
:0107FB0009F4
:0107FC0009F3
:0107FD000AF1
:0107FE0008F2
:0107FF0008F1
:00000001ff
