:020000040000FA
:010000000DF2
:010001000BF3
:0100020001FC
:0100030002FA
:0100040005F6
:010005000FEB
:0100060007F2
:0100070005F3
:0100080003F4
:010009000BEB
:01000A0008ED
:01000B0005EF
:01000C0001F2
:01000D0009E9
:01000E000DE4
:01000F000DE3
:0100100009E6
:0100110004EA
:0100120002EB
:0100130005E7
:0100140004E7
:0100150004E6
:010016000CDD
:0100170004E4
:0100180005E2
:0100190009DD
:01001A000BDA
:01001B0005DF
:01001C0006DD
:01001D000AD8
:01001E0001E0
:01001F0008D8
:0100200002DD
:010021000FCF
:0100220001DC
:010023000CD0
:0100240003D8
:010025000CCE
:010026000CCD
:010027000ACE
:010028000EC9
:0100290000D6
:01002A000ACB
:01002B0005CF
:01002C000EC5
:01002D0000D2
:01002E0009C8
:01002F0005CB
:0100300004CB
:0100310005C9
:0100320008C5
:0100330000CC
:010034000DBE
:0100350004C6
:0100360007C2
:010037000BBD
:0100380007C0
:010039000FB7
:01003A000CB9
:01003B0006BE
:01003C0005BE
:01003D0002C0
:01003E0009B8
:01003F0005BB
:0100400001BE
:010041000BB3
:0100420001BC
:0100430001BB
:010044000AB1
:010045000CAE
:0100460009B0
:0100470002B6
:010048000AAD
:0100490004B2
:01004A0004B1
:01004B000FA5
:01004C000BA8
:01004D000DA5
:01004E000EA3
:01004F0006AA
:010050000CA3
:010051000BA3
:010052000DA0
:010053000D9F
:0100540006A5
:0100550006A4
:0100560009A0
:010057000E9A
:0100580003A4
:01005900089E
:01005A000D98
:01005B0003A1
:01005C000C97
:01005D000B97
:01005E00029F
:01005F00059B
:010060000A95
:010061000599
:010062000D90
:010063000894
:010064000D8E
:010065000694
:010066000B8E
:010067000692
:010068000097
:010069000690
:01006A000293
:01006B000193
:01006C000192
:01006D000F83
:01006E000988
:01006F000F81
:01007000008F
:010071000D81
:010072000885
:01007300028A
:010074000D7E
:010075000E7C
:010076000782
:010077000D7B
:010078000681
:01007900087E
:01007A00087D
:01007B000F75
:01007C000380
:01007D000E74
:01007E000879
:01007F000C74
:01008000037C
:010081000975
:010082000A73
:01008300017B
:010084000C6F
:010085000971
:010086000574
:010087000F69
:010088000770
:010089000D69
:01008A000273
:01008B00066E
:01008C000D66
:01008D00086A
:01008E000A67
:01008F000868
:010090000669
:010091000866
:010092000568
:010093000369
:010094000764
:010095000A60
:010096000465
:010097000D5B
:010098000F58
:010099000264
:01009A000263
:01009B00095B
:01009C000360
:01009D000C56
:01009E000061
:01009F000E52
:0100A000015E
:0100A1000A54
:0100A2000657
:0100A3000557
:0100A4000853
:0100A5000F4B
:0100A6000B4E
:0100A7000E4A
:0100A8000A4D
:0100A9000254
:0100AA00094C
:0100AB000450
:0100AC00074C
:0100AD00074B
:0100AE000948
:0100AF00044C
:0100B0000E41
:0100B1000F3F
:0100B2000F3E
:0100B3000547
:0100B4000A41
:0100B5000842
:0100B6000940
:0100B7000741
:0100B8000E39
:0100B900073F
:0100BA000144
:0100BB00063E
:0100BC00053E
:0100BD000A38
:0100BE00043D
:0100BF00013F
:0100C000013E
:0100C100023C
:0100C2000637
:0100C3000C30
:0100C4000734
:0100C5000634
:0100C6000E2B
:0100C7000F29
:0100C8000E29
:0100C9000E28
:0100CA000332
:0100CB000232
:0100CC000F24
:0100CD000131
:0100CE000D24
:0100CF000B25
:0100D000002F
:0100D1000529
:0100D200022B
:0100D3000F1D
:0100D4000526
:0100D5000E1C
:0100D6000326
:0100D7000F19
:0100D8000D1A
:0100D900071F
:0100DA000B1A
:0100DB000420
:0100DC000F14
:0100DD000919
:0100DE000021
:0100DF00021E
:0100E0000D12
:0100E100011D
:0100E2000D10
:0100E300011B
:0100E4000E0D
:0100E5000317
:0100E6000415
:0100E7000117
:0100E8000C0B
:0100E900090D
:0100EA000A0B
:0100EB000212
:0100EC00070C
:0100ED000C06
:0100EE00060B
:0100EF000B05
:0100F000000F
:0100F1000B03
:0100F200030A
:0100F3000FFD
:0100F4000704
:0100F5000109
:0100F6000801
:0100F7000305
:0100F8000BFC
:0100F9000BFB
:0100FA000BFA
:0100FB0007FD
:0100FC000AF9
:0100FD000EF4
:0100FE000001
:0100FF000BF5
:010100000CF2
:0101010000FD
:0101020004F8
:0101030006F5
:0101040004F6
:010105000DEC
:010106000FE9
:010107000AED
:010108000EE8
:010109000BEA
:01010A0001F3
:01010B0002F1
:01010C000EE4
:01010D0008E9
:01010E0002EE
:01010F000EE1
:010110000EE0
:0101110008E5
:010112000DDF
:0101130003E8
:010114000EDC
:0101150002E7
:0101160005E3
:010117000CDB
:010118000FD7
:0101190002E3
:01011A000DD7
:01011B0006DD
:01011C0007DB
:01011D0005DC
:01011E000BD5
:01011F000FD0
:010120000CD2
:010121000BD2
:0101220006D6
:0101230006D5
:0101240006D4
:0101250001D8
:0101260003D5
:0101270007D0
:0101280008CE
:0101290004D1
:01012A0007CD
:01012B000EC5
:01012C0007CB
:01012D000EC3
:01012E0003CD
:01012F0004CB
:010130000FBF
:0101310004C9
:0101320003C9
:010133000BC0
:010134000CBE
:0101350008C1
:010136000EBA
:0101370001C6
:0101380002C4
:0101390003C2
:01013A0006BE
:01013B000DB6
:01013C000DB5
:01013D0008B9
:01013E0002BE
:01013F000FB0
:0101400003BB
:0101410003BA
:0101420004B8
:010143000BB0
:010144000EAC
:0101450004B5
:0101460001B7
:010147000EA9
:0101480001B5
:0101490001B4
:01014A0006AE
:01014B0009AA
:01014C0000B2
:01014D0006AB
:01014E0002AE
:01014F000FA0
:0101500005A9
:010151000F9E
:0101520007A5
:0101530007A4
:010154000B9F
:010155000D9C
:01015600099F
:010157000B9C
:010158000F97
:0101590002A3
:01015A000F95
:01015B00059E
:01015C0000A2
:01015D000E93
:01015E000D93
:01015F000C93
:010160000995
:01016100039A
:010162000993
:010163000A91
:010164000793
:010165000F8A
:010166000395
:010167000493
:010168000294
:010169000F86
:01016A000D87
:01016B000C87
:01016C000191
:01016D000C85
:01016E00018F
:01016F00028D
:01017000048A
:010171000984
:010172000686
:010173000F7C
:010174000882
:010175000683
:010176000F79
:010177000681
:010178000383
:010179000B7A
:01017A000480
:01017B00057E
:01017C00047E
:01017D000978
:01017E000B75
:01017F00017E
:01018000037B
:010181000A73
:010182000D6F
:010183000675
:010184000D6D
:010185000C6D
:010186000D6B
:01018700086F
:01018800086E
:01018900086D
:01018A000272
:01018B000073
:01018C000F63
:01018D000869
:01018E000967
:01018F000D62
:010190000F5F
:010191000E5F
:010192000468
:01019300006B
:010194000E5C
:010195000C5D
:010196000860
:010197000F58
:010198000165
:010199000B5A
:01019A000C58
:01019B000360
:01019C000062
:01019D00035E
:01019E000A56
:01019F000659
:0101A0000757
:0101A1000E4F
:0101A2000C50
:0101A3000259
:0101A4000159
:0101A5000A4F
:0101A6000F49
:0101A7000354
:0101A800084E
:0101A9000055
:0101AA000D47
:0101AB00044F
:0101AC00074B
:0101AD000A47
:0101AE00014F
:0101AF000F40
:0101B0000846
:0101B100034A
:0101B200024A
:0101B3000A41
:0101B4000248
:0101B5000F3A
:0101B6000642
:0101B7000C3B
:0101B800093D
:0101B9000342
:0101BA000044
:0101BB00063D
:0101BC000E34
:0101BD000E33
:0101BE000E32
:0101BF000639
:0101C0000D31
:0101C1000C31
:0101C2000C30
:0101C3000437
:0101C4000E2C
:0101C5000336
:0101C6000D2B
:0101C7000433
:0101C8000333
:0101C9000431
:0101CA000133
:0101CB00042F
:0101CC00082A
:0101CD000829
:0101CE000030
:0101CF000A25
:0101D000022C
:0101D100032A
:0101D2000B21
:0101D3000526
:0101D4000D1D
:0101D5000128
:0101D6000C1C
:0101D7000D1A
:0101D8000026
:0101D9000421
:0101DA000420
:0101DB000122
:0101DC00071B
:0101DD00061B
:0101DE000B15
:0101DF000619
:0101E0000519
:0101E1000815
:0101E2000E0E
:0101E3000714
:0101E4000218
:0101E5000118
:0101E6000117
:0101E7000611
:0101E8000E08
:0101E9000B0A
:0101EA000E06
:0101EB00080B
:0101EC000B07
:0101ED000809
:0101EE00010F
:0101EF000807
:0101F000000E
:0101F1000B02
:0101F2000C00
:0101F3000506
:0101F4000901
:0101F5000DFC
:0101F6000206
:0101F7000EF9
:0101F8000402
:0101F90007FE
:0101FA000DF7
:0101FB0009FA
:0101FC000002
:0101FD0007FA
:0101FE0004FC
:0101FF000BF4
:0102000001FC
:010201000DEF
:0102020003F8
:010203000BEF
:010204000AEF
:0102050007F1
:0102060007F0
:0102070003F3
:0102080000F5
:0102090006EE
:01020A000CE7
:01020B000AE8
:01020C0008E9
:01020D000CE4
:01020E0000EF
:01020F000BE3
:0102100006E7
:0102110009E3
:010212000EDD
:010213000DDD
:010214000FDA
:010215000DDB
:0102160002E5
:0102170007DF
:0102180005E0
:0102190007DD
:01021A0006DD
:01021B000ED4
:01021C0009D8
:01021D0002DE
:01021E0003DC
:01021F0007D7
:010220000BD2
:0102210009D3
:010222000DCE
:0102230003D7
:0102240006D3
:0102250003D5
:0102260007D0
:010227000DC9
:0102280003D2
:0102290005CF
:01022A0000D3
:01022B0002D0
:01022C0007CA
:01022D000EC2
:01022E0004CB
:01022F0007C7
:0102300004C9
:010231000BC1
:0102320009C2
:010233000DBD
:0102340005C4
:0102350002C6
:0102360000C7
:0102370001C5
:0102380003C2
:0102390005BF
:01023A0008BB
:01023B000AB8
:01023C000EB3
:01023D0001BF
:01023E0005BA
:01023F000BB3
:0102400002BB
:010241000CB0
:0102420009B2
:010243000CAE
:0102440005B4
:0102450005B3
:010246000FA8
:0102470003B3
:0102480005B0
:0102490005AF
:01024A0007AC
:01024B000DA5
:01024C0009A8
:01024D000EA2
:01024E000FA0
:01024F000F9F
:0102500001AC
:0102510009A3
:0102520009A2
:0102530007A3
:0102540004A5
:0102550006A2
:0102560001A6
:01025700089E
:0102580001A4
:010259000F95
:01025A00089B
:01025B0001A1
:01025C000D94
:01025D00039D
:01025E000897
:01025F00029C
:010260000598
:010261000894
:01026200019A
:010263000595
:010264000B8E
:010265000A8E
:010266000790
:010267000A8C
:01026800098C
:010269000B89
:01026A00078C
:01026B00048E
:01026C000B86
:01026D00018F
:01026E00008F
:01026F000E80
:010270000489
:010271000A82
:010272000883
:010273000684
:010274000D7C
:010275000682
:01027600097E
:010277000F77
:010278000184
:010279000A7A
:01027A000083
:01027B000082
:01027C000180
:01027D000E72
:01027E00017E
:01027F00037B
:010280000F6E
:010281000F6D
:010282000E6D
:010283000674
:010284000376
:010285000D6B
:010286000275
:010287000B6B
:010288000570
:010289000A6A
:01028A00066D
:01028B00056D
:01028C00026F
:01028D000A66
:01028E000867
:01028F000965
:010290000964
:010291000468
:010292000764
:010293000F5B
:010294000960
:010295000167
:010296000463
:010297000165
:010298000362
:01029900095B
:01029A000162
:01029B00085A
:01029C000B56
:01029D000A56
:01029E00015E
:01029F00005E
:0102A0000459
:0102A1000D4F
:0102A2000853
:0102A3000555
:0102A4000257
:0102A5000F49
:0102A6000A4D
:0102A7000353
:0102A800094C
:0102A9000C48
:0102AA000B48
:0102AB00064C
:0102AC000D44
:0102AD000050
:0102AE000F40
:0102AF000A44
:0102B000024B
:0102B1000745
:0102B2000942
:0102B3000A40
:0102B4000A3F
:0102B5000B3D
:0102B6000C3B
:0102B7000046
:0102B800083D
:0102B900053F
:0102BA00083B
:0102BB00043E
:0102BC000A37
:0102BD000D33
:0102BE000D32
:0102BF000E30
:0102C000013C
:0102C1000933
:0102C2000932
:0102C3000337
:0102C4000930
:0102C5000F29
:0102C6000730
:0102C7000531
:0102C8000B2A
:0102C9000E26
:0102CA000033
:0102CB00052D
:0102CC000130
:0102CD000729
:0102CE000B24
:0102CF00022C
:0102D0000E1F
:0102D1000527
:0102D2000B20
:0102D3000426
:0102D4000524
:0102D5000226
:0102D6000126
:0102D7000521
:0102D8000421
:0102D9000420
:0102DA00081B
:0102DB00071B
:0102DC00061B
:0102DD000B15
:0102DE000B14
:0102DF000B13
:0102E000021B
:0102E1000616
:0102E2000C0F
:0102E3000C0E
:0102E4000A0F
:0102E5000E0A
:0102E6000E09
:0102E7000115
:0102E8000D08
:0102E900080C
:0102EA000B08
:0102EB000C06
:0102EC00020F
:0102ED00050B
:0102EE000B04
:0102EF000C02
:0102F000000D
:0102F1000FFD
:0102F2000FFC
:0102F3000901
:0102F4000603
:0102F5000CFC
:0102F6000403
:0102F7000600
:0102F8000BFA
:0102F9000BF9
:0102FA000FF4
:0102FB000002
:0102FC0005FC
:0102FD0009F7
:0102FE0003FC
:0102FF000EF0
:0103000001FB
:0103010007F4
:0103020009F1
:0103030001F8
:0103040007F1
:0103050006F1
:0103060007EF
:0103070004F1
:0103080007ED
:010309000BE8
:01030A0008EA
:01030B000BE6
:01030C000CE4
:01030D0007E8
:01030E0005E9
:01030F0003EA
:0103100009E3
:0103110004E7
:010312000EDC
:0103130001E8
:010314000ADE
:0103150004E3
:0103160009DD
:0103170005E0
:0103180004E0
:0103190001E2
:01031A0008DA
:01031B0005DC
:01031C0004DC
:01031D000FD0
:01031E0005D9
:01031F0000DD
:010320000ECE
:0103210009D2
:0103220000DA
:010323000DCC
:010324000FC9
:0103250001D6
:0103260001D5
:010327000BCA
:010328000CC8
:0103290002D1
:01032A000AC8
:01032B0000D1
:01032C0002CE
:01032D000EC1
:01032E0001CD
:01032F0009C4
:0103300003C9
:010331000DBE
:0103320006C4
:010333000ABF
:0103340009BF
:0103350000C7
:010336000EB8
:0103370000C5
:0103380006BE
:010339000DB6
:01033A0005BD
:01033B000CB5
:01033C0000C0
:01033D0002BD
:01033E000FAF
:01033F0006B7
:0103400007B5
:0103410001BA
:0103420004B6
:010343000DAC
:010344000EAA
:0103450006B1
:0103460003B3
:0103470007AE
:0103480000B4
:010349000EA5
:01034A0002B0
:01034B000CA5
:01034C000BA5
:01034D0001AE
:01034E000CA2
:01034F000E9F
:0103500007A5
:0103510008A3
:0103520000AA
:0103530002A7
:010354000D9B
:0103550003A4
:0103560005A1
:0103570003A2
:010358000E96
:01035900099A
:01035A00049E
:01035B0000A1
:01035C000F91
:01035D00039C
:01035E000D91
:01035F000F8E
:010360000A92
:01036100019A
:010362000595
:010363000891
:010364000D8B
:010365000592
:010366000492
:010367000A8B
:010368000B89
:01036900098A
:01036A00078B
:01036B00078A
:01036C000C84
:01036D000986
:01036E00008E
:01036F000588
:010370000B81
:010371000487
:010372000585
:010373000F7A
:010374000781
:010375000087
:010376000D79
:010377000283
:010378000381
:010379000380
:01037A00067C
:01037B000081
:01037C00057B
:01037D000976
:01037E00017D
:01037F000F6E
:010380000874
:010381000279
:01038200007A
:010383000673
:01038400096F
:010385000E69
:010386000A6C
:010387000174
:01038800076D
:010389000370
:01038A000969
:01038B000E63
:01038C00066A
:01038D000867
:01038E000965
:01038F000E5F
:010390000C60
:010391000863
:010392000A60
:010393000564
:010394000068
:010395000067
:010396000C5A
:01039700095C
:010398000D57
:010399000F54
:01039A00045E
:01039B00025F
:01039C00015F
:01039D000659
:01039E000757
:01039F000B52
:0103A0000A52
:0103A1000853
:0103A2000D4D
:0103A3000158
:0103A4000850
:0103A5000B4C
:0103A6000155
:0103A7000055
:0103A8000054
:0103A900074C
:0103AA000D45
:0103AB000948
:0103AC00044C
:0103AD00034C
:0103AE000E40
:0103AF000E3F
:0103B0000A42
:0103B1000942
:0103B2000347
:0103B3000148
:0103B4000A3E
:0103B5000542
:0103B6000C3A
:0103B700063F
:0103B8000B39
:0103B9000340
:0103BA00083A
:0103BB000140
:0103BC00063A
:0103BD00013E
:0103BE000A34
:0103BF000835
:0103C0000636
:0103C1000C2F
:0103C2000337
:0103C3000336
:0103C4000533
:0103C5000433
:0103C600072F
:0103C700072E
:0103C8000F25
:0103C900072C
:0103CA000929
:0103CB000D24
:0103CC000E22
:0103CD000629
:0103CE000C22
:0103CF000D20
:0103D000002C
:0103D100002B
:0103D2000624
:0103D3000D1C
:0103D4000F19
:0103D5000522
:0103D6000A1C
:0103D700081D
:0103D800091B
:0103D900071C
:0103DA000C16
:0103DB00041D
:0103DC000818
:0103DD00031C
:0103DE00001E
:0103DF000914
:0103E0000A12
:0103E1000B10
:0103E2000A10
:0103E3000019
:0103E4000810
:0103E5000E09
:0103E6000C0A
:0103E7000E07
:0103E8000F05
:0103E9000A09
:0103EA000A08
:0103EB000B06
:0103EC000808
:0103ED000D02
:0103EE000509
:0103EF000C01
:0103F0000DFF
:0103F1000407
:0103F2000EFC
:0103F3000504
:0103F4000602
:0103F5000CFB
:0103F6000402
:0103F7000AFB
:0103F8000AFA
:0103F9000003
:0103FA0008FA
:0103FB000FF2
:0103FC0001FF
:0103FD000AF5
:0103FE0007F7
:0103FF0004F9
:010400000EED
:0104010008F2
:010402000CED
:0104030000F8
:010404000CEB
:0104050006F0
:0104060005F0
:0104070001F3
:0104080004EF
:0104090006EC
:01040A0001F0
:01040B0000F0
:01040C000CE3
:01040D0003EB
:01040E000FDE
:01040F000DDF
:010410000BE0
:0104110005E5
:010412000ADF
:0104130009DF
:0104140000E7
:0104150000E6
:0104160008DD
:0104170009DB
:0104180005DE
:010419000ED4
:01041A0006DB
:01041B000FD1
:01041C000DD2
:01041D0004DA
:01041E0008D5
:01041F000ECE
:010420000CCF
:0104210008D2
:0104220007D2
:0104230001D7
:010424000EC9
:0104250005D1
:010426000EC7
:0104270003D1
:010428000CC7
:0104290005CD
:01042A0007CA
:01042B000CC4
:01042C0002CD
:01042D0002CC
:01042E000AC3
:01042F0007C5
:0104300005C6
:0104310003C7
:010432000EBB
:0104330006C2
:0104340009BE
:0104350007BF
:0104360001C4
:0104370006BE
:0104380008BB
:0104390009B9
:01043A000AB7
:01043B000EB2
:01043C0008B7
:01043D000AB4
:01043E0009B4
:01043F0009B3
:010440000FAC
:0104410000BA
:0104420001B8
:0104430008B0
:010444000DAA
:0104450004B2
:0104460007AE
:010447000DA7
:010448000EA5
:0104490003AF
:01044A0005AC
:01044B000CA4
:01044C0005AA
:01044D0007A7
:01044E0000AD
:01044F0009A3
:010450000E9D
:010451000B9F
:010452000E9B
:0104530002A6
:0104540006A1
:0104550006A0
:0104560001A4
:01045700069E
:0104580003A0
:010459000999
:01045A00069B
:01045B000B95
:01045C000897
:01045D000F8F
:01045E00019C
:01045F00009C
:010460000E8D
:010461000D8D
:010462000198
:010463000D8B
:010464000592
:010465000C8A
:01046600098C
:010467000E86
:010468000390
:010469000C86
:01046A000091
:01046B00058B
:01046C00028D
:01046D000E80
:01046E00028B
:01046F000488
:010470000E7D
:010471000882
:010472000C7D
:010473000286
:010474000582
:010475000F77
:010476000B7A
:010477000381
:010478000380
:01047900077B
:01047A000B76
:01047B000B75
:01047C00047B
:01047D00047A
:01047E000776
:01047F000B71
:01048000007B
:010481000377
:010482000376
:010483000177
:010484000A6D
:010485000076
:010486000273
:010487000272
:010488000073
:010489000E64
:01048A000E63
:01048B00016F
:01048C000A65
:01048D000C62
:01048E000964
:01048F000666
:010490000566
:010491000C5E
:010492000E5B
:010493000068
:01049400085F
:010495000A5C
:010496000D58
:01049700065E
:010498000C57
:01049900065C
:01049A000A57
:01049B00015F
:01049C00015E
:01049D00035B
:01049E000F4E
:01049F000D4F
:0104A0000754
:0104A1000753
:0104A2000455
:0104A3000A4E
:0104A4000354
:0104A500094D
:0104A600074E
:0104A700084C
:0104A800084B
:0104A9000250
:0104AA00034E
:0104AB00064A
:0104AC000946
:0104AD000945
:0104AE00034A
:0104AF000349
:0104B0000A41
:0104B1000347
:0104B2000F3A
:0104B3000C3C
:0104B400083F
:0104B5000343
:0104B6000E37
:0104B700073D
:0104B8000043
:0104B900083A
:0104BA000140
:0104BB000B35
:0104BC000837
:0104BD000B33
:0104BE00033A
:0104BF000537
:0104C0000338
:0104C1000F2B
:0104C2000C2D
:0104C3000F29
:0104C4000A2D
:0104C5000135
:0104C6000A2B
:0104C700072D
:0104C8000F24
:0104C900062C
:0104CA00022F
:0104CB000828
:0104CC000E21
:0104CD000A24
:0104CE00032A
:0104CF00002C
:0104D0000625
:0104D1000E1C
:0104D2000029
:0104D3000226
:0104D4000D1A
:0104D5000A1C
:0104D6000025
:0104D700091B
:0104D8000E15
:0104D900081A
:0104DA000021
:0104DB00011F
:0104DC00051A
:0104DD000717
:0104DE000F0E
:0104DF000B11
:0104E0000516
:0104E1000713
:0104E2000F0A
:0104E3000810
:0104E4000E09
:0104E5000D09
:0104E6000213
:0104E7000B09
:0104E8000310
:0104E9000A08
:0104EA000C05
:0104EB000709
:0104EC000906
:0104ED00020C
:0104EE000FFE
:0104EF000FFD
:0104F0000209
:0104F1000703
:0104F2000EFB
:0104F3000503
:0104F4000FF8
:0104F5000AFC
:0104F60007FE
:0104F70008FC
:0104F8000DF6
:0104F90008FA
:0104FA0009F8
:0104FB0004FC
:0104FC0009F6
:0104FD000BF3
:0104FE000DF0
:0104FF0001FB
:010500000AF0
:010501000BEE
:0105020008F0
:0105030003F4
:0105040002F4
:0105050008ED
:0105060009EB
:0105070009EA
:010508000FE3
:010509000DE4
:01050A000BE5
:01050B000CE3
:01050C0007E7
:01050D0001EC
:01050E0001EB
:01050F000CDF
:010510000AE0
:0105110000E9
:0105120007E1
:0105130004E3
:0105140000E6
:0105150002E3
:0105160001E3
:0105170006DD
:0105180009D9
:0105190003DE
:01051A000BD5
:01051B000BD4
:01051C000CD2
:01051D0007D6
:01051E0006D6
:01051F0002D9
:0105200006D4
:010521000ACF
:010522000ACE
:0105230000D7
:0105240007CF
:010525000ACB
:0105260004D0
:010527000FC4
:0105280009C9
:010529000BC6
:01052A0004CC
:01052B000DC2
:01052C0005C9
:01052D0007C6
:01052E0000CC
:01052F000DBE
:010530000BBF
:0105310007C2
:0105320000C8
:0105330002C5
:010534000CBA
:010535000BBA
:010536000FB5
:0105370005BE
:010538000CB6
:0105390003BE
:01053A0009B7
:01053B000EB1
:01053C0001BD
:01053D0001BC
:01053E000EAE
:01053F0009B2
:0105400001B9
:0105410007B2
:010542000BAD
:010543000FA8
:0105440003B3
:0105450008AD
:0105460000B4
:010547000CA7
:010548000EA4
:0105490008A9
:01054A000BA5
:01054B000BA4
:01054C0008A6
:01054D0007A6
:01054E000AA2
:01054F0003A8
:0105500006A4
:0105510006A3
:0105520007A1
:010553000D9A
:010554000A9C
:0105550004A1
:010556000E96
:010557000D96
:01055800069C
:010559000C95
:01055A00059B
:01055B000699
:01055C000599
:01055D000697
:01055E000F8D
:01055F000794
:010560000298
:010561000792
:010562000D8B
:01056300098E
:010564000393
:010565000194
:010566000A8A
:01056700058E
:010568000989
:010569000E83
:01056A000C84
:01056B000986
:01056C000F7F
:01056D000687
:01056E000488
:01056F000487
:010570000D7D
:010571000980
:010572000F79
:010573000A7D
:010574000383
:010575000283
:010576000282
:010577000B78
:010578000979
:01057900057C
:01057A000977
:01057B00007F
:01057C00037B
:01057D000F6E
:01057E000C70
:01057F000873
:010580000C6E
:010581000475
:010582000B6D
:010583000D6A
:010584000670
:010585000174
:010586000B69
:010587000073
:010588000B67
:010589000B66
:01058A000A66
:01058B000768
:01058C000E60
:01058D000C61
:01058E000E5E
:01058F000269
:010590000664
:010591000663
:010592000167
:010593000562
:010594000066
:010595000065
:010596000460
:010597000A59
:010598000161
:010599000859
:01059A000D53
:01059B00015E
:01059C00025C
:01059D000F4E
:01059E000854
:01059F000E4D
:0105A0000F4B
:0105A1000C4D
:0105A2000553
:0105A3000A4D
:0105A4000C4A
:0105A5000B4A
:0105A600084C
:0105A7000350
:0105A8000E44
:0105A9000A47
:0105AA000848
:0105AB000946
:0105AC000F3F
:0105AD000C41
:0105AE00014B
:0105AF00004B
:0105B0000B3F
:0105B1000643
:0105B2000147
:0105B3000F38
:0105B4000343
:0105B5000045
:0105B600083C
:0105B7000F34
:0105B800083A
:0105B900053C
:0105BA000B35
:0105BB000C33
:0105BC000D31
:0105BD00013C
:0105BE000C30
:0105BF000338
:0105C0000832
:0105C1000237
:0105C2000335
:0105C3000136
:0105C4000135
:0105C500062F
:0105C600072D
:0105C700072C
:0105C8000D25
:0105C9000E23
:0105CA000F21
:0105CB00052A
:0105CC000628
:0105CD000924
:0105CE000329
:0105CF000922
:0105D0000426
:0105D1000722
:0105D2000B1D
:0105D3000522
:0105D4000D19
:0105D500091C
:0105D6000F15
:0105D700081B
:0105D8000A18
:0105D9000C15
:0105DA00061A
:0105DB00001F
:0105DC00011D
:0105DD00001D
:0105DE000616
:0105DF000B10
:0105E0000614
:0105E1000019
:0105E2000216
:0105E3000314
:0105E4000D09
:0105E500080D
:0105E6000D07
:0105E700050E
:0105E800080A
:0105E9000110
:0105EA000808
:0105EB000609
:0105EC000608
:0105ED00000D
:0105EE000FFD
:0105EF000DFE
:0105F0000307
:0105F1000BFE
:0105F2000008
:0105F3000BFC
:0105F40008FE
:0105F5000104
:0105F6000004
:0105F7000102
:0105F8000DF5
:0105F9000100
:0105FA0006FA
:0105FB0009F6
:0105FC0004FA
:0105FD0003FA
:0105FE0002FA
:0105FF000CEF
:010600000CED
:010601000FE9
:0106020001F6
:010603000DE9
:0106040000F5
:0106050006EE
:010606000BE8
:010607000CE6
:0106080006EB
:0106090004EC
:01060A0005EA
:01060B0004EA
:01060C000FDE
:01060D0003E9
:01060E000DDE
:01060F000BDF
:0106100009E0
:0106110006E2
:010612000FD8
:0106130001E5
:010614000BDA
:010615000ADA
:010616000DD6
:0106170001E1
:0106180005DC
:0106190008D8
:01061A0006D9
:01061B0001DD
:01061C0004D9
:01061D0001DB
:01061E0005D6
:01061F000FCB
:010620000ECB
:0106210002D6
:0106220009CE
:0106230004D2
:0106240001D4
:0106250000D4
:0106260001D2
:0106270003CF
:0106280006CB
:010629000AC6
:01062A000FC0
:01062B0006C8
:01062C000EBF
:01062D0007C5
:01062E0003C8
:01062F0001C9
:0106300003C6
:0106310008C0
:0106320002C5
:0106330002C4
:0106340008BD
:0106350005BF
:010636000BB8
:010637000CB6
:0106380007BA
:0106390000C0
:01063A0006B9
:01063B000DB1
:01063C0005B8
:01063D0000BC
:01063E0001BA
:01063F0009B1
:010640000AAF
:0106410007B1
:0106420002B5
:010643000DA9
:010644000AAB
:010645000DA7
:0106460007AC
:010647000CA6
:010648000EA3
:0106490000B0
:01064A0005AA
:01064B0001AD
:01064C0006A7
:01064D0007A5
:01064E0009A2
:01064F000D9D
:0106500009A0
:010651000F99
:0106520003A4
:01065300099D
:0106540005A0
:010655000B99
:010656000E95
:01065700039F
:010658000E93
:01065900049C
:01065A000897
:01065B000F8F
:01065C000E8F
:01065D000A92
:01065E000695
:01065F000991
:010660000693
:010661000395
:010662000493
:010663000096
:010664000A8B
:01066500098B
:010666000291
:010667000A88
:01066800068B
:010669000D83
:01066A00048B
:01066B00028C
:01066C000A83
:01066D000587
:01066E000784
:01066F000882
:010670000C7D
:010671000A7E
:010672000A7D
:010673000086
:010674000580
:010675000D77
:010676000182
:01067700067C
:01067800037E
:01067900017F
:01067A00047B
:01067B000579
:01067C000B72
:01067D000D6F
:01067E000279
:01067F000179
:010680000376
:010681000E6A
:010682000A6D
:010683000076
:01068400066F
:010685000470
:010686000370
:010687000B67
:01068800036E
:01068900036D
:01068A00056A
:01068B00006E
:01068C000C61
:01068D000369
:01068E000C5F
:01068F00006A
:010690000861
:010691000D5B
:010692000760
:010693000F57
:010694000F56
:010695000F55
:01069600095A
:01069700055D
:010698000D54
:010699000B55
:01069A000758
:01069B000C52
:01069C00025B
:01069D000359
:01069E000A51
:01069F00005A
:0106A0000E4B
:0106A1000F49
:0106A2000C4B
:0106A3000056
:0106A4000550
:0106A500054F
:0106A6000A49
:0106A7000F43
:0106A8000E43
:0106A900024E
:0106AA00044B
:0106AB00004E
:0106AC00014C
:0106AD00014B
:0106AE000B40
:0106AF000941
:0106B0000841
:0106B1000147
:0106B2000146
:0106B3000145
:0106B4000E37
:0106B5000341
:0106B6000B38
:0106B7000240
:0106B800023F
:0106B9000937
:0106BA00003F
:0106BB000539
:0106BC00023B
:0106BD000537
:0106BE000734
:0106BF000733
:0106C0000F2A
:0106C1000B2D
:0106C200092E
:0106C3000432
:0106C400082D
:0106C5000331
:0106C6000F24
:0106C7000B27
:0106C8000130
:0106C9000030
:0106CA00042B
:0106CB000925
:0106CC000D20
:0106CD000B21
:0106CE000229
:0106CF000F1B
:0106D0000D1C
:0106D1000B1D
:0106D2000621
:0106D3000B1B
:0106D400071E
:0106D500081C
:0106D6000C17
:0106D7000F13
:0106D8000F12
:0106D9000A16
:0106DA000E11
:0106DB000915
:0106DC000815
:0106DD000913
:0106DE000B10
:0106DF000A10
:0106E0000712
:0106E1000D0B
:0106E2000D0A
:0106E3000313
:0106E4000F06
:0106E5000F05
:0106E6000013
:0106E700030F
:0106E800050C
:0106E900040C
:0106EA00010E
:0106EB000806
:0106EC000A03
:0106ED000606
:0106EE000902
:0106EF000307
:0106F0000306
:0106F10009FF
:0106F2000304
:0106F3000006
:0106F4000005
:0106F5000301
:0106F60008FB
:0106F7000DF5
:0106F80003FE
:0106F9000AF6
:0106FA0000FF
:0106FB0006F8
:0106FC000BF2
:0106FD000FED
:0106FE0003F8
:0106FF0005F5
:0107000006F2
:0107010006F1
:0107020006F0
:0107030004F1
:0107040002F2
:0107050000F3
:010706000EE4
:010707000CE5
:010708000BE5
:010709000CE3
:01070A000EE0
:01070B0003EA
:01070C000BE1
:01070D0006E5
:01070E0007E3
:01070F000DDC
:0107100009DF
:010711000DDA
:0107120009DD
:010713000ED7
:010714000ED6
:0107150009DA
:0107160001E1
:0107170007DA
:010718000CD4
:0107190002DD
:01071A000BD3
:01071B0006D7
:01071C0007D5
:01071D000FCC
:01071E000FCB
:01071F000ACF
:0107200000D8
:0107210003D4
:0107220006D0
:010723000BCA
:0107240002D2
:010725000FC4
:0107260004CE
:0107270002CF
:010728000BC5
:0107290002CD
:01072A000AC4
:01072B0004C9
:01072C0003C9
:01072D0009C2
:01072E0008C2
:01072F0004C5
:010730000FB9
:010731000BBC
:010732000BBB
:0107330002C3
:0107340002C2
:010735000FB4
:010736000CB6
:010737000AB7
:010738000EB2
:010739000AB5
:01073A0001BD
:01073B0007B6
:01073C000FAD
:01073D000BB0
:01073E000FAB
:01073F000FAA
:010740000EAA
:010741000FA8
:0107420005B1
:0107430005B0
:0107440002B2
:010745000FA4
:0107460000B2
:0107470009A8
:010748000EA2
:0107490002AD
:01074A000AA4
:01074B0008A5
:01074C0002AA
:01074D000BA0
:01074E0007A3
:01074F000B9E
:010750000A9E
:01075100089F
:010752000B9B
:01075300069F
:010754000D97
:01075500059E
:0107560002A0
:010757000A97
:010758000F91
:010759000897
:01075A000896
:01075B000598
:01075C00029A
:01075D000596
:01075E000397
:01075F000099
:010760000197
:010761000B8C
:010762000492
:010763000F86
:010764000391
:01076500058E
:010766000989
:01076700048D
:010768000D83
:010769000887
:01076A000B83
:01076B000B82
:01076C000E7E
:01076D000883
:01076E000189
:01076F000C7D
:010770000088
:010771000285
:01077200097D
:01077300097C
:01077400097B
:010775000F74
:010776000082
:01077700027F
:010778000C74
:01077900037C
:01077A000D71
:01077B00007D
:01077C000379
:01077D000C6F
:01077E000179
:01077F000871
:010780000870
:010781000770
:010782000B6B
:010783000B6A
:010784000D67
:01078500086B
:010786000270
:01078700026F
:010788000F61
:010789000F60
:01078A000965
:01078B000469
:01078C000666
:01078D000863
:01078E000E5C
:01078F000168
:010790000761
:01079100085F
:010792000A5C
:010793000461
:010794000E56
:010795000F54
:010796000F53
:01079700035E
:01079800055B
:010799000A55
:01079A000B53
:01079B000E4F
:01079C000C50
:01079D000C4F
:01079E000654
:01079F000059
:0107A0000355
:0107A1000750
:0107A2000254
:0107A3000D48
:0107A4000054
:0107A5000251
:0107A6000C46
:0107A700054C
:0107A800054B
:0107A900044B
:0107AA000A44
:0107AB00004D
:0107AC000D3F
:0107AD000942
:0107AE000D3D
:0107AF000148
:0107B0000E3A
:0107B1000B3C
:0107B2000046
:0107B300073E
:0107B400073D
:0107B5000A39
:0107B600073B
:0107B700073A
:0107B800033D
:0107B900043B
:0107BA00013D
:0107BB00033A
:0107BC000438
:0107BD000D2E
:0107BE000535
:0107BF000534
:0107C0000830
:0107C1000532
:0107C2000531
:0107C3000233
:0107C4000430
:0107C500042F
:0107C6000D25
:0107C700062B
:0107C8000828
:0107C9000E21
:0107CA00012D
:0107CB000825
:0107CC000F1D
:0107CD000E1D
:0107CE000F1B
:0107CF000B1E
:0107D0000B1D
:0107D100091E
:0107D2000F17
:0107D300061F
:0107D400071D
:0107D5000D16
:0107D6000121
:0107D7000D14
:0107D8000A16
:0107D900031C
:0107DA00001E
:0107DB000D10
:0107DC00021A
:0107DD000A11
:0107DE000E0C
:0107DF000910
:0107E0000513
:0107E1000C0B
:0107E200080E
:0107E3000213
:0107E400060E
:0107E5000C07
:0107E6000111
:0107E7000D04
:0107E8000C04
:0107E9000609
:0107EA000806
:0107EB000B02
:0107EC000A02
:0107ED000EFD
:0107EE000406
:0107EF000405
:0107F0000BFD
:0107F1000205
:0107F2000303
:0107F3000BFA
:0107F4000301
:0107F50005FE
:0107F6000EF4
:0107F70008F9
:0107F8000DF3
:0107F90009F6
:0107FA0006F8
:0107FB000FEE
:0107FC000FED
:0107FD0002F9
:0107FE0002F8
:0107FF000BEE
:00000001ff
